:100000000C9425030C944D030C944D030C944D0358
:100010000C944D030C944D030C944D030C944D0320
:100020000C944D030C944D030C94540D0C94C30D7F
:100030000C944D030C944D030C944D030C944D0300
:100040000C944D030C944D030C944D030C944D03F0
:100050000C944D030C944D030C944D030C94F50F2C
:100060000C944D030C944D030C944D030C944D03D0
:100070000C944D030C944D030C944D030C944D03C0
:100080000C944D030C944D030C944D030C944D03B0
:100090000C944D030C944D030C944D030C944D03A0
:1000A0000C944D030C944D030C944D03076342369E
:1000B000B79BD8A71A39685618AEBAAB558C1D3CF9
:1000C000B7CC5763BD6DEDFD753EF6177231BF00BD
:1000D0000000803F08000000BE922449123EABAAF7
:1000E000AA2ABECDCCCC4C3E00000080BEABAAAA52
:1000F000AA3E00000000BF000000803F000000009A
:1001000000084178D3BB4387D1133D190E3CC3BDD2
:100110004282AD2B3E68EC8276BED98FE1A93E4C7F
:1001200080EFFFBE01C4FF7F3F00000000004E4192
:100130004E494E495459494E46CDCCCC3D0AD72361
:100140003C17B7D13877CC2B329595E6241FB14FA9
:100150000A000020410000C84200401C4620BCBEEE
:100160004CCA1B0E5AAEC59D7400407A10F35A005B
:10017000A0724E18090010A5D4E80000E8764817D0
:100180000000E40B54020000CA9A3B000000E1F5B5
:1001900005000080969800000040420F000000A07B
:1001A0008601000000102700000000E803000000A6
:1001B000006400000000000A0000000000010000D0
:1001C0000000002C76D888DC674F0823DFC1DFAE43
:1001D00059E1B1B796E5E3E453C63AE6519976960C
:1001E000E8E6C28426EB898C9B62ED407C6FFCEFD5
:1001F000BC9C9F40F2BAA56FA5F490055A2AF75C03
:10020000936B6CF9676DC11BFCE0E40D47FEF520B4
:10021000E6B500D0ED902E0300943577050080847C
:100220001E080000204E0A000000C80C3333333390
:100230000F986E12831141EF8D2114893BE65516FC
:10024000CFFEE6DB18D1844B381BF77C1D901DA434
:10025000BBE424203284725E228100C9F124ECA127
:10026000E53D271213FFFDFE1817070809FC1604C9
:10027000050612150102031214001011FFFDFE07FE
:1002800008090405060102030010112F0300033FB3
:100290000A3F163F1A0904121A251A28031E2121A3
:1002A0001E0A040A040E0460040404200804021E4A
:1002B000211E223F2039252221251A07043F172518
:1002C000191E25190139071A251A12251E1434047E
:1002D0000A111414110A04012D061E212D2E3E05AB
:1002E0003E3F251A1E21213F211E3F253F051E218D
:1002F0003D3F043F213F21211F3F043B3F203F0260
:1003000004023F3F02043F1E211E3F05021E312E04
:100310003F053A2619013F013F203F1F301F1F2094
:100320001C201F3B043B033C0339273F21020408E8
:10033000213F0201022020200102142C383F241802
:10034000182418243F1834283E0548543C3F0438EC
:100350003D403D3F043A3F3C043C04383C043818DF
:1003600024187C241818247C3C0428141F241C20E6
:100370003C1C201C1C2038203C3408344C503C349D
:100380002C043B213B213B04020604000104070A24
:100390000D11121416191C1D202124272A2D30336B
:1003A00036393C3F42434447494C4F5356595C5FB2
:1003B000616366696C6E7173787C7F8285888A8DD3
:1003C0009093989B9EA0A2A5A7AAADAFB2B5B7BACD
:1003D000BDBFC2C5C6C8CBCCD1D4D7DADDDFE1E31F
:1003E000E6E9EEF1F4F6F9FAFD0063616E27742098
:1003F000706F702C20737461636B20656D707479FD
:100400000063616E277420706F702C2073746163B9
:100410006B20656D707479006E6F206D656D006383
:10042000616E277420726573697A652074686174DF
:1004300020736D616C6C006E6F206D656D00636183
:100440006E277420726573697A6520746861742000
:10045000736D616C6C0000B00000A170E150964FAC
:1004600026900F1D070C009669004AE44A00484494
:100470004000806810000F99FB8F9DBDBBFB77D4B7
:10048000D4DF1F1A1AFE7F5D5DFF805A0000A0A412
:10049000AA0010BA3400FF5953F3FF9B9B9EFFB98B
:1004A000B996FF9595D19FF4940FFC295F91FF18A1
:1004B00038F8FF9294FFFF95D5F7BFB5DDD7F18FE0
:1004C00081F1F788C8F779C6467909FD9B0901963D
:1004D000F8008281828050716200775656007676ED
:1004E0003700A2B7730107720600782750007334F3
:1004F0007400775176007F55F7004771100032473E
:1005000072007364730015A2750061679400009F08
:100510006060F4F2F6F2080B000202020100090426
:100520000000010202000005240010010524010161
:1005300001042402060524060001070581031000BA
:100540004009040100020A00000007050202400001
:1005500000070583024000000403090412010002A1
:10056000EF02014041233680000101020301417284
:100570006475696E6F204C4C430041726475626F04
:100580007900F0F89C8E8783878E9CF8F00000FE3F
:10059000FF0303030303070EFCF80000FEFF030341
:1005A000030303070EFCF80000FFFF00000000003B
:1005B0000000FFFF0000FEFF8383838383C7EE7C80
:1005C000380000F8FC0E07030303070EFCF80000D8
:1005D0003F7FE0C08080C0E07F3FFFFF010101015D
:1005E000010101FFFF0000FFFF0C0C0C0C1C3E770B
:1005F000E3C100007FFFC0C0C0C0C0E0703F1F006B
:10060000001F3F70E0C0C0C0E0703F1F00007FFFD0
:10061000C1C1C1C1C1E3773E1C00001F3F70E0C0F3
:10062000C0C0E0703F1F000000000001FFFF01009C
:100630000000D5F08D14A1C881CFD9F1AF200003FF
:10064000057C020505630200721011241FBECFEF66
:10065000DAE0DEBFCDBF11E0A0E0B1E0E8E6F8E40B
:1006600002C005900D92A838B107D9F727E0A8E895
:10067000B1E001C01D92A93CB207E1F713E0C5E269
:10068000D3E004C02197FE010E942622C432D10784
:10069000C9F70E94DB100C9432240C9400008131C5
:1006A00009F45EC038F5853009F44EC088F4823014
:1006B00009F471C030F4882309F46AC08130F1F183
:1006C00008958330F1F18430D9F781E591E0089500
:1006D000883009F43FC038F48630C9F1873081F79B
:1006E00087E591E008958930C1F1803149F78DE5C2
:1006F00091E008958731E9F188F48431B9F138F453
:10070000823189F18331E1F681E691E00895853106
:1007100039F18631A9F688E691E008958C3F79F1A8
:1007200038F4883149F1893159F68EE691E008951F
:100730008E3F59F138F185E691E008958BE491E020
:1007400008958FE491E0089583E591E0089585E5AB
:1007500091E0089589E591E008958BE591E0089591
:1007600083E791E008958FE591E0089583E691E0B5
:1007700008958AE691E008958CE691E0089580E777
:1007800091E0089582E791E0089585E791E008956A
:1007900089E491E008958DE491E008959091BE0779
:1007A000982329F49091BD07982381E009F480E013
:1007B0000895CF9380E20E94CE03882339F0809180
:1007C0006B03882319F0815080936B0380E40E94AF
:1007D000CE03882381F020916B0380916703909171
:1007E0006803899FC00111240197281719061CF47A
:1007F0002F5F20936B0380E80E94CE03882349F08B
:1008000080916B0390916703891718F0891B80937F
:100810006B0380E10E94CE03882399F080916B03E3
:1008200090916703209168032150330B929FA001A0
:10083000939F500D1124841715061CF4890F809383
:100840006B0388E00E94CE03882339F1E0916B03AB
:100850008091690390916A03E80FF92FF11D84914B
:10086000C0918C038E3FC1F180F48D3F41F10E9415
:100870004F0321E02C0F20938C03FC018081EC2F8F
:10088000F0E0EB59FC4F878308C081E080938D0333
:10089000EC2FF0E0EB59FC4F178284E00E94CE036E
:1008A000882359F0E0918C03EE2339F0E150E09376
:1008B0008C03F0E0EB59FC4F1782CF910895CC23C5
:1008C00061F3EFEFEC0FE0938C03E3CFC150EC2F1B
:1008D000F0E0EB59FC4F1782C111F8CF10928C0356
:1008E000DCCFE3EAF3E0A0E0B8E000800EBC8111C9
:1008F000012C1197A0FDFDCF0192B9F70DB4089519
:1009000080E00C94710480E0E3EAF3E081118FEF62
:10091000002481938193819381930394D1F7089567
:100920008FB7F89440911103509112036091130313
:10093000709114038FBF8091C007942F981B8091F2
:10094000C107882331F09093C2071092C10780E05D
:1009500008952091BF07921740F49F5F9217A0F46B
:1009600091E093BF889513BE089581E08093C107FD
:100970004093C0078091BB079091BC07019690936C
:10098000BC078093BB0781E00895FC0180910402BD
:10099000882311F13FB7F89482E08093E900209119
:1009A000F200822F90E01816190614F481E090E00E
:1009B000882339F0289844E6409303024091F100DF
:1009C0004083222339F02091F200211103C02BE64D
:1009D0002093E8003FBF08958FEF9FEF08952FB752
:1009E000F89483E08093E9009091E800892F807269
:1009F00095FF04C09091F20080E4891B2FBF0895F9
:100A00008091FB0181110DC082E08093F70184E0A9
:100A10008093F8011092FA011092F90181E080931D
:100A2000FB0187EF91E00895089540918F01509167
:100A3000900120918D0130918E0142175307B4F43B
:100A40009091E8009570E1F39091E80092FD19C053
:100A50008093F10080918F019091900101968F73A6
:100A60009927892B19F48EEF8093E80080918F01EC
:100A70009091900101969093900180938F0181E075
:100A8000089580E00895DF92EF92FF920F931F93F5
:100A9000CF93DF93D82E8A01EB017B01E40EF51E84
:100AA000CE15DF0559F0D7FE12C0FE0184910E94D9
:100AB000150521968111F4CF0FEF1FEFC801DF91CB
:100AC000CF911F910F91FF90EF90DF900895888153
:100AD000EECF0F931F93CF93DF931F92CDB7DEB767
:100AE00082E0898342E450E066E175E080E80E949C
:100AF00043050E940005DC0112960D911C91011521
:100B0000110589F0D801ED91FC910280F381E02D6F
:100B1000BE016F5F7F4FC801099597FD04C0F801C2
:100B200000851185ECCF89810F90DF91CF911F91C6
:100B30000F910895615030F02091F100FC01208365
:100B40000196F8CF289884E6809303020895DC018B
:100B5000ED91FC910190F081E02D0994AF92BF924C
:100B6000CF92DF92EF92FF920F931F93CF93DF9379
:100B70006C017B018B01040F151FEB015E01AE18A8
:100B8000BF08C017D10759F06991D601ED91FC91CA
:100B90000190F081E02DC6010995892B79F7C501F7
:100BA000DF91CF911F910F91FF90EF90DF90CF9049
:100BB000BF90AF900895CF93DF931F92CDB7DEB76C
:100BC0006983DC01ED91FC910280F381E02D41E02D
:100BD00050E0BE016F5F7F4F09950F90DF91CF917D
:100BE000089583E08093E9008091F200882319F052
:100BF0008AE38093E80008950E94EF0490E008954E
:100C0000CF93DF931F92CDB7DEB7FC018485958526
:100C100097FD08C02FEF3FEF358724870F90DF91B6
:100C2000CF910895CE0101960E94C504019719F451
:100C3000898190E0F3CF8FEF9FEFF0CF0F931F9359
:100C4000CF93DF931F92CDB7DEB78C01FC01848573
:100C5000958597FF0BC0CE0101960E94C5040197B0
:100C600071F4898190E0F80195878487F801848583
:100C700095850F90DF91CF911F910F9108958FEF80
:100C80009FEFF1CFFC018485958597FD0BC09FB741
:100C9000F89482E08093E9008091F2009FBF90E099
:100CA000019608959FB7F89482E08093E9008091BF
:100CB000F2009FBF90E008953FB7F89480918901BA
:100CC00090918A01A0918B01B0918C0126B5A89BCF
:100CD00005C02F3F19F00196A11DB11D3FBFBA2FCE
:100CE000A92F982F8827BC01CD01620F711D811D8E
:100CF000911D42E0660F771F881F991F4A95D1F713
:100D000008958F929F92AF92BF92CF92DF92EF920F
:100D1000FF926B017C010E945C064B015C01C114D7
:100D2000D104E104F104B9F00E945C066819790964
:100D30008A099B09683E73408105910580F321E093
:100D4000C21AD108E108F10888EE880E83E0981EE7
:100D5000A11CB11CE4CFFF90EF90DF90CF90BF902B
:100D6000AF909F908F9008958F929F92AF92BF9275
:100D7000CF92DF92EF92FF920F931F93CF93DF9367
:100D80006C017B018A0180910B01882309F45CC00E
:100D900080910402882309F457C08091930180FF59
:100DA00005C08091E00082608093E000E801B12CF2
:100DB0008AEFA82E93E0892E2AE3922E209711F431
:100DC000BB20D9F10E94EF0481110AC0AA94AA2085
:100DD000D9F161E070E080E090E00E948106EECF02
:100DE0008C171D0611F00CF08C2F9FB7F894809291
:100DF000E9002091E80025FD02C09FBFDFCF282F2A
:100E000030E0C21BD30BF701815020F04191409399
:100E1000F100FACFE20EF31EBB2021F09092E80021
:100E2000B12CEBCF8091E80085FDE7CF9092E800F0
:100E3000BB24B394209709F3F3CF5D9884E68093A5
:100E40009201101611063CF081E090E0F6019383C8
:100E5000828310E000E0C801DF91CF911F910F91D4
:100E6000FF90EF90DF90CF90BF90AF909F908F90CA
:100E700008956F927F928F929F92AF92BF92CF927E
:100E8000DF92EF92FF920F931F93CF93DF934C016A
:100E90007B01C22F102F98E0A92EB12C642E6694EE
:100EA00066946694712CCA0187709927892B79F50D
:100EB000D40117962D913C91C7019927B9010E9441
:100EC0001222269DF001279DF00D369DF00D112474
:100ED0008E0F9F1FD4011596ED91FC91E80FF91F1D
:100EE0002081111112C0C095C223C083DF91CF9120
:100EF0001F910F91FF90EF90DF90CF90BF90AF9038
:100F00009F908F907F906F900895C22BEECFD0E08E
:100F10004770C42ED12C83E0660C771C8A95E1F7CC
:100F20009E0101C0220F4A95EAF7012FA301B701E4
:100F3000C4010E943907A301485F5F4FC5018C19A6
:100F40009D0902C0D595C7958A95E2F7A7CF5F9214
:100F50006F927F928F929F92AF92BF92CF92DF92C9
:100F6000EF92FF920F931F93CF93DF93EC016A30C0
:100F7000F1F48D859E859C878B878C892F85388998
:100F8000820F932F911D988B8F8781E090E0DF91E6
:100F9000CF911F910F91FF90EF90DF90CF90BF9076
:100FA000AF909F908F907F906F905F900895AB84EB
:100FB000BC84693031F429E0A20EB11CBC86AB863A
:100FC000E4CF3DEFA3163FEFB3060CF45DC08F8175
:100FD0009885A816B9060CF057C0CF84D8888DEF35
:100FE000C8168FEFD8060CF44FC089859A85C816AD
:100FF000D9060CF049C0603208F46FE780EE860F26
:101000009FE9960F9A3118F49FEFC91AD90A8C30CC
:1010100011F08B3119F42FEFC21AD20A869534E001
:10102000839FC00111249C012A5A3B4F7901912CC6
:10103000812C162F1170F701E80DF91D5490111134
:101040002DC0352D3F70532E3501680C791C8C81D5
:10105000882361F001E089899A89892B09F000E0F1
:101060002FE0A601B301CE010E9439070989252D81
:10107000A601B301CE010E9439078FEF881A980AA2
:1010800094E089169104B9F68B8990E004962B853B
:101090003C85820F931F9C878B8777CF52948FE07C
:1010A0005822D2CF2D9A0895BC0190E080E00C9494
:1010B00081068FB18095807F669B88601C9B8460D1
:1010C0000895480F592F511D14161506D4F5803870
:1010D0009105BCF597FF02C090E080E041385105D2
:1010E00014F040E850E0481BFB0177FD379633E0F1
:1010F000F595E7953A95E1F7F695FE2FEE27F795EA
:10110000E795E80FF91FED55FC4F6770772781E0F1
:1011100090E001C0880F6A95EAF7382F213041F43A
:10112000415078F08191DF011197832B8C93F8CF98
:101130008095415030F09191DF01119798239C9355
:10114000F8CF089580389105B8F460347105A0F4A3
:1011500020E191E061FD94E060FD990F62FD9295C0
:10116000687F269FD0011124A80FAD55BC4F8C91EC
:1011700040FF03C0892B8C93089590958923FBCF62
:10118000DF92EF92FF920F931F93CF93DF937C0137
:10119000D22E8B01040F111DEB0177FF02C0D0E0AE
:1011A000C0E0C8010134110514F080E490E0C817D4
:1011B000D9073CF44D2DBE01C7010E94A20821961B
:1011C000F0CFDF91CF911F910F91FF90EF90DF90C3
:1011D0000895CF92DF92EF92FF920F93CF93DF9318
:1011E0006C017B01C42FD22F6034710520F4202FB5
:1011F000C6010E946108B7016D0F711D6150710930
:10120000603471052CF4202F4C2FC6010E94610818
:10121000202F4D2FB701C6010E94C008C6018C0FB8
:10122000911D202F4D2FB7010197DF91CF910F9185
:10123000FF90EF90DF90CF900C94C008CF92DF9298
:10124000EF92FF926B017C0120E030E04EEF52E420
:101250000E9485206FE71816F4F020E030E040E0AF
:1012600053ECC701B6010E94271B60E887FD13C03D
:1012700020E030E0A901C701B6010E94852020E0EE
:1012800030E040E05FE387FD0CC0C701B6010E947B
:101290000F1F0E94ED1F862FFF90EF90DF90CF90E1
:1012A0000895C701B6010E940E1FF3CF8F929F923F
:1012B000AF92BF92CF92DF92EF92FF92CF93DF93E4
:1012C000C5E0D2E0C884D984EA84FB84A7019601F2
:1012D0000E940E1F4B015C01A70196016C857D8564
:1012E0008E859F850E940E1F9B01AC01C501B40134
:1012F0000E947B1F9B01AC0160E070E080E89FE3EF
:101300000E940E1F20E030E04CE752E40E948D1B4B
:10131000DF91CF91FF90EF90DF90CF90BF90AF9093
:101320009F908F900C941E096F927F928F929F9244
:10133000AF92BF92CF92DF92EF92FF920F931F93E3
:10134000CF93DF934C017B01C22F102F98E0A92E81
:10135000B12C642E669466946694712CCA018770D1
:101360009927892B79F5D40117962D913C91C701C6
:101370009927B9010E941222269DF001279DF00DA8
:10138000369DF00D11248E0F9F1FD4011596ED91FF
:10139000FC91E80FF91F2081111112C0C095C223E2
:1013A000C083DF91CF911F910F91FF90EF90DF905D
:1013B000CF90BF90AF909F908F907F906F90089547
:1013C000C22BEECFD0E04770C42ED12C83E0660C48
:1013D000771C8A95E1F79E0101C0220F4A95EAF732
:1013E000012FA301B701C4010E949409A301485F22
:1013F0005F4FC5018C199D0902C0D595C7958A9587
:10140000E2F7A7CF4F925F926F927F928F929F9257
:10141000AF92BF92CF92DF92EF92FF920F931F9302
:10142000CF93DF93EC016D3071F06A30F9F48D8564
:101430009E859C878B878C892F853889820F932F77
:10144000911D988B8F8781E090E0DF91CF911F9164
:101450000F91FF90EF90DF90CF90BF90AF909F9053
:101460008F907F906F905F904F900895EB84FC84F5
:10147000693031F448E0E40EF11CFC86EB86E3CFE2
:10148000603231F48B8990E00296E80EF91EF5CFB8
:10149000162F8F819885E816F9060CF04DC08F84C1
:1014A00098885BEF85165FEF95060CF445C089853B
:1014B0009A85881699060CF03FC080EE860F8F350E
:1014C00008F038C0862F90E09C0126593C4FF90166
:1014D000A490B12CA50145575D4F5A01FC01E55977
:1014E000FC4F5490F9012491521AD12CC12CC514EF
:1014F00018F5F501EC0DFD1D449037016C0C7D1CB9
:101500008C81882361F001E089899A89892B09F00F
:1015100000E02FEFA401B301CE010E9494090989D4
:10152000242DA401B301CE010E949409FFEFCF1A2C
:10153000DF0ADDCF8FE3C7CF612F70E0FB01E559F4
:10154000FC4F849166597C4FFB016491E82FE61BA8
:101550008B89E80FFF27FF1F8B859C85E80FF91FFC
:10156000FC87EB8770CF089590E080E00895FB0141
:1015700001900020E9F73197AF01461B570BDC01C2
:10158000ED91FC910280F381E02D09948F929F925E
:10159000AF92BF92EF92FF920F931F93CF93DF937F
:1015A000CDB7DEB7A1970FB6F894DEBF0FBECDBFA3
:1015B0007C01FA01CB0119A2223008F42AE08E0145
:1015C0000F5D1F4F822E912CB12CA12CBF01A501C4
:1015D00094010E94DD1EF901CA016A300CF5605DBC
:1015E000D8016E938D01232B242B252B79F790E0C6
:1015F00080E0109721F0BD01C7010E94B70AA196B3
:101600000FB6F894DEBF0FBECDBFDF91CF911F9113
:101610000F91FF90EF90BF90AF909F908F900895A3
:10162000695CDECFFF920F931F93CF93DF93C0E0EF
:10163000DAE0409168036091660370E08091650391
:1016400090E0209167032C1778F14D9F402D1124D5
:101650004F5F21E0CD9F800D911D11240E94C00895
:101660004C2F50E04F5F5F4F052E000C660B770B41
:101670002AE085E193E00E94C60A6FE285E193E0EB
:101680000E94A7054091670350E070E060E02AE007
:1016900085E193E00E94C60A68E771E085E193E086
:1016A0000E94B70ACF5FC5CFC0E0DAE04091670380
:1016B0006091660370E0809168038C1798F0CD9F6D
:1016C000600D711D11246034710554F44D9F402D3F
:1016D00011244F5F8091650321E090E00E94610832
:1016E000CF5FE4CF10E08AE0F82E60916803161710
:1016F00008F03DC01F9DE001112400E04091670308
:1017000080916603282F30E08091650390E00417F4
:1017100060F50F9D800D911D112402969093B107E5
:101720008093B0079093AF078093AE07CE01820FEE
:10173000931F02969093B3078093B207E02F149FF4
:10174000E00D11248091690390916A03E80FF92F4D
:10175000F11D84910E944F03009729F0BC0183EA98
:1017600097E00E94B70A0F5FC9CF1F5FBECF2091DD
:101770006B03822F0E940622CAE0E0916603F0E02C
:101780008C9FE00DF11D112460916703822F0E9450
:101790000622392F8091650390E000E02BE04BE0BA
:1017A000BF013C9F800D911D11240E94E9082091EA
:1017B0006B0360916803822F0E940622E09166030A
:1017C000F0E08C9FE00DF11D1124319760916703CB
:1017D000822F0E940622292F8091650390E02C9F82
:1017E000800D911D112401E02DE04DE0BF01019716
:1017F0000E94E908209166032850330B809165030D
:1018000090E002969093B1078093B0079093AF0752
:101810008093AE073093B3072093B2076CE673E072
:1018200083EA97E0DF91CF911F910F91FF900C9485
:10183000B70ACF92DF92EF92FF920F931F93CF934D
:101840006B017C01C42F10926B0344E050E06FE306
:1018500076E087E693E00E94061B10928D0380914C
:101860008C03882339F08150E82FF0E0EB59FC4FCE
:101870001782F7CF10928C030CE613E02C2F40E078
:10188000C701B6010E948B1980918C038F5F21E004
:10189000280FE82FF0E0EB59FC4F978191111BC006
:1018A00080938C0380918D03811117C00E94900456
:1018B0008823C1F38091BD078093BE070E94590819
:1018C0008093BD070E9483040E94D9030E94120BDB
:1018D0000E948004E7CF822FDACF8CE693E0CF918D
:1018E0001F910F91FF90EF90DF90CF900C94F91A19
:1018F000EC01FE016491662339F085E193E00E94DA
:10190000DB052196892BA9F768E771E085E193E073
:101910000E94B70AFFCF1F93CF93DF93EC01162FDE
:101920008EE394E0662359F070E0888199810E94EB
:10193000652399838883892B21F487E394E00E94AF
:10194000780C1A83DF91CF911F910895CF93FC01FA
:101950009381911104C081E094E00E94780CA081F1
:10196000B18191509383A90FB11DCC91992351F06E
:101970006281862F86958695891720F06695CF011E
:101980000E948B0C8C2FCF9108951F93CF93DF93E0
:10199000EC01162F6A818B81681304C0660FCE019B
:1019A0000E948B0C88819981EB8121E02E0F2B8383
:1019B000E80FF92FF11D1083DF91CF911F9108954A
:1019C0001F93CF93DF93EC01162F8FE194E06623F2
:1019D00071F084E0689FB0011124888199810E9490
:1019E000652399838883892B21F488E194E00E9400
:1019F000780C1A83DF91CF911F910895CF92DF92D7
:101A0000EF92FF92FC019381911104C08AEE93E062
:101A10000E94780CA081B1819150938384E0989FBB
:101A200090011124A20FB31FCD90DD90ED90FC909A
:101A3000992351F06281862F86958695891720F02B
:101A40006695CF010E94E00CC701B601FF90EF90B0
:101A5000DF90CF900895CF92DF92EF92FF92CF93D5
:101A6000DF93EC016A017B016A818B81681304C0FA
:101A7000660FCE010E94E00C288139819B8181E0B4
:101A8000890F8B8344E0949FC0011124820F931F20
:101A9000FC01C082D182E282F382DF91CF91FF907C
:101AA000EF90DF90CF9008951F920F920FB60F9294
:101AB00011248F939F938091E1009091E100937F97
:101AC0009093E10083FF0FC01092E90091E09093A2
:101AD000EB001092EC0092E39093ED001092040260
:101AE00098E09093F00082FF22C093E09093E90089
:101AF0009091F200992319F09AE39093E800909165
:101B00009201992341F0909192019150909392010A
:101B1000911101C05D9A90910302992341F0909137
:101B20000302915090930302911101C0289A84FFFF
:101B300018C08091E2008E7E81608093E2008091E7
:101B4000E1008F7E8093E100809193018E7E806121
:101B5000809393019F918F910F900FBE0F901F90D4
:101B6000189580FFF7CF8091E2008E7E8061809390
:101B7000E2008091E1008E7E8093E10080919301EC
:101B80008E7E8160E5CF1F920F920FB60F921124C7
:101B9000CF92DF92EF92FF920F931F932F933F9379
:101BA0004F935F936F937F938F939F93AF93BF9365
:101BB000EF93FF93CF93DF93CDB7DEB76C97DEBF84
:101BC000CDBF1092E9008091E80083FF25C068E056
:101BD000CE0145960E949A0582EF8093E8008D8998
:101BE00087FF39C09091E80090FFFCCF982F907646
:101BF00009F034C19E894F89588D2F89F88C911135
:101C000031C0803861F5809194018093F100109289
:101C1000F1008EEF8093E8006C960FB6F894DEBF6B
:101C20000FBECDBFDF91CF91FF91EF91BF91AF91EB
:101C30009F918F917F916F915F914F913F912F91E4
:101C40001F910F91FF90EF90DF90CF900F900FBEFC
:101C50000F901F9018959EEF9093E800C7CF1092B9
:101C6000F100D5CF913059F48111D3CF41305105D6
:101C700081F6809194018D7F80939401CACF933037
:101C800049F48111C6CF4130510519F68091940174
:101C90008260F2CF953041F48091E80080FFFCCF64
:101CA00020682093E300B5CF963009F0A9C00B8DD2
:101CB0001C8D22E01092E9001092900110928F0189
:101CC000F2122EC010928E0110928D010E946905B1
:101CD0001F8299E09983FA8291E09E8390EA988727
:101CE0009AEF998720918F0130919001275F3F4FA4
:101CF0003C832B838D831092E90010929001109207
:101D00008F0110938E0100938D0149E050E0BE01D8
:101D10006F5F7F4F80E00E9443050E94690579CF85
:101D200010938E0100938D010E940005DC01129634
:101D30000D911C910115110509F451C1D801ED91C6
:101D4000FC910480F581E02DBE016B5E7F4FC801E0
:101D50000995009709F03EC1F80100851185EACF89
:101D6000F3E0FF120EC08F89882309F440C082304F
:101D700061F440E867E08AE795E00E943F10811136
:101D800048CF81E28093EB0047CF813029F440E8CF
:101D90006BE08EE695E0F1CF833099F70E94000565
:101DA000DC011296ED90FC908E010F5F1F4F6801D1
:101DB000E114F10479F0D701ED91FC910680F781EF
:101DC000E02DB801C7010995080F111DF701E08446
:101DD000F184EECFD8011C92F60101900020E9F7C2
:101DE0003197BF016C197D0940E0C601C6CF68E597
:101DF00075E0FB01449150E080E80E94430509CF63
:101E0000973009F4BECF983021F481E08093F1003F
:101E100000CF993009F0FDCE837009F0B2CFE3E135
:101E2000F1E081E031E096E32191222371F080938B
:101E3000E9003093EB00DF0111972C912093EC0027
:101E40009093ED008F5F873079F78EE78093EA00FB
:101E50001092EA008F8980930402DBCE8B8D9C8DDB
:101E60001092E9001092900110928F0190938E01D0
:101E700080938D01898D811192C08E899D89913ABF
:101E800049F4813209F07DCF47E050E064E071E031
:101E900080E0B3CF913209F074CF833269F48F8937
:101EA000988DB0E0A0E08093000190930101A09391
:101EB0000201B0930301ADCE803269F48091E80055
:101EC00082FFFCCF67E084E091E00E949A058BEFEF
:101ED0008093E8009ECE823209F09BCE8F8980935A
:101EE0000B01EEEFFFE7859194918B3F9C4D51F1F3
:101EF000E0E0F8E08091040190910501A0910601D5
:101F0000B0910701803B9440A105B105F1F48091A7
:101F10000B0180FD1AC0EE3F8AE0F80789F587E7DC
:101F200097E791838083809160008093910188E19D
:101F30009BE00FB6F894A895809360000FBE909335
:101F4000600067CEEEEFFAE0D5CF808191818737D0
:101F5000974709F05ECEA8958091600088618093D4
:101F600060008091910180936000EE3F2AE0F207CB
:101F700089F08091FE0A9091FF0A9183808349CE77
:101F8000808191818737980751F29093FF0A80935F
:101F9000FE0AC5CF1092FF0A1092FE0A3ACE0E94A6
:101FA0000005DC0112960D911C910115110509F433
:101FB000E8CED801ED91FC910190F081E02DBE01B9
:101FC0006B5E7F4FC8010995811123CEF801008512
:101FD0001185EBCF181619060CF41BCED2CEF1E00A
:101FE000FF12BECE6CE575E004CF1F920F920FB6C4
:101FF0000F9211242F933F938F939F93AF93BF938F
:102000008091110390911203A0911303B0911403D6
:102010003091880123E0230F2D3758F50196A11D3B
:10202000B11D209388018093110390931203A09314
:102030001303B09314038091890190918A01A091B8
:102040008B01B0918C010196A11DB11D8093890176
:1020500090938A01A0938B01B0938C01BF91AF91B3
:102060009F918F913F912F910F900FBE0F901F90D6
:10207000189526E8230F0296A11DB11DD2CFEF922D
:10208000FF920F931F93CF93DF93F82E192FE62E15
:10209000042F81E0860F880F0E94150583E00E94BF
:1020A0001505CF2DD12FEC0EFD2EF11CCE15DF0521
:1020B000B9F007FF13C0FE0184910E941505182F87
:1020C00080E00E941505812321968111EFCFDF91D9
:1020D000CF911F910F91FF90EF9008958881EDCFE0
:1020E00081E0F5CFCF93DF93E5E1F3E01382128235
:1020F00088EE93E0A0E0B0E084839583A683B78365
:102100008DE191E0918380838FEF9FEF95878487A6
:10211000E8EBF7E01582168280E187831482138250
:10212000118687E491E091838083E3EAF7E01382EC
:1021300012828BE391E091838083A3EAB3E0B683BC
:10214000A58360E870E07087678340E450E05287C1
:10215000418787E0848B21E0238B16861586108AC1
:1021600017861486138681E090E0928B818B14820F
:10217000EEE8F3E013821282CFE2D1E0D183C08394
:10218000B683A583708767835287418735E0348B98
:10219000238B16861586108A178614861386928BD3
:1021A000818B1482E5E6F3E08CE08083818310A6C6
:1021B000DF91CF910895CF93DF93CDB7DEB7CC54A5
:1021C000D1090FB6F894DEBF0FBECDBF789484B5A9
:1021D000826084BD84B5816084BD85B5826085BD23
:1021E00085B5816085BD80916E00816080936E00B1
:1021F00010928100809181008260809381008091A3
:102200008100816080938100809180008160809353
:102210008000809191008260809391008091910074
:102220008160809391008091900081608093900004
:102230008091C10084608093C1008091C100826060
:102240008093C1008091C10081608093C100809122
:10225000C30081608093C3008091C000826080933E
:10226000C0008091C20081608093C20080917A009A
:10227000846080937A0080917A00826080937A00F3
:1022800080917A00816080937A0080917A008068E2
:1022900080937A001092040210929401109293019C
:1022A0008091D70081608093D70080EA8093D80026
:1022B00089B5806189BD89B5826089BD09B400FE98
:1022C000FDCF61E070E080E090E00E9481068091A7
:1022D000D8008F7C80618093D8008091E000807F5F
:1022E0008093E0008091E1008E7E8093E1008DE09C
:1022F0008093E200559A209A81EC80937C0085B10E
:10230000806F85B984B1877E84B984B1876E84B9C2
:102310005E9A5F988AB1806D8AB9769A6E9881B319
:10232000806F81BB899880B38D7080BB80E58CBD48
:1023300081E08DBD85E090E00E9454085F9A85E0C1
:1023400090E00E9454085E985C98E2E3F6E08FE328
:1023500096E024912EBD00000DB407FEFDCF31960E
:102360008E179F07B1F75C9A81E880936400809193
:1023700065008160809365000E9480040E94590876
:1023800087FF15C05C9885EA8EBD00000DB407FE7E
:10239000FDCF5C9A2E982F982D98809164008062D2
:1023A0008093640081E083BF889513BEFCCF0E94B8
:1023B000590882FF48C02D980E94590884788438B3
:1023C000E1F40E94520888EC90E00E9454082F9893
:1023D00082E090E00E94851E8F3F29F06FEF82E03F
:1023E00090E00E948D1E84EF91E00E9454082F9A85
:1023F0000E94590884788438D9F30E94590884715E
:102400008431E1F40E94520888EC90E00E94540864
:102410002E9882E090E00E94851E882329F060E0DB
:1024200082E090E00E948D1E84EF91E00E945408AB
:102430002E9A0E94590884718431D9F388EC90E077
:102440000E945408B4CF0E94520882E090E00E949B
:10245000851E882309F46DC03E9A3F9A81E090E082
:102460000E94851E8470582E81E090E00E94851E97
:1024700081FF0FC051102E9800EF1FEFA8E08A2EA9
:10248000912C0E94590886FF57C02E9A2F9A0E94BD
:10249000520882E390E00E9454080E94590881117A
:1024A000F8CF8FEF9FEF909322038093210340E0BA
:1024B00050E060E271EC4093050250930602609395
:1024C00007027093080280E090E0A0E2B1E48093FC
:1024D000090290930A02A0930B02B0930C0240935E
:1024E0000D0250930E0260930F02709310028093BE
:1024F000110290931202A0931302B093140272E09F
:10250000772E10926B0344E050E063E476E087E6B8
:1025100093E00E94061B10928D0380918C03882308
:1025200009F4B1C08150E82FF0E0EB59FC4F17825D
:10253000F6CF3E983F9892CF552029F004301105F0
:1025400011F42E9A2F9881E00E947104980117FFD0
:1025500004C022273327201B310B27703327C801E3
:1025600017FD0796F3E095958795FA95E1F717FF24
:1025700005C00197A401421B530B9A01AC0156956B
:10258000542F4427579547954D555C4FB0E0A0E038
:102590001401221A330A8F3F6FEF96070CF453C0D1
:1025A0005A01E4E9AE0EB11C6A0170E060E0FD0181
:1025B000EE57FA4F3F018F3F9807D9F0F301E60F2E
:1025C000F71F4490E42DF0E0022E02C0EE0FFF1F33
:1025D0000A94E2F72996FFAFEEAF2997F601F48946
:1025E0002C96FFAF2C9728964FAC28974F2AF601D0
:1025F000448A21153105D9F0F301E60FF71F449005
:10260000E42DF0E0022C02C0F595E7950A94E2F77C
:102610002996FFAFEEAF2997F501F0812C96FFAF19
:102620002C9728964FAC28974F2AF50140826F5F70
:102630007F4FFFEFAF1ABF0AEFEFCE1ADE0A683501
:10264000710509F0B8CF0196A85ABF4F40585F4FA7
:10265000A03BB10509F09FCF0E9480048FE090E07D
:102660000E9454080F5F1F4F0931110509F009CF6F
:10267000552011F02F9A2D9880E991E00E9454087E
:102680000E94520806CF10928C0365E971E08CE637
:1026900093E00E942B2480908D03811015C00E942E
:1026A00090048823C1F38091BD078093BE070E94E8
:1026B00059088093BD070E9483040E94D9030E9499
:1026C000120B0E948004E7CF6CE673E085E991E08D
:1026D0000E942B24912C9394E92DF0E0EB56FE4FB1
:1026E00080818111F8CF1C8282E090E00E9440221C
:1026F0009A8389837B82C12CD12C10E02FEFC914DF
:1027000008F01FC1AC2CB12CD501AB56BE4F9C912B
:102710009A3209F455C0ECF5953209F44BC04CF5EA
:102720000FEF992359F166246394610EE12FF0E0D5
:10273000EB54FE4FD08211E01D0DBE016F5B7F4F49
:10274000CD010E94A91924E0D29EF0011124EB5280
:10275000FE4F608371838283938323968EAD9FADFA
:10276000239785599140A816B90661F50D2DD12EF4
:10277000E4C09832E9F001EF9932A9F680E8800FC1
:10278000803730F5602FCE0101960E94C50C612E76
:10279000D4C09F3299F034F49B32C1F002E49D32F0
:1027A00069F3C1CF9E3541F00EEF983739F3BBCFB7
:1027B00000EFE4CF06E4E2CF05E4E0CF04E4DECFAF
:1027C00003E4DCCFCC24CA94C80ED0CF01E4D6CF2A
:1027D00080EC800F803408F086C0023421F480EC55
:1027E000820F803410F0213F09F400E460EC662E83
:1027F000600EA62CB12CEC81EE2321F289819A8106
:10280000E80FF92FF11D3197808190E8980F9037EC
:1028100008F454C0E0ECE80FE03408F0B3CFE73040
:10282000F8F4F0E0EA5EFB4E0C94262288192E1490
:102830002E14851985191D14851954E0E52E36E0EE
:102840003615F8F0F501E95DFB4E0C942622511483
:102850006C146C143F143F144E143F1442E0E42EE9
:1028600036E0361570F0F501E85CFB4E0C9426223C
:102870005114541454143F143F144E143F1433E0B5
:10288000F32EFE14D8F0EF107DCF853441F178F4AB
:10289000803478F026961FAE269710C024E0F22EE2
:1028A000F0CF95E0F92EEDCFB2E0FB2EEACF8634E3
:1028B00089F326964FAC2697411064CF5524539444
:1028C000510ECE0101960E94A60CE12FF0E0EB54D0
:1028D000FE4F8083152D8FCFA2E0FA2EEFCF2696E4
:1028E0008FAE26974FCF003F11F460EF4CCF013FE2
:1028F000E1F4EC8189819A81EE2309F402C2E80FA8
:10290000F92FF11D31978081803F09F4F9C4BB2470
:10291000B394B10ECE0101960E94A60CE12FF0E017
:10292000EB54FE4F80831B2DE4CF66246394610E2D
:10293000E12FF0E0EB54FE4F0083C394162D202FBF
:10294000DECEC12ED12C8C8196012B543E4F6901D5
:10295000882341F01F5FCE0101960E94A60CD6018C
:102960008C93EFCF8FEFF901808389819A810E9448
:10297000DC22882009F4C5CD9E012F5D3F4F2796AC
:102980003FAF2EAF27970E949004882309F432C4EA
:102990008091BD078093BE070E9459088093BD07B0
:1029A0000E94830480E80E94CE03882339F080913E
:1029B000F601882319F081508093F60180E10E948E
:1029C000CE03882329F08091F6018F5F8093F60172
:1029D00080E20E94CE0381111092F50180E40E94F2
:1029E000CE03882319F081E08093F50188E00E94EE
:1029F000CE038823E9F00091F60110E08091F50103
:102A0000882309F480C10B541E4FD8016C9170E0EB
:102A100090E080E00E942C1B40E00E94190C009185
:102A2000F60110E00B541E4F0E94F41FF801608362
:102A300084E00E94CE03882309F458C380E4E5EBC8
:102A4000F1E0DE01119601900D928A95E1F7E5E142
:102A5000CE2EE2E0DE2E10E002E0809005029090A3
:102A60000602A0900702B0900802A50194016091AF
:102A7000090270910A0280910B0290910C020E944F
:102A80000E1F2B013C01612F012E000C770B880BD0
:102A9000990B0E942E1B20E030E048E752E40E9490
:102AA0007B1F9B01AC01C301B2010E948D1BA501DC
:102AB00094010E940F1F4B015C0125961FAE2597C4
:102AC00088E090E00E94402223969FAF8EAF23972C
:102AD00024960FAF24979E012F5F3F4F7901D701B6
:102AE000ED917D01E03408F022C1F0E03896EE0F60
:102AF000FF1FEE0FFF1F21E030E02C0F3D1FE20F04
:102B0000F31F4081518162817381CE018F5B9F4FA2
:102B10000E942B0D27964EAD5FAD27974E155F0592
:102B2000F1F625968FAD2597812C912C54018823A1
:102B300039F0CE018F5B9F4F0E94FE0C4B015C0170
:102B400023968EAD9FAD23970E94DC22D6018D92F5
:102B50009D92AD92BD926D011F5F1F3309F07DCF35
:102B6000C0900502D0900602E0900702F0900802A3
:102B7000A701960160E070E0CB010E940E1F4B019F
:102B80005C01A70196016091090270910A0280918F
:102B90000B0290910C020E940E1F9B01AC01C5011B
:102BA000B4010E947B1F20E030E04CE752E40E9419
:102BB0008D1B0E941E0921E04FE370E060E0082EAB
:102BC000000C990B0E94C00860E070E0CB010E94ED
:102BD0005609682F880F770B6034710530F421E0B7
:102BE0004FE390E080E00E946108C0900502D09021
:102BF0000602E0900702F090080220E030E0A90110
:102C0000C701B6010E94852020E030E040E05FE38C
:102C100087FD1AC1C701B6010E940F1F0E94ED1F58
:102C20000E942E1B6B017C018090090290900A0289
:102C3000A0900B02B0900C0220E030E0A901C50189
:102C4000B4010E94852020E030E040E05FE387FD92
:102C500000C1C501B4010E940F1F0E94ED1F0E9418
:102C60002E1B9B01AC01C701B6010E94271B181641
:102C70000CF4F4C060E070E0CB010E945609182FFC
:102C80004090050250900602609007027090080282
:102C9000A3019201C701B6010E940E1F2B966CAFD3
:102CA0007DAF8EAF9FAF2B97A3019201C501B401F9
:102CB0000E940E1F9B01AC012B966CAD7DAD8EADBD
:102CC0009FAD2B970E947B1F20E030E04CE752E441
:102CD0000E948D1B0E941E09612F110F770B6150FE
:102CE000710921E043E0082E000C990B0E94C008F6
:102CF00020E030E040E85FE3C701B6010E940F1F0B
:102D000091CF812C32CE000F111F000F111F0B52DB
:102D10001E4FD8016D917D918D919C9143E00E9451
:102D2000190CF801608371838283938381CEE1342F
:102D3000A9F4CE018F5B9F4F0E94FE0C2B013C013A
:102D4000CE018F5B9F4F0E94FE0C9B01AC01C30123
:102D5000B2010E940F1FAB01BC01D7CEE23499F43F
:102D6000CE018F5B9F4F0E94FE0C2B013C01CE01D8
:102D70008F5B9F4F0E94FE0C9B01AC01C301B2010F
:102D80000E940E1FE8CFE33499F4CE018F5B9F4F72
:102D90000E94FE0C2B013C01CE018F5B9F4F0E94D5
:102DA000FE0C9B01AC01C301B2010E948D1BD3CF6D
:102DB000E43499F4CE018F5B9F4F0E94FE0C2B01EF
:102DC0003C01CE018F5B9F4F0E94FE0C9B01AC012A
:102DD000C301B2010E947B1FBECFE53489F4CE014E
:102DE0008F5B9F4F0E94FE0C2B013C01CE018F5B3D
:102DF0009F4F0E94FE0CA30192010E948A20ABCF3C
:102E0000E63489F4CE018F5B9F4F0E94FE0C2B01AC
:102E10003C01CE018F5B9F4F0E94FE0CA3019201EB
:102E20000E942E2098CFB501A401EE3F09F46DCE8B
:102E3000E03409F076CECE018F5B9F4F0E94FE0CEE
:102E4000AB01BC01705861CEC701B6010E940E1FD4
:102E5000E5CEC501B4010E940E1FFFCEC0900D0249
:102E6000D0900E02E0900F02F090100220E030E0CF
:102E7000A901C701B6010E94852020E030E040E0B2
:102E80005FE387FD77C0C701B6010E940F1F0E9454
:102E9000ED1F0E942E1B6B017C018090110290900F
:102EA0001202A0901302B090140220E030E0A901B9
:102EB000C501B4010E94852020E030E040E05FE3DE
:102EC00087FD5DC0C501B4010E940F1F0E94ED1F68
:102ED0000E942E1B9B01AC01C701B6010E94271B5B
:102EE00018160CF451C0C701B6010E945609182FDC
:102EF0008090050290900602A0900702B090080210
:102F0000A501940160E070E0CB010E940E1F2B012F
:102F10003C01A50194016091090270910A0280911F
:102F20000B0290910C020E940E1F9B01AC01C30189
:102F3000B2010E947B1F20E030E04CE752E40E9487
:102F40008D1B0E941E09612F110F770B60347105D4
:102F500040F4082E000C990B21E043E001970E94F9
:102F6000610820E030E040E85FE3C701B6010E945D
:102F70000F1F91CFC701B6010E940E1F88CFC50158
:102F8000B4010E940E1FA2CF60911502709116022B
:102F900080911702909118020E945609E82EE9E1EB
:102FA000F2E02996FFAFEEAF2997AA24A394B12CA3
:102FB00065012996AEADBFAD29976D917D918D913B
:102FC0009D912996BFAFAEAF29970E945609082F51
:102FD000880F110B0E2C000CFF08C501019738015A
:102FE0006E187F0877FE03C0719461947108B2E097
:102FF0006B16710454F4302F212F8501C32ED22E6D
:103000003E2D2F2D7C01832F922F0E151F0554F07E
:103010003C2D2D2D6C01832F922F302F212F8701D6
:10302000E32EF22E4701801A910A1C012C183D084C
:1030300037FE03C0319421943108240197FE03C068
:10304000EFEF4E1A5E0A55944794C816D9062CF530
:1030500081E0282F880F330B2D963FAF2EAF2D9791
:10306000E016F106E4F041E0B801C60132E0631673
:10307000710414F4B601C8010E94A2084218530852
:1030800057FE08C02D964EAD5FAD2D97C40ED51ED0
:10309000480C591C0F5F1F4FE3CF8FEFDACF2996F3
:1030A000EEADFFAD29973497608171818281938164
:1030B0000E945609E82E5FEFA51AB50A6EE3A61620
:1030C000B10409F075CF0E9480040E949004882307
:1030D000E1F38091BD078093BE070E945908809359
:1030E000BD0784E00E94CE03882369F335EDC32E2B
:1030F00031E0D32E45EBE42E41E0F42E10E000E069
:103100001092B1071092B0071092AF071092AE075D
:103110001093B3070093B207D6018D909D90AD90A8
:10312000BD906D01A5019401C501B4010E94DA2092
:103130006BE771E081111BC024013501E89477F839
:103140002FEF3FEF4FE75FE7C301B2010E94DA20A4
:10315000811158C02FEF3FEF4FE75FE7C301B20186
:103160000E94271B18160CF04DC06FE771E083EA30
:1031700097E00E94B70AE0E4F0E0F093B107E09333
:10318000B007F093AF07E093AE071093B307009337
:10319000B207D7014D917D0150E070E060E020E181
:1031A00083EA97E00E94C60A095F1F4F08331105A2
:1031B00009F0A6CF8091F601B7E08B9FC0011124E2
:1031C000E0E2F0E0F093B107E093B007F093AF07CF
:1031D000E093AE079093B3078093B2078091F50117
:1031E0006EE3811101C06CE383EA97E00E94A705BA
:1031F0000E94800420E030E0232B09F4C4CB0E941D
:103200000000C1CB2FEF3FEF4FE75FE4C501B401F2
:103210000E94852018161CF463E871E0A8CF2FEFF8
:103220003FEF4FE75FECC501B4010E94271B87FD0C
:10323000F3CF20E030E0A901C501B4010E94271BB3
:1032400087FF09C06DE283EA97E00E94A705B7FAFD
:10325000B094B7F8B0942AE037ED43EA5BE3C501D8
:10326000B4010E940F1F2B013C010E94F41F4B016F
:103270005C010E942C1B9B01AC01C301B2010E94A6
:103280000E1F2B013C012AE0B501A40183EA97E05F
:103290000E94C60A6EE283EA97E00E94A70520E03A
:1032A00030E040E251E4C301B2010E948D1B2B01CA
:1032B0003C010E94F41F4B01B12CA12C2AE0B50166
:1032C000A40183EA97E00E94C60AC501B4010E94E6
:1032D0002C1B9B01AC01C301B2010E940E1F20E018
:1032E00030E040E251E40E948D1B0E94F41FAB01CC
:1032F00070E060E02AE083EA97E00E94C60A3BCFD4
:10330000CE0101960E94A60C42CA23E0E22E97CA83
:1033100095E0E92E94CAEF920F931F93CF93DF931A
:10332000E80134E047FD34E1042E000C550B57FF53
:1033300003C0519541955109E32E022F242FAE0170
:103340000E94FA1BCE01DF91CF911F910F91EF9058
:103350000895B0E0A0E0EFEAF9E10C94AC1E5C0146
:103360007B016115710519F0DB018D939C9385013B
:103370000F5F1F4FF501D0818D2F90E00E94FD1A45
:103380006C01892BB9F5DD32B9F50F5F1F4FD501FF
:103390001196DC91C1E05801F1E0AF1AB10843E0A9
:1033A00050E066E371E0C5010E940F1B892B69F5AF
:1033B000680182E0C80ED11C45E050E061E371E095
:1033C000C6010E940F1B892B21F4680197E0C90EEA
:1033D000D11CE114F10419F0D701CD92DC9260E028
:1033E00070E080E89FEFC111FFC060E070E080E80E
:1033F0009FE7FAC05801BBCFDB3229F485010E5F8D
:103400001F4FF501D181C0E0C6CF43E050E06EE22E
:1034100071E0C5010E940F1B892BE9F0F80110E053
:1034200000E020E030E0A9015F01B0ED8B2E8D0EB1
:1034300089E08815C8F19C2E689491F88C2F8870CB
:10344000C2FF16C0811102C00F5F1F4F3196D50118
:10345000DC91C92DE9CFE114F10429F00E5F1F4F73
:10346000F7011183008360E070E080EC9FE7BCC04F
:10347000882311F001501109A5E0B0E00E949B1EC5
:103480009B01AC01220F331F441F551F280D311D16
:10349000411D511D283999E93907490799E1590713
:1034A000A8F2C6609C2ED2CFAEEF8A1206C0C3FD32
:1034B0003CC09C2E689493F8C9CFDF7DD534A9F524
:1034C00080818D3239F4C061DF011296818162E022
:1034D00070E006C0DF018B32C1F3119661E070E04D
:1034E00080535D01A61AB70A8A30F8F4E0E8CE16D8
:1034F000ECE0DE065CF4B601660F771F660F771FFF
:10350000C60ED71ECC0CDD1CC80ED11C5D01FFEF12
:10351000AF1ABF0A8C9180538A30A8F1C4FF03C050
:10352000D194C194D1080C0D1D1DC1FF09C0E11437
:10353000F10431F081E0A81AB108D701AD92BC9234
:10354000CA01B9010E942C1BC370C33009F4905802
:103550004B015C0120E030E0A9010E94271B882379
:1035600009F440C0C5E6D1E017FF05C011950195EB
:103570001109CDE4D1E06E01B8E1CB1AD10880E2A7
:10358000E82EF12C0FC0D501B1CFFE012591359168
:10359000459154910E191F09C501B4010E948D1B5C
:1035A0004B015C01D501C4010E151F0574F724976A
:1035B000F594E794CC16DD06A9F78A2F880F8B2F98
:1035C000881F8F3F49F020E030E0A901C501B40118
:1035D0000E94271B811106C082E290E09093C407ED
:1035E0008093C307C501B401CDB7DEB7ECE00C94FE
:1035F000C81E662777270C94A91991110C94311EC7
:10360000803219F089508550C8F70895FB01DC011C
:1036100002C005900D9241505040D8F70895FB012B
:10362000DC014150504088F08D9181341CF08B3585
:103630000CF4805E659161341CF06B350CF4605EB7
:10364000861B611171F3990B0895881BFCCF0E94B2
:10365000691B08F481E00895E89409C097FB3EF4E3
:1036600090958095709561957F4F8F4F9F4F9923CF
:10367000A9F0F92F96E9BB279395F695879577954D
:103680006795B795F111F8CFFAF4BB0F11F460FF0D
:103690001BC06F5F7F4F8F4F9F4F16C0882311F065
:1036A00096E911C0772321F09EE8872F762F05C079
:1036B000662371F096E8862F70E060E02AF09A9514
:1036C000660F771F881FDAF7880F9695879597F909
:1036D0000895990F0008550FAA0BE0E8FEEF1616A3
:1036E0001706E807F907C0F012161306E407F507F6
:1036F00098F0621B730B840B950B39F40A2661F06A
:10370000232B242B252B21F408950A2609F4A1400C
:10371000A6958FEF811D811D08950E94A01B0C941A
:103720004B1E0E943D1E38F00E94441E20F095233F
:1037300011F00C94341E0C943A1E11240C947F1E2C
:103740000E945C1E70F3959FC1F3950F50E0551FCA
:10375000629FF001729FBB27F00DB11D639FAA27E6
:10376000F00DB11DAA1F649F6627B00DA11D661F35
:10377000829F2227B00DA11D621F739FB00DA11D56
:10378000621F839FA00D611D221F749F3327A00D10
:10379000611D231F849F600D211D822F762F6A2FAC
:1037A00011249F5750409AF0F1F088234AF0EE0F11
:1037B000FF1FBB1F661F771F881F91505040A9F73E
:1037C0009E3F510580F00C94341E0C947F1E5F3F89
:1037D000E4F3983ED4F3869577956795B795F7957A
:1037E000E7959F5FC1F7FE2B880F911D96958795F2
:1037F00097F90895A9E0B0E0E0E0FCE10C94AC1E7C
:103800006A01F22EB02E102FFBE3AF2EA01608F4A3
:103810001BE31F5F012F27E0AE014F5F5F4F0E9448
:10382000591DBC018981982F9970913009F43FC0CE
:103830009BE2E1FC04C09E2D9170E0FC3AC05E2D3D
:103840005071E82FE87083FF46C084E0911101C0F9
:1038500083E0EF2DE81B8F1508F0E0E0D6018E2FF6
:1038600020E2552351F1992329F0D6019C93C601FA
:1038700001966C0196012D5F3F4FE2FE24C08EE45D
:10388000D6018C9391E411969C93119712968C9388
:10389000D9018E2F90E281111BC0E20FF32FF11D91
:1038A00010828EEF9FEF2996ECE00C94C81E9DE2EB
:1038B000C6CF90E2C4CF2D9381508111FCCFCE0EA4
:1038C000D11CE0E0D0CF8EE6D6018C9391E6DBCF21
:1038D0009D938150E0CF482F447082FF3DC084E02B
:1038E000911101C083E08F1510F4EF2DE81BD60174
:1038F0008E2F20E2552309F1992329F0D6019C93BC
:10390000C60101966C0196012D5F3F4FE2FE1BC080
:1039100089E4D6018C938EE411968C93119786E4FA
:1039200012968C93D9018E2F90E2882309F4B5CF9B
:103930009D938150FACF2D9381508111FCCFCE0EF3
:10394000D11CE0E0D9CF89E6D6018C938EE61196A2
:103950008C93119786E6E4CF9B0177FF02C030E09D
:1039600020E0A1E0B0E0911102C0B0E0A0E0F901D8
:103970003196AE0FBF1F8B2C912CBB2009F461C078
:103980005401EFEFAE1ABE0AAA0DBB1DFA161B06B4
:1039900019F014F04F2D4A1B511188C0E3FC59C097
:1039A0007601A42FB0E2A1114FC0C40ED11C9923FF
:1039B00009F45BC040E0D6011196F60190836D01D9
:1039C000552309F448C0012F060F9A81582F5071D2
:1039D00084FF03C0913309F4015010160CF047C066
:1039E000093008F008E0EEE2FE2E5B01A01AB108F3
:1039F00085019194819491082F3F320729F4D601D3
:103A0000FC92F60131966F016217730794F1021769
:103A100013077CF5DB01A21BB30BAA24A394B12CE2
:103A2000AC0EBD1EAA0DBB1D11968C912150310903
:103A3000D601119628153905F4F0F60180836D0141
:103A4000DBCFB12CA12CA0CFF701B1937F01A15006
:103A5000AACF9111B0CFD601942F50E302C05D934D
:103A600091509111FCCFC40ED11C40E0ACCF01E0CD
:103A7000BACF80E3DBCF6217730731F4963388F453
:103A8000953311F4552369F0F6018083FD01842FED
:103A900090E2811108C0A40FB11D1C9290E080E05B
:103AA00002CF81E3F1CF91938150F3CF911183CF76
:103AB0008ACF283008F027E03327DA01990F311D2B
:103AC00087FD916000966105710539F432602E5FC3
:103AD0003D9330E32A95E1F708959F3F30F0803819
:103AE0007105610509F03C5F3C5F3D93913008F042
:103AF0008068911DDF93CF931F930F93FF92EF92F6
:103B0000192F987F9695E92F96959695E90FFF279F
:103B1000ED53FE4F99273327EE24FF24A701E70139
:103B200005900894079428F4360FE71EF81E491FE5
:103B3000511D660F771F881F991F0694A1F70590E6
:103B4000079428F4E70EF81E491F561FC11D770F72
:103B5000881F991F661F0694A1F70590079428F403
:103B6000F80E491F561FC71FD11D880F991F661FCA
:103B7000771F0694A1F70590079420F4490F561F6C
:103B8000C71FD81F990F661F771F881F0694A9F7B4
:103B900084911095177041F0D695C7955795479524
:103BA000F794E7941A95C1F7E9E6F1E06894159067
:103BB000159135916591959105907FE27395E11886
:103BC000F10A430B560BC90BD009C0F7E10CF11EEB
:103BD000431F561FC91FD01D7EF4703311F48A9500
:103BE000E6CFE894015030F0080F0AF400270217DE
:103BF00008F4202F2395022F7A3328F079E37D9360
:103C00002A95E9F710C07D932A9589F60694979531
:103C10006795379517951794E118F10A430B560BE2
:103C2000C90BD00998F023957E9173957A3308F0EB
:103C300070E37C932013B8F77E9170617D9330F030
:103C4000839571E37D9370E32A95E1F71124EF905A
:103C5000FF900F911F91CF91DF91992787FD90954C
:103C6000089599278827089597F99F6780E870E05D
:103C700060E008959FEF80EC089500240A941616E2
:103C8000170618060906089500240A94121613064A
:103C9000140605060895092E0394000C11F48823D8
:103CA00052F0BB0F40F4BF2B11F460FF04C06F5FF4
:103CB0007F4F8F4F9F4F089557FD9058440F551FCA
:103CC00059F05F3F71F04795880F97FB991F61F09E
:103CD0009F3F79F087950895121613061406551F15
:103CE000F2CF4695F1DF08C0161617061806991F81
:103CF000F1CF86957105610508940895E894BB2776
:103D000066277727CB0197F90895F999FECF92BDE1
:103D100081BDF89A992780B50895262FF999FECF8D
:103D20001FBA92BD81BD20BD0FB6F894FA9AF99AD8
:103D30000FBE019608950E94FF1EA59F900DB49F8F
:103D4000900DA49F800D911D112408952F923F92F4
:103D50004F925F926F927F928F929F92AF92BF929B
:103D6000CF92DF92EF92FF920F931F93CF93DF9347
:103D7000CDB7DEB7CA1BDB0B0FB6F894DEBF0FBEA4
:103D8000CDBF09942A88398848885F846E847D84F1
:103D90008C849B84AA84B984C884DF80EE80FD80F3
:103DA0000C811B81AA81B981CE0FD11D0FB6F89469
:103DB000DEBF0FBECDBFED010895A1E21A2EAA1BF2
:103DC000BB1BFD010DC0AA1FBB1FEE1FFF1FA217CB
:103DD000B307E407F50720F0A21BB30BE40BF50BC8
:103DE000661F771F881F991F1A9469F76095709551
:103DF000809590959B01AC01BD01CF010895A29FD4
:103E0000B001B39FC001A39F700D811D1124911DAE
:103E1000B29F700D811D1124911D08955058BB272C
:103E2000AA270E94261F0C944B1E0E943D1E38F0AC
:103E30000E94441E20F039F49F3F19F426F40C949C
:103E40003A1E0EF4E095E7FB0C94341EE92F0E9415
:103E50005C1E58F3BA17620773078407950720F0B2
:103E600079F4A6F50C947E1E0EF4E0950B2EBA2F75
:103E7000A02D0B01B90190010C01CA01A001112470
:103E8000FF27591B99F0593F50F4503E68F11A161C
:103E9000F040A22F232F342F4427585FF3CF4695AD
:103EA00037952795A795F0405395C9F77EF41F16CF
:103EB000BA0B620B730B840BBAF09150A1F0FF0F99
:103EC000BB1F661F771F881FC2F70EC0BA0F621F85
:103ED000731F841F48F4879577956795B795F79575
:103EE0009E3F08F0B0CF9395880F08F09927EE0F0A
:103EF0009795879508950E948F1F0C944B1E0E94E2
:103F0000441E58F00E943D1E40F029F45F3F29F006
:103F10000C94341E51110C947F1E0C943A1E0E9476
:103F20005C1E68F39923B1F3552391F3951B550B50
:103F3000BB27AA2762177307840738F09F5F5F4F7C
:103F4000220F331F441FAA1FA9F335D00E2E3AF0BB
:103F5000E0E832D091505040E695001CCAF72BD0D3
:103F6000FE2F29D0660F771F881FBB1F2617370724
:103F70004807AB07B0E809F0BB0B802DBF01FF2756
:103F800093585F4F3AF09E3F510578F00C94341EE1
:103F90000C947F1E5F3FE4F3983ED4F386957795AB
:103FA0006795B795F7959F5FC9F7880F911D96950F
:103FB000879597F90895E1E0660F771F881FBB1F6B
:103FC000621773078407BA0720F0621B730B840B18
:103FD000BA0BEE1F88F7E09508950E94F41F6894CD
:103FE000B1110C947F1E08950E94641E88F09F57A3
:103FF00098F0B92F9927B751B0F0E1F0660F771F0D
:10400000881F991F1AF0BA95C9F714C0B13091F002
:104010000E947E1EB1E008950C947E1E672F782FBB
:104020008827B85F39F0B93FCCF3869577956795C7
:10403000B395D9F73EF490958095709561957F4F33
:104040008F4F9F4F08950E943D1E20F019F00E944F
:10405000441E50F40C943A1E0C947F1EE92F0E94CB
:104060005C1E88F35523B1F3E7FB621773078407DF
:104070009507A8F189F3E92FFF2788232AF03197C4
:10408000660F771F881FDAF7952F5527442332F0E4
:1040900091505040220F331F441FD2F7BB27E91B1A
:1040A000F50B621B730B840BB109B1F222F4620FA2
:1040B000731F841FB11D31972AF0660F771F881F69
:1040C000BB1FEFCF9150504062F041F0882332F097
:1040D000660F771F881F91505040C1F793950C943D
:1040E00077208695779567959F5FD9F7F7CF9F3FA4
:1040F00031F0915020F4879577956795B795880FA3
:10410000911D9695879597F908950E94691B08F46B
:104110008FEF0895FA01EE0FFF1F3096210531054C
:10412000A1F16115710561F48038BFE39B0749F186
:1041300068949038810561F08038BFEF9B0741F0AB
:1041400099234AF5FF3FE1053105210519F1E8946E
:104150000894E795D901AA2329F4AB2FBE2FF85F65
:10416000D0F310C0FF5F70F4A695E0F7F73950F078
:1041700019F0FF3A38F49F779F930DD00F9007FC0A
:104180009058089546F00C943A1E60E070E080E884
:104190009FE308954FE79F775F934F933F932F934C
:1041A0000E948A212F913F914F915F910E948D1B18
:1041B0000C94E7200E94691B880B990B089529F441
:1041C00016F00C94341E0C947E1E0C943A1E0E9421
:1041D000641EA8F39638A0F707F80F92E8942BE333
:1041E0003AEA48EB5FE70E94A31B0F920F920F92EF
:1041F0004DB75EB70F920E94D221ECEAF0E00E9428
:1042000019214F915F91EF91FF91E595EE1FFF1FEF
:1042100049F0FE57E0684427EE0F441FFA95E1F796
:104220004195550B0E944C210F9007FE0C944021A4
:104230000895DF93CF931F930F93FF92EF92DF9236
:104240007B018C01689406C0DA2EEF010E94A01B4E
:10425000FE01E894A5912591359145915591A6F3DC
:10426000EF010E94261FFE019701A801DA9469F769
:10427000DF90EF90FF900F911F91CF91DF91089504
:104280009B01AC0160E070E080E89FE30C947B1F31
:104290000C94341E0C9477200E94641ED8F399234A
:1042A000C9F3940F511DA3F39150504094F059F06D
:1042B000882332F0660F771F881F91505040C1F756
:1042C0009E3F51052CF7880F911D9695879597F97C
:1042D00008955F3FACF0983E9CF0BB27869577959C
:1042E0006795B79508F4B1609395C1F7BB0F58F780
:1042F00011F460FFE8CF6F5F7F4F8F4F9F4FE3CF89
:104300000C947F1E16F00C9477200C943A1E68943F
:104310000C94341E0E94641EA8F39923C1F3AEF3DB
:10432000DF93CF931F930F93FF92C92FDD2788232D
:104330002AF02197660F771F881FDAF720E030E018
:1043400040E85FEB9FE3883920F0803E38F021960B
:104350008F770E940F1FE4EDF0E004C00E940F1F52
:10436000E1E0F1E00E9419218B01BE01EC01FB2E7E
:104370006F5771097595771F880B990B0E942E1B3B
:1043800028E132E741E35FE30E94A01BAF2D9801D3
:10439000AE01FF900F911F91CF91DF910E94261FD8
:1043A0000C944B1EFA01DC01AA0FBB1F9B01AC0150
:1043B000BF5728F4222733274427507820C0B7510D
:1043C00090F4AB2F0024469537952795011CA395B3
:1043D000D2F3002071F0220F331F441FB395DAF39C
:1043E0000ED00C940E1F61307105A0E88A07B94603
:1043F00030F49B01AC0166277727882790783096A8
:1044000021F020833183428353830895991B79E0FF
:1044100004C0991F961708F0961B881F7A95C9F754
:104420008095089597FB072E16F4009407D077FD2A
:1044300009D00E942C2207FC05D03EF4909581956E
:104440009F4F0895709561957F4F0895EE0FFF1F60
:104450000590F491E02D0994AA1BBB1B51E107C004
:10446000AA1FBB1FA617B70710F0A61BB70B881F04
:10447000991F5A95A9F780959095BC01CD01089593
:104480000F931F93CF93DF938230910510F482E056
:1044900090E0E091C707F091C80730E020E0B0E07D
:1044A000A0E0309799F42115310509F44AC0281B82
:1044B000390B24303105D8F58A819B81611571054E
:1044C00089F1FB0193838283FE0111C040815181F8
:1044D0000281138148175907E0F04817590799F4EA
:1044E000109761F012960C93129713961C933296C4
:1044F000CF01DF91CF911F910F9108950093C707CE
:104500001093C807F4CF2115310551F04217530716
:1045100038F0A901DB019A01BD01DF01F801C1CF2B
:10452000EF01F9CF9093C8078093C707CDCFFE0165
:10453000E20FF31F8193919322503109398328832D
:10454000D7CF2091C5073091C607232B41F4209186
:104550000E0130910F013093C6072093C5072091BB
:104560000C0130910D012115310541F42DB73EB7F5
:104570004091100150911101241B350BE091C507AA
:10458000F091C607E217F307A0F42E1B3F0B281784
:10459000390778F0AC014E5F5F4F2417350748F0BC
:1045A0004E0F5F1F5093C6074093C50781939193A9
:1045B0009FCFF0E0E0E09CCFCF93DF930097E9F04E
:1045C000FC01329713821282A091C707B091C807ED
:1045D000ED0130E020E01097A1F420813181820FBD
:1045E000931F2091C5073091C6072817390709F096
:1045F00061C0F093C607E093C507DF91CF9108959E
:10460000EA01CE17DF07E8F54A815B819E0141157B
:104610005105B1F7E901FB83EA8349915991C40F30
:10462000D51FEC17FD0761F4808191810296840FFC
:10463000951FE90199838883828193819B838A8373
:10464000F0E0E0E012968D919C9113970097B9F5F8
:104650002D913C911197CD010296820F931F2091CD
:10466000C5073091C6072817390739F6309751F535
:104670001092C8071092C707B093C607A093C5074A
:10468000BCCFD383C28340815181840F951FC8174B
:10469000D90761F44E5F5F4F88819981480F591F98
:1046A000518340838A819B819383828321153105C5
:1046B00009F0B0CFF093C807E093C7079ECFFD0184
:1046C000DC01C0CF13821282D7CFB0E0A0E0EBE6CE
:1046D000F3E20C94A81E8C01009751F4CB010E94C8
:1046E00040228C01C801CDB7DEB7E0E10C94C41EB6
:1046F000FC01E60FF71F9C0122503109E217F30776
:1047000008F49DC0D901CD91DC911197C617D70748
:1047100098F0C530D10530F3CE010497861797077E
:1047200008F3C61BD70B2297C193D1936D937C934B
:10473000CF010E94DC22D6CF5B01AC1ABD0A4C012E
:104740008C0E9D1EA091C707B091C807512C412C1B
:10475000F12CE12C109731F58091C5079091C60797
:104760008815990509F05CC04616570608F058C030
:1047700080910C0190910D01009741F48DB79EB787
:104780004091100150911101841B950BE817F90716
:1047900008F055C0F093C607E093C507F90171838F
:1047A0006083A0CF8D919C91119712966C90129777
:1047B00013967C901397A815B90559F56C0142E042
:1047C000C40ED11CCA14DB0420F1AC014A195B09E8
:1047D000DA011296159780F06282738251834083CA
:1047E000D9016D937C93E114F10471F0D701139614
:1047F000FC93EE93129776CF22968C0F9D1FF901B2
:1048000091838083F301EFCFF093C807E093C7074C
:1048100069CF4816590608F42C017D01D3019ACFBF
:10482000CB010E9440227C01009749F0AE01B80103
:104830000E942224C8010E94DC22870153CF10E08D
:1048400000E050CFFB01DC0102C001900D9241500D
:104850005040D8F70895FB01DC0101900D92002033
:08486000E1F70895F894FFCF81
:10486800FFFFFFFF00E10000000000000000C90793
:10487800800000C1808100000000000000DB05B45A
:1048880006FC05F105420600061E0600000000A70A
:1048980007AE05B40AB30A00000000020AAE05B468
:1048A8000AB30A000000001405300031003200335A
:1048B800003400350036003700380039002E002853
:1048C8000029002B004F4B002A002F005E00250016
:1048D80078003C2D003C3C000D0A006E616E0069BA
:0848E8006E66006F76660000A9
:00000001FF
