:100000000C9461030C9489030C9489030C94890368
:100010000C9489030C9489030C9489030C94890330
:100020000C9489030C9489030C94CB120C943A130E
:100030000C9489030C9489030C9489030C94890310
:100040000C9489030C9489030C9489030C94890300
:100050000C9489030C9489030C9489030C946C15FB
:100060000C9489030C9489030C9489030C948903E0
:100070000C9489030C9489030C9489030C948903D0
:100080000C9489030C9489030C9489030C948903C0
:100090000C9489030C9489030C9489030C948903B0
:1000A0000C9489030C9489030C94890305A84CCD06
:1000B000B2D44EB93836A9020C50B9918688083CA2
:1000C000A6AAAA2ABE000000803F0664EC1B3C04DE
:1000D000BC163E3BE5B93CC93C37C29E5A3D66045E
:1000E00098083EEA69AAAA3E000000803F076342E2
:1000F00036B79BD8A71A39685618AEBAAB558C1DBF
:100100003CB7CC5763BD6DEDFD753EF6177231BF40
:10011000000000803F08000000BE922449123EAB60
:10012000AAAA2ABECDCCCC4C3E00000080BEABAA11
:10013000AAAA3E00000000BF000000803F000000AF
:100140000000084178D3BB4387D1133D190E3CC34F
:10015000BD4282AD2B3E68EC8276BED98FE1A93ECE
:100160004C80EFFFBE01C4FF7F3F00000000000095
:100170004E414E494E495459494E46CDCCCC3D0A8C
:10018000D7233C17B7D13877CC2B329595E6241F6F
:10019000B14F0A000020410000C84200401C462028
:1001A000BCBE4CCA1B0E5AAEC59D7400407A10F3FB
:1001B0005A00A0724E18090010A5D4E80000E87695
:1001C00048170000E40B54020000CA9A3B000000EC
:1001D000E1F505000080969800000040420F000005
:1001E00000A08601000000102700000000E80300C6
:1001F0000000006400000000000A00000000000190
:1002000000000000002C76D888DC674F0823DFC18F
:10021000DFAE59E1B1B796E5E3E453C63AE651994A
:100220007696E8E6C28426EB898C9B62ED407C6F73
:10023000FCEFBC9C9F40F2BAA56FA5F490055A2A2A
:10024000F75C936B6CF9676DC11BFCE0E40D47FE36
:10025000F520E6B500D0ED902E030094357705002B
:1002600080841E080000204E0A000000C80C3333B2
:1002700033330F986E12831141EF8D2114893BE6C1
:100280005516CFFEE6DB18D1844B381BF77C1D904A
:100290001DA4BBE424203284725E228100C9F124B3
:1002A000ECA1E53D274E6F742061204E756D6265AF
:1002B000720053796E746178204572726F720042D9
:1002C0007261636B657473206D69736D61746368CB
:1002D00000576169742E2E2E00FFFDFE202122FCA6
:1002E000E1E012FFFDFE18130708091719040506BF
:1002F00016FB01020315FC00101114FFFDFE070898
:10030000090405060102030010112F0300033F0A30
:100310003F163F1A0904121A251A28031E21211E0E
:100320000A040A040E0460040404200804021E21C6
:100330001E223F2039252221251A07043F1725199F
:100340001E25190139071A251A12251E1434040A0C
:10035000111414110A04012D061E212D2E3E053EF6
:100360003F251A1E21213F211E3F253F051E213D0D
:100370003F043F213F21211F3F043B3F203F020418
:10038000023F3F02043F1E211E3F05021E312E3F49
:10039000053A2619013F013F203F1F301F1F201C37
:1003A000201F3B043B033C0339273F210204082163
:1003B0003F0201022020200102142C383F2418188B
:1003C0002418243F1834283E0548543C3F04383D47
:1003D000403D3F043A3F3C043C04383C0438182478
:1003E000187C241818247C3C0428141F241C203C4E
:1003F0001C201C1C2038203C3408344C503C342C2D
:10040000043B213B213B04020604D102BF02B2029D
:10041000A50263616E277420706F702C2073746165
:10042000636B20656D7074790063616E2774207052
:1004300065656B2C20737461636B20656D707479D6
:100440000063616E277420706F702C207374616379
:100450006B20656D707479006E6F206D656D006343
:10046000616E277420726573697A6520746861749F
:1004700020736D616C6C006E6F206D656D00636143
:100480006E277420726573697A65207468617420C0
:10049000736D616C6C00F0F89C8E8783878E9CF87E
:1004A000F00000FEFF0303030303070EFCF8000047
:1004B000FEFF0303030303070EFCF80000FFFF0029
:1004C000000000000000FFFF0000FEFF8383838325
:1004D00083C7EE7C380000F8FC0E07030303070E09
:1004E000FCF800003F7FE0C08080C0E07F3FFFFF5E
:1004F00001010101010101FFFF0000FFFF0C0C0CD5
:100500000C1C3E77E3C100007FFFC0C0C0C0C0E04C
:10051000703F1F00001F3F70E0C0C0C0E0703F1F71
:1005200000007FFFC1C1C1C1C1E3773E1C00001FB5
:100530003F70E0C0C0C0E0703F1F0000000000013D
:10054000FFFF01000000D5F08D14A1C881CFD9F1C3
:10055000AF200064783D004552524F520066287823
:1005600029007800887E0901282828280C122125D6
:10057000122C408005F2A5A0FEAAAAFE10080817BA
:10058000262510087E81A99181A1817EFC9497B5D2
:10059000B59794FC3F259AC0E4844830793D0078B3
:1005A0003D00596D617800596D696E00586D617834
:1005B00000586D696E00546F6F6C730A746F646FCE
:1005C000004469726563740054726163650A746FF4
:1005D000646F005461626C650057696E646F7700E8
:1005E00046756E6374696F6E00080B0002020201AB
:1005F00000090400000102020000052400100105AA
:1006000024010101042402060524060001070581D6
:100610000310004009040100020A0000000705025F
:100620000240000007058302400000040309041291
:10063000010002EF02014041233680000101020364
:100640000141726475696E6F204C4C4300417264C5
:1006500075626F79000305FB020505E2020303D909
:1006600002000104070A0D11121416191C1D202185
:1006700024272A2D303336393C3F42434447494CE6
:100680004F5356595C5F616366696C6E7173787C19
:100690007F8285888A8D9093989B9EA0A2A5A7AA09
:1006A000ADAFB2B5B7BABDBFC2C5C6C8CBCCD1D449
:1006B000D7DADDDFE1E3E6E9EEF1F4F6F9FAFD0081
:1006C000EE1511241FBECFEFDAE0DEBFCDBF11E083
:1006D000A0E0B1E0EAE3FBE502C005900D92A03C8A
:1006E000B107D9F727E0A0ECB1E001C01D92A03816
:1006F000B207E1F713E0C1E6D3E004C02197FE01A1
:100700000E948F2BC036D107C9F70E9439160C946E
:100710009B2D0C940000282F30E0F901EF5BF94F7E
:100720008491205C394FF9012491821B0895EAE5F8
:10073000F3E0A0E0B8E000800EBC8111012C11971D
:10074000A0FDFDCF0192B9F70DB4089580E00C949F
:10075000970390917507982329F490917407982333
:1007600081E009F480E008958FB7F8944091DC02AD
:100770005091DD026091DE027091DF028FBF8091A7
:100780007707942F981B80917807882331F09093F6
:1007900079071092780780E00895209176079217E4
:1007A00040F49F5F9217A0F491E093BF889513BE29
:1007B000089581E0809378074093770780917207CE
:1007C000909173070196909373078093720781E06D
:1007D00008952F923F924F925F926F927F928F92E5
:1007E0009F92AF92BF92CF92DF92EF92FF920F93C0
:1007F0001F93CF93DF9330E0F901E80FF91FF7FD66
:1008000096C0803891050CF092C0FB01E00FF11DFD
:10081000F7FD8DC0603471050CF089C0DB0177FFF6
:1008200004C0AA27BB27A61BB70BA770BB27EB01E9
:1008300077FD2796E3E0D595C795EA95E1F777FF31
:1008400007C0219768E070E0FB01EA1BFB0BDF01AA
:10085000069506950695602E712C7A01AE01569587
:10086000542F442757954795480F591F465A5C4FB8
:10087000BE01E8E0F0E02F014A1A5B0A6F3FFFEF8C
:100880007F070CF444C06C0110E000E04A01F0E87E
:100890008F0E911CD7FC2EC06F3F760709F45AC00B
:1008A000F701E00FF11FE4915A01A00EB11EF0E034
:1008B0001F010A2E01C0220C0A94EAF7F5013080CC
:1008C000232820821097B1F06730710599F0F70165
:1008D000E00FF11FE4915401A00EB11EF0E01F01E2
:1008E000042C02C0359427940A94E2F7F501308075
:1008F000232820820F5F1F4FFFEFCF1ADF0A021756
:1009000013072CF4E0E8CE16D10409F0C3CF6F5FD3
:100910007F4FE20EF31E40585F4FFB01EC1BFD0BB7
:10092000E615F70524F46830710509F0A7CFDF91CB
:10093000CF911F910F91FF90EF90DF90CF90BF90DC
:10094000AF909F908F907F906F905F904F903F906F
:100950002F900895109709F0BACFCCCF843109F4C5
:1009600076C068F5863009F460C098F4823009F4E6
:1009700092C038F4882309F48BC0813009F44CC04C
:100980000895843009F44EC008F449C08DE791E021
:100990000895803109F452C050F4883009F44BC0F6
:1009A00008F446C0893061F785E891E00895823106
:1009B00009F44AC008F445C089E891E008958232FC
:1009C00009F454C0A8F4883109F447C038F48631DA
:1009D00009F440C0B0F182E991E00895803209F451
:1009E0003FC008F040C0893159F686E991E008958A
:1009F0008C3F09F444C050F4813ED9F18B3FE1F1C2
:100A0000803E09F0BDCF81EA91E008958E3FE9F183
:100A1000C8F18DE891E0089585E791E0089589E7B0
:100A200091E008958BE791E008958FE791E00895B4
:100A300081E891E0089583E891E0089587E891E0E6
:100A400008958CEA91E008958CE991E008958BE88F
:100A500091E0089580E991E0089584E991E0089596
:100A600088E991E008958BE991E008958EE991E09D
:100A7000089583EA91E0089586EA91E0089588EA6E
:100A800091E008958BEA91E008958EEA91E008954F
:100A900083E791E0089587E791E0089580E0EAE533
:100AA000F3E081118FEF00248193819381938193EF
:100AB0000394D1F708958F929F92AF92BF92CF92F5
:100AC000DF92EF92FF92CF93DF93682F880F770B1F
:100AD000880B990B0E9412246B017C01C0E3D1E0CA
:100AE00068816150770B072E000C880B990B0E94D0
:100AF00012249B01AC01C701B6010E9464286B015E
:100B00007C01AC019B0160E070E080E89FE30E9403
:100B1000F2272A813B814C815D810E9471244B0127
:100B20005C012E813F8148855985C701B6010E942D
:100B300071249B01AC01C501B4010E94F327DF9130
:100B4000CF91FF90EF90DF90CF90BF90AF909F90AC
:100B50008F9008958F929F92AF92BF92CF92DF9223
:100B6000EF92FF92C0903201D0903301E0903401B7
:100B7000F0903501A70196010E94F2274B015C011C
:100B8000A70196016091360170913701809138017B
:100B9000909139010E94F2279B01AC01C501B4017B
:100BA0000E9464286B017C01609130016150770BD9
:100BB000072E000C880B990B0E9412249B01AC019C
:100BC000C701B6010E9471246B017C0120E030E076
:100BD0004EEF52E40E94AD296FE787FF1EC020E070
:100BE00030E040E053ECC701B6010E940B2460E8FE
:100BF00018169CF420E030E0A901C701B6010E945C
:100C0000AD2920E030E040E05FE387FD10C0C70180
:100C1000B6010E94F3270E94D628862FFF90EF90FE
:100C2000DF90CF90BF90AF909F908F900895C701B5
:100C3000B6010E94F227EFCF8F929F92AF92BF92A0
:100C4000CF92DF92EF92FF92C0903E01D0903F0191
:100C5000E0904001F0904101A70196010E94F22727
:100C60004B015C01A701960160913A0170913B0133
:100C700080913C0190913D010E94F2279B01AC01C3
:100C8000C501B4010E9464286B017C0160913101AF
:100C90006150770B072E000C880B990B0E941224D1
:100CA0009B01AC01C701B6010E9471246B017C015C
:100CB00020E030E04EEF52E40E94AD296FE787FF5D
:100CC0001EC020E030E040E053ECC701B6010E94B6
:100CD0000B2460E818169CF420E030E0A901C7015D
:100CE000B6010E94AD2920E030E040E05FE387FDDF
:100CF00010C0C701B6010E94F3270E94D628862F94
:100D0000FF90EF90DF90CF90BF90AF909F908F902B
:100D10000895C701B6010E94F227EFCFE091DA02F1
:100D2000E7FD0EC00E2E000CFF0BE65AFC4F80E0D4
:100D30009081909590838F5FE058FF4F8830C1F786
:100D40002091DB02822F022E000C990B803491053A
:100D5000F8F4277031E001C0330F2A95EAF7232F0A
:100D600097FD0796FC0183E0F595E7958A95E1F7F5
:100D7000F695FE2FEE27F795E795E65AFC4F9FE391
:100D8000915031F08191DF01119782278C93F8CF38
:100D90000895FC018091D902882311F13FB7F8949E
:100DA00082E08093E9002091F200822F90E01816F3
:100DB000190614F481E090E0882339F0289844E67D
:100DC0004093D8024091F1004083222339F02091D2
:100DD000F200211103C02BE62093E8003FBF0895E5
:100DE0008FEF9FEF08952FB7F89483E08093E90089
:100DF0009091E800892F807295FF04C09091F200D5
:100E000080E4891B2FBF08958091D00281110DC00D
:100E100082E08093CC0284E08093CD021092CF02D6
:100E20001092CE0281E08093D0028CEC92E0089583
:100E3000CF93DF931F92CDB7DEB76983DC01ED91CD
:100E4000FC910280F381E02D41E050E0BE016F5F34
:100E50007F4F09950F90DF91CF91089583E08093A4
:100E6000E9008091F200882319F08AE38093E8007A
:100E700008950E94F30690E00895CF93DF931F92A8
:100E8000CDB7DEB7FC018485958597FD08C02FEFAF
:100E90003FEF358724870F90DF91CF910895CE01E2
:100EA00001960E94C906019719F4898190E0F3CF59
:100EB0008FEF9FEFF0CF0F931F93CF93DF931F928E
:100EC000CDB7DEB78C01FC018485958597FF0BC0FB
:100ED000CE0101960E94C906019771F4898190E0C4
:100EE000F80195878487F801848595850F90DF91B7
:100EF000CF911F910F9108958FEF9FEFF1CFFC01DC
:100F00008485958597FD0BC09FB7F89482E0809308
:100F1000E9008091F2009FBF90E0019608959FB78D
:100F2000F89482E08093E9008091F2009FBF90E006
:100F300008954091C6025091C7022091C402309199
:100F4000C50242175307B4F49091E8009570E1F39D
:100F50009091E80092FD19C08093F1008091C60243
:100F60009091C70201968F739927892B19F48EEF00
:100F70008093E8008091C6029091C70201969093F9
:100F8000C7028093C60281E0089580E00895DF9251
:100F9000EF92FF920F931F93CF93DF93D82E8A0186
:100FA000EB017B01E40EF51ECE15DF0559F0D7FEEF
:100FB00012C0FE0184910E94990721968111F4CFFD
:100FC0000FEF1FEFC801DF91CF911F910F91FF909D
:100FD000EF90DF9008958881EECF0F931F93CF930A
:100FE000DF931F92CDB7DEB782E0898342E450E001
:100FF00069EE75E080E80E94C7070E940407DC01E3
:1010000012960D911C910115110589F0D801ED91F1
:10101000FC910280F381E02DBE016F5F7F4FC8011C
:10102000099597FD04C0F80100851185ECCF8981F1
:101030000F90DF91CF911F910F910895615030F083
:101040002091F100FC0120830196F8CF289884E6D6
:101050008093D80208950895AF92BF92CF92DF9205
:10106000EF92FF920F931F93CF93DF936C017B015D
:101070008B01040F151FEB015E01AE18BF08C017EE
:10108000D10759F06991D601ED91FC910190F08161
:10109000E02DC6010995892B79F7C501DF91CF9124
:1010A0001F910F91FF90EF90DF90CF90BF90AF9086
:1010B00008953FB7F8948091C1019091C201A09129
:1010C000C301B091C40126B5A89B05C02F3F19F0FC
:1010D0000196A11DB11D3FBFBA2FA92F982F8827B8
:1010E000BC01CD01620F711D811D911D42E0660F93
:1010F000771F881F991F4A95D1F708958F929F9265
:10110000AF92BF92CF92DF92EF92FF926B017C0180
:101110000E9459084B015C01C114D104E104F1049F
:10112000B9F00E945908681979098A099B09683E33
:1011300073408105910580F321E0C21AD108E108CE
:10114000F10888EE880E83E0981EA11CB11CE4CF44
:10115000FF90EF90DF90CF90BF90AF909F908F90D7
:1011600008958F929F92AF92BF92CF92DF92EF92AB
:10117000FF920F931F93CF93DF936C017B018A0142
:1011800080912F01882309F45CC08091D9028823C3
:1011900009F457C08091CB0280FF05C08091E00028
:1011A00082608093E000E801B12C8AEFA82E93E0E2
:1011B000892E2AE3922E209711F4BB20D9F10E94A8
:1011C000F30681110AC0AA94AA20D9F161E070E067
:1011D00080E090E00E947E08EECF8C171D0611F093
:1011E0000CF08C2F9FB7F8948092E9002091E800D2
:1011F00025FD02C09FBFDFCF282F30E0C21BD30BDD
:10120000F701815020F041914093F100FACFE20EB6
:10121000F31EBB2021F09092E800B12CEBCF80911F
:10122000E80085FDE7CF9092E800BB24B3942097B7
:1012300009F3F3CF5D9884E68093CA021016110675
:101240003CF081E090E0F6019383828310E000E0BF
:10125000C801DF91CF911F910F91FF90EF90DF9028
:10126000CF90BF90AF909F908F9008952D9A089542
:10127000BC0190E080E00C947E088FB18095807F67
:10128000669B88601C9B84600895480F592F511DF0
:1012900014161506D4F580389105BCF597FF02C0E9
:1012A00090E080E04138510514F040E850E0481BE0
:1012B000FB0177FD379633E0F595E7953A95E1F731
:1012C000F695FE2FEE27F795E795E80FF91FE65AFA
:1012D000FC4F6770772781E090E001C0880F6A9526
:1012E000EAF7382F213041F4415078F08191DF0145
:1012F0001197832B8C93F8CF8095415030F09191CA
:10130000DF01119798239C93F8CF089560347105FD
:1013100010F40C944509089580389105B8F46034B0
:101320007105A0F420E191E061FD94E060FD990F6A
:1013300062FD9295687F269FD0011124A80FA65ABE
:10134000BC4F8C9140FF03C0892B8C9308959095DE
:101350008923FBCFDF92EF92FF920F931F93CF93DE
:10136000DF937C01D22E8B01040F111DEB0177FF5F
:1013700002C0D0E0C0E0C8010134110514F080E4DF
:1013800090E0C817D9073CF44D2DBE01C7010E945B
:101390008C092196F0CFDF91CF911F910F91FF9093
:1013A000EF90DF900895CF92DF92EF92FF920F932C
:1013B000CF93DF936C017B01C42FD22F202F0E948B
:1013C0008609B7016D0F711D61507109202F4C2FD7
:1013D000C6010E948609202F4D2FB701C6010E9429
:1013E000AA09C6018C0F911D202F4D2FB70101971F
:1013F000DF91CF910F91FF90EF90DF90CF900C9401
:10140000AA096F927F928F929F92AF92BF92CF92D2
:10141000DF92EF92FF920F931F93CF93DF934C01D4
:101420007B01C22F102F98E0A92EB12C642E669458
:1014300066946694712CCA0187709927892B79F577
:10144000D40117962D913C91C7019927B9010E94AB
:101450007B2B269DF001279DF00D369DF00D11246C
:101460008E0F9F1FD4011596ED91FC91E80FF91F87
:101470002081111112C0C095C223C083DF91CF918A
:101480001F910F91FF90EF90DF90CF90BF90AF90A2
:101490009F908F907F906F900895C22BEECFD0E0F9
:1014A0004770C42ED12C83E0660C771C8A95E1F737
:1014B0009E0101C0220F4A95EAF7012FA301B7014F
:1014C000C4010E94010AA301485F5F4FC5018C1946
:1014D0009D0902C0D595C7958A95E2F7A7CF4F928F
:1014E0005F926F927F928F929F92AF92BF92CF92B4
:1014F000DF92EF92FF920F931F93CF93DF93EC0154
:101500006D3071F06A30F9F48D859E859C878B87EC
:101510008C892F853889820F932F911D988B8F8707
:1015200081E090E0DF91CF911F910F91FF90EF90BC
:10153000DF90CF90BF90AF909F908F907F906F90F3
:101540005F904F900895CB84DC84693031F428E0BB
:10155000C20ED11CDC86CB86E3CF603231F48B899E
:1015600090E00296C80ED91EF5CF162F8F81988570
:10157000C816D9060CF049C08F8498883BEF8316B3
:101580003FEF93060CF441C089859A858816990629
:101590000CF03BC080EE860F8F35A8F5862F282FE4
:1015A0002152330BF901EF59F94FE491F0E09F011B
:1015B000265F3C4F79010E948B03482EB12CA12C51
:1015C000A41418F5F701EA0DFB1D549036016A0CBE
:1015D0007B1C8C81882361F001E089899A89892BA1
:1015E00009F000E02FEFA401B301CE010E94010A2F
:1015F0000989252DA401B301CE010E94010A3FEF04
:10160000A31AB30ADDCF8FE3CACF812F0E948B03C9
:101610002B89280F3327331F8B859C85820F931FBF
:101620009C878B877DCF0F931F93CF93DF938C0184
:10163000D0E0C0E0F801EC0FFD1F6491662341F09B
:101640008AE597E00E946F0A892B11F02196F2CF6C
:10165000CE01DF91CF911F910F910895682F8AE5F8
:1016600097E00C946F0A089590E080E00895FC01E3
:1016700001900020E9F73197AF01481B590BBC01DD
:101680008AE597E00C942C08EAE5F3E09F0145E534
:1016900090E0D90150E04C935F5FA058BF4F5830A5
:1016A000D1F740959F5F2F5F3F4F8913F2CF8AE9B3
:1016B00093E011928E179F07E1F71092680710923E
:1016C0006707109266071092650710926A071092DA
:1016D0006907CB010E94130B81EB91E00E94370B4D
:1016E0000E94B4038823E1F3809174078093750707
:1016F0000E943D098093740788E00E94A90381112C
:1017000003C00E94A603ECCF0895DC011396EC9170
:101710001397E11104C089E294E00E94E9158D91CC
:101720009C91E80FF92FF11D319780810895E82FE2
:10173000F0E0EE0FFF1FE65FFB4F6591749180E4D0
:101740000C94440B8F929F92AF92BF920F931F9372
:10175000CF93DF93CDB7DEB7A1970FB6F894DEBF76
:101760000FBECDBF19A2423008F44AE08E010F5DD2
:101770001F4F842E912CB12CA12CA50194010E9405
:10178000C127E62FB901CA01EA30F4F4E05DD801BF
:10179000EE938D01232B242B252B79F790E080E00D
:1017A000109719F0CD010E94370BA1960FB6F8944F
:1017B000DEBF0FBECDBFDF91CF911F910F91BF90C4
:1017C000AF909F908F900895E95CE1CF5F926F9208
:1017D0007F928F929F92AF92BF92CF92DF92EF92C1
:1017E000FF920F931F93CF93DF93C0E0DAE0409115
:1017F00055036091520370E08091510390E0209175
:1018000054032C1768F04D9F402D11244F5F21E0A9
:10181000CD9F800D911D11240E94AA09CF5FE7CFB3
:10182000C0E0DAE0409154036091520370E080918F
:10183000510390E0209155032C1768F04D9F402DE7
:1018400011244F5FCD9F600D711D112421E00E9476
:101850008609CF5FE7CF10E03AE0732E48E0A42E70
:10186000B12C80915503181708F05AC0179D4001FC
:10187000112400E080915403C0915203D0E0E09025
:101880005103F12C081708F049C0E02F189FE00D14
:1018900011248091560390915703E80FF92FF11D01
:1018A00084910E94AE046C01C80DD91D2296079D3B
:1018B000E00CF11C112482E0E80EF11C612C512C8B
:1018C000F601E60DF11D8081882329F063940E94C2
:1018D0008B03580EF5CF6A9480916D07689E500C6B
:1018E0001124C5018519910997FD01969595879554
:1018F000E80EF91EF0926807E0926707F09266071B
:10190000E0926507D0936A07C0936907C114D104B8
:1019100019F0C6010E94370B0F5FACCF1F5FA1CF3C
:1019200080915803609154030E946F2B6091520381
:10193000CAE08C9F90011124620F732F711D80915A
:1019400051039C9FF001112400E02BE04BE08E0F2F
:101950009F2F911D0E94D3098091580360915403D9
:101960000E946F2B609152038C9F90011124620F93
:10197000732F711D61507109809151039C9FE0018B
:1019800011248C0F9D2F911D01E02DE04DE001975A
:101990000E94D309DF91CF911F910F91FF90EF909B
:1019A000DF90CF90BF90AF909F908F907F906F907F
:1019B0005F900895CF9380E20E94A903882339F0B5
:1019C00080915803882319F081508093580380E454
:1019D0000E94A903882381F0209158038091540329
:1019E00090915503899FC00111240197281719066A
:1019F0001CF42F5F2093580380E80E94A9038823DA
:101A000049F08091580390915403891718F0891B6D
:101A10008093580380E10E94A903882399F0809164
:101A2000580390915403209155032150330B929FFA
:101A3000A001939F500D1124841715061CF4890FE3
:101A40008093580388E00E94A903882309F452C0B8
:101A5000E09158038091560390915703E80FF92FB6
:101A6000F11D84918D3F09F457C0E0F48C3F41F1A2
:101A70000E94AE049C0190E0E091500381E08E0F43
:101A800080935003D901A90FB11D8C91F0E0E05D66
:101A9000FC4F80839F5FF901E90FF11D8081811167
:101AA000EBCF28C0E09150038E3FF1F18F3F01F75B
:101AB00081E080935903F0E0E05DFC4F10821AC092
:101AC00080915303C2E0813009F0C1E081E0C13070
:101AD00009F080E08093580384E0C89FB00111248E
:101AE0006B5A794F44E050E084E593E00E94EA238A
:101AF000C093530384E00E94A903882359F0E09126
:101B00005003EE2339F0E150E0935003F0E0E05D44
:101B1000FC4F1082CF910895E0915003EE2351F3D2
:101B2000E150E0935003C7CFEE2339F0E150AE2FE0
:101B3000B0E0A05DBC4F1C92F7CF10925003DACFFB
:101B4000CF92DF92EF92FF920F931F93CF936B018F
:101B50007C01C42F1092580344E050E065E576E024
:101B600084E593E00E94EA231092530310925903F4
:101B700080915003882339F08150E82FF0E0E05D38
:101B8000FC4F1082F7CF1092500300E313E02C2F8C
:101B900040E0C701B6010E946F22809150038F5F21
:101BA00021E0280FE82FF0E0E05DFC4F90819111DB
:101BB00033C0809350038091590381112FC00E943C
:101BC000B4038823C1F380917407809375070E9442
:101BD0003D09809374070E944E050E94DA0C0E9412
:101BE000E60B209152032850330B8091510390E073
:101BF0000296909368078093670790936607809397
:101C0000650730936A072093690780E393E00E9499
:101C1000370B0E94A603CFCF822FC2CF80E393E081
:101C2000CF911F910F91FF90EF90DF90CF900C9488
:101C3000DD234F925F926F927F928F929F92AF922D
:101C4000BF92CF92DF92EF92FF920F931F93CF93A9
:101C50006B017C01742EAC019B010E942F2A88230A
:101C600099F084EB91E0CF911F910F91FF90EF904D
:101C7000DF90CF90BF90AF909F908F907F906F90AC
:101C80005F904F900C94370B46015701E894B7F8DA
:101C90002FEF3FEF4FE75FE7C501B4010E942F2A06
:101CA00081110DC02FEF3FEF4FE75FE7C501B40192
:101CB0000E940B2418161CF488EB91E0D4CF2FEF70
:101CC0003FEF4FE75FE4C701B6010E94AD29181648
:101CD0001CF48CEB91E0C7CF2FEF3FEF4FE75FECA9
:101CE000C701B6010E940B2487FDF3CF20E030E04E
:101CF000A901C701B6010E940B2410E000E087FF94
:101D000008C08DE20E942E0B8C01F7FAF094F7F8D0
:101D1000F094C0E060E070E080E09FE37C1641F06A
:101D200020E030E040E251E40E946428CF5FF6CF2B
:101D3000A70196010E94F3272B013C010E94DD2898
:101D40004B015C014AE00E94A20B7C01E00EF11EF7
:101D5000CC23B1F1C501B4010E9410249B01AC0158
:101D6000C301B2010E94F2274B015C018EE20E9486
:101D70002E0BE80EF91EC15018F120E030E040E2D1
:101D800051E4C501B4010E9471242B013C010E9461
:101D9000DD284B01B12CA12C4AE0C501B4010E9401
:101DA000A20BE80EF91EC501B4010E9410249B018C
:101DB000AC01C301B2010E94F2274B015C01DBCFF1
:101DC000C701CF911F910F91FF90EF90DF90CF90BF
:101DD000BF90AF909F908F907F906F905F904F904B
:101DE0000895CF93DF930E94190EEC0181EB91E0EF
:101DF0000E94370B8C0F9D1FDF91CF9108951F9389
:101E0000CF93DF93EC01162F8EE794E0662359F011
:101E100070E0888199810E94CE2C99838883892BD8
:101E200021F487E794E00E94E9151A83DF91CF91AE
:101E30001F910895CF93FC019381911104C081E417
:101E400094E00E94E915A081B18191509383A90F7C
:101E5000B11DCC91992351F06281862F869586958C
:101E6000891720F06695CF010E94FF0E8C2FCF912D
:101E700008951F93CF93DF93EC01162F6A818B8116
:101E8000681304C0660FCE010E94FF0E88819981FD
:101E9000EB8121E02E0F2B83E80FF92FF11D10832A
:101EA000DF91CF911F9108951F93CF93DF93EC01A2
:101EB000162F8FE594E0662371F084E0689FB001EF
:101EC0001124888199810E94CE2C99838883892B43
:101ED00021F488E594E00E94E9151A83DF91CF91FF
:101EE0001F910895CF92DF92EF92FF92FC019381B0
:101EF000911104C082E194E00E94E915A081B181B2
:101F00009150938384E0989F90011124A20FB31FF6
:101F1000CD90DD90ED90FC90992351F06281862F59
:101F200086958695891720F06695CF010E94540FFB
:101F3000C701B601FF90EF90DF90CF900895CF9248
:101F4000DF92EF92FF92CF93DF93EC016A017B0166
:101F50006A818B81681304C0660FCE010E94540F02
:101F6000288139819B8181E0890F8B8344E0949F94
:101F7000C0011124820F931FFC01C082D182E28232
:101F8000F382DF91CF91FF90EF90DF90CF90089593
:101F90002F923F924F925F926F927F928F929F9279
:101FA000AF92BF92CF92DF92EF92FF920F931F9367
:101FB000CF93DF9300D000D000D01F92CDB7DEB713
:101FC0007C016B01312C3394F601E30DF11D80810E
:101FD0008111F9CF1C8288E090E00E94A92B9A839E
:101FE000898388E08B83412C512C00E09FEF4314C0
:101FF00008F050C1842C912C5601A80CB91CF50195
:1020000080818D3209F45CC10CF04FC0883209F434
:1020100074C14CF4882309F468C016E6853209F4CB
:102020004FC010E058C18A3209F47DC10CF45BC086
:102030008B32B9F711E6903608F066C180E8810F5F
:10204000803718F0103F09F062C163E6CE010196B7
:102050000E94390F11115BC122242394200EF70135
:10206000E00FF11D508201E0050DBE016B5F7F4F57
:10207000C5010E948D22E52DF0E03896EE0FFF1F7E
:10208000EE0FFF1FEE0DFF1D60837183828393832C
:102090008D819E818C199D098816990619F044241A
:1020A0004A94480E152D502EF1C0833609F42AC1EA
:1020B0005CF48F3209F406C115E68E3509F0B1CF14
:1020C000903608F003C1BECF843741F0883709F459
:1020D00001C1833709F0A5CF10E801C012E890369E
:1020E00008F0F4C0B2CF11EFEBCF1FEFE9CFA0EAB9
:1020F0009A2E910EFFE1F91508F485C08C81882392
:1021000009F40AC1CE0101960E94850B972D762C09
:10211000692EA92CB12C90E8980F903708F450C084
:10212000E0EAE80FE03208F062C0E730F8F4F0E0EF
:10213000E456FF4E0C948F2B7A11B410B410771123
:102140007711A3107711F4E06F2EF6E0F915F8F08F
:10215000F501E355FF4E0C948F2BD510F410F410BD
:10216000C510C510D210C510E2E06E2E96E099158C
:1021700070F0F501E254FF4E0C948F2BD510D8105F
:10218000D810C510C510D210C51073E0772E761484
:10219000B8F076102CC0853671F168F4803668F09E
:1021A0001F820EC064E0762EF2CF55E0752EEFCF81
:1021B00042E0742EECCF863699F3EF81E111ACC08A
:1021C00088248394800ECE0101960E941A0FF70195
:1021D000E00FF11D80838C81882381F0CE01019670
:1021E0000E94850B082D97CF32E0732EE9CF862D04
:1021F000672C782E91C0F1E0FF838EC0862D672C6E
:10220000782E082D89C0103F11F460EF86C0113F71
:10221000B1F58C8181111FC011E089819A810E94E2
:10222000452C812F27960FB6F894DEBF0FBECDBF89
:10223000DF91CF911F910F91FF90EF90DF90CF90A2
:10224000BF90AF909F908F907F906F905F904F90D6
:102250003F902F900895CE0101960E94850B803FFC
:1022600009F440C0BB24B394B00ECE0101960E9485
:102270001A0FF701E00FF11D80830B2DCACF222426
:102280002394200EF701E00FF11D10834394022DDB
:10229000912FADCE8C816701C00ED11C882359F0DF
:1022A000CE0101960E941A0FF6018083803F09F447
:1022B000B3CF0F5FEFCF8FEFF601808310E0ADCF8C
:1022C00012E6FECE14E6903608F4B8CE913F09F03F
:1022D000C1CEB4CE10E4903608F4B7CE913F09F0E9
:1022E000B9CEB3CECE0101960E941A0F1AC023E0D8
:1022F000622E2BCF95E0692E28CF10EF903620F478
:1023000010EFA3CE11E8EBCE913F09F497CE80E811
:10231000810F803708F0EBCE612FCE0101960E942D
:10232000390F202EB3CF13E6CBCE2F923F924F9290
:102330005F926F927F928F929F92AF92BF92CF9255
:10234000DF92EF92FF920F931F93CF93DF9300D012
:1023500000D01F92CDB7DEB77C014A015B01890135
:102360001C8280E290E00E94A92B9A83898388E0F6
:102370008B8380E090E0A0ECBFE7F801808391833D
:10238000A283B38367011701F0E22F0E311CD6013F
:10239000ED916D01E03458F5F0E03896EE0FFF1F37
:1023A000EE0FFF1FEE0DFF1D408151816281738191
:1023B000CE0101960E949F0FC214D30441F78C8175
:1023C0008111C1C0D8011D921D921D921C921397BC
:1023D000D8016D917D918D919C919B01AC010E94E2
:1023E0002F2A10E0882309F4B9C013E0B7C080EAAF
:1023F0008E0F803208F07BC0E036C9F010F0E7366F
:10240000C8F09C81FD819F1708F4A7C08730A0F613
:10241000E82FF0E0E05FFD4ECE0101960C948F2B8B
:1024200071121D122E123B124A1257126412B1E0A1
:10243000BD83E7CFE2E0ED83E4CF0E94720F2B0172
:102440003C01CE0101960E94720F9B01AC01C301B9
:10245000B2010E94F327AB01BC01AACF0E94720F08
:102460002B013C01CE0101960E94720FA301920143
:102470000E94F227F0CF0E94720F2B013C01CE0187
:1024800001960E94720F9B01AC01C301B2010E9430
:102490007124E1CF0E94720F2B013C01CE01019605
:1024A0000E94720FA30192010E946428D4CF0E945F
:1024B000720F2B013C01CE0101960E94720FA30105
:1024C00092010E94B229C7CF0E94720F2B013C01DA
:1024D000CE0101960E94720FA30192010E9417295A
:1024E000BACF0E94720FAB01BC01705861CF80E877
:1024F0008E0F8037F8F48C81882379F1E13861F010
:10250000E23889F0E03809F057CFCE0101960E94F9
:10251000720F0E94022A9FCFCE0101960E94720F75
:102520000E945F2898CFCE0101960E94720F0E94F0
:102530000A2A91CFEF3F09F442CFE03409F03CCFB3
:10254000B501A40135CFCE0101960E94720FF801AA
:1025500060837183828393833BCF12E089819A8168
:102560000E94452C812F0F900F900F900F900F908D
:10257000DF91CF911F910F91FF90EF90DF90CF905F
:10258000BF90AF909F908F907F906F905F904F9093
:102590003F902F9008951F920F920FB60F92112423
:1025A0008F939F938091E1009091E100937F9093AE
:1025B000E10083FF0FC01092E90091E09093EB00DF
:1025C0001092EC0092E39093ED001092D90298E003
:1025D0009093F00082FF22C093E09093E9009091E5
:1025E000F200992319F09AE39093E8009091CA02BF
:1025F000992341F09091CA0291509093CA0291118F
:1026000001C05D9A9091D802992341F09091D8022F
:1026100091509093D802911101C0289A84FF18C05C
:102620008091E2008E7E81608093E2008091E100E3
:102630008F7E8093E1008091CB028E7E80618093BB
:10264000CB029F918F910F900FBE0F901F90189506
:1026500080FFF7CF8091E2008E7E80618093E20060
:102660008091E1008E7E8093E1008091CB028E7E8E
:102670008160E5CF1F920F920FB60F921124CF9277
:10268000DF92EF92FF920F931F932F933F934F93FD
:102690005F936F937F938F939F93AF93BF93EF93CA
:1026A000FF93CF93DF93CDB7DEB76C97DEBFCDBF7F
:1026B0001092E9008091E80083FF25C068E0CE0118
:1026C00045960E941E0882EF8093E8008D8987FF5F
:1026D00039C09091E80090FFFCCF982F907609F0D8
:1026E00034C19E894F89588D2F89F88C911131C042
:1026F000803861F58091C9028093F1001092F10059
:102700008EEF8093E8006C960FB6F894DEBF0FBE94
:10271000CDBFDF91CF91FF91EF91BF91AF919F918D
:102720008F917F916F915F914F913F912F911F9169
:102730000F91FF90EF90DF90CF900F900FBE0F9012
:102740001F9018959EEF9093E800C7CF1092F1006C
:10275000D5CF913059F48111D3CF4130510581F655
:102760008091C9028D7F8093C902CACF933049F40A
:102770008111C6CF4130510519F68091C90282609E
:10278000F2CF953041F48091E80080FFFCCF2068C3
:102790002093E300B5CF963009F0A9C00B8D1C8DB6
:1027A00022E01092E9001092C7021092C602F212C3
:1027B0002EC01092C5021092C4020E94ED071F8223
:1027C00099E09983FA8291E09E8390EA98879AEF44
:1027D00099872091C6023091C702275F3F4F3C8303
:1027E0002B838D831092E9001092C7021092C602CB
:1027F0001093C5020093C40249E050E0BE016F5F30
:102800007F4F80E00E94C7070E94ED0779CF1093A9
:10281000C5020093C4020E940407DC0112960D91C8
:102820001C910115110509F451C1D801ED91FC91DC
:102830000480F581E02DBE016B5E7F4FC8010995D4
:10284000009709F03EC1F80100851185EACFF3E059
:10285000FF120EC08F89882309F440C0823061F4D2
:1028600040E867E08DE496E00E94B615811148CFFC
:1028700081E28093EB0047CF813029F440E86BE0A0
:1028800081E496E0F1CF833099F70E940407DC01E0
:102890001296ED90FC908E010F5F1F4F6801E114BE
:1028A000F10479F0D701ED91FC910680F781E02DDC
:1028B000B801C7010995080F111DF701E084F184E3
:1028C000EECFD8011C92F60101900020E9F7319774
:1028D000BF016C197D0940E0C601C6CF6BE276E00E
:1028E000FB01449150E080E80E94C70709CF973070
:1028F00009F4BECF983021F481E08093F10000CF3D
:10290000993009F0FDCE837009F0B2CFE9E4F1E02F
:1029100081E031E096E32191222371F08093E90078
:102920003093EB00DF0111972C912093EC009093F2
:10293000ED008F5F873079F78EE78093EA00109281
:10294000EA008F898093D902DBCE8B8D9C8D10920B
:10295000E9001092C7021092C6029093C5028093BC
:10296000C402898D811192C08E899D89913A49F462
:10297000813209F07DCF47E050E068E271E080E00D
:10298000B3CF913209F074CF833269F48F89988D77
:10299000B0E0A0E08093240190932501A09326014C
:1029A000B0932701ADCE803269F48091E80082FFB8
:1029B000FCCF67E088E291E00E941E088BEF8093D5
:1029C000E8009ECE823209F09BCE8F8980932F0142
:1029D000EEEFFFE7859194918B3F9C4D51F1E0E044
:1029E000F8E08091280190912901A0912A01B091ED
:1029F0002B01803B9440A105B105F1F480912F019A
:102A000080FD1AC0EE3F8AE0F80789F587E797E76F
:102A100091838083809160008093C80288E19BE06D
:102A20000FB6F894A895809360000FBE9093600055
:102A300067CEEEEFFAE0D5CF808191818737974757
:102A400009F05ECEA8958091600088618093600057
:102A50008091C80280936000EE3F2AE0F20789F07F
:102A60008091FE0A9091FF0A9183808349CE8081F4
:102A700091818737980751F29093FF0A8093FE0A5D
:102A8000C5CF1092FF0A1092FE0A3ACE0E940407A8
:102A9000DC0112960D911C910115110509F4E8CE87
:102AA000D801ED91FC910190F081E02DBE016B5EAB
:102AB0007F4FC8010995811123CEF801008511854A
:102AC000EBCF181619060CF41BCED2CEF1E0FF1294
:102AD000BECE6FE276E004CF1F920F920FB60F9238
:102AE00011242F933F938F939F93AF93BF93809124
:102AF000DC029091DD02A091DE02B091DF02309104
:102B0000C00123E0230F2D3758F50196A11DB11DFB
:102B10002093C0018093DC029093DD02A093DE023B
:102B2000B093DF028091C1019091C201A091C301D5
:102B3000B091C4010196A11DB11D8093C101909374
:102B4000C201A093C301B093C401BF91AF919F9103
:102B50008F913F912F910F900FBE0F901F9018955E
:102B600026E8230F0296A11DB11DD2CFEF92FF924E
:102B70000F931F93CF93DF93F82E192FE62E042F78
:102B800081E0860F880F0E94990783E00E949907D1
:102B9000CF2DD12FEC0EFD2EF11CCE15DF05B9F097
:102BA00007FF13C0FE0184910E949907182F80E04F
:102BB0000E949907812321968111EFCFDF91CF9158
:102BC0001F910F91FF90EF9008958881EDCF81E0E4
:102BD000F5CFBC0180E80E94440BFFCFE0EEF2E0AD
:102BE0001382128288EE93E0A0E0B0E084839583A4
:102BF000A683B78383E591E0918380838FEF9FEF76
:102C000095878487EFE6F7E01582168280E1878357
:102C100014821382118681E791E091838083EAE533
:102C2000F7E01382128285E691E0918380838AE542
:102C300093E09683858380E890E09087878380E4A3
:102C400090E09287818787E0848B81E0838B168672
:102C50001586108A17861486138681E090E0928B81
:102C6000818B1482E0E3F3E08CE081A382A311A6C0
:102C70000895CF93DF93CDB7DEB7CF5ED1400FB6C7
:102C8000F894DEBF0FBECDBF789484B5826084BD5A
:102C900084B5816084BD85B5826085BD85B5816060
:102CA00085BD80916E00816080936E0010928100DE
:102CB0008091810082608093810080918100816099
:102CC000809381008091800081608093800080915A
:102CD0009100826080939100809191008160809347
:102CE0009100809190008160809390008091C1005C
:102CF00084608093C1008091C10082608093C10094
:102D00008091C10081608093C1008091C300816087
:102D10008093C3008091C00082608093C000809146
:102D2000C20081608093C20080917A0084608093A9
:102D30007A0080917A00826080937A0080917A0094
:102D4000816080937A0080917A00806880937A0015
:102D50001092D9021092C9021092CB028091D70032
:102D600081608093D70080EA8093D80089B5806124
:102D700089BD89B5826089BD09B400FEFDCF61E0DF
:102D800070E080E090E00E947E088091D8008F7C07
:102D900080618093D8008091E000807F8093E00084
:102DA0008091E1008E7E8093E1008DE08093E200CF
:102DB000559A209A81EC80937C0085B1806F85B90B
:102DC00084B1877E84B984B1876E84B95E9A5F9836
:102DD0008AB1806D8AB9769A6E9881B3806F81BB13
:102DE000899880B38D7080BB80E58CBD81E08DBDFE
:102DF00085E090E00E9438095F9A85E090E00E94AB
:102E000038095E985C98E6E4F5E083E595E0249166
:102E10002EBD00000DB407FEFDCF31968E179F0723
:102E2000B1F75C9A81E880936400809165008160CD
:102E3000809365000E94A6030E943D0987FF15C08C
:102E40005C9885EA8EBD00000DB407FEFDCF5C9A4C
:102E50002E982F982D988091640080628093640052
:102E600081E083BF889513BEFCCF0E943D0982FF9D
:102E700048C02D980E943D0984788438E1F40E946E
:102E8000360988EC90E00E9438092F9882E090E0A3
:102E90000E9469278F3F29F06FEF82E090E00E9447
:102EA000712784EF91E00E9438092F9A0E943D0912
:102EB00084788438D9F30E943D0984718431E1F427
:102EC0000E94360988EC90E00E9438092E9882E032
:102ED00090E00E946927882329F060E082E090E07A
:102EE0000E94712784EF91E00E9438092E9A0E9477
:102EF0003D0984718431D9F388EC90E00E9438094F
:102F0000B4CF0E94360982E090E00E9469278823AE
:102F100009F415C13E9A3F9A81E090E00E9469272A
:102F2000182F147081E090E00E94692781FF0EC085
:102F300011112E9880EFE82EFF24FA940E943D098B
:102F400086FF00C12E9A2F9A0E94360982E390E0F4
:102F50000E9438090E943D098111F8CF60E071E0BC
:102F600084E692E00E94C80F10925B0210925C020D
:102F700010925D0210925E0280E090E0A0E8BFE354
:102F800080935F0290936002A0936102B09362020B
:102F900002E4E02EF12C12E6612E712C0E94B403A3
:102FA000882309F432C580917407809375070E94C5
:102FB0003D098093740780912301882309F4E0C1BF
:102FC000EAE5F3E02AE537E085E59191DF01119725
:102FD00098239C9380952E173F07B9F70E94A6036C
:102FE0000E944E0580E6E4E6F2E0DE01AF5DBE4FF2
:102FF00001900D928A95E1F71091310160E070E047
:10300000CB010E94AA0521E0412F70E060E0082E6C
:10301000000C990B0E94AA091091300160E070E049
:10302000CB010E941C06682F880F770B21E0412FEF
:1030300090E080E00E94860920E030E0A9016091E4
:103040003A0170913B0180913C0190913D010E94B9
:103050000B2487FFAEC020E030E0A90160913E0163
:1030600070913F0180914001909141010E94AD29F2
:1030700018160CF09EC08090320190903301A09001
:103080003401B090350120E030E0A901C501B40160
:103090000E94AD2920E030E040E05FE387FD7FC083
:1030A000C501B4010E94F3270E94D6280E94122471
:1030B0004B015C012090360130903701409038017F
:1030C0005090390120E030E0A901C201B1010E9415
:1030D000AD2920E030E040E05FE387FD65C0C2013C
:1030E000B1010E94F3270E94D6280E9412249B015E
:1030F000AC01C501B4010E940B2418160CF459C090
:1031000060E070E0CB010E941C06182FC501B401DD
:103110000E94AA05612F110F770B6150710921E000
:1031200042E0082E000C990B0E94AA0920E030E032
:1031300040E85FE3C501B4010E94F327B9CF3E9890
:103140003F98EACE112331F024E0E216F10411F4A5
:103150002E9A2F9881E00E94970300E128E546E926
:1031600054E0B70184E190E00E94E9030E94A603C5
:103170008FE090E00E9438093FEFE31AF30A89E1FB
:10318000E816F10409F0DACE112311F02F9A2D98E8
:1031900080E991E00E9438090E943609D7CEC50126
:1031A000B4010E94F22780CFC201B1010E94F22730
:1031B0009ACF20E030E0A901609132017091330193
:1031C00080913401909135010E940B2487FF7BC0D0
:1031D00020E030E0A90160913601709137018091C3
:1031E0003801909139010E94AD2918160CF06BC07E
:1031F00080903A0190903B01A0903C01B0903D013D
:1032000020E030E0A901C501B4010E94AD2920E011
:1032100030E040E05FE387FD4CC0C501B4010E948F
:10322000F3270E94D6280E9412244B015C012090B3
:103230003E0130903F01409040015090410120E01C
:1032400030E0A901C201B1010E94AD2920E030E0C7
:1032500040E05FE387FD32C0C201B1010E94F32765
:103260000E94D6280E9412249B01AC01C501B40122
:103270000E940B2418163CF1C501B4010E941C06E3
:10328000182F60E070E0CB010E94AA05612F110F9A
:10329000770B21E042E0082E000C990B0E94860972
:1032A00020E030E040E85FE3C501B4010E94F3276D
:1032B000BCCFC501B4010E94F227B3CFC201B10156
:1032C0000E94F227CDCF80E00E945B05AB01BC01DC
:1032D0009E012F513E4FCE018F5D9E4F0E94951152
:1032E000B82E882309F404C193E0891709F400C1BA
:1032F0000E94970B80E6E4E6F2E0DE01AF57BE4F96
:1033000001900D928A95E1F703E312E0D12CC12CD4
:10331000B6010D2C000C880B990B0E9412242091F1
:103320005F023091600240916102509162020E94FE
:10333000712420915B0230915C0240915D025091BA
:103340005E020E94F327AB01BC01F8014193519347
:10335000619371935F0198012C5E3F4FCE018F57AF
:103360009E4F0E949511FFEFCF1ADF0A850125E0DD
:10337000C216D10469F681E08093630210922301A2
:1033800020912201222319F081E080932101809174
:1033900020018111ABC10E944E0580E80E94A90363
:1033A000882339F080913202882319F0815080936C
:1033B000320280E10E94A903882329F08091320221
:1033C0008F5F8093320280E20E94A90381111092E4
:1033D000310280E40E94A903882319F081E08093E0
:1033E000310288E00E94A9038823E9F000913202AB
:1033F00010E080913102882309F460C10C591D4FFF
:10340000F801608170E090E080E00E94102440E0CC
:103410000E94A00D0091320210E00C591D4F0E9435
:10342000DD28F801608384E00E94A903882349F025
:1034300081E08093230180932101809320011092E9
:10344000320274E8872E72E0972EE4E6CE2EE2E098
:10345000DE2E10E000E0F0E4AF2EB12C10926807F1
:1034600010926707109266071092650710936A071B
:1034700000936907F40161917191819191914F01DC
:1034800042E00E94190EB0926807A0926707B092BE
:103490006607A092650710936A0700936907F60113
:1034A00061916F0170E090E080E040E10E94A20B2A
:1034B000095F1F4F0833110589F680913202F7E04A
:1034C0008F9FC001112420E230E0309368072093E1
:1034D0006707309366072093650790936A07809388
:1034E000690780913102882309F4FCC08EE3FBC098
:1034F000CF51DE4F688179818A819B81C15ED14045
:103500000E941C06882EE1E0CB51DE4FE883C55EA9
:10351000D14080913001CB51DE4FF881C55ED14062
:10352000F81708F0E7CE8F2F0E945B05AB01BC01B6
:103530009E012F513E4FCE018F5D9E4F0E949511EF
:10354000C851DE4F8883C85ED140CF51DE4F6881BD
:1035500079818A819B81C15ED1400E941C06C7513E
:10356000DE4F8883C95ED140C851DE4F2881C85ED6
:10357000D14021118DC0CB51DE4F3881C55ED14085
:10358000032F10E0C82E880FDD08B1107CC0082C76
:10359000000C9908C801019726014818590857FEE0
:1035A00003C0519441945108E2E04E16510454F482
:1035B0003C2D2D2D6801032F122F382D292D4C0164
:1035C000832F922FC814D90454F0302F212F8C014F
:1035D000832F922F3C2D2D2D6401832E922E1401CA
:1035E0002C183D089C01201B310BCA51DE4F39833A
:1035F0002883C65ED14037FF09C031952195310936
:10360000CA51DE4F39832883C65ED140510137FE4F
:1036100003C03FEFA31AB30AB594A794081719077C
:1036200084F581E0E82F880FFF0BC251DE4FF9834C
:10363000E883CE5ED1408C149D0454F141E0B60184
:10364000C801F2E04F16510414F4B801C6010E94FB
:103650008C09CA51DE4F28813981C65ED140A21A39
:10366000B30AB7FE0AC0C251DE4F88819981CE5E8F
:10367000D140080F191FA20CB31C9FEFC91AD90A19
:10368000DACF8FEFCFCF41E0B601C8010E948C099D
:10369000CB51DE4FE881C55ED140EF5FCB51DE4FAD
:1036A000E883C55ED140C751DE4F8880C95ED140F6
:1036B000C851DE4FB880C85ED1402BCF000F111F1C
:1036C000000F111F0C571D4FF8016081718182811D
:1036D000938143E00E94A00DF8016083718382838F
:1036E0009383A1CE8CE30E942E0B8DC1813009F013
:1036F000A9C190E080E0FC01E656FC4F20E010827A
:103700002F5FE058FF4F2830D1F7019680349105A4
:1037100091F780E80E94A903882339F08091320252
:10372000823018F082508093320280E10E94A90317
:10373000882339F080913202843018F48E5F8093B0
:10374000320280E20E94A903882339F0809132027C
:10375000882319F081508093320280E40E94A903EB
:10376000882339F080913202863018F48F5F80937D
:10377000320288E00E94A903882391F080913202EE
:10378000823009F459C108F048C1882309F44EC1B8
:10379000813009F44FC181E08093210110923202FF
:1037A00080912101882309F42EC121E04FE370E0CC
:1037B00060E081E490E00E94450921E040E461E09E
:1037C00070E080E490E00E94450921E04FE36FE360
:1037D00070E081E490E00E94450921E04DE362E061
:1037E00070E080E490E00E94AA0921E04DE362E0ED
:1037F00070E080E690E00E94AA0902E010E021E07B
:1038000040E4B80180E490E00E9486090C5E1F4FFE
:1038100002351105A1F7F0926807E0926707F09270
:103820006607E092650704E010E010936A070093D2
:10383000690780EE95E00E94130B70926807609212
:103840006707709266076092650710936A07009396
:10385000690789ED95E00E94130BF0926807E092EA
:103860006707F0926607E092650708E110E01093A1
:103870006A070093690783ED95E00E94130B70922D
:1038800068076092670770926607609265071093F9
:103890006A070093690788EC95E00E94130BF09289
:1038A0006807E0926707F0926607E09265070CE20E
:1038B00010E010936A070093690781EC95E00E947D
:1038C000130B7092680760926707709266076092A8
:1038D000650710936A070093690786EB95E00E94DD
:1038E000130B54E6A52E55E0B52E10E064E1D62E5C
:1038F000612F66956D9DB0011124635F7F4F212F6D
:103900002170C651DE4F2883CA5ED140C551DE4FBB
:103910001882CB5ED140C651DE4F88819981CA5E44
:10392000D14045E0880F991F4A95E1F708E028E06B
:10393000A501895A9F4F0E94E9031F5F38E0A30E3B
:10394000B11C1630A9F680913202C82EC694CD9CC7
:1039500060011124560192E0A90EB11C8170C4517E
:10396000DE4F8883CC5ED140C351DE4F1882CD5EDE
:10397000D140C451DE4F08811981CC5ED14025E091
:10398000000F111F2A95E1F70F5B1F4F20E04FE159
:10399000B501C8010E948609B6016A5E7F4F20E02A
:1039A0004FE1C8010E948609B6016F5F7F4F21E099
:1039B00040E2C8010E948609B601695E7F4F21E09E
:1039C00040E2C8010E948609E4E1CE0ED11C912C90
:1039D00033E0832E482D491921E0B601C8010E9429
:1039E000AA09939421E0492DB501C8014C960E9483
:1039F000AA090F5F1F4FFFEFCF1ADF0A23E09212D1
:103A0000E9CF109221010E94A60380E090E0892B6B
:103A100009F4C4CA0E940000BECA843089F070F064
:103A2000863009F0B8CE10922001B5CE82E08093A6
:103A30002001B1CE83E0FBCF84E0F9CF85E0F7CF62
:103A400086E0F5CF823009F08FC090E080E0FC0185
:103A5000E656FC4F30E010823F5FE058FF4F3830B1
:103A6000D1F701968034910591F72223C1F18CE4BE
:103A7000809351038CE08093520311E0109358031C
:103A800044E050E069E576E084E593E00E94EA23B3
:103A9000109353031092590380915003882339F0F7
:103AA0008150E82FF0E0E05DFC4F1082F7CF1092DC
:103AB000500360E071E080E393E00E94942D8091D8
:103AC00050038F5F21E0280FE82FF0E0E05DFC4F0E
:103AD0009081911141C080935003109222010E9465
:103AE000DA0C809159038823A9F060E373E084E63F
:103AF00092E00E94C80F811131C060E373E080E062
:103B000091E00E94942D81E0809323018093220113
:103B10008093200101E02BE040E470E060E080E46D
:103B200090E00E94D309F0926807E0926707F09254
:103B30006607E092650782E090E090936A078093C1
:103B4000690780E393E00E94370B81EB91E00E94CC
:103B5000370B0E94E60B57CF822FB4CF0E94970BF2
:103B600081E080932201D6CF833009F0FDC090E040
:103B700080E0FC01E656FC4F20E010822F5FE05809
:103B8000FF4F2830D1F701968034910591F780E8F6
:103B90000E94A903882339F080913202882319F00A
:103BA00081508093320280E10E94A903882339F07A
:103BB00080913202833018F48F5F8093320288E064
:103BC0000E94A903882381F080913202813009F498
:103BD0008FC008F479C0823009F49EC0833009F4A4
:103BE000AFC081E08093230184E00E94A903882371
:103BF00039F081E0809321018093200110923202FC
:103C000088E490E090936807809367079093660735
:103C10008093650784E090E090936A07809369073A
:103C200081EB95E00E94130B60913201709133019A
:103C3000809134019091350143E050E00E94F10EF3
:103C40008CEA95E00E94130B609136017091370168
:103C5000809138019091390143E050E00E94F10ECB
:103C600087EA95E00E94130B60913A0170913B0145
:103C700080913C0190913D0143E050E00E94F10EA3
:103C800082EA95E00E94130B60913E0170913F0122
:103C9000809140019091410143E050E00E94F10E7B
:103CA0008091320237E0839FC00111240496F09284
:103CB0006807E0926707F0926607E09265079093C5
:103CC0006A078093690712CC6091320170913301C9
:103CD000809134019091350143E00E94A00D6093E2
:103CE000320170933301809334019093350179CF81
:103CF00060913601709137018091380190913901BE
:103D000043E00E94A00D60933601709337018093C9
:103D100038019093390165CF60913A0170913B0170
:103D200080913C0190913D0143E00E94A00D609381
:103D30003A0170933B0180933C0190933D0151CF38
:103D400060913E0170913F0180914001909141014D
:103D500043E00E94A00D60933E0170933F01809369
:103D60004001909341013DCF843009F029C290E099
:103D700080E0FC01E656FC4F28E010822150E0581C
:103D8000FF4F2111FACF01968034910591F780E819
:103D90000E94A903882309F44BC080E6E4E6F2E020
:103DA000DE01AF53BF4F01900D928A95E1F720914C
:103DB0005F02309160024091610250916202609115
:103DC0005B0270915C0280915D0290915E020E94A4
:103DD000F227AB01BC0140935B0250935C026093FD
:103DE0005D0270935E02E3E4F2E0B291A2919291DF
:103DF000829184839583A683B78384899589A689D4
:103E0000B789808F918FA28FB38F82E0E333F80759
:103E100061F74093330250933402609335027093FC
:103E2000360227E432E0CE018F539F4F0E94951156
:103E300080E10E94A903882309F45CC080E6E4E6DF
:103E4000F2E0DE01AF59BF4F01900D928A95E1F784
:103E500020905F02309060024090610250906202B8
:103E600020915B0230915C0240915D0250915E02B4
:103E7000C201B1010E94F3274B015C0180925B02F9
:103E800090925C02A0925D02B0925E02E3E3F2E0E7
:103E900084819581A681B78181939193A193B193F8
:103EA00084899589A689B789808B918BA28BB38BE6
:103EB00023E432E02E173F0759F720E030E040E8D6
:103EC00050E4C201B1010E947124A50194010E9435
:103ED000F327AB01BC01409343025093440260932B
:103EE00045027093460227E532E0CE018F599F4F7D
:103EF0000E94951188E00E94A903882309F455C007
:103F000060915F0270916002809161029091620203
:103F100043E00E94A00D60935F0270936002809363
:103F200061029093620280E6E4E6F2E0DE0111961F
:103F300001900D928A95E1F703E312E0D12CC12C98
:103F4000B6010D2C000C880B990B0E9412242091B5
:103F50005F023091600240916102509162020E94C2
:103F6000712420915B0230915C0240915D0250917E
:103F70005E020E94F327AB01BC01F801419351930B
:103F8000619371935F0198012C5E3F4FCE010196C2
:103F90000E949511FFEFCF1ADF0A850125E0C216B6
:103FA000D10471F681E08093630284E00E94A9034A
:103FB000882329F081E08093210180932001EAE9A0
:103FC000F3E08FEF819333E0EA3BF307D9F7EBEBB4
:103FD000F3E08FEF819393E0EA3DF907D9F78093FF
:103FE0001A0480939A0480931A0580939A0580930B
:103FF0001A0680939A0680931A0710926C07109203
:104000006B07E1E4F0E0F0936807E0936707F09353
:104010006607E093650710926A071092690782E6C7
:1040200095E00E94130B7092680760926707709288
:1040300066076092650710926A07109269078DE51E
:1040400095E00E94130B21E030E030936C07209341
:104050006B0793E3A92E92E0B92E08E010E0480127
:104060003FEF831A930AF0926807E0926707F09295
:104070006607E092650790926A0780926907F501EA
:1040800061917191819191915F0142E00E94190EBD
:10409000F5012088318842885388A2019101C2012C
:1040A000B1010E942F2A882309F478C081E6C82E26
:1040B000D12C21E048E0B801C6010E94AA09FFEF17
:1040C000CF1ADF0A20E8C216D10499F710926C07C4
:1040D00010926B077092680760926707709266078C
:1040E0006092650790926A078092690787E595E07C
:1040F0000E94130B81E090E090936C0780936B0714
:1041000021E048E0B80180E690E00E94AA09B801E9
:10411000685F7F4F21E040E480E490E00E948609E0
:10412000075F1F4F0533110509F099CF21E040E4E7
:1041300065E370E080E490E00E944509F092680732
:10414000E0926707F0926607E0926507E7E3F0E028
:10415000F0936A07E093690783E595E00E94130BEB
:1041600060915F02709160028091610290916202A1
:1041700042E00E94190E21E04AE066E370E085E724
:1041800090E00E94AA0908E028E044E955E067E3CE
:1041900070E087E790E00E94E90335CC70926807F1
:1041A00060926707709266076092650790926A074F
:1041B0008092690742E0C201B1010E94190EA0CFAE
:1041C000853009F0DEC0222339F1809130018695D7
:1041D0008093DA020E945B05AB01BC0140932D0283
:1041E00050932E0260932F027093300229E232E046
:1041F00084E692E00E9495116091290270912A0252
:1042000080912B0290912C020E941C068093DB026D
:104210000E948E061092220190E080E0FC01E6569A
:10422000FC4F20E010822F5FE058FF4F2830D1F77D
:1042300001968034910591F780E20E94A9038823BA
:1042400059F10E948E068091DA0218161CF48150F2
:104250008093DA028091DA020E945B05AB01BC0117
:1042600040932D0250932E0260932F0270933002E0
:1042700029E232E084E692E00E94951160912902E1
:1042800070912A0280912B0290912C020E941C06B0
:104290008093DB020E948E0680E40E94A90388239B
:1042A000A1F10E948E068091DA02482F082E000CA0
:1042B000550B209130012150330B421753071CF44A
:1042C0008F5F8093DA028091DA020E945B05AB0176
:1042D000BC0140932D0250932E0260932F027093E5
:1042E000300229E232E084E692E00E94951160916A
:1042F000290270912A0280912B0290912C020E9437
:104300001C068093DB020E948E06F0926807E09202
:104310006707F0926607E092650782E090E090936D
:104320006A07809369078FE995E00E94130B6091FB
:104330002D0270912E0280912F029091300242E066
:1043400050E00E94F10E8CE995E00E94130B609101
:10435000290270912A0280912B0290912C0242E056
:1043600050E00E94F10E84E00E94A903882309F422
:104370004ACB0E948E0681E0809320018093220127
:1043800042CB863009F071C011E01093580344E02D
:1043900050E069E576E084E593E00E94EA2310931B
:1043A00053031092590380915003811133C010922E
:1043B000500380915903811134C00E94B4038823B3
:1043C000C1F380917407809375070E943D09809323
:1043D00074070E944E050E94DA0C0E94E60B2091A1
:1043E00052032850330B8091510390E00296909332
:1043F00068078093670790936607809365073093FB
:104400006A072093690780E393E00E94370B0E94BC
:10441000A603CFCF8150E82FF0E0E05DFC4F108283
:10442000C4CF809150038823D1F060E373E089EC1E
:1044300091E00E94C80F81110FC025EC31E040E0EF
:1044400050E0BA0189EC91E00E949511811104C0FD
:104450008CE380932001D7CA0E94970BD4CA81E0D5
:10446000809320018093230189CF8C3309F0CBCA3C
:104470000E944E0588E00E94A903882319F086E077
:104480008093200184E00E94A903882339F081E011
:10449000809320018093230180932201109268076A
:1044A00010926707109266071092650710926A07CC
:1044B0001092690780E393E00E94370B81EB91E053
:1044C0000E94370B6091C5017091C6018091C701B0
:1044D0009091C80142E050E00E94F10E94CAEF9220
:1044E0000F931F93CF93DF93E80134E047FD34E14E
:1044F000042E000C550B57FF03C0519541955109EF
:10450000E32E022F242FAE010E94DE24CE01DF9184
:10451000CF911F910F91EF900895B0E0A0E0E3E9F3
:10452000F2E20C9490275C017B016115710519F092
:10453000DB018D939C9385010F5F1F4FF501D081A7
:104540008D2F90E00E94E1236C01892BB9F5DD32BB
:10455000B9F50F5F1F4FD5011196DC91C1E05801ED
:10456000F1E0AF1AB10843E050E068E771E0C5013F
:104570000E94F323892B69F5680182E0C80ED11CE3
:1045800045E050E063E771E0C6010E94F323892B08
:1045900021F4680197E0C90ED11CE114F10419F06F
:1045A000D701CD92DC9260E070E080E89FEFC1110E
:1045B000FFC060E070E080E89FE7FAC05801BBCF21
:1045C000DB3229F485010E5F1F4FF501D181C0E078
:1045D000C6CF43E050E060E771E0C5010E94F323DD
:1045E000892BE9F0F80110E000E020E030E0A901BB
:1045F0005F01B0ED8B2E8D0E89E08815C8F19C2EE1
:10460000689491F88C2F8870C2FF16C0811102C087
:104610000F5F1F4F3196D501DC91C92DE9CFE11411
:10462000F10429F00E5F1F4FF7011183008360E052
:1046300070E080EC9FE7BCC0882311F001501109A5
:10464000A5E0B0E00E947F279B01AC01220F331F41
:10465000441F551F280D311D411D511D283999E951
:104660003907490799E15907A8F2C6609C2ED2CFB5
:10467000AEEF8A1206C0C3FD3CC09C2E689493F82E
:10468000C9CFDF7DD534A9F580818D3239F4C06181
:10469000DF011296818162E070E006C0DF018B329B
:1046A000C1F3119661E070E080535D01A61AB70A6C
:1046B0008A30F8F4E0E8CE16ECE0DE065CF4B601F1
:1046C000660F771F660F771FC60ED71ECC0CDD1C3A
:1046D000C80ED11C5D01FFEFAF1ABF0A8C91805349
:1046E0008A30A8F1C4FF03C0D194C194D1080C0D45
:1046F0001D1DC1FF09C0E114F10431F081E0A81AC9
:10470000B108D701AD92BC92CA01B9010E94102430
:10471000C370C33009F490584B015C0120E030E0D5
:10472000A9010E940B24882309F440C0C7EAD1E004
:1047300017FF05C0119501951109CFE8D1E06E0171
:10474000B8E1CB1AD10880E2E82EF12C0FC0D501D8
:10475000B1CFFE0125913591459154910E191F0954
:10476000C501B4010E9471244B015C01D501C40153
:104770000E151F0574F72497F594E794CC16DD0603
:10478000A9F78A2F880F8B2F881F8F3F49F020E0D1
:1047900030E0A901C501B4010E940B24811106C0BB
:1047A00082E290E090937B0780937A07C501B40181
:1047B000CDB7DEB7ECE00C94AC27662777270C94D6
:1047C0008D2291110C941527803219F08950855053
:1047D000C8F70895FB01DC0102C005900D9241501D
:1047E0005040D8F70895FB01DC014150504088F05B
:1047F0008D9181341CF08B350CF4805E65916134B1
:104800001CF06B350CF4605E861B611171F3990B23
:104810000895881BFCCF0E944D2408F481E0089580
:10482000E89409C097FB3EF490958095709561954A
:104830007F4F8F4F9F4F9923A9F0F92F96E9BB2700
:104840009395F695879577956795B795F111F8CF7C
:10485000FAF4BB0F11F460FF1BC06F5F7F4F8F4FE7
:104860009F4F16C0882311F096E911C0772321F0DD
:104870009EE8872F762F05C0662371F096E8862F75
:1048800070E060E02AF09A95660F771F881FDAF7CC
:10489000880F9695879597F90895990F0008550FF9
:1048A000AA0BE0E8FEEF16161706E807F907C0F0B6
:1048B00012161306E407F50798F0621B730B840BBE
:1048C000950B39F40A2661F0232B242B252B21F498
:1048D00008950A2609F4A140A6958FEF811D811D38
:1048E00008950E9484240C942F270E94212738F0D9
:1048F0000E94282720F0952311F00C9418270C947F
:104900001E2711240C9463270E94402770F3959F63
:10491000C1F3950F50E0551F629FF001729FBB27B6
:10492000F00DB11D639FAA27F00DB11DAA1F649F52
:104930006627B00DA11D661F829F2227B00DA11D05
:10494000621F739FB00DA11D621F839FA00D611D8B
:10495000221F749F3327A00D611D231F849F600DAC
:10496000211D822F762F6A2F11249F5750409AF0D5
:10497000F1F088234AF0EE0FFF1FBB1F661F771F61
:10498000881F91505040A9F79E3F510580F00C942C
:1049900018270C9463275F3FE4F3983ED4F3869581
:1049A00077956795B795F795E7959F5FC1F7FE2BCC
:1049B000880F911D9695879597F90895A9E0B0E025
:1049C000E4EEF4E20C9490276A01F22EB02E102F40
:1049D000FBE3AF2EA01608F41BE31F5F012F27E0B7
:1049E000AE014F5F5F4F0E943D26BC018981982F29
:1049F0009970913009F43FC09BE2E1FC04C09E2D08
:104A00009170E0FC3AC05E2D5071E82FE87083FF92
:104A100046C084E0911101C083E0EF2DE81B8F15A3
:104A200008F0E0E0D6018E2F20E2552351F19923C2
:104A300029F0D6019C93C60101966C0196012D5F69
:104A40003F4FE2FE24C08EE4D6018C9391E4119690
:104A50009C93119712968C93D9018E2F90E281111D
:104A60001BC0E20FF32FF11D10828EEF9FEF2996EE
:104A7000ECE00C94AC279DE2C6CF90E2C4CF2D931E
:104A800081508111FCCFCE0ED11CE0E0D0CF8EE65C
:104A9000D6018C9391E6DBCF9D938150E0CF482FD8
:104AA000447082FF3DC084E0911101C083E08F1506
:104AB00010F4EF2DE81BD6018E2F20E2552309F1CB
:104AC000992329F0D6019C93C60101966C019601A9
:104AD0002D5F3F4FE2FE1BC089E4D6018C938EE42C
:104AE00011968C93119786E412968C93D9018E2F90
:104AF00090E2882309F4B5CF9D938150FACF2D938E
:104B000081508111FCCFCE0ED11CE0E0D9CF89E6D7
:104B1000D6018C938EE611968C93119786E6E4CF9E
:104B20009B0177FF02C030E020E0A1E0B0E09111EE
:104B300002C0B0E0A0E0F9013196AE0FBF1F8B2C90
:104B4000912CBB2009F461C05401EFEFAE1ABE0AEC
:104B5000AA0DBB1DFA161B0619F014F04F2D4A1BA7
:104B6000511188C0E3FC59C07601A42FB0E2A11115
:104B70004FC0C40ED11C992309F45BC040E0D6019C
:104B80001196F60190836D01552309F448C0012F59
:104B9000060F9A81582F507184FF03C0913309F496
:104BA000015010160CF047C0093008F008E0EEE2A2
:104BB000FE2E5B01A01AB1088501919481949108A1
:104BC0002F3F320729F4D601FC92F60131966F018E
:104BD0006217730794F1021713077CF5DB01A21B20
:104BE000B30BAA24A394B12CAC0EBD1EAA0DBB1D01
:104BF00011968C9121503109D6011196281539054D
:104C0000F4F0F60180836D01DBCFB12CA12CA0CF95
:104C1000F701B1937F01A150AACF9111B0CFD60176
:104C2000942F50E302C05D9391509111FCCFC40EBC
:104C3000D11C40E0ACCF01E0BACF80E3DBCF6217FC
:104C4000730731F4963388F4953311F4552369F0E2
:104C5000F6018083FD01842F90E2811108C0A40F2A
:104C6000B11D1C9290E080E002CF81E3F1CF9193DF
:104C70008150F3CF911183CF8ACF283008F027E0FD
:104C80003327DA01990F311D87FD91600096610588
:104C9000710539F432602E5F3D9330E32A95E1F7D8
:104CA00008959F3F30F080387105610509F03C5F41
:104CB0003C5F3D93913008F08068911DDF93CF9366
:104CC0001F930F93FF92EF92192F987F9695E92FDC
:104CD00096959695E90FFF27EB5FFD4F99273327B0
:104CE000EE24FF24A701E70105900894079428F417
:104CF000360FE71EF81E491F511D660F771F881FCC
:104D0000991F0694A1F70590079428F4E70EF81E62
:104D1000491F561FC11D770F881F991F661F0694D4
:104D2000A1F70590079428F4F80E491F561FC71FD6
:104D3000D11D880F991F661F771F0694A1F7059054
:104D4000079420F4490F561FC71FD81F990F661FDD
:104D5000771F881F0694A9F784911095177041F06A
:104D6000D695C79557954795F794E7941A95C1F747
:104D7000EBEAF1E068941590159135916591959164
:104D800005907FE27395E118F10A430B560BC90BAE
:104D9000D009C0F7E10CF11E431F561FC91FD01DDB
:104DA0007EF4703311F48A95E6CFE894015030F028
:104DB000080F0AF40027021708F4202F2395022F6A
:104DC0007A3328F079E37D932A95E9F710C07D9333
:104DD0002A9589F6069497956795379517951794B0
:104DE000E118F10A430B560BC90BD00998F0239533
:104DF0007E9173957A3308F070E37C932013B8F7B3
:104E00007E9170617D9330F0839571E37D9370E3C3
:104E10002A95E1F71124EF90FF900F911F91CF9108
:104E2000DF91992787FD9095089599278827089500
:104E300097F99F6780E870E060E008959FEF80EC4D
:104E4000089500240A9416161706180609060895F0
:104E500000240A9412161306140605060895092E56
:104E60000394000C11F4882352F0BB0F40F4BF2BC5
:104E700011F460FF04C06F5F7F4F8F4F9F4F089505
:104E800057FD9058440F551F59F05F3F71F04795FB
:104E9000880F97FB991F61F09F3F79F087950895E0
:104EA000121613061406551FF2CF4695F1DF08C0FF
:104EB000161617061806991FF1CF8695710561051C
:104EC00008940895E894BB2766277727CB0197F9C4
:104ED0000895F999FECF92BD81BDF89A992780B5C2
:104EE0000895262FF999FECF1FBA92BD81BD20BD2E
:104EF0000FB6F894FA9AF99A0FBE019608950E9497
:104F0000E327A59F900DB49F900DA49F800D911D48
:104F1000112408952F923F924F925F926F927F9249
:104F20008F929F92AF92BF92CF92DF92EF92FF92B9
:104F30000F931F93CF93DF93CDB7DEB7CA1BDB0B65
:104F40000FB6F894DEBF0FBECDBF09942A8839880A
:104F500048885F846E847D848C849B84AA84B98411
:104F6000C884DF80EE80FD800C811B81AA81B9811D
:104F7000CE0FD11D0FB6F894DEBF0FBECDBFED0131
:104F80000895A1E21A2EAA1BBB1BFD010DC0AA1F8A
:104F9000BB1FEE1FFF1FA217B307E407F50720F0A2
:104FA000A21BB30BE40BF50B661F771F881F991F1D
:104FB0001A9469F760957095809590959B01AC0166
:104FC000BD01CF010895A29FB001B39FC001A39F6F
:104FD000700D811D1124911DB29F700D811D112432
:104FE000911D08955058BB27AA270E940A280C94A7
:104FF0002F270E94212738F00E94282720F039F41B
:105000009F3F19F426F40C941E270EF4E095E7FB5D
:105010000C941827E92F0E94402758F3BA1762070B
:1050200073078407950720F079F4A6F50C9462279E
:105030000EF4E0950B2EBA2FA02D0B01B9019001B3
:105040000C01CA01A0011124FF27591B99F0593FF7
:1050500050F4503E68F11A16F040A22F232F342F3F
:105060004427585FF3CF469537952795A795F0408D
:105070005395C9F77EF41F16BA0B620B730B840BA2
:10508000BAF09150A1F0FF0FBB1F661F771F881F5A
:10509000C2F70EC0BA0F621F731F841F48F48795B2
:1050A00077956795B795F7959E3F08F0B0CF9395A4
:1050B000880F08F09927EE0F9795879508950E941D
:1050C0007029E3950C9499290E9478280C942F2735
:1050D0000E94282758F00E94212740F029F45F3FC2
:1050E00029F00C94182751110C9463270C941E2757
:1050F0000E94402768F39923B1F3552391F3951B40
:10510000550BBB27AA2762177307840738F09F5FE8
:105110005F4F220F331F441FAA1FA9F335D00E2E55
:105120003AF0E0E832D091505040E695001CCAF7C2
:105130002BD0FE2F29D0660F771F881FBB1F261785
:1051400037074807AB07B0E809F0BB0B802DBF015C
:10515000FF2793585F4F3AF09E3F510578F00C942B
:1051600018270C9463275F3FE4F3983ED4F38695A9
:1051700077956795B795F7959F5FC9F7880F911D4C
:105180009695879597F90895E1E0660F771F881F38
:10519000BB1F621773078407BA0720F0621B730BEB
:1051A000840BBA0BEE1F88F7E09508950E94DD2866
:1051B0006894B1110C94632708950E94482788F0E1
:1051C0009F5798F0B92F9927B751B0F0E1F0660FCB
:1051D000771F881F991F1AF0BA95C9F714C0B1300C
:1051E00091F00E946227B1E008950C946227672F26
:1051F000782F8827B85F39F0B93FCCF3869577953B
:105200006795B395D9F73EF4909580957095619523
:105210007F4F8F4F9F4F08950E94212720F019F054
:105220000E94282750F40C941E270C946327E92F22
:105230000E94402788F35523B1F3E7FB62177307F9
:1052400084079507A8F189F3E92FFF2788232AF01F
:105250003197660F771F881FDAF7952F552744235C
:1052600032F091505040220F331F441FD2F7BB271A
:10527000E91BF50B621B730B840BB109B1F222F42D
:10528000620F731F841FB11D31972AF0660F771FBD
:10529000881FBB1FEFCF9150504062F041F0882330
:1052A00032F0660F771F881F91505040C1F79395D9
:1052B0000C9460298695779567959F5FD9F7F7CF0E
:1052C0009F3F31F0915020F4879577956795B7957A
:1052D000880F911D9695879597F908950C941E2730
:1052E0000E944827D8F3E894E0E0BB279F57F0F0EE
:1052F0002AED3FE049EC06C0EE0FBB0F661F771F9B
:10530000881F28F0B23A62077307840728F0B25A60
:10531000620B730B840BE3959A9572F7803830F427
:105320009A95BB0F661F771F881FD2F790480C9481
:105330006229EF93E0FF07C0A2EA2AED3FE049ECC3
:105340005FEB0E940A280E942F270F90039401FC14
:105350009058ECEAF0E00C94952A0E944D2408F451
:105360008FEF0895FA01EE0FFF1F309621053105EA
:10537000A1F16115710561F48038BFE39B0749F124
:1053800068949038810561F08038BFEF9B0741F049
:1053900099234AF5FF3FE1053105210519F1E8940C
:1053A0000894E795D901AA2329F4AB2FBE2FF85F03
:1053B000D0F310C0FF5F70F4A695E0F7F73950F016
:1053C00019F0FF3A38F49F779F930DD00F9007FCA8
:1053D0009058089546F00C941E2760E070E080E835
:1053E0009FE308954FE79F775F934F933F932F93EA
:1053F0000E94F32A2F913F914F915F910E94712457
:105400000C943C2A9F930E9470290F9007FCEE5F3A
:105410000C949929DF93D92F0E947029E695D7958E
:105420002AED3FE049E45FE3B33A6207730784077C
:105430009507D7953AF0A2EA49EC90680E940A28AD
:105440000E942F27EAECF0E00E94952ADD0F13F06E
:105450000E94A92ADD0F0BF49058DF9108950E9455
:105460004D24880B990B089529F416F00C941827F5
:105470000C9462270C941E270E944827A8F39638A4
:10548000A0F707F80F92E8942BE33AEA48EB5FE7BE
:105490000E9487240F920F920F924DB75EB70F9222
:1054A0000E943B2BEDEEF0E00E946E2A4F915F913F
:1054B000EF91FF91E595EE1FFF1F49F0FE57E06861
:1054C0004427EE0F441FFA95E1F74195550B0E94D2
:1054D000B52A0F9007FE0C94A92A0895DF93CF9365
:1054E0001F930F93FF92EF92DF927B018C016894E0
:1054F00006C0DA2EEF010E948424FE01E894A591F3
:105500002591359145915591A6F3EF010E940A2806
:10551000FE019701A801DA9469F7DF90EF90FF9000
:105520000F911F91CF91DF9108959F938F937F9358
:105530006F93FF93EF939B01AC010E947124EF9155
:10554000FF910E946E2A2F913F914F915F910C9491
:1055500071249B01AC0160E070E080E89FE30C9453
:1055600064280C9418270C9460290E944827D8F3CB
:105570009923C9F3940F511DA3F39150504094F017
:1055800059F0882332F0660F771F881F91505040E2
:10559000C1F79E3F51052CF7880F911D9695879571
:1055A00097F908955F3FACF0983E9CF0BB27869535
:1055B00077956795B79508F4B1609395C1F7BB0FE0
:1055C00058F711F460FFE8CF6F5F7F4F8F4F9F4F09
:1055D000E3CF0C94632716F00C9460290C941E27DB
:1055E00068940C9418270E944827A8F39923C1F3C4
:1055F000AEF3DF93CF931F930F93FF92C92FDD2755
:1056000088232AF02197660F771F881FDAF720E09A
:1056100030E040E85FEB9FE3883920F0803E38F0CF
:1056200021968F770E94F327E5E1F1E004C00E9404
:10563000F327E2E4F1E00E946E2A8B01BE01EC0147
:10564000FB2E6F5771097595771F880B990B0E9478
:10565000122428E132E741E35FE30E948424AF2D66
:105660009801AE01FF900F911F91CF91DF910E94A1
:105670000A280C942F27FA01DC01AA0FBB1F9B01FB
:10568000AC01BF5728F4222733274427507820C085
:10569000B75190F4AB2F0024469537952795011C00
:1056A000A395D2F3002071F0220F331F441FB3954E
:1056B000DAF30ED00C94F22761307105A0E88A0766
:1056C000B94630F49B01AC0166277727882790788C
:1056D000309621F020833183428353830895991BB0
:1056E00079E004C0991F961708F0961B881F7A95D9
:1056F000C9F78095089597FB072E16F4009407D0FC
:1057000077FD09D00E94952B07FC05D03EF49095BB
:1057100081959F4F0895709561957F4F0895EE0F85
:10572000FF1F0590F491E02D0994AA1BBB1B51E1CA
:1057300007C0AA1FBB1FA617B70710F0A61BB70B01
:10574000881F991F5A95A9F780959095BC01CD01A6
:1057500008950F931F93CF93DF938230910510F438
:1057600082E090E0E0917E07F0917F0730E020E05A
:10577000B0E0A0E0309799F42115310509F44AC052
:10578000281B390B24303105D8F58A819B8161159E
:10579000710589F1FB0193838283FE0111C0408171
:1057A00051810281138148175907E0F048175907C2
:1057B00099F4109761F012960C93129713961C931C
:1057C0003296CF01DF91CF911F910F9108950093F1
:1057D0007E0710937F07F4CF2115310551F0421752
:1057E000530738F0A901DB019A01BD01DF01F8017F
:1057F000C1CFEF01F9CF90937F0780937E07CDCF84
:10580000FE01E20FF31F81939193225031093983F6
:105810002883D7CF20917C0730917D07232B41F43B
:10582000209144013091450130937D0720937C07FE
:1058300020914201309143012115310541F42DB7EA
:105840003EB74091460150914701241B350BE09132
:105850007C07F0917D07E217F307A0F42E1B3F0BA6
:105860002817390778F0AC014E5F5F4F24173507D2
:1058700048F04E0F5F1F50937D0740937C07819344
:1058800091939FCFF0E0E0E09CCFCF93DF93009720
:10589000E9F0FC01329713821282A0917E07B09149
:1058A0007F07ED0130E020E01097A1F420813181E5
:1058B000820F931F20917C0730917D0728173907AD
:1058C00009F061C0F0937D07E0937C07DF91CF91F1
:1058D0000895EA01CE17DF07E8F54A815B819E0152
:1058E00041155105B1F7E901FB83EA8349915991CB
:1058F000C40FD51FEC17FD0761F4808191810296DA
:10590000840F951FE90199838883828193819B830A
:105910008A83F0E0E0E012968D919C9113970097B6
:10592000B9F52D913C911197CD010296820F931FED
:1059300020917C0730917D072817390739F6309779
:1059400051F510927F0710927E07B0937D07A093C8
:105950007C07BCCFD383C28340815181840F951FC4
:10596000C817D90761F44E5F5F4F88819981480F4E
:10597000591F518340838A819B81938382832115A0
:10598000310509F0B0CFF0937F07E0937E079ECFFB
:10599000FD01DC01C0CF13821282D7CFB0E0A0E0BE
:1059A000E4EDFCE20C948C278C01009751F4CB01C0
:1059B0000E94A92B8C01C801CDB7DEB7E0E10C94A1
:1059C000A827FC01E60FF71F9C0122503109E217BE
:1059D000F30708F49DC0D901CD91DC911197C6174A
:1059E000D70798F0C530D10530F3CE01049786175C
:1059F000970708F3C61BD70B2297C193D1936D93DA
:105A00007C93CF010E94452CD6CF5B01AC1ABD0A16
:105A10004C018C0E9D1EA0917E07B0917F07512CEA
:105A2000412CF12CE12C109731F580917C0790915D
:105A30007D078815990509F05CC04616570608F0E1
:105A400058C08091420190914301009741F48DB775
:105A50009EB74091460150914701841B950BE81772
:105A6000F90708F055C0F0937D07E0937C07F90132
:105A700071836083A0CF8D919C91119712966C9049
:105A8000129713967C901397A815B90559F56C01D8
:105A900042E0C40ED11CCA14DB0420F1AC014A1947
:105AA0005B09DA011296159780F062827382518346
:105AB0004083D9016D937C93E114F10471F0D70117
:105AC0001396FC93EE93129776CF22968C0F9D1F20
:105AD000F90191838083F301EFCFF0937F07E09387
