:100000000C94F4020C941C030C941C030C941C031D
:100010000C941C030C941C030C941C030C941C03E4
:100020000C941C030C941C030C9405120C94741275
:100030000C941C030C941C030C941C030C941C03C4
:100040000C941C030C941C030C941C030C941C03B4
:100050000C941C030C941C030C941C030C94A61409
:100060000C941C030C941C030C941C030C941C0394
:100070000C941C030C941C030C941C030C941C0384
:100080000C941C030C941C030C941C030C941C0374
:100090000C941C030C941C030C941C030C941C0364
:1000A0000C941C030C941C030C941C0305A84CCD4D
:1000B000B2D44EB93836A9020C50B9918688083CA2
:1000C000A6AAAA2ABE000000803F07634236B79B5B
:1000D000D8A71A39685618AEBAAB558C1D3CB7CCA8
:1000E0005763BD6DEDFD753EF6177231BF00000020
:1000F000803F08000000BE922449123EABAAAA2A03
:10010000BECDCCCC4C3E00000080BEABAAAAAA3E1D
:1001100000000000BF000000803F00000000000859
:100120004178D3BB4387D1133D190E3CC3BD4282F6
:10013000AD2B3E68EC8276BED98FE1A93E4C80EFB4
:10014000FFBE01C4FF7F3F00000000004E414E494A
:100150004E495459494E46CDCCCC3D0AD7233C1785
:10016000B7D13877CC2B329595E6241FB14F0A00D2
:100170000020410000C84200401C4620BCBE4CCAC2
:100180001B0E5AAEC59D7400407A10F35A00A0723F
:100190004E18090010A5D4E80000E87648170000C2
:1001A000E40B54020000CA9A3B000000E1F5050090
:1001B0000080969800000040420F000000A08601D9
:1001C000000000102700000000E8030000000064A9
:1001D00000000000000A0000000000010000000014
:1001E000002C76D888DC674F0823DFC1DFAE59E1E9
:1001F000B1B796E5E3E453C63AE651997696E8E658
:10020000C28426EB898C9B62ED407C6FFCEFBC9C2A
:100210009F40F2BAA56FA5F490055A2AF75C936B3C
:100220006CF9676DC11BFCE0E40D47FEF520E6B5F7
:1002300000D0ED902E0300943577050080841E08D1
:100240000000204E0A000000C80C333333330F98EF
:100250006E12831141EF8D2114893BE65516CFFEB6
:10026000E6DB18D1844B381BF77C1D901DA4BBE442
:1002700024203284725E228100C9F124ECA1E53D84
:100280002712FFFDFE1813070809171904050616A3
:10029000FC01020315FC00101114FFFDFE07080904
:1002A0000405060102030010112F0300033F0A3F5B
:1002B000163F1A0904121A251A28031E21211E0AA4
:1002C000040A040E0460040404200804021E211E13
:1002D000223F2039252221251A07043F1725191E00
:1002E00025190139071A251A12251E1434040A117A
:1002F0001414110A04012D061E212D2E3E053E3F29
:10030000251A1E21213F211E3F253F051E213D3F6D
:10031000043F213F21211F3F043B3F203F020402B5
:100320003F3F02043F1E211E3F05021E312E3F05A6
:100330003A2619013F013F203F1F301F1F201C207C
:100340001F3B043B033C0339273F21020408213FA4
:100350000201022020200102142C383F2418182406
:1003600018243F1834283E0548543C3F04383D408B
:100370003D3F043A3F3C043C04383C043818241800
:100380007C241818247C3C0428141F241C203C1CAA
:10039000201C1C2038203C3408344C503C342C04A5
:1003A0003B213B213B04020604000104070A0D1116
:1003B000121416191C1D202124272A2D30333639FA
:1003C0003C3F42434447494C4F5356595C5F61633D
:1003D00066696C6E7173787C7F8285888A8D909354
:1003E000989B9EA0A2A5A7AAADAFB2B5B7BABDBF54
:1003F000C2C5C6C8CBCCD1D4D7DADDDFE1E3E6E9AC
:10040000EEF1F4F6F9FAFD0063616E277420706F67
:10041000702C20737461636B20656D707479006358
:10042000616E277420706F702C20737461636B2071
:10043000656D707479006E6F206D656D0063616E1F
:10044000277420726573697A6520746861742073FB
:100450006D616C6C006E6F206D656D0063616E2761
:100460007420726573697A65207468617420736D95
:10047000616C6C00080B000202020100090400001C
:1004800001020200000524001001052401010104FD
:100490002402060524060001070581031000400917
:1004A000040100020A0000000705020240000007E4
:1004B0000583024000000403090412010002EF0258
:1004C000014041233680000101020301417264753D
:1004D000696E6F204C4C430041726475626F790005
:1004E000F0F89C8E8783878E9CF8F00000FEFF0357
:1004F00003030303070EFCF80000FEFF03030303DE
:1005000003070EFCF80000FFFF00000000000000E1
:10051000FFFF0000FEFF8383838383C7EE7C3800E8
:1005200000F8FC0E07030303070EFCF800003F7FF2
:10053000E0C08080C0E07F3FFFFF010101010101B9
:1005400001FFFF0000FFFF0C0C0C0C1C3E77E3C109
:1005500000007FFFC0C0C0C0C0E0703F1F00001F90
:100560003F70E0C0C0C0E0703F1F00007FFFC1C10E
:10057000C1C1C1E3773E1C00001F3F70E0C0C0C096
:10058000E0703F1F000000000001FFFF01000000BD
:10059000D5F08D14A1C881CFD9F1AF200079206D9D
:1005A00061780079206D696E0078206D617800783F
:1005B000206D696E00546F6F6C73004469726563DF
:1005C00074005472616365005461626C6500576920
:1005D0006E646F770046756E6374696F6E00030515
:1005E0009A0205058102291511241FBECFEFDAE01A
:1005F000DEBFCDBF11E0A0E0B1E0E8EEFCE402C058
:1006000005900D92AE3AB107D9F726E0AEEAB1E017
:1006100001C01D92AE3AB207E1F712E0C4EFD2E09A
:1006200004C02197FE010E946624C33FD107C9F789
:100630000E9474150C9472260C940000813109F408
:100640005EC038F5853009F44EC088F4823009F474
:1006500071C030F4882309F46AC08130F1F1089543
:100660008330F1F18430D9F788E791E0089588303C
:1006700009F43FC038F48630C9F1873081F78EE73E
:1006800091E008958930C1F1803149F784E891E023
:1006900008958731E9F188F48431B9F138F4823171
:1006A00089F18331E1F688E891E00895853139F1E7
:1006B0008631A9F68FE891E008958C3F79F138F4FE
:1006C000883149F1893159F685E991E008958E3FE5
:1006D00059F138F18CE891E0089582E791E00895AE
:1006E00086E791E008958AE791E008958CE791E02C
:1006F000089580E891E0089582E891E008958AE9FC
:1007000091E0089586E891E008958AE891E00895DF
:1007100081E991E0089583E991E0089587E991E006
:10072000089589E991E008958CE991E0089580E7C2
:1007300091E0089584E791E008959091A3069823AD
:1007400029F49091A206982381E009F480E00895AD
:10075000CF9380E20E949D03882339F08091650247
:10076000882319F081508093650280E40E949D03E4
:10077000882381F02091650280916102909162024C
:10078000899FC00111240197281719061CF42F5FB7
:100790002093650280E80E949D03882349F08091A0
:1007A000650290916102891718F0891B8093650298
:1007B00080E10E949D03882399F0809165029091C9
:1007C0006102209162022150330B929FA001939FFE
:1007D000500D1124841715061CF4890F80936502AF
:1007E00088E00E949D03882339F1E09165028091A1
:1007F000630290916402E80FF92FF11D8491C0917A
:1008000086028E3FC1F180F48D3F41F10E941E03AC
:1008100021E02C0F20938602FC018081EC2FF0E078
:10082000E15AFD4F878308C081E080938702EC2F57
:10083000F0E0E15AFD4F178284E00E949D03882377
:1008400059F0E0918602EE2339F0E150E093860200
:10085000F0E0E15AFD4F1782CF910895CC2361F368
:10086000EFEFEC0FE0938602E3CFC150EC2FF0E006
:10087000E15AFD4F1782C111F8CF10928602DCCFEA
:10088000E8E8F2E0A0E0B8E000800EBC8111012CA5
:100890001197A0FDFDCF0192B9F70DB4089580E046
:1008A0000C94400480E0E8E8F2E081118FEF00242E
:1008B00081938193819381930394D1F708958FB7A6
:1008C000F89440910B0250910C0260910D027091CE
:1008D0000E028FBF8091A506942F981B8091A606CB
:1008E000882331F09093A7061092A60680E0089521
:1008F0002091A406921740F49F5F9217A0F491E014
:1009000093BF889513BE089581E08093A606409317
:10091000A5068091A0069091A10601969093A1064C
:100920008093A00681E008958F929F92AF92BF922C
:10093000CF92DF92EF92FF92C0902D01D0902E01C6
:10094000E0902F01F0903001A70196010E94EE2067
:100950004B015C01A7019601609131017091320158
:1009600080913301909134010E94EE209B01AC01F3
:10097000C501B4010E9460216B017C0160913D01C1
:1009800070E090E080E00E940C1D9B01AC01C7016B
:10099000B6010E946D1D6B017C0120E030E04EEF3E
:1009A00052E40E94A9226FE71816F4F020E030E02C
:1009B00040E053ECC701B6010E94071D60E887FDC7
:1009C00013C020E030E0A901C701B6010E94A922AE
:1009D00020E030E040E05FE387FD10C0C701B601D2
:1009E0000E94EF200E94D221862FFF90EF90DF908F
:1009F000CF90BF90AF909F908F900895C701B601A0
:100A00000E94EE20EFCF8F929F92AF92BF92CF9233
:100A1000DF92EF92FF92C0903901D0903A01E090BE
:100A20003B01F0903C01A70196010E94EE204B0192
:100A30005C01A701960160913501709136018091AA
:100A40003701909138010E94EE209B01AC01C50155
:100A5000B4010E9460216B017C0160913E0170E055
:100A600090E080E00E940C1D9B01AC01C701B60123
:100A70000E946D1D6B017C0120E030E04EEF52E4DE
:100A80000E94A9226FE71816F4F020E030E040E061
:100A900053ECC701B6010E94071D60E887FD13C033
:100AA00020E030E0A901C701B6010E94A92220E0A0
:100AB00030E040E05FE387FD10C0C701B6010E944F
:100AC000EF200E94D221862FFF90EF90DF90CF90F1
:100AD000BF90AF909F908F900895C701B6010E947C
:100AE000EE20EFCFFC018091CA01882311F13FB7BE
:100AF000F89482E08093E9002091F200822F90E048
:100B00001816190614F481E090E0882339F028982B
:100B100044E64093C9014091F1004083222339F01B
:100B20002091F200211103C02BE62093E8003FBF83
:100B300008958FEF9FEF08952FB7F89483E0809387
:100B4000E9009091E800892F807295FF04C0909190
:100B5000F20080E4891B2FBF08958091C1018111AB
:100B60000DC082E08093BD0184E08093BE011092AD
:100B7000C0011092BF0181E08093C1018DEB91E033
:100B8000089508954091B5015091B6012091B301A7
:100B90003091B40142175307B4F49091E800957076
:100BA000E1F39091E80092FD19C08093F1008091EB
:100BB000B5019091B60101968F739927892B19F48D
:100BC0008EEF8093E8008091B5019091B601019677
:100BD0009093B6018093B50181E0089580E0089577
:100BE000DF92EF92FF920F931F93CF93DF93D82E54
:100BF0008A01EB017B01E40EF51ECE15DF0559F0ED
:100C0000D7FE12C0FE0184910E94C2052196811177
:100C1000F4CF0FEF1FEFC801DF91CF911F910F911C
:100C2000FF90EF90DF9008958881EECF0F931F9390
:100C3000CF93DF931F92CDB7DEB782E0898342E482
:100C400050E064E774E080E80E94F0050E94AD0582
:100C5000DC0112960D911C910115110589F0D80146
:100C6000ED91FC910280F381E02DBE016F5F7F4F1B
:100C7000C801099597FD04C0F80100851185ECCFE6
:100C800089810F90DF91CF911F910F91089561504D
:100C900030F02091F100FC0120830196F8CF2898D4
:100CA00084E68093C9010895EF92FF920F931F93FA
:100CB000CF93DF938C017B01D0E0C0E0F701EC0F14
:100CC000FD1F6491662361F0D801ED91FC910190C4
:100CD000F081E02DC8010995892B11F02196EECF06
:100CE000CE01DF91CF911F910F91FF90EF9008956A
:100CF000AF92BF92CF92DF92EF92FF920F931F932A
:100D0000CF93DF936C017B018B01040F151FEB0167
:100D10005E01AE18BF08C017D10759F06991D6011E
:100D2000ED91FC910190F081E02DC6010995892B90
:100D300079F7C501DF91CF911F910F91FF90EF904F
:100D4000DF90CF90BF90AF900895CF93DF931F9225
:100D5000CDB7DEB76983DC01ED91FC910280F381B0
:100D6000E02D41E050E0BE016F5F7F4F09950F908D
:100D7000DF91CF91089583E08093E9008091F200A4
:100D8000882319F08AE38093E80008950E949C0567
:100D900090E00895CF93DF931F92CDB7DEB7FC01AB
:100DA0008485958597FD08C02FEF3FEF3587248711
:100DB0000F90DF91CF910895CE0101960E947205A8
:100DC000019719F4898190E0F3CF8FEF9FEFF0CF77
:100DD0000F931F93CF93DF931F92CDB7DEB78C0194
:100DE000FC018485958597FF0BC0CE0101960E947A
:100DF0007205019771F4898190E0F80195878487E5
:100E0000F801848595850F90DF91CF911F910F9107
:100E100008958FEF9FEFF1CFFC018485958597FDB5
:100E20000BC09FB7F89482E08093E9008091F200B4
:100E30009FBF90E0019608959FB7F89482E0809359
:100E4000E9008091F2009FBF90E008953FB7F894C9
:100E50008091AF019091B001A091B101B091B20128
:100E600026B5A89B05C02F3F19F00196A11DB11D05
:100E70003FBFBA2FA92F982F8827BC01CD01620F41
:100E8000711D811D911D42E0660F771F881F991FFC
:100E90004A95D1F708958F929F92AF92BF92CF92C9
:100EA000DF92EF92FF926B017C010E9426074B01BB
:100EB0005C01C114D104E104F104B9F00E942607D9
:100EC000681979098A099B09683E73408105910573
:100ED00080F321E0C21AD108E108F10888EE880EFB
:100EE00083E0981EA11CB11CE4CFFF90EF90DF902F
:100EF000CF90BF90AF909F908F9008958F929F92C8
:100F0000AF92BF92CF92DF92EF92FF920F931F9317
:100F1000CF93DF936C017B018A0180910B018823C1
:100F200009F45CC08091CA01882309F457C08091FC
:100F3000B90180FF05C08091E00082608093E000ED
:100F4000E801B12C8AEFA82E93E0892E2AE3922E95
:100F5000209711F4BB20D9F10E949C0581110AC091
:100F6000AA94AA20D9F161E070E080E090E00E94AC
:100F70004B07EECF8C171D0611F00CF08C2F9FB78E
:100F8000F8948092E9002091E80025FD02C09FBFFF
:100F9000DFCF282F30E0C21BD30BF701815020F0A8
:100FA00041914093F100FACFE20EF31EBB2021F0F5
:100FB0009092E800B12CEBCF8091E80085FDE7CF5F
:100FC0009092E800BB24B394209709F3F3CF5D9887
:100FD00084E68093B801101611063CF081E090E0A1
:100FE000F6019383828310E000E0C801DF91CF9186
:100FF0001F910F91FF90EF90DF90CF90BF90AF9037
:101000009F908F9008952D9A0895BC0190E080E004
:101010000C944B078FB18095807F669B88601C9BEA
:1010200084600895480F592F511D14161506D4F5E4
:1010300080389105BCF597FF02C090E080E0413810
:10104000510514F040E850E0481BFB0177FD37964E
:1010500033E0F595E7953A95E1F7F695FE2FEE2703
:10106000F795E795E80FF91FE857FD4F6770772769
:1010700081E090E001C0880F6A95EAF7382F2130AF
:1010800041F4415078F08191DF011197832B8C93CB
:10109000F8CF8095415030F09191DF01119798235E
:1010A0009C93F8CF089580389105B8F460347105A9
:1010B000A0F420E191E061FD94E060FD990F62FDF4
:1010C0009295687F269FD0011124A80FA857BD4F85
:1010D0008C9140FF03C0892B8C93089590958923B0
:1010E000FBCFDF92EF92FF920F931F93CF93DF938B
:1010F0007C01D22E8B01040F111DEB0177FF02C082
:10110000D0E0C0E0C8010134110514F080E490E0A3
:10111000C817D9073CF44D2DBE01C7010E945308E2
:101120002196F0CFDF91CF911F910F91FF90EF901B
:10113000DF900895CF92DF92EF92FF920F93CF93BB
:10114000DF936C017B01C42FD22F6034710520F432
:10115000202FC6010E941208B7016D0F711D61504A
:101160007109603471052CF4202F4C2FC6010E94A8
:101170001208202F4D2FB701C6010E947108C60129
:101180008C0F911D202F4D2FB7010197DF91CF912B
:101190000F91FF90EF90DF90CF900C947108E8E8EA
:1011A000F2E085E59191DF01119798239C9380955A
:1011B00096E0E838F907B1F708956F927F928F9221
:1011C0009F92AF92BF92CF92DF92EF92FF920F93D6
:1011D0001F93CF93DF934C017B01C22F102F98E018
:1011E000A92EB12C642E669466946694712CCA0163
:1011F00087709927892B79F5D40117962D913C9109
:10120000C7019927B9010E945224269DF001279D0C
:10121000F00D369DF00D11248E0F9F1FD4011596F1
:10122000ED91FC91E80FF91F2081111112C0C095BA
:10123000C223C083DF91CF911F910F91FF90EF9058
:10124000DF90CF90BF90AF909F908F907F906F90E6
:101250000895C22BEECFD0E04770C42ED12C83E08E
:10126000660C771C8A95E1F79E0101C0220F4A9512
:10127000EAF7012FA301B701C4010E94DD08A30111
:10128000485F5F4FC5018C199D0902C0D595C79570
:101290008A95E2F7A7CF4F925F926F927F928F92DB
:1012A0009F92AF92BF92CF92DF92EF92FF920F93F5
:1012B0001F93CF93DF93EC016D3071F06A30F9F436
:1012C0008D859E859C878B878C892F853889820F99
:1012D000932F911D988B8F8781E090E0DF91CF91C4
:1012E0001F910F91FF90EF90DF90CF90BF90AF9044
:1012F0009F908F907F906F905F904F900895EB84B8
:10130000FC84693031F448E0E40EF11CFC86EB8685
:10131000E3CF603231F48B8990E00296E80EF91E3B
:10132000F5CF162F8F819885E816F9060CF04DC081
:101330008F8498885BEF85165FEF95060CF445C0A7
:1013400089859A85881699060CF03FC080EE860F35
:101350008F3508F038C0862F90E09C0128573C4F0D
:10136000F901A490B12CA50147555D4F5A01FC012C
:10137000E757FC4F5490F9012491521AD12CC12CFB
:10138000C51418F5F501EC0DFD1D449037016C0CEA
:101390007D1C8C81882361F001E089899A89892BE1
:1013A00009F000E02FEFA401B301CE010E94DD0897
:1013B0000989242DA401B301CE010E94DD08FFEFAD
:1013C000CF1ADF0ADDCF8FE3C7CF612F70E0FB01BB
:1013D000E757FC4F849168577C4FFB016491E82FDD
:1013E000E61B8B89E80FFF27FF1F8B859C85E80F85
:1013F000F91FFC87EB8770CF682F88E896E00C9484
:101400004B09089590E080E00895FB0101900020D1
:10141000E9F73197AF01461B570BDC01ED91FC91C9
:101420000280F381E02D09948F929F92AF92BF9238
:101430000F931F93CF93DF93CDB7DEB7A1970FB66E
:10144000F894DEBF0FBECDBF19A2423008F44AE0C7
:101450008E010F5D1F4F842E912CB12CA12CA50164
:1014600094010E94BD20E62FB901CA01EA3004F5BB
:10147000E05DD801EE938D01232B242B252B79F7EA
:1014800090E080E0109729F0BD0188E896E00E9486
:10149000050AA1960FB6F894DEBF0FBECDBFDF914F
:1014A000CF911F910F91BF90AF909F908F90089513
:1014B000E95CDFCFFF920F931F93CF93DF93C0E0E0
:1014C000DAE0409162026091600270E080915F0218
:1014D00090E0209161022C1768F04D9F402D11245F
:1014E0004F5F21E0CD9F800D911D11240E94710856
:1014F000CF5FE7CFC0E0DAE0409161026091600227
:1015000070E0809162028C1798F0CD9F600D711D84
:1015100011246034710554F44D9F402D11244F5F08
:1015200080915F0221E090E00E941208CF5FE4CF3B
:1015300010E08AE0F82E80916202181708F03DC092
:101540001F9DE001112400E0409161028091600242
:10155000282F30E080915F0290E0041760F50F9D26
:10156000800D911D11240296909396068093950606
:101570009093940680939306CE01820F931F029658
:101580009093980680939706E02F149FE00D112406
:101590008091630290916402E80FF92FF11D84910C
:1015A0000E941E03009729F0BC0188E896E00E9483
:1015B000050A0F5FC9CF1F5FBECF809165026091A2
:1015C00061020E94462460916002CAE08C9F9001F3
:1015D0001124620F732F711D80915F029C9FF00197
:1015E000112400E02BE04BE08E0F9F2F911D0E94F5
:1015F0009A0880916502609161020E944624609180
:1016000060028C9F90011124620F732F711D615035
:10161000710980915F029C9FE00111248C0F9D2F26
:10162000911D01E02DE04DE001970E949A08209164
:1016300060022850330B80915F0290E002969093F5
:101640009606809395069093940680939306309324
:1016500098062093970666E672E088E896E0DF91A8
:10166000CF911F910F91FF900C94050ACF92DF92BA
:10167000EF92FF920F931F93CF936B017C01C42FC6
:101680001092650244E050E06EED75E081E692E074
:101690000E94E61C1092870280918602882339F00E
:1016A0008150E82FF0E0E15AFD4F1782F7CF1092FA
:1016B000860206E612E02C2F40E0C701B6010E9428
:1016C0006B1B809186028F5F21E0280FE82FF0E0EE
:1016D000E15AFD4F978191111BC080938602809142
:1016E0008702811117C00E945F048823C1F3809193
:1016F000A2068093A3060E940A088093A2060E9475
:1017000052040E94A8030E945A0A0E944F04E7CF85
:10171000822FDACF86E692E0CF911F910F91FF9052
:10172000EF90DF90CF900C94D91C4F925F926F9204
:101730007F928F929F92AF92BF92CF92DF92EF9261
:10174000FF920F931F93CF936B017C01742EAC011A
:101750009B010E9406236FE971E0811126C04601BA
:101760005701E894B7F82FEF3FEF4FE75FE7C50168
:10177000B4010E94062381110CC02FEF3FEF4FE709
:101780005FE7C501B4010E94071D63EA71E0181606
:1017900064F02FEF3FEF4FE75FE4C701B6010E940F
:1017A000A9221816ACF467EA71E088E896E0CF91B8
:1017B0001F910F91FF90EF90DF90CF90BF90AF906F
:1017C0009F908F907F906F905F904F900C94050A40
:1017D0002FEF3FEF4FE75FECC701B6010E94071DF7
:1017E00087FDE1CF20E030E0A901C701B6010E94EA
:1017F000071D10E000E087FF08C08DE20E94FC0991
:101800008C01F7FAF094F7F8F094C0E060E070E033
:1018100080E09FE37C1641F020E030E040E251E4BC
:101820000E946021CF5FF6CFA70196010E94EF20B2
:101830002B013C010E94D9214B015C014AE00E942E
:10184000140A7C01E00EF11ECC23B1F1C501B401F4
:101850000E940C1D9B01AC01C301B2010E94EE204D
:101860004B015C018EE20E94FC09E80EF91EC1509A
:1018700018F120E030E040E251E4C501B4010E94DB
:101880006D1D2B013C010E94D9214B01B12CA12CD3
:101890004AE0C501B4010E94140AE80EF91EC50110
:1018A000B4010E940C1D9B01AC01C301B2010E9456
:1018B000EE204B015C01DBCFC701CF911F910F914F
:1018C000FF90EF90DF90CF90BF90AF909F908F9060
:1018D0007F906F905F904F900895CF93DF9343E098
:1018E0000E94950BEC016BEA71E088E896E00E949B
:1018F000050A8C0F9D1FDF91CF9108950F931F93C1
:10190000CF93DF93EC010E9454068C016BEA71E0E7
:10191000CE010E94050A800F911FDF91CF911F9188
:101920000F9108951F93CF93DF93EC01162F8CE551
:1019300094E0662359F070E0888199810E94A52582
:1019400099838883892B21F485E594E00E942315EF
:101950001A83DF91CF911F910895CF93FC0193815A
:10196000911104C08FE194E00E942315A081B18100
:1019700091509383A90FB11DCC91992351F06281AD
:10198000862F86958695891720F06695CF010E944F
:10199000920C8C2FCF9108951F93CF93DF93EC017E
:1019A000162F6A818B81681304C0660FCE010E94D6
:1019B000920C88819981EB8121E02E0F2B83E80F17
:1019C000F92FF11D1083DF91CF911F9108956F9230
:1019D0007F928F929F92AF92BF92CF92DF92EF92BF
:1019E000FF920F931F93CF93DF9300D000D000D0CE
:1019F000CDB7DEB7812C8394E82DF0E0E35FFE4F96
:101A000080818111F8CF1C8282E090E00E948024C6
:101A10009A83898382E08B83912CC12C10E02FEF75
:101A2000981408F035C1A92CB12CD501A35FBE4F85
:101A30009C919A3209F48AC00CF06FC0953209F477
:101A40007FC044F50FEF992359F1DD24D394D10ED3
:101A5000E12FF0E0E553FE4FC08211E01C0DBE0106
:101A60006B5F7F4FCD010E94891B24E0C29EF00175
:101A70001124E551FE4F60837183828393838D81AE
:101A80009E818D509140A816B90609F061C00C2DB9
:101A9000C12EABC0983209F451C001EF9932A9F6BA
:101AA00080E8800F602F803708F4C5C080EC800F7D
:101AB000803408F0BDC0023421F480EC820F803401
:101AC00010F0213F09F400E4D12E10EC100FA12EEC
:101AD000B12CEC81EE2309F483C089819A81E80F4F
:101AE000F92FF11D3197808190E8980F903708F415
:101AF00080C0E0ECE80FE03408F072C0E73008F096
:101B00003FC0F0E0EA57F24F0C946624800EBE0D01
:101B1000BE0D7D0E7D0EAE0D7D0E9F32A9F03CF404
:101B20009B32D1F002E49D3209F4BACF8ECF9E35BC
:101B300049F00EEF983709F4B3CF87CF00EFB0CF5D
:101B400006E4AECF05E4ACCF04E4AACF03E4A8CF0B
:101B500099249A94980E9BCF01E4A2CFF4E0FF2E33
:101B60001730E0F4F501E954F24F0C946624E40DCB
:101B70000D0E0D0EDC0DDC0DE00DDC0DE2E0FE2E99
:101B8000173060F4F501E953F24F0C946624E40D2C
:101B9000E80DE80DDC0DDC0DE00DDC0D9F2DFE2CBD
:101BA000E92EFE1448F1FE103CC08534F1F1A0F49A
:101BB0008034A0F0712C20C0EF2C73E0F72EF1CF11
:101BC000EF2C64E0F62EEDCFEF2C55E0F52EE9CFAB
:101BD000EF2C42E0F42EE5CF863461F3772061F0FC
:101BE000602FCE0101960E94CC0C93941D2D202FC6
:101BF00017CF8F2DFE2CE82E662463946D0CCE013A
:101C000001960E94AD0CED2DF0E0E553FE4F808370
:101C10008E2DEF2CF82ED62C5CCFEF2C32E0F32E4D
:101C2000EBCF8E2DEF2CF82EDBCF77247394D8CF0B
:101C3000003F39F460EFCE0101960E94CC0CD12E0A
:101C4000D4CF013FE1F4EC8189819A81EE2309F43C
:101C50004DC0E80FF92FF11D31978081803F09F4C5
:101C600047C0DD24D394D10ECE0101960E94AD0C65
:101C7000E12FF0E0E553FE4F80831D2DE4CFDD24FE
:101C8000D394D10EE12FF0E0E553FE4F0083ADCFAA
:101C9000E12EF12C8C81F701E553FE4F7F01882363
:101CA00041F01F5FCE0101960E94AD0CF7018083C9
:101CB000EFCF8FEF808311E089819A810E941C25EC
:101CC000812F26960FB6F894DEBF0FBECDBFDF91F1
:101CD000CF911F910F91FF90EF90DF90CF90BF9029
:101CE000AF909F908F907F906F90089510E0E4CF19
:101CF000CE0101960E94AD0CA2CF23E0F22E30CF90
:101D000095E0F92E2DCF1F93CF93DF93EC01162F83
:101D10008DE394E0662371F084E0689FB0011124A4
:101D2000888199810E94A52599838883892B21F434
:101D300086E394E00E9423151A83DF91CF911F91CF
:101D40000895CF92DF92EF92FF92FC01938191115F
:101D500004C088E094E00E942315A081B1819150D5
:101D6000938384E0989F90011124A20FB31FCD901C
:101D7000DD90ED90FC90992351F06281862F86953D
:101D80008695891720F06695CF010E94830EC701C2
:101D9000B601FF90EF90DF90CF900895CF92DF9241
:101DA000EF92FF92CF93DF93EC016A017B016A818E
:101DB0008B81681304C0660FCE010E94830E2881B8
:101DC00039819B8181E0890F8B8344E0949FC0011E
:101DD0001124820F931FFC01C082D182E282F38220
:101DE000DF91CF91FF90EF90DF90CF9008954F92C9
:101DF0005F926F927F928F929F92AF92BF92CF929B
:101E0000DF92EF92FF920F931F93CF93DF9300D057
:101E100000D0CDB7DEB77C014A015B011C8288E0AF
:101E200090E00E9480249A83898382E08B838701DB
:101E3000670180E2C80ED11CD801ED918D01E0341C
:101E400088F4F0E03896EE0FFF1FEE0FFF1FEE0D47
:101E5000FF1D4081518162817381CE0101960E94F4
:101E6000CE0E6CC080EC8E0F803408F05FC08730DF
:101E700008F064C0E82FF0E0EE5BF04FCE01019671
:101E80000C946624900F490F490F5A0F690F760F73
:101E9000830F0E94A10E2B013C01CE0101960E94EE
:101EA000A10E9B01AC01C301B2010E94EF20AB0166
:101EB000BC01D3CF0E94A10E2B013C01CE010196A3
:101EC0000E94A10E9B01AC01C301B2010E946D1DD5
:101ED000EECF0E94A10E2B013C01CE0101960E9483
:101EE000A10EA30192010E946021E1CF0E94A10EE8
:101EF0002B013C01CE0101960E94A10EA30192018B
:101F00000E94AE22D4CF0E94A10E2B013C01CE0133
:101F100001960E94A10EA30192010E941322C7CF35
:101F20000E94A10EAB01BC01705897CF80E88E0FC4
:101F30008037E8F5E03869F1E13891F1C016D10653
:101F400009F07ACF8C81C12CD12C7601882331F015
:101F5000CE0101960E94A10E6B017C0189819A81BC
:101F60000E941C25C701B6010F900F900F900F9093
:101F7000DF91CF911F910F91FF90EF90DF90CF9065
:101F8000BF90AF909F908F907F906F905F904F9099
:101F90000895CE0101960E94A10E0E94FE2287CFD5
:101FA000CE0101960E94A10E0E945B2180CFEF3FDF
:101FB00049F2EE3F19F6B501A4014FCF2F923F929F
:101FC0004F925F926F927F928F929F92AF92BF9249
:101FD000CF92DF92EF92FF920F931F93CF93DF93F5
:101FE00000D0CDB7DEB710913E0160E070E0CB01CC
:101FF0000E94940421E0412F70E060E0082E000C64
:10200000990B0E94710860E070E0CB010E9403050B
:10201000682F880F770B6034710538F421E0409108
:102020003D0190E080E00E941208C0902D01D09008
:102030002E01E0902F01F090300120E030E0A90166
:10204000C701B6010E94A92220E030E040E05FE332
:1020500087FD4EC0C701B6010E94EF200E94D22129
:102060000E940E1D6B017C01809031019090320125
:10207000A0903301B090340120E030E0A901C50107
:10208000B4010E94A92220E030E040E05FE387FD38
:1020900034C0C501B4010E94EF200E94D2210E94E9
:1020A0000E1D9B01AC01C701B6010E94071D87FFF1
:1020B00029C060E070E0CB010E940305182FC70122
:1020C000B6010E949404612F110F770B61507109C2
:1020D00021E042E0082E000C990B0E94710820E0DC
:1020E00030E040E85FE3C701B6010E94EF20BACFBD
:1020F000C701B6010E94EE20B1CFC501B4010E9414
:10210000EE20CBCFC0903501D0903601E090370162
:10211000F090380120E030E0A901C701B6010E942B
:10212000A92220E030E040E05FE387FD4FC0C70117
:10213000B6010E94EF200E94D2210E940E1D6B0169
:102140007C018090390190903A01A0903B01B090C1
:102150003C0120E030E0A901C501B4010E94A922A0
:1021600020E030E040E05FE387FD35C0C501B40109
:102170000E94EF200E94D2210E940E1D9B01AC0103
:10218000C701B6010E94071D87FF2AC0C701B6011B
:102190000E940305182F60E070E0CB010E949404B8
:1021A000612F110F770B6034710538F421E042E0A4
:1021B000082E000C990B0E94120820E030E040E845
:1021C0005FE3C701B6010E94EF20B9CFC701B60196
:1021D0000E94EE20B0CFC501B4010E94EE20CACF0C
:1021E00060913D016150770B072E000C880B990B15
:1021F0000E940E1D9B01AC0160E070E0CB010E94CB
:1022000060216B017C01AC019B0160E070E080E823
:102210009FE30E94EE2020912D0130912E014091EC
:102220002F01509130010E946D1D4B015C012091E6
:102230003101309132014091330150913401C70195
:10224000B6010E946D1D9B01AC01C501B4010E9445
:10225000EF20AB01BC01CE0147960E94F70E0E9411
:102260000305082F21E0298310913D018981811701
:1022700008F0B6C0682F880F770B880B990B0E9467
:102280000E1D6B017C01812F8150990BBC01072E23
:10229000000C880B990B0E940E1D9B01AC01C7011D
:1022A000B6010E9460216B017C01AC019B0160E0E2
:1022B00070E080E89FE30E94EE2020912D01309194
:1022C0002E0140912F01509130010E946D1D4B0154
:1022D0005C012091310130913201409133015091E4
:1022E0003401C701B6010E946D1D9B01AC01C501FF
:1022F000B4010E94EF20AB01BC01CE0147960E94C1
:10230000F70E0E9403058A83082E000C990B298181
:10231000C22ED12C002E000C110B760121E0E21A06
:10232000F1085C01A01AB10AB7FE03C0B194A194F0
:10233000B10822E0A216B10454F03C2D2D2D6C0101
:10234000832F922F3E2D2F2D7801032F122FCE1485
:10235000DF0454F4302F212F8C01832F922F3E2D38
:102360002F2D7601C32ED22E16012E183F082C01D8
:10237000401A510A57FE03C051944194510831014B
:1023800037FE03C02FEF621A720A7594679408171C
:102390001907E4F08FEF882E880F9908CE14DF0418
:1023A000D4F041E082E0A816B10494F0B701C8016E
:1023B0000E9453086418750877FE04C0080D191DA3
:1023C000620C731C9FEFE91AF90AE8CF81E0E3CFB2
:1023D000B801C701EDCF29812F5F29830A8144CF3E
:1023E0000F900F90DF91CF911F910F91FF90EF9081
:1023F000DF90CF90BF90AF909F908F907F906F9025
:102400005F904F903F902F9008951F920F920FB6BC
:102410000F9211248F939F938091E1009091E1009E
:10242000937F9093E10083FF0FC01092E90091E049
:102430009093EB001092EC0092E39093ED001092D9
:10244000CA0198E09093F00082FF22C093E090933D
:10245000E9009091F200992319F09AE39093E80033
:102460009091B801992341F09091B80191509093C7
:10247000B801911101C05D9A9091C901992341F071
:102480009091C90191509093C901911101C0289A6E
:1024900084FF18C08091E2008E7E81608093E2000C
:1024A0008091E1008F7E8093E1008091B9018E7E62
:1024B00080618093B9019F918F910F900FBE0F9013
:1024C0001F90189580FFF7CF8091E2008E7E80618B
:1024D0008093E2008091E1008E7E8093E100809104
:1024E000B9018E7E8160E5CF1F920F920FB60F92D9
:1024F0001124CF92DF92EF92FF920F931F932F93AD
:102500003F934F935F936F937F938F939F93AF937B
:10251000BF93EF93FF93CF93DF93CDB7DEB76C9765
:10252000DEBFCDBF1092E9008091E80083FF25C097
:1025300068E0CE0145960E94470682EF8093E8004E
:102540008D8987FF39C09091E80090FFFCCF982FCC
:10255000907609F034C19E894F89588D2F89F88C67
:10256000911131C0803861F58091BA018093F100FA
:102570001092F1008EEF8093E8006C960FB6F894FD
:10258000DEBF0FBECDBFDF91CF91FF91EF91BF9125
:10259000AF919F918F917F916F915F914F913F91FB
:1025A0002F911F910F91FF90EF90DF90CF900F90A0
:1025B0000FBE0F901F9018959EEF9093E800C7CF25
:1025C0001092F100D5CF913059F48111D3CF413021
:1025D000510581F68091BA018D7F8093BA01CACFEF
:1025E000933049F48111C6CF4130510519F68091DD
:1025F000BA018260F2CF953041F48091E80080FF0B
:10260000FCCF20682093E300B5CF963009F0A9C035
:102610000B8D1C8D22E01092E9001092B6011092F1
:10262000B501F2122EC01092B4011092B3010E94B3
:1026300016061F8299E09983FA8291E09E8390EAC0
:1026400098879AEF99872091B5013091B601275F5D
:102650003F4F3C832B838D831092E9001092B6018B
:102660001092B5011093B4010093B30149E050E01A
:10267000BE016F5F7F4F80E00E94F0050E9416064A
:1026800079CF1093B4010093B3010E94AD05DC0132
:1026900012960D911C910115110509F451C1D80133
:1026A000ED91FC910480F581E02DBE016B5E7F4FC2
:1026B000C8010995009709F03EC1F8010085118510
:1026C000EACFF3E0FF120EC08F89882309F440C0DF
:1026D000823061F440E867E088ED94E00E94F014F5
:1026E000811148CF81E28093EB0047CF813029F4FC
:1026F00040E86BE08CEC94E0F1CF833099F70E94D6
:10270000AD05DC011296ED90FC908E010F5F1F4F1E
:102710006801E114F10479F0D701ED91FC91068094
:10272000F781E02DB801C7010995080F111DF701C8
:10273000E084F184EECFD8011C92F60101900020D4
:10274000E9F73197BF016C197D0940E0C601C6CF9A
:1027500066EB74E0FB01449150E080E80E94F005D4
:1027600009CF973009F4BECF983021F481E08093EF
:10277000F10000CF993009F0FDCE837009F0B2CF9F
:10278000E6E4F1E081E031E096E32191222371F06B
:102790008093E9003093EB00DF0111972C91209397
:1027A000EC009093ED008F5F873079F78EE7809390
:1027B000EA001092EA008F898093CA01DBCE8B8DEC
:1027C0009C8D1092E9001092B6011092B501909381
:1027D000B4018093B301898D811192C08E899D8946
:1027E000913A49F4813209F07DCF47E050E064E04E
:1027F00071E080E0B3CF913209F074CF833269F495
:102800008F89988DB0E0A0E0809300019093010142
:10281000A0930201B0930301ADCE803269F48091A0
:10282000E80082FFFCCF67E084E091E00E94470669
:102830008BEF8093E8009ECE823209F09BCE8F8989
:1028400080930B01EEEFFFE7859194918B3F9C4DB8
:1028500051F1E0E0F8E08091040190910501A09130
:102860000601B0910701803B9440A105B105F1F448
:1028700080910B0180FD1AC0EE3F8AE0F80789F5D0
:1028800087E797E791838083809160008093B70109
:1028900088E19BE00FB6F894A895809360000FBE86
:1028A0009093600067CEEEEFFAE0D5CF8081918102
:1028B0008737974709F05ECEA895809160008861C0
:1028C000809360008091B70180936000EE3F2AE022
:1028D000F20789F08091FE0A9091FF0A918380832C
:1028E00049CE808191818737980751F29093FF0AF2
:1028F0008093FE0AC5CF1092FF0A1092FE0A3ACECC
:102900000E94AD05DC0112960D911C910115110577
:1029100009F4E8CED801ED91FC910190F081E02D11
:10292000BE016B5E7F4FC8010995811123CEF8016E
:1029300000851185EBCF181619060CF41BCED2CEEC
:10294000F1E0FF12BECE6AEB74E004CF1F920F924B
:102950000FB60F9211242F933F938F939F93AF93B2
:10296000BF9380910B0290910C02A0910D02B09147
:102970000E023091AE0123E0230F2D3758F501965A
:10298000A11DB11D2093AE0180930B0290930C0208
:10299000A0930D02B0930E028091AF019091B0010F
:1029A000A091B101B091B2010196A11DB11D80931A
:1029B000AF019093B001A093B101B093B201BF9168
:1029C000AF919F918F913F912F910F900FBE0F90DC
:1029D0001F90189526E8230F0296A11DB11DD2CF96
:1029E000EF92FF920F931F93CF93DF93F82E192F3F
:1029F000E62E042F81E0860F880F0E94C20583E037
:102A00000E94C205CF2DD12FEC0EFD2EF11CCE154C
:102A1000DF05B9F007FF13C0FE0184910E94C205D3
:102A2000182F80E00E94C205812321968111EFCFEB
:102A3000DF91CF911F910F91FF90EF9008958881C2
:102A4000EDCF81E0F5CFBC018FE092E00E947E0CDB
:102A5000FFCFEFE0F2E01382128288EE93E0A0E075
:102A6000B0E084839583A683B78380E591E091836A
:102A700080838FEF9FEF95878487EDE9F6E01582DD
:102A8000168280E187831482138211868EE691E09C
:102A900091838083E8E8F6E01382128282E691E077
:102AA0009183808388E892E09683858380E890E034
:102AB0009087878380E490E09287818787E0848B8A
:102AC00081E0838B16861586108A178614861386F6
:102AD00081E090E0928B818B1482EFE5F2E08CE054
:102AE0008083818310A60895CF93DF9300D000D018
:102AF000CDB7DEB7789484B5826084BD84B581603B
:102B000084BD85B5826085BD85B5816085BD8091B8
:102B10006E00816080936E00109281008091810030
:102B20008260809381008091810081608093810028
:102B3000809180008160809380008091910082600C
:102B400080939100809191008160809391008091A9
:102B500090008160809390008091C1008460809398
:102B6000C1008091C10082608093C1008091C1004A
:102B700081608093C1008091C30081608093C30015
:102B80008091C00082608093C0008091C20081600B
:102B90008093C20080917A00846080937A00809153
:102BA0007A00826080937A0080917A0081608093BD
:102BB0007A0080917A00806880937A001092CA012E
:102BC0001092BA011092B9018091D7008160809370
:102BD000D70080EA8093D80089B5806189BD89B526
:102BE000826089BD09B400FEFDCF61E070E080E045
:102BF00090E00E944B078091D8008F7C8061809389
:102C0000D8008091E000807F8093E0008091E10017
:102C10008E7E8093E1008DE08093E200559A209AA9
:102C200081EC80937C0085B1806F85B984B1877E0B
:102C300084B984B1876E84B95E9A5F988AB1806DD9
:102C40008AB9769A6E9881B3806F81BB899880B378
:102C50008D7080BB80E58CBD81E08DBD85E090E00E
:102C60000E9405085F9A85E090E00E9405085E9842
:102C70005C98E0E9F5E08DE995E024912EBD000037
:102C80000DB407FEFDCF31968E179F07B1F75C9A02
:102C900081E8809364008091650081608093650085
:102CA0000E944F040E940A0887FF15C05C9885EABD
:102CB0008EBD00000DB407FEFDCF5C9A2E982F98B4
:102CC0002D988091640080628093640081E083BFCE
:102CD000889513BEFCCF0E940A0882FF48C02D9839
:102CE0000E940A0884788438E1F40E94030888EC82
:102CF00090E00E9405082F9882E090E00E946520F5
:102D00008F3F29F06FEF82E090E00E946D2084EF0A
:102D100091E00E9405082F9A0E940A08847884385E
:102D2000D9F30E940A0884718431E1F40E940308F7
:102D300088EC90E00E9405082E9882E090E00E94C6
:102D40006520882329F060E082E090E00E946D20F9
:102D500084EF91E00E9405082E9A0E940A0884716F
:102D60008431D9F388EC90E00E940508B4CF0E942A
:102D7000030882E090E00E946520882309F416C1D0
:102D80003E9A3F9A81E090E00E9465208470B82EC0
:102D900081E090E00E94652081FF12C0B1102E9862
:102DA00060EF462E55245A9408E010E078E5A72EEF
:102DB0000E940A0886FFFDC02E9A2F9A0E940308DF
:102DC00082E390E00E9405080E940A088111F8CF72
:102DD0008FEF9FEF90931C0280931B020E94CF08FD
:102DE0000E944F040E9452040E94E70C4DB75EB748
:102DF000405451090FB6F8945EBF0FBE4DBFADB73A
:102E0000BEB7119680E4EBECF1E001900D928A954B
:102E1000E1F70E94DE0F0FB6F894DEBF0FBECDBF04
:102E2000E0E28E2E912CF8E42F2E312CA4E06A2EB5
:102E3000712C02E610E05524539477E0472E0E944F
:102E40005F04882309F4AFC28091A2068093A30691
:102E50000E940A088093A20680910C01811158C13A
:102E60000E94520480E80E949D03882339F08091DB
:102E7000BC01882319F081508093BC0180E10E943D
:102E80009D03882329F08091BC018F5F8093BC0152
:102E900080E20E949D0381111092BB0180E40E9498
:102EA0009D0381115092BB0188E00E949D038823FD
:102EB000F9F08091BC0190E02091BB01222309F43C
:102EC0000DC185539E4FFC01608170E090E080E071
:102ED0000E940C1D40E00E94360BE090BC01F12CDA
:102EE000970125533E4F79010E94D921F701608354
:102EF00084E00E949D03811150920C012BEE31E081
:102F00003A8329834BECC42E41E0D42EF12CE12CE2
:102F100050E4A52EB12C10929606109295061092B0
:102F2000940610929306F0929806E0929706E98133
:102F3000FA816191719181919191FA83E98342E0E3
:102F40000E94950BB0929606A0929506B0929406B8
:102F5000A0929306F0929806E0929706F60161918E
:102F60006F0170E090E080E040E10E94140AF7E019
:102F7000EF0EF11C28E3E216F10469F68091BC0122
:102F8000849DC0011124909296068092950690929D
:102F9000940680929306909398068093970680916A
:102FA000BB01882309F4B0C08EE3AFC03E983F98C0
:102FB000E9CEBB2031F024E04216510411F42E9AE0
:102FC0002F9881E00E944004920157FE04C02227FE
:102FD00033272419350927703327C20157FC079678
:102FE00053E0959587955A95E1F757FE05C00197EF
:102FF000A801421B530B9A01BC017695762F6627D8
:103000007795679568577D4FF12CE12C3801621A4E
:10301000730A8F3F5FEF95070CF43DC0AE9CD00163
:10302000AF9CB00D112450E040E0A052BB4F4B01CB
:10303000E0E88E0E911C8F3F980791F0FD01E40FA0
:10304000F51FE4916B01C40ED51EF0E01F01022EA6
:1030500001C0220C0A94EAF7F60134882328248A56
:103060002115310599F0FD01E40FF51FE49164018C
:10307000C40ED51EF0E01F01062C02C03594279423
:103080000A94E2F7F60134882328248A4F5F5F4FC1
:103090004835510581F6019660587F4FEA94EF2834
:1030A000C9F40E944F048FE090E00E9405082FEFC2
:1030B000421A520A39E14316510409F079CEBB2075
:1030C00011F02F9A2D9880E991E00E9405080E9446
:1030D000030876CEEE24E394F12C9BCF880F991F42
:1030E000880F991F9C0125513E4F7901F90160819C
:1030F00071818281938143E00E94360BF7016083E6
:10310000718382839383F4CE8CE30E94FC0949C1CE
:10311000813009F0C7C130E4E32EF12C20E040E417
:1031200070E060E0C7010E9471083FEFE31AF30A04
:1031300040E8E416F10491F780E80E949D0388239B
:1031400039F08091BC01823018F082508093BC012C
:1031500080E10E949D03882339F08091BC01843076
:1031600018F48E5F8093BC0180E20E949D03882347
:1031700039F08091BC01882319F081508093BC0103
:1031800080E40E949D03882339F08091BC01863041
:1031900018F48F5F8093BC0188E00E949D03882310
:1031A00061F08091BC01813009F475C108F403C15C
:1031B000863009F474C11092BC0121E04FE370E045
:1031C00060E081E490E00E94120821E040E461E0C8
:1031D00070E080E490E00E94120821E04FE36FE38A
:1031E00070E081E490E00E94120821E04DE362E08B
:1031F00070E080E490E00E94710821E04DE362E01D
:1032000070E080E690E00E94710822E0E22EF12C4E
:1032100021E040E4B70180E490E00E94120824E13C
:10322000E20EF11C32E5E316F10491F742E450E0BE
:1032300050939606409395065093940640939306B8
:10324000709298066092970665ED75E088E896E0C2
:103250000E945406109396060093950610939406C8
:103260000093930670929806609297066EEC75E054
:1032700088E896E00E94540682E490E090939606D7
:10328000809395069093940680939306E8E1F0E08E
:10329000F0939806E093970668EC75E088E896E06E
:1032A0000E94540610939606009395061093940678
:1032B0000093930628E130E0309398062093970618
:1032C00062EC75E088E896E00E94540642E450E023
:1032D0005093960640939506509394064093930618
:1032E0008CE290E090939806809397066BEB75E0E4
:1032F00088E896E00E94540610939606009395067F
:103300001093940600939306ECE2F0E0F093980695
:10331000E093970665EB75E088E896E00E94540616
:103320008091BC01E82EE694F4E1EF9E7001112437
:10333000B7016E5F7F4F81708B831C82CB80DC80F6
:1033400095E0CC0CDD1C9A95E1F721E4C20ED11C6E
:10335000603471052CF420E04FE1C6010E94120890
:10336000B7016A5E7F4F603471052CF420E04FE1B5
:10337000C6010E941208B7016F5F7F4F603471056C
:103380002CF421E040E2C6010E941208B701695EF8
:103390007F4F603471052CF421E040E2C6010E94A9
:1033A00012080E944F0440E050E0452B09F447CD3D
:1033B0000E94000040CD5092650244E050E062EE71
:1033C00075E081E692E00E94E61C109287028091EF
:1033D0008602882339F08150E82FF0E0E15AFD4F52
:1033E0001782F7CF109286026DE071E086E692E0D8
:1033F0000E946B26809186028F5FE82FF0E0E15AF1
:10340000FD4F97819111F8CF8093860280918702BA
:10341000811115C00E945F048823C1F38091A20628
:103420008093A3060E940A088093A2060E94520479
:103430000E94A8030E945A0A0E944F04E7CF66E642
:1034400072E08DE091E00E946B260E94E70C8823D9
:1034500009F4B1CF0E94CF080E944F040E94520489
:103460008DB79EB7805491090FB6F8949EBF0FBEDA
:103470008DBFADB7BEB7119680E4EBECF1E00190E3
:103480000D928A95E1F70E94DE0F0FB6F894DEBF29
:103490000FBECDBF90CEF2E0F0930C018CCE109217
:1034A0000C0189CE823009F07CCF80E4E82EF12C2B
:1034B00020E040E470E060E0C7010E9471083FEF47
:1034C000E31AF30A40E8E416F10491F780E80E9459
:1034D0009D03882339F08091BC01882319F0815025
:1034E0008093BC0180E10E949D03882339F0809184
:1034F000BC01833018F48F5F8093BC0188E00E9488
:103500009D03882369F08091BC01813009F4A7C034
:1035100008F491C0823009F4B6C0833009F4C7C002
:1035200084E00E949D03882321F10E94CF080E941D
:103530004F040E9452048DB79EB7805491090FB674
:10354000F8949EBF0FBE8DBFADB7BEB7119680E495
:10355000EBECF1E001900D928A95E1F70E94DE0F0D
:1035600050920C011092BC010FB6F894DEBF0FBE52
:10357000CDBF309296062092950630929406209206
:10358000930670929806609297066FEA75E088E855
:1035900096E00E947E0C60912D0170912E01809129
:1035A0002F01909130010E946D0C69EA75E088E866
:1035B00096E00E947E0C6091310170913201809101
:1035C0003301909134010E946D0C63EA75E088E844
:1035D00096E00E947E0C60913501709136018091D9
:1035E0003701909138010E946D0C6DE975E088E813
:1035F00096E00E947E0C6091390170913A018091B1
:103600003B0190913C010E946D0C8091BC01FEE059
:103610008F9FC0011124049622E430E03093960677
:1036200020939506309394062093930690939806E2
:1036300080939706B9CC60912D0170912E018091F5
:103640002F019091300143E00E94360B60932D01D1
:1036500070932E0180932F019093300161CF609180
:10366000310170913201809133019091340143E036
:103670000E94360B609331017093320180933301C5
:10368000909334014DCF6091350170913601809156
:1036900037019091380143E00E94360B6093350169
:1036A00070933601809337019093380139CF609140
:1036B000390170913A0180913B0190913C0143E0C6
:1036C0000E94360B6093390170933A0180933B015D
:1036D00090933C0125CFEF920F931F93CF93DF93ED
:1036E000E80134E047FD34E1042E000C550B57FF90
:1036F00003C0519541955109E32E022F242FAE01AD
:103700000E94DA1DCE01DF91CF911F910F91EF90B2
:103710000895B0E0A0E0EFE8FBE10C948C205C01A0
:103720007B016115710519F0DB018D939C93850177
:103730000F5F1F4FF501D0818D2F90E00E94DD1C9F
:103740006C01892BB9F5DD32B9F50F5F1F4FD5013B
:103750001196DC91C1E05801F1E0AF1AB10843E0E5
:1037600050E064E571E0C5010E94EF1C892B69F50A
:10377000680182E0C80ED11C45E050E06FE471E0C2
:10378000C6010E94EF1C892B21F4680197E0C90E45
:10379000D11CE114F10419F0D701CD92DC9260E064
:1037A00070E080E89FEFC111FFC060E070E080E84A
:1037B0009FE7FAC05801BBCFDB3229F485010E5FC9
:1037C0001F4FF501D181C0E0C6CF43E050E06CE46B
:1037D00071E0C5010E94EF1C892BE9F0F80110E0AF
:1037E00000E020E030E0A9015F01B0ED8B2E8D0EEE
:1037F00089E08815C8F19C2E689491F88C2F887008
:10380000C2FF16C0811102C00F5F1F4F3196D50154
:10381000DC91C92DE9CFE114F10429F00E5F1F4FAF
:10382000F7011183008360E070E080EC9FE7BCC08B
:10383000882311F001501109A5E0B0E00E947B201F
:103840009B01AC01220F331F441F551F280D311D52
:10385000411D511D283999E93907490799E159074F
:10386000A8F2C6609C2ED2CFAEEF8A1206C0C3FD6E
:103870003CC09C2E689493F8C9CFDF7DD534A9F560
:1038800080818D3239F4C061DF011296818162E05E
:1038900070E006C0DF018B32C1F3119661E070E089
:1038A00080535D01A61AB70A8A30F8F4E0E8CE1614
:1038B000ECE0DE065CF4B601660F771F660F771F3B
:1038C000C60ED71ECC0CDD1CC80ED11C5D01FFEF4F
:1038D000AF1ABF0A8C9180538A30A8F1C4FF03C08D
:1038E000D194C194D1080C0D1D1DC1FF09C0E11474
:1038F000F10431F081E0A81AB108D701AD92BC9271
:10390000CA01B9010E940C1DC370C33009F490585C
:103910004B015C0120E030E0A9010E94071D8823D3
:1039200009F440C0C3E8D1E017FF05C01195019527
:103930001109CBE6D1E06E01B8E1CB1AD10880E2E3
:10394000E82EF12C0FC0D501B1CFFE0125913591A4
:10395000459154910E191F09C501B4010E946D1DB6
:103960004B015C01D501C4010E151F0574F72497A6
:10397000F594E794CC16DD06A9F78A2F880F8B2FD4
:10398000881F8F3F49F020E030E0A901C501B40154
:103990000E94071D811106C082E290E09093A90663
:1039A0008093A806C501B401CDB7DEB7ECE00C9456
:1039B000A820662777270C94891B91110C9411205D
:1039C000803219F089508550C8F70895FB01DC0159
:1039D00002C005900D9241505040D8F70895FB0168
:1039E000DC014150504088F08D9181341CF08B35C2
:1039F0000CF4805E659161341CF06B350CF4605EF4
:103A0000861B611171F3990B0895881BFCCF0E94EE
:103A1000491D08F481E00895E89409C097FB3EF43D
:103A200090958095709561957F4F8F4F9F4F99230B
:103A3000A9F0F92F96E9BB279395F6958795779589
:103A40006795B795F111F8CFFAF4BB0F11F460FF49
:103A50001BC06F5F7F4F8F4F9F4F16C0882311F0A1
:103A600096E911C0772321F09EE8872F762F05C0B5
:103A7000662371F096E8862F70E060E02AF09A9550
:103A8000660F771F881FDAF7880F9695879597F945
:103A90000895990F0008550FAA0BE0E8FEEF1616DF
:103AA0001706E807F907C0F012161306E407F50732
:103AB00098F0621B730B840B950B39F40A2661F0A6
:103AC000232B242B252B21F408950A2609F4A14049
:103AD000A6958FEF811D811D08950E94801D0C9475
:103AE0002B200E941D2038F00E94242020F09523D6
:103AF00011F00C9414200C941A2011240C945F20C3
:103B00000E943C2070F3959FC1F3950F50E0551F24
:103B1000629FF001729FBB27F00DB11D639FAA2722
:103B2000F00DB11DAA1F649F6627B00DA11D661F71
:103B3000829F2227B00DA11D621F739FB00DA11D92
:103B4000621F839FA00D611D221F749F3327A00D4C
:103B5000611D231F849F600D211D822F762F6A2FE8
:103B600011249F5750409AF0F1F088234AF0EE0F4D
:103B7000FF1FBB1F661F771F881F91505040A9F77A
:103B80009E3F510580F00C9414200C945F205F3F01
:103B9000E4F3983ED4F3869577956795B795F795B6
:103BA000E7959F5FC1F7FE2B880F911D969587952E
:103BB00097F90895A9E0B0E0E0EEFDE10C948C20C7
:103BC0006A01F22EB02E102FFBE3AF2EA01608F4E0
:103BD0001BE31F5F012F27E0AE014F5F5F4F0E9485
:103BE000391FBC018981982F9970913009F43FC029
:103BF0009BE2E1FC04C09E2D9170E0FC3AC05E2D7A
:103C00005071E82FE87083FF46C084E0911101C035
:103C100083E0EF2DE81B8F1508F0E0E0D6018E2F32
:103C200020E2552351F1992329F0D6019C93C60136
:103C300001966C0196012D5F3F4FE2FE24C08EE499
:103C4000D6018C9391E411969C93119712968C93C4
:103C5000D9018E2F90E281111BC0E20FF32FF11DCD
:103C600010828EEF9FEF2996ECE00C94A8209DE245
:103C7000C6CF90E2C4CF2D9381508111FCCFCE0EE0
:103C8000D11CE0E0D0CF8EE6D6018C9391E6DBCF5D
:103C90009D938150E0CF482F447082FF3DC084E067
:103CA000911101C083E08F1510F4EF2DE81BD601B0
:103CB0008E2F20E2552309F1992329F0D6019C93F8
:103CC000C60101966C0196012D5F3F4FE2FE1BC0BD
:103CD00089E4D6018C938EE411968C93119786E437
:103CE00012968C93D9018E2F90E2882309F4B5CFD8
:103CF0009D938150FACF2D9381508111FCCFCE0E30
:103D0000D11CE0E0D9CF89E6D6018C938EE61196DE
:103D10008C93119786E6E4CF9B0177FF02C030E0D9
:103D200020E0A1E0B0E0911102C0B0E0A0E0F90114
:103D30003196AE0FBF1F8B2C912CBB2009F461C0B4
:103D40005401EFEFAE1ABE0AAA0DBB1DFA161B06F0
:103D500019F014F04F2D4A1B511188C0E3FC59C0D3
:103D60007601A42FB0E2A1114FC0C40ED11C99233B
:103D700009F45BC040E0D6011196F60190836D0115
:103D8000552309F448C0012F060F9A81582F50710E
:103D900084FF03C0913309F4015010160CF047C0A2
:103DA000093008F008E0EEE2FE2E5B01A01AB1082F
:103DB00085019194819491082F3F320729F4D6010F
:103DC000FC92F60131966F016217730794F10217A6
:103DD00013077CF5DB01A21BB30BAA24A394B12C1F
:103DE000AC0EBD1EAA0DBB1D11968C912150310940
:103DF000D601119628153905F4F0F60180836D017E
:103E0000DBCFB12CA12CA0CFF701B1937F01A15042
:103E1000AACF9111B0CFD601942F50E302C05D9389
:103E200091509111FCCFC40ED11C40E0ACCF01E009
:103E3000BACF80E3DBCF6217730731F4963388F48F
:103E4000953311F4552369F0F6018083FD01842F29
:103E500090E2811108C0A40FB11D1C9290E080E097
:103E600002CF81E3F1CF91938150F3CF911183CFB2
:103E70008ACF283008F027E03327DA01990F311D67
:103E800087FD916000966105710539F432602E5FFF
:103E90003D9330E32A95E1F708959F3F30F0803855
:103EA0007105610509F03C5F3C5F3D93913008F07E
:103EB0008068911DDF93CF931F930F93FF92EF9232
:103EC000192F987F9695E92F96959695E90FFF27DC
:103ED000EF51FE4F99273327EE24FF24A701E70176
:103EE00005900894079428F4360FE71EF81E491F22
:103EF000511D660F771F881F991F0694A1F7059023
:103F0000079428F4E70EF81E491F561FC11D770FAE
:103F1000881F991F661F0694A1F70590079428F43F
:103F2000F80E491F561FC71FD11D880F991F661F06
:103F3000771F0694A1F70590079420F4490F561FA8
:103F4000C71FD81F990F661F771F881F0694A9F7F0
:103F500084911095177041F0D695C7955795479560
:103F6000F794E7941A95C1F7E7E8F1E068941590A3
:103F7000159135916591959105907FE27395E118C2
:103F8000F10A430B560BC90BD009C0F7E10CF11E27
:103F9000431F561FC91FD01D7EF4703311F48A953C
:103FA000E6CFE894015030F0080F0AF4002702171A
:103FB00008F4202F2395022F7A3328F079E37D939C
:103FC0002A95E9F710C07D932A9589F6069497956E
:103FD0006795379517951794E118F10A430B560B1F
:103FE000C90BD00998F023957E9173957A3308F028
:103FF00070E37C932013B8F77E9170617D9330F06D
:10400000839571E37D9370E32A95E1F71124EF9096
:10401000FF900F911F91CF91DF91992787FD909588
:10402000089599278827089597F99F6780E870E099
:1040300060E008959FEF80EC089500240A9416161E
:10404000170618060906089500240A941216130686
:10405000140605060895092E0394000C11F4882314
:1040600052F0BB0F40F4BF2B11F460FF04C06F5F30
:104070007F4F8F4F9F4F089557FD9058440F551F06
:1040800059F05F3F71F04795880F97FB991F61F0DA
:104090009F3F79F087950895121613061406551F51
:1040A000F2CF4695F1DF08C0161617061806991FBD
:1040B000F1CF86957105610508940895E894BB27B2
:1040C00066277727CB0197F90895F999FECF92BD1E
:1040D00081BDF89A992780B50895262FF999FECFCA
:1040E0001FBA92BD81BD20BD0FB6F894FA9AF99A15
:1040F0000FBE019608950E94DF20A59F900DB49FEA
:10410000900DA49F800D911D112408952F923F9230
:104110004F925F926F927F928F929F92AF92BF92D7
:10412000CF92DF92EF92FF920F931F93CF93DF9383
:10413000CDB7DEB7CA1BDB0B0FB6F894DEBF0FBEE0
:10414000CDBF09942A88398848885F846E847D842D
:104150008C849B84AA84B984C884DF80EE80FD802F
:104160000C811B81AA81B981CE0FD11D0FB6F894A5
:10417000DEBF0FBECDBFED010895A1E21A2EAA1B2E
:10418000BB1BFD010DC0AA1FBB1FEE1FFF1FA21707
:10419000B307E407F50720F0A21BB30BE40BF50B04
:1041A000661F771F881F991F1A9469F7609570958D
:1041B000809590959B01AC01BD01CF010895A29F10
:1041C000B001B39FC001A39F700D811D1124911DEB
:1041D000B29F700D811D1124911D08955058BB2769
:1041E000AA270E9406210C942B200E941D2038F043
:1041F0000E94242020F039F49F3F19F426F40C94F7
:104200001A200EF4E095E7FB0C941420E92F0E948D
:104210003C2058F3BA17620773078407950720F00C
:1042200079F4A6F50C945E200EF4E0950B2EBA2FCF
:10423000A02D0B01B90190010C01CA01A0011124AC
:10424000FF27591B99F0593F50F4503E68F11A1658
:10425000F040A22F232F342F4427585FF3CF4695E9
:1042600037952795A795F0405395C9F77EF41F160B
:10427000BA0B620B730B840BBAF09150A1F0FF0FD5
:10428000BB1F661F771F881FC2F70EC0BA0F621FC1
:10429000731F841F48F4879577956795B795F795B1
:1042A0009E3F08F0B0CF9395880F08F09927EE0F46
:1042B0009795879508950E946C22E3950C9495221A
:1042C0000E9474210C942B200E94242058F00E94FC
:1042D0001D2040F029F45F3F29F00C941420511167
:1042E0000C945F200C941A200E943C2068F39923C0
:1042F000B1F3552391F3951B550BBB27AA276217E2
:104300007307840738F09F5F5F4F220F331F441FEE
:10431000AA1FA9F335D00E2E3AF0E0E832D0915022
:104320005040E695001CCAF72BD0FE2F29D0660F0F
:10433000771F881FBB1F261737074807AB07B0E852
:1043400009F0BB0B802DBF01FF2793585F4F3AF058
:104350009E3F510578F00C9414200C945F205F3F31
:10436000E4F3983ED4F3869577956795B795F795DE
:104370009F5FC9F7880F911D9695879597F90895C6
:10438000E1E0660F771F881FBB1F62177307840762
:10439000BA0720F0621B730B840BBA0BEE1F88F771
:1043A000E09508950E94D9216894B1110C945F2082
:1043B00008950E94442088F09F5798F0B92F9927BC
:1043C000B751B0F0E1F0660F771F881F991F1AF000
:1043D000BA95C9F714C0B13091F00E945E20B1E0E7
:1043E00008950C945E20672F782F8827B85F39F0E6
:1043F000B93FCCF3869577956795B395D9F73EF499
:1044000090958095709561957F4F8F4F9F4F089540
:104410000E941D2020F019F00E94242050F40C94DA
:104420001A200C945F20E92F0E943C2088F355232A
:10443000B1F3E7FB6217730784079507A8F189F3C7
:10444000E92FFF2788232AF03197660F771F881FEF
:10445000DAF7952F5527442332F091505040220F20
:10446000331F441FD2F7BB27E91BF50B621B730BED
:10447000840BB109B1F222F4620F731F841FB11DC6
:1044800031972AF0660F771F881FBB1FEFCF91501F
:10449000504062F041F0882332F0660F771F881F8A
:1044A00091505040C1F793950C945C228695779576
:1044B00067959F5FD9F7F7CF9F3F31F0915020F478
:1044C000879577956795B795880F911D96958795F0
:1044D00097F908950C941A200E944420D8F3E89488
:1044E000E0E0BB279F57F0F02AED3FE049EC06C023
:1044F000EE0FBB0F661F771F881F28F0B23A6207C6
:104500007307840728F0B25A620B730B840BE39590
:104510009A9572F7803830F49A95BB0F661F771F13
:10452000881FD2F790480C945E22EF93E0FF07C0FB
:10453000A2EA2AED3FE049EC5FEB0E9406210E94CF
:104540002B200F90039401FC9058ECEAF0E00C94BF
:104550006C230E94491D08F48FEF0895FA01EE0FB5
:10456000FF1F309621053105A1F16115710561F438
:104570008038BFE39B0749F168949038810561F06A
:104580008038BFEF9B0741F099234AF5FF3FE105D3
:104590003105210519F1E8940894E795D901AA237A
:1045A00029F4AB2FBE2FF85FD0F310C0FF5F70F47B
:1045B000A695E0F7F73950F019F0FF3A38F49F77F5
:1045C0009F930DD00F9007FC9058089546F00C94DF
:1045D0001A2060E070E080E89FE308954FE79F773E
:1045E0005F934F933F932F930E94CA232F913F9144
:1045F0004F915F910E946D1D0C9413239F930E9415
:104600006C220F9007FCEE5F0C9495220E94491DCE
:10461000880B990B089529F416F00C9414200C942F
:104620005E200C941A200E944420A8F39638A0F72C
:1046300007F80F92E8942BE33AEA48EB5FE70E9411
:10464000831D0F920F920F924DB75EB70F920E948B
:104650001224EAECF0E00E9445234F915F91EF9124
:10466000FF91E595EE1FFF1F49F0FE57E0684427D4
:10467000EE0F441FFA95E1F74195550B0E948C23EC
:104680000F9007FE0C9480230895DF93CF931F9320
:104690000F93FF92EF92DF927B018C01689406C02A
:1046A000DA2EEF010E94801DFE01E894A59125916C
:1046B000359145915591A6F3EF010E940621FE0127
:1046C0009701A801DA9469F7DF90EF90FF900F91BE
:1046D0001F91CF91DF9108959F938F937F936F9355
:1046E000FF93EF939B01AC010E946D1DEF91FF9131
:1046F0000E9445232F913F914F915F910C946D1D26
:104700009B01AC0160E070E080E89FE30C946021C5
:104710000C9414200C945C220E944420D8F399231A
:10472000C9F3940F511DA3F39150504094F059F0E8
:10473000882332F0660F771F881F91505040C1F7D1
:104740009E3F51052CF7880F911D9695879597F9F7
:1047500008955F3FACF0983E9CF0BB278695779517
:104760006795B79508F4B1609395C1F7BB0F58F7FB
:1047700011F460FFE8CF6F5F7F4F8F4F9F4FE3CF04
:104780000C945F2016F00C945C220C941A20689410
:104790000C9414200E944420A8F39923C1F3AEF393
:1047A000DF93CF931F930F93FF92C92FDD278823A9
:1047B0002AF02197660F771F881FDAF720E030E094
:1047C00040E85FEB9FE3883920F0803E38F0219687
:1047D0008F770E94EF20E2EFF0E004C00E94EF200C
:1047E000EFE1F1E00E9445238B01BE01EC01FB2EBD
:1047F0006F5771097595771F880B990B0E940E1DD5
:1048000028E132E741E35FE30E94801DAF2D98016C
:10481000AE01FF900F911F91CF91DF910E94062171
:104820000C942B20FA01DC01AA0FBB1F9B01AC01E9
:10483000BF5728F4222733274427507820C0B75188
:1048400090F4AB2F0024469537952795011CA3952E
:10485000D2F3002071F0220F331F441FB395DAF317
:104860000ED00C94EE2061307105A0E88A07B9469D
:1048700030F49B01AC016627772788279078309623
:1048800021F020833183428353830895991B79E07B
:1048900004C0991F961708F0961B881F7A95C9F7D0
:1048A0008095089597FB072E16F4009407D077FDA6
:1048B00009D00E946C2407FC05D03EF490958195A8
:1048C0009F4F0895709561957F4F0895EE0FFF1FDC
:1048D0000590F491E02D0994AA1BBB1B51E107C080
:1048E000AA1FBB1FA617B70710F0A61BB70B881F80
:1048F000991F5A95A9F780959095BC01CD0108950F
:104900000F931F93CF93DF938230910510F482E0D1
:1049100090E0E091AC06F091AD0630E020E0B0E030
:10492000A0E0309799F42115310509F44AC0281BFD
:10493000390B24303105D8F58A819B8161157105C9
:1049400089F1FB0193838283FE0111C04081518173
:104950000281138148175907E0F04817590799F465
:10496000109761F012960C93129713961C9332963F
:10497000CF01DF91CF911F910F9108950093AC0665
:104980001093AD06F4CF2115310551F042175307AE
:1049900038F0A901DB019A01BD01DF01F801C1CFA7
:1049A000EF01F9CF9093AD068093AC06CDCFFE0119
:1049B000E20FF31F819391932250310939832883A9
:1049C000D7CF2091AA063091AB06232B41F420913A
:1049D0004101309142013093AB062093AA06209109
:1049E0003F01309140012115310541F42DB73EB70B
:1049F0004091430150914401241B350BE091AA06DC
:104A0000F091AB06E217F307A0F42E1B3F0B28171B
:104A1000390778F0AC014E5F5F4F2417350748F037
:104A20004E0F5F1F5093AB064093AA06819391935C
:104A30009FCFF0E0E0E09CCFCF93DF930097E9F0C9
:104A4000FC01329713821282A091AC06B091AD06A0
:104A5000ED0130E020E01097A1F420813181820F38
:104A6000931F2091AA063091AB062817390709F049
:104A700061C0F093AB06E093AA06DF91CF91089551
:104A8000EA01CE17DF07E8F54A815B819E014115F7
:104A90005105B1F7E901FB83EA8349915991C40FAC
:104AA000D51FEC17FD0761F4808191810296840F78
:104AB000951FE90199838883828193819B838A83EF
:104AC000F0E0E0E012968D919C9113970097B9F574
:104AD0002D913C911197CD010296820F931F209149
:104AE000AA063091AB062817390739F6309751F5E9
:104AF0001092AD061092AC06B093AB06A093AA0636
:104B0000BCCFD383C28340815181840F951FC817C6
:104B1000D90761F44E5F5F4F88819981480F591F13
:104B2000518340838A819B81938382832115310540
:104B300009F0B0CFF093AD06E093AC069ECFFD0137
:104B4000DC01C0CF13821282D7CFB0E0A0E0EBEA45
:104B5000F5E20C9488208C01009751F4CB010E945F
:104B600080248C01C801CDB7DEB7E0E10C94A4200D
:104B7000FC01E60FF71F9C0122503109E217F307F1
:104B800008F49DC0D901CD91DC911197C617D707C4
:104B900098F0C530D10530F3CE01049786179707FA
:104BA00008F3C61BD70B2297C193D1936D937C93C7
:104BB000CF010E941C25D6CF5B01AC1ABD0A4C0167
:104BC0008C0E9D1EA091AC06B091AD06512C412CCF
:104BD000F12CE12C109731F58091AA069091AB064B
:104BE0008815990509F05CC04616570608F058C0AC
:104BF00080913F0190914001009741F48DB79EB79D
:104C00004091430150914401841B950BE817F9072B
:104C100008F055C0F093AB06E093AA06F901718342
:104C20006083A0CF8D919C91119712966C901297F2
:104C300013967C901397A815B90559F56C0142E0BD
:104C4000C40ED11CCA14DB0420F1AC014A195B0963
:104C5000DA011296159780F0628273825183408345
:104C6000D9016D937C93E114F10471F0D70113968F
:104C7000FC93EE93129776CF22968C0F9D1FF9012D
:104C800091838083F301EFCFF093AD06E093AC0600
:104C900069CF4816590608F42C017D01D3019ACF3B
:104CA000CB010E9480247C01009749F0AE01B8013D
:104CB0000E946226C8010E941C25870153CF10E084
:104CC00000E050CFFB01DC0102C001900D92415089
:104CD0005040D8F70895FB01DC0101900D920020AF
:084CE000E1F70895F894FFCFFD
:104CE800FFFFFFFF00E100000000000001322A780A
:104CF8005E322B352A78000000000000000000001A
:104D0800000000000000000000000000000000207B
:104D1800C100002041000020C1000020413F3F00A9
:104D280000AE06800000C180810000000000000085
:104D3800A5067E07C606BB060C07CA06E8060000DD
:104D480000004B097806020A010A00000000C105AC
:104D580030003100320033003400350036003700AF
:104D6800380039002E00280029002B004F4B002A5C
:104D7800002F005E00250078003C2D003C3C006EB2
:0E4D8800616E00696E66006F7666000D0A00AF
:00000001FF
