:100000000C94F2020C941A030C941A030C941A0325
:100010000C941A030C941A030C941A030C941A03EC
:100020000C941A030C941A030C94EA0F0C945910B4
:100030000C941A030C941A030C941A030C941A03CC
:100040000C941A030C941A030C941A030C941A03BC
:100050000C941A030C941A030C941A030C948B122C
:100060000C941A030C941A030C941A030C941A039C
:100070000C941A030C941A030C941A030C941A038C
:100080000C941A030C941A030C941A030C941A037C
:100090000C941A030C941A030C941A030C941A036C
:1000A0000C941A030C941A030C941A0305A84CCD53
:1000B000B2D44EB93836A9020C50B9918688083CA2
:1000C000A6AAAA2ABE000000803F07634236B79B5B
:1000D000D8A71A39685618AEBAAB558C1D3CB7CCA8
:1000E0005763BD6DEDFD753EF6177231BF00000020
:1000F000803F08000000BE922449123EABAAAA2A03
:10010000BECDCCCC4C3E00000080BEABAAAAAA3E1D
:1001100000000000BF000000803F00000000000859
:100120004178D3BB4387D1133D190E3CC3BD4282F6
:10013000AD2B3E68EC8276BED98FE1A93E4C80EFB4
:10014000FFBE01C4FF7F3F00000000004E414E494A
:100150004E495459494E46CDCCCC3D0AD7233C1785
:10016000B7D13877CC2B329595E6241FB14F0A00D2
:100170000020410000C84200401C4620BCBE4CCAC2
:100180001B0E5AAEC59D7400407A10F35A00A0723F
:100190004E18090010A5D4E80000E87648170000C2
:1001A000E40B54020000CA9A3B000000E1F5050090
:1001B0000080969800000040420F000000A08601D9
:1001C000000000102700000000E8030000000064A9
:1001D00000000000000A0000000000010000000014
:1001E000002C76D888DC674F0823DFC1DFAE59E1E9
:1001F000B1B796E5E3E453C63AE651997696E8E658
:10020000C28426EB898C9B62ED407C6FFCEFBC9C2A
:100210009F40F2BAA56FA5F490055A2AF75C936B3C
:100220006CF9676DC11BFCE0E40D47FEF520E6B5F7
:1002300000D0ED902E0300943577050080841E08D1
:100240000000204E0A000000C80C333333330F98EF
:100250006E12831141EF8D2114893BE65516CFFEB6
:10026000E6DB18D1844B381BF77C1D901DA4BBE442
:1002700024203284725E228100C9F124ECA1E53D84
:100280002712FFFDFE1813070809171904050616A3
:10029000FC01020315FC00101114FFFDFE07080904
:1002A0000405060102030010112F0300033F0A3F5B
:1002B000163F1A0904121A251A28031E21211E0AA4
:1002C000040A040E0460040404200804021E211E13
:1002D000223F2039252221251A07043F1725191E00
:1002E00025190139071A251A12251E1434040A117A
:1002F0001414110A04012D061E212D2E3E053E3F29
:10030000251A1E21213F211E3F253F051E213D3F6D
:10031000043F213F21211F3F043B3F203F020402B5
:100320003F3F02043F1E211E3F05021E312E3F05A6
:100330003A2619013F013F203F1F301F1F201C207C
:100340001F3B043B033C0339273F21020408213FA4
:100350000201022020200102142C383F2418182406
:1003600018243F1834283E0548543C3F04383D408B
:100370003D3F043A3F3C043C04383C043818241800
:100380007C241818247C3C0428141F241C203C1CAA
:10039000201C1C2038203C3408344C503C342C04A5
:1003A0003B213B213B04020604000104070A0D1116
:1003B000121416191C1D202124272A2D30333639FA
:1003C0003C3F42434447494C4F5356595C5F61633D
:1003D00066696C6E7173787C7F8285888A8D909354
:1003E000989B9EA0A2A5A7AAADAFB2B5B7BABDBF54
:1003F000C2C5C6C8CBCCD1D4D7DADDDFE1E3E6E9AC
:10040000EEF1F4F6F9FAFD0063616E277420706F67
:10041000702C20737461636B20656D707479006358
:10042000616E277420706F702C20737461636B2071
:10043000656D707479006E6F206D656D0063616E1F
:10044000277420726573697A6520746861742073FB
:100450006D616C6C006E6F206D656D0063616E2761
:100460007420726573697A65207468617420736D95
:10047000616C6C00080B000202020100090400001C
:1004800001020200000524001001052401010104FD
:100490002402060524060001070581031000400917
:1004A000040100020A0000000705020240000007E4
:1004B0000583024000000403090412010002EF0258
:1004C000014041233680000101020301417264753D
:1004D000696E6F204C4C430041726475626F790005
:1004E000F0F89C8E8783878E9CF8F00000FEFF0357
:1004F00003030303070EFCF80000FEFF03030303DE
:1005000003070EFCF80000FFFF00000000000000E1
:10051000FFFF0000FEFF8383838383C7EE7C3800E8
:1005200000F8FC0E07030303070EFCF800003F7FF2
:10053000E0C08080C0E07F3FFFFF010101010101B9
:1005400001FFFF0000FFFF0C0C0C0C1C3E77E3C109
:1005500000007FFFC0C0C0C0C0E0703F1F00001F90
:100560003F70E0C0C0C0E0703F1F00007FFFC1C10E
:10057000C1C1C1E3773E1C00001F3F70E0C0C0C096
:10058000E0703F1F000000000001FFFF01000000BD
:10059000D5F08D14A1C881CFD9F1AF2000596D617C
:1005A0007800596D696E00586D617800586D696EFC
:1005B00000546F6F6C730044697265637400547209
:1005C000616365005461626C650057696E646F77A2
:1005D0000046756E6374696F6E0003059A02050527
:1005E0008102081311241FBECFEFDAE0DEBFCDBFBA
:1005F00011E0A0E0B1E0E6EBFCE402C005900D9252
:10060000A03BB107D9F726E0A0EBB1E001C01D92F5
:10061000A03FB207E1F712E0C2EFD2E004C0219799
:10062000FE010E944D24C13FD107C9F70E94531318
:100630000C9459260C940000813109F45EC038F501
:10064000853009F44EC088F4823009F471C030F46A
:10065000882309F46AC08130F1F108958330F1F103
:100660008430D9F78AE791E00895883009F43FC0D3
:1006700038F48630C9F1873081F780E891E0089539
:100680008930C1F1803149F786E891E008958731DA
:10069000E9F188F48431B9F138F4823189F1833198
:1006A000E1F68AE891E00895853139F18631A9F6BD
:1006B00081E991E008958C3F79F138F4883149F16E
:1006C000893159F687E991E008958E3F59F138F163
:1006D0008EE891E0089584E791E0089588E791E03D
:1006E00008958CE791E008958EE791E0089582E8FF
:1006F00091E0089584E891E008958CE991E00895EF
:1007000088E891E008958CE891E0089583E991E00C
:10071000089585E991E0089589E991E008958BE9CC
:1007200091E008958EE991E0089582E791E00895BF
:1007300086E791E008959091E506982329F4909139
:10074000E406982381E009F480E00895CF9380E2E5
:100750000E949B03882339F08091C802882319F0F6
:1007600081508093C80280E40E949B03882381F01B
:100770002091C8028091C4029091C502899FC00156
:1007800011240197281719061CF42F5F2093C80223
:1007900080E80E949B03882349F08091C8029091D1
:1007A000C402891718F0891B8093C80280E10E9457
:1007B0009B03882399F08091C8029091C4022091F4
:1007C000C5022150330B929FA001939F500D11241D
:1007D000841715061CF4890F8093C80288E00E94D4
:1007E0009B03882339F1E091C8028091C602909161
:1007F000C702E80FF92FF11D8491C091C1028E3F0D
:10080000C1F180F48D3F41F10E941C0321E02C0FC7
:100810002093C102FC018081EC2FF0E0EF55FD4FE9
:10082000808308C081E08093C902EC2FF0E0EF558F
:10083000FD4F108284E00E949B03882359F0E091D1
:10084000C102EE2339F0E150E093C102F0E0EF5530
:10085000FD4F1082CF910895CC2361F3EFEFEC0FA1
:10086000E093C102E3CFC150EC2FF0E0EF55FD4F14
:100870001082C111F8CF1092C102DCCFEAECF2E095
:10088000A0E0B8E000800EBC8111012C1197A0FD02
:10089000FDCF0192B9F70DB4089580E0EAECF2E0E3
:1008A00081118FEF0024819381938193819303942D
:1008B000D1F708958FB7F89440914D0250914E02B0
:1008C00060914F02709150028FBF8091E706942F84
:1008D000981B8091E806882331F09093E9061092E6
:1008E000E80680E008952091E606921740F49F5FA5
:1008F0009217A0F491E093BF889513BE089581E00C
:100900008093E8064093E7068091E2069091E30623
:1009100001969093E3068093E20681E008958F921A
:100920009F92AF92BF92CF92DF92EF92FF92C090D0
:100930002F01D0903001E0903101F0903201A701F9
:1009400096010E94D5204B015C01A70196016091A0
:1009500033017091340180913501909136010E94EC
:10096000D5209B01AC01C501B4010E9447216B0158
:100970007C0160913F0170E090E080E00E94F31CF8
:100980009B01AC01C701B6010E94541D6B017C01A3
:1009900020E030E04EEF52E40E9490226FE71816FC
:1009A000F4F020E030E040E053ECC701B6010E94D3
:1009B000EE1C60E887FD13C020E030E0A901C7010C
:1009C000B6010E94902220E030E040E05FE387FD26
:1009D00010C0C701B6010E94D6200E94B921862FFF
:1009E000FF90EF90DF90CF90BF90AF909F908F904F
:1009F0000895C701B6010E94D520EFCF8F929F9234
:100A0000AF92BF92CF92DF92EF92FF92C0903B01E4
:100A1000D0903C01E0903D01F0903E01A70196018D
:100A20000E94D5204B015C01A7019601609137011E
:100A3000709138018091390190913A010E94D5203E
:100A40009B01AC01C501B4010E9447216B017C01EF
:100A50006091400170E090E080E00E94F31C9B01F7
:100A6000AC01C701B6010E94541D6B017C0120E05E
:100A700030E04EEF52E40E9490226FE71816F4F037
:100A800020E030E040E053ECC701B6010E94EE1CCC
:100A900060E887FD13C020E030E0A901C701B6017E
:100AA0000E94902220E030E040E05FE387FD10C02C
:100AB000C701B6010E94D6200E94B921862FFF905F
:100AC000EF90DF90CF90BF90AF909F908F90089560
:100AD000C701B6010E94D520EFCFFC018091CC0167
:100AE000882311F13FB7F89482E08093E9002091C8
:100AF000F200822F90E01816190614F481E090E0BD
:100B0000882339F0289844E64093CB014091F100C6
:100B10004083222339F02091F200211103C02BE6FB
:100B20002093E8003FBF08958FEF9FEF08952FB700
:100B3000F89483E08093E9009091E800892F807217
:100B400095FF04C09091F20080E4891B2FBF0895A7
:100B50008091C30181110DC082E08093BF0184E0C8
:100B60008093C0011092C2011092C10181E0809374
:100B7000C3018FEB91E0089508954091B701509122
:100B8000B8012091B5013091B60142175307B4F472
:100B90009091E8009570E1F39091E80092FD19C002
:100BA0008093F1008091B7019091B80101968F7305
:100BB0009927892B19F48EEF8093E8008091B70173
:100BC0009091B80101969093B8018093B70181E0AC
:100BD000089580E00895DF92EF92FF920F931F93A4
:100BE000CF93DF93D82E8A01EB017B01E40EF51E33
:100BF000CE15DF0559F0D7FE12C0FE0184910E9488
:100C0000BD0521968111F4CF0FEF1FEFC801DF91D1
:100C1000CF911F910F91FF90EF90DF900895888101
:100C2000EECF0F931F93CF93DF931F92CDB7DEB715
:100C300082E0898342E450E064E774E080E80E9447
:100C4000EB050E94A805DC0112960D911C9101157F
:100C5000110589F0D801ED91FC910280F381E02D1E
:100C6000BE016F5F7F4FC801099597FD04C0F80171
:100C700000851185ECCF89810F90DF91CF911F9175
:100C80000F910895615030F02091F100FC01208314
:100C90000196F8CF289884E68093CB010895EF92CF
:100CA000FF920F931F93CF93DF938C017B01D0E0D2
:100CB000C0E0F701EC0FFD1F6491662361F0D801DD
:100CC000ED91FC910190F081E02DC8010995892BEF
:100CD00011F02196EECFCE01DF91CF911F910F91B0
:100CE000FF90EF900895AF92BF92CF92DF92EF9274
:100CF000FF920F931F93CF93DF936C017B018B01C6
:100D0000040F151FEB015E01AE18BF08C017D10715
:100D100059F06991D601ED91FC910190F081E02D9F
:100D2000C6010995892B79F7C501DF91CF911F91F4
:100D30000F91FF90EF90DF90CF90BF90AF9008950C
:100D4000CF93DF931F92CDB7DEB76983DC01ED91BE
:100D5000FC910280F381E02D41E050E0BE016F5F25
:100D60007F4F09950F90DF91CF91089583E0809395
:100D7000E9008091F200882319F08AE38093E8006B
:100D800008950E94970590E00895CF93DF931F92F6
:100D9000CDB7DEB7FC018485958597FD08C02FEFA0
:100DA0003FEF358724870F90DF91CF910895CE01D3
:100DB00001960E946D05019719F4898190E0F3CFA7
:100DC0008FEF9FEFF0CF0F931F93CF93DF931F927F
:100DD000CDB7DEB78C01FC018485958597FF0BC0EC
:100DE000CE0101960E946D05019771F4898190E012
:100DF000F80195878487F801848595850F90DF91A8
:100E0000CF911F910F9108958FEF9FEFF1CFFC01CC
:100E10008485958597FD0BC09FB7F89482E08093F9
:100E2000E9008091F2009FBF90E0019608959FB77E
:100E3000F89482E08093E9008091F2009FBF90E0F7
:100E400008953FB7F8948091B1019091B201A091BB
:100E5000B301B091B40126B5A89B05C02F3F19F08E
:100E60000196A11DB11D3FBFBA2FA92F982F88272A
:100E7000BC01CD01620F711D811D911D42E0660F05
:100E8000771F881F991F4A95D1F708958F929F92D7
:100E9000AF92BF92CF92DF92EF92FF926B017C01F3
:100EA0000E9421074B015C01C114D104E104F1044B
:100EB000B9F00E942107681979098A099B09683EDF
:100EC00073408105910580F321E0C21AD108E10841
:100ED000F10888EE880E83E0981EA11CB11CE4CFB7
:100EE000FF90EF90DF90CF90BF90AF909F908F904A
:100EF00008958F929F92AF92BF92CF92DF92EF921E
:100F0000FF920F931F93CF93DF936C017B018A01B4
:100F100080910B01882309F45CC08091CC01882367
:100F200009F457C08091BB0180FF05C08091E000AB
:100F300082608093E000E801B12C8AEFA82E93E054
:100F4000892E2AE3922E209711F4BB20D9F10E941A
:100F5000970581110AC0AA94AA20D9F161E070E036
:100F600080E090E00E944607EECF8C171D0611F03E
:100F70000CF08C2F9FB7F8948092E9002091E80044
:100F800025FD02C09FBFDFCF282F30E0C21BD30B4F
:100F9000F701815020F041914093F100FACFE20E29
:100FA000F31EBB2021F09092E800B12CEBCF809192
:100FB000E80085FDE7CF9092E800BB24B39420972A
:100FC00009F3F3CF5D9884E68093BA0110161106F9
:100FD0003CF081E090E0F6019383828310E000E032
:100FE000C801DF91CF911F910F91FF90EF90DF909B
:100FF000CF90BF90AF909F908F9008952D9A0895B5
:10100000BC0190E080E00C9446078FB18095807F12
:10101000669B88601C9B84600895480F592F511D62
:1010200014161506D4F580389105BCF597FF02C05B
:1010300090E080E04138510514F040E850E0481B52
:10104000FB0177FD379633E0F595E7953A95E1F7A3
:10105000F695FE2FEE27F795E795E80FF91FE65373
:10106000FD4F6770772781E090E001C0880F6A9597
:10107000EAF7382F213041F4415078F08191DF01B7
:101080001197832B8C93F8CF8095415030F091913C
:10109000DF01119798239C93F8CF0895803891052C
:1010A000B8F460347105A0F420E191E061FD94E0B2
:1010B00060FD990F62FD9295687F269FD0011124F3
:1010C000A80FA653BD4F8C9140FF03C0892B8C9372
:1010D000089590958923FBCFDF92EF92FF920F93B3
:1010E0001F93CF93DF937C01D22E8B01040F111D30
:1010F000EB0177FF02C0D0E0C0E0C8010134110568
:1011000014F080E490E0C817D9073CF44D2DBE01DF
:10111000C7010E944E082196F0CFDF91CF911F9119
:101120000F91FF90EF90DF900895CF92DF92EF92B2
:10113000FF920F93CF93DF936C017B01C42FD22FCB
:101140006034710520F4202FC6010E940D08B701FC
:101150006D0F711D61507109603471052CF4202FE1
:101160004C2FC6010E940D08202F4D2FB701C6013C
:101170000E946C08C6018C0F911D202F4D2FB701C6
:101180000197DF91CF910F91FF90EF90DF90CF907B
:101190000C946C086F927F928F929F92AF92BF9245
:1011A000CF92DF92EF92FF920F931F93CF93DF9333
:1011B0004C017B01C22F102F98E0A92EB12C642E78
:1011C000669466946694712CCA0187709927892B5E
:1011D00079F5D40117962D913C91C7019927B90152
:1011E0000E943924269DF001279DF00D369DF00DBB
:1011F00011248E0F9F1FD4011596ED91FC91E80FDD
:10120000F91F2081111112C0C095C223C083DF9144
:10121000CF911F910F91FF90EF90DF90CF90BF90F3
:10122000AF909F908F907F906F900895C22BEECFDC
:10123000D0E04770C42ED12C83E0660C771C8A95D1
:10124000E1F79E0101C0220F4A95EAF7012FA301A1
:10125000B701C4010E94CA08A301485F5F4FC501DE
:101260008C199D0902C0D595C7958A95E2F7A7CF3D
:101270004F925F926F927F928F929F92AF92BF92A6
:10128000CF92DF92EF92FF920F931F93CF93DF9352
:10129000EC016D3071F06A30F9F48D859E859C8784
:1012A0008B878C892F853889820F932F911D988B7E
:1012B0008F8781E090E0DF91CF911F910F91FF9098
:1012C000EF90DF90CF90BF90AF909F908F907F90E6
:1012D0006F905F904F900895EB84FC84693031F4F7
:1012E00048E0E40EF11CFC86EB86E3CF603231F47B
:1012F0008B8990E00296E80EF91EF5CF162F8F81AC
:101300009885E816F9060CF04DC08F8498885BEF3D
:1013100085165FEF95060CF445C089859A85881679
:1013200099060CF03FC080EE860F8F3508F038C06C
:10133000862F90E09C0128573C4FF901A490B12CD6
:10134000A50147555D4F5A01FC01E757FC4F5490EA
:10135000F9012491521AD12CC12CC51418F5F501AC
:10136000EC0DFD1D449037016C0C7D1C8C81882395
:1013700061F001E089899A89892B09F000E02FEF5B
:10138000A401B301CE010E94CA080989242DA40139
:10139000B301CE010E94CA08FFEFCF1ADF0ADDCFEA
:1013A0008FE3C7CF612F70E0FB01E757FC4F8491BB
:1013B00068577C4FFB016491E82FE61B8B89E80F8F
:1013C000FF27FF1F8B859C85E80FF91FFC87EB87A4
:1013D00070CF682F8AEC96E00C943809089590E05D
:1013E00080E00895FB0101900020E9F73197AF01FB
:1013F000461B570BDC01ED91FC910280F381E02D3F
:1014000009948F929F92AF92BF920F931F93CF93A5
:10141000DF93CDB7DEB7A1970FB6F894DEBF0FBE4E
:10142000CDBF19A2423008F44AE08E010F5D1F4F74
:10143000842E912CB12CA12CA50194010E94A420F2
:10144000E62FB901CA01EA3004F5E05DD801EE9358
:101450008D01232B242B252B79F790E080E010972A
:1014600029F0BD018AEC96E00E94F209A1960FB620
:10147000F894DEBF0FBECDBFDF91CF911F910F91CA
:10148000BF90AF909F908F900895E95CDFCFFF925F
:101490000F931F93CF93DF93C0E0DAE04091C50232
:1014A0006091C30270E08091C20290E02091C4027A
:1014B0002C1768F04D9F402D11244F5F21E0CD9FE8
:1014C000800D911D11240E946C08CF5FE7CFC0E012
:1014D000DAE04091C4026091C30270E08091C502DD
:1014E0008C1798F0CD9F600D711D1124603471052B
:1014F00054F44D9F402D11244F5F8091C20221E092
:1015000090E00E940D08CF5FE4CF10E08AE0F82E53
:101510008091C502181708F03DC01F9DE0011124FD
:1015200000E04091C4028091C302282F30E08091F6
:10153000C20290E0041760F50F9D800D911D1124EB
:1015400002969093D8068093D7069093D606809300
:10155000D506CE01820F931F02969093DA068093F0
:10156000D906E02F149FE00D11248091C6029091BE
:10157000C702E80FF92FF11D84910E941C03009708
:1015800029F0BC018AEC96E00E94F2090F5FC9CFF6
:101590001F5FBECF8091C8026091C4020E942D24BB
:1015A0006091C302CAE08C9F90011124620F732FD7
:1015B000711D8091C2029C9FF001112400E02BE07C
:1015C0004BE08E0F9F2F911D0E9495088091C802BD
:1015D0006091C4020E942D246091C3028C9F9001EF
:1015E0001124620F732F711D615071098091C20225
:1015F0009C9FE00111248C0F9D2F911D01E02DE097
:101600004DE001970E949508DF91CF911F910F91B6
:10161000FF900895CF92DF92EF92FF920F931F9366
:10162000CF936B017C01C42F1092C80244E050E0BC
:101630006AED75E084EC92E00E94CD1C1092C90224
:101640008091C102882339F08150E82FF0E0EF55F6
:10165000FD4F1082F7CF1092C10201EA12E02C2F49
:1016600040E0C701B6010E94521B8091C1028F5F0A
:1016700021E0280FE82FF0E0EF55FD4F9081911108
:1016800036C08093C1028091C902811132C00E948C
:101690005A048823C1F38091E4068093E5060E94F2
:1016A00005088093E4060E944D040E94A6030E9450
:1016B000470A2091C3022850330B8091C20290E068
:1016C00002969093D8068093D7069093D60680937F
:1016D000D5063093DA062093D90661EA72E08AECE7
:1016E00096E00E94F20980E00E943E04CCCF822F57
:1016F000BFCF81EA92E0CF911F910F91FF90EF90C1
:10170000DF90CF900C94C01C4F925F926F927F92AB
:101710008F929F92AF92BF92CF92DF92EF92FF9201
:101720000F931F93CF936B017C01742EAC019B012F
:101730000E94ED2261EA71E0811126C04601570145
:10174000E894B7F82FEF3FEF4FE75FE7C501B4012B
:101750000E94ED2281110CC02FEF3FEF4FE75FE7B2
:10176000C501B4010E94EE1C65EA71E0181664F030
:101770002FEF3FEF4FE75FE4C701B6010E949022D1
:101780001816ACF469EA71E08AEC96E0CF911F91EB
:101790000F91FF90EF90DF90CF90BF90AF909F9010
:1017A0008F907F906F905F904F900C94F2092FEF85
:1017B0003FEF4FE75FECC701B6010E94EE1C87FDCB
:1017C000E1CF20E030E0A901C701B6010E94EE1C84
:1017D00010E000E087FF08C08DE20E94E9098C015B
:1017E000F7FAF094F7F8F094C0E060E070E080E081
:1017F0009FE37C1641F020E030E040E251E40E949B
:101800004721CF5FF6CFA70196010E94D6202B017A
:101810003C010E94C0214B015C014AE00E94010A88
:101820007C01E00EF11ECC23B1F1C501B4010E9490
:10183000F31C9B01AC01C301B2010E94D5204B01F6
:101840005C018EE20E94E909E80EF91EC15018F110
:1018500020E030E040E251E4C501B4010E94541D93
:101860002B013C010E94C0214B01B12CA12C4AE06C
:10187000C501B4010E94010AE80EF91EC501B401B8
:101880000E94F31C9B01AC01C301B2010E94D52050
:101890004B015C01DBCFC701CF911F910F91FF90EE
:1018A000EF90DF90CF90BF90AF909F908F907F9000
:1018B0006F905F904F900895CF93DF9343E00E9425
:1018C000840BEC016DEA71E08AEC96E00E94F2096B
:1018D0008C0F9D1FDF91CF910895BC0181E592E0AF
:1018E0000E944F066DEA71E081E592E00E94F209E4
:1018F000FFCF1F93CF93DF93EC01162F8CE594E07D
:10190000662359F070E0888199810E948C25998323
:101910008883892B21F485E594E00E946D0C1A835D
:10192000DF91CF911F910895CF93FC019381911185
:1019300004C08FE194E00E946D0CA081B1819150B0
:101940009383A90FB11DCC91992351F06281862F09
:1019500086958695891720F06695CF010E94790CAF
:101960008C2FCF9108951F93CF93DF93EC01162F07
:101970006A818B81681304C0660FCE010E94790CC6
:1019800088819981EB8121E02E0F2B83E80FF92FBD
:10199000F11D1083DF91CF911F9108955F926F9297
:1019A0007F928F929F92AF92BF92CF92DF92EF92EF
:1019B000FF920F931F93CF93DF9300D000D000D0FE
:1019C000CDB7DEB7712C7394E72DF0E0E15FFE4FE9
:1019D00080818111F8CF1C8282E090E00E94672410
:1019E0009A83898382E08B83812C912C10E09FEF76
:1019F000871408F02CC1A82CB12C9501215F3E4F13
:101A00006901F90180818A3209F478C194F4853240
:101A100029F12CF40FEF882341F000E01AC088323E
:101A200009F459C101EF8932C1F7903608F044C179
:101A30001FC08F3209F43CC134F48B3289F002E6C6
:101A40008D3299F3EACF8E3509F45AC100E4883714
:101A500021F7903680F0913F71F012C006E6E5CF95
:101A600001E6903608F03BC180E8800F803718F01F
:101A7000003F09F037C163E6CE0101960E94B30C26
:101A8000011130C155245394510EE12FF0E0E3537E
:101A9000FE4F908211E0190DBE016B5F7F4FC601B2
:101AA0000E94701B24E0929EF0011124E35FFD4F21
:101AB00060837183828393838D819E818F50914057
:101AC000A816B90619F088248A94880E092D912E3B
:101AD000BAC0A0EABA2EB00E3FE13B1508F489C0A7
:101AE000CB2CD12CEC81EE2309F401C189819A81A0
:101AF000E80FF92FF11D3197808190E8980F90370A
:101B000008F468C0E0EAE80FE03208F0F0C0E7301F
:101B1000F8F4F0E0E257F24F0C944D24680EA60D55
:101B2000A60D650E650E950D650EF4E0FF2EF6E030
:101B3000FB15E8F0F601E156F24F0C944D24CD0D63
:101B4000EE0DEE0DC50DC50DC90DC50DE2E0FE2E65
:101B500096E09B1560F0F601E055F24F0C944D2491
:101B6000CD0DD10DD10DC50DC50DC90DC50D9F2DC7
:101B7000FE2CE92EFE14E8F0FE1034C08536B1F1DB
:101B8000A0F48036A0F0612C14C0EF2C73E0F72E87
:101B9000F1CFEF2C64E0F62EEDCFEF2C55E0F52ED3
:101BA000E9CFEF2C42E0F42EE5CF863661F36110E9
:101BB0009EC0AA24A394A10ECE0101960E94940C6B
:101BC000E12FF0E0E353FE4F80838E2DEF2CF82EB3
:101BD0001A2D88CF8F2DFE2CE82EEBCFEF2C32E084
:101BE000F32EE7CF8E2DEF2CF82E81C06624639460
:101BF0007EC0003F11F460EF7BC0013FE1F4EC8157
:101C000089819A81EE2309F451C0E80FF92FF11D63
:101C100031978081803F09F453C0DD24D394D10EE5
:101C2000CE0101960E94940CE12FF0E0E353FE4FA9
:101C300080831D2DE4CF55245394510EE12FF0E005
:101C4000E353FE4F00838394152D902FD1CEE12EC8
:101C5000F12C8C81F701E353FE4F7F01882341F083
:101C60001F5FCE0101960E94940CF7018083EFCF95
:101C70008FEF808311E089819A810E940325812F53
:101C800026960FB6F894DEBF0FBECDBFDF91CF9181
:101C90001F910F91FF90EF90DF90CF90BF90AF908A
:101CA0009F908F907F906F905F90089510E0E3CFAA
:101CB00004E6903608F4D8CE913F09F0E1CED4CEB8
:101CC000CE0101960E94940C17C023E0F22E2FCF74
:101CD00095E0F92E2CCF00EF903608F4CCCE913F52
:101CE00009F4C2CE80E8800F803708F0F2CE602F72
:101CF000CE0101960E94B30C512EA5CF03E695CEDE
:101D000005E693CE1F93CF93DF93EC01162F8DE35F
:101D100094E0662371F084E0689FB001112488810B
:101D200099810E948C2599838883892B21F486E3ED
:101D300094E00E946D0C1A83DF91CF911F9108955A
:101D4000CF92DF92EF92FF92FC019381911104C038
:101D500088E094E00E946D0CA081B1819150938342
:101D600084E0989F90011124A20FB31FCD90DD90C5
:101D7000ED90FC90992351F06281862F869586958F
:101D8000891720F06695CF010E94820EC701B60127
:101D9000FF90EF90DF90CF900895CF92DF92EF9277
:101DA000FF92CF93DF93EC016A017B016A818B8103
:101DB000681304C0660FCE010E94820E288139810B
:101DC0009B8181E0890F8B8344E0949FC0011124A3
:101DD000820F931FFC01C082D182E282F382DF91E5
:101DE000CF91FF90EF90DF90CF9008954F925F9248
:101DF0006F927F928F929F92AF92BF92CF92DF921B
:101E0000EF92FF920F931F93CF93DF9300D000D0F8
:101E1000CDB7DEB77C014A015B011C8288E090E00F
:101E20000E9467249A83898382E08B8387016701FC
:101E300080E4C80ED11CD801ED918D01E03488F406
:101E4000F0E07096EE0FFF1FEE0FFF1FEE0DFF1D6F
:101E50004081518162817381CE0101960E94CD0E35
:101E600079C080EA8E0F803208F06CC0873008F0AD
:101E700071C0E82FF0E0EF5BF04FCE0101960C94BB
:101E80004D249C0F480F590F660F750F820F8F0F4F
:101E90000E94A00E2B013C01CE0101960E94A00ED3
:101EA0009B01AC01C301B2010E94D620AB01BC0171
:101EB000D3CF0E94A00E2B013C01CE0101960E94BF
:101EC000A00EA30192010E94D520F0CF0E94A00E87
:101ED0002B013C01CE0101960E94A00E9B01AC019A
:101EE000C301B2010E94541DE1CF0E94A00E2B013C
:101EF0003C01CE0101960E94A00EA30192010E9416
:101F00004721D4CF0E94A00E2B013C01CE010196A7
:101F10000E94A00EA30192010E949522C7CF0E94A9
:101F2000A00E2B013C01CE0101960E94A00EA30140
:101F300092010E94FA21BACF0E94A00EAB01BC010F
:101F400070588ACF80E88E0F8037E8F5E03869F165
:101F5000E13891F1C016D10609F06DCF8C81C12C0A
:101F6000D12C7601882331F0CE0101960E94A00E7B
:101F70006B017C0189819A810E940325C701B6010A
:101F80000F900F900F900F90DF91CF911F910F91B5
:101F9000FF90EF90DF90CF90BF90AF909F908F9089
:101FA0007F906F905F904F900895CE0101960E94B0
:101FB000A00E0E94E5227ACFCE0101960E94A00ECB
:101FC0000E94422173CFEF3F49F2E03419F6B50188
:101FD000A40142CF1F920F920FB60F9211248F933C
:101FE0009F938091E1009091E100937F9093E100B5
:101FF00083FF0FC01092E90091E09093EB001092E4
:10200000EC0092E39093ED001092CC0198E0909355
:10201000F00082FF22C093E09093E9009091F200DB
:10202000992319F09AE39093E8009091BA019923CB
:1020300041F09091BA0191509093BA01911101C071
:102040005D9A9091CB01992341F09091CB019150F1
:102050009093CB01911101C0289A84FF18C0809100
:10206000E2008E7E81608093E2008091E1008F7EAD
:102070008093E1008091BB018E7E80618093BB01E3
:102080009F918F910F900FBE0F901F90189580FF1A
:10209000F7CF8091E2008E7E80618093E200809194
:1020A000E1008E7E8093E1008091BB018E7E816095
:1020B000E5CF1F920F920FB60F921124CF92DF92AD
:1020C000EF92FF920F931F932F933F934F935F9342
:1020D0006F937F938F939F93AF93BF93EF93FF93F0
:1020E000CF93DF93CDB7DEB76C97DEBFCDBF109235
:1020F000E9008091E80083FF25C068E0CE014596A5
:102100000E94420682EF8093E8008D8987FF39C0E4
:102110009091E80090FFFCCF982F907609F034C1A1
:102120009E894F89588D2F89F88C911131C0803844
:1021300061F58091BC018093F1001092F1008EEF67
:102140008093E8006C960FB6F894DEBF0FBECDBF4B
:10215000DF91CF91FF91EF91BF91AF919F918F91BF
:102160007F916F915F914F913F912F911F910F91AF
:10217000FF90EF90DF90CF900F900FBE0F901F90C9
:1021800018959EEF9093E800C7CF1092F100D5CF3D
:10219000913059F48111D3CF4130510581F68091AE
:1021A000BC018D7F8093BC01CACF933049F481116B
:1021B000C6CF4130510519F68091BC018260F2CF43
:1021C000953041F48091E80080FFFCCF2068209397
:1021D000E300B5CF963009F0A9C00B8D1C8D22E02D
:1021E0001092E9001092B8011092B701F2122EC0BD
:1021F0001092B6011092B5010E9411061F8299E05B
:102200009983FA8291E09E8390EA98879AEF998762
:102210002091B7013091B801275F3F4F3C832B835A
:102220008D831092E9001092B8011092B7011093BB
:10223000B6010093B50149E050E0BE016F5F7F4FEA
:1022400080E00E94EB050E94110679CF1093B60141
:102250000093B5010E94A805DC0112960D911C9116
:102260000115110509F451C1D801ED91FC910480CB
:10227000F581E02DBE016B5E7F4FC8010995009787
:1022800009F03EC1F80100851185EACFF3E0FF12A5
:102290000EC08F89882309F440C0823061F440E881
:1022A00067E088ED94E00E94D512811148CF81E269
:1022B0008093EB0047CF813029F440E86BE08CEC51
:1022C00094E0F1CF833099F70E94A805DC011296C3
:1022D000ED90FC908E010F5F1F4F6801E114F10437
:1022E00079F0D701ED91FC910680F781E02DB801DE
:1022F000C7010995080F111DF701E084F184EECFA5
:10230000D8011C92F60101900020E9F73197BF0136
:102310006C197D0940E0C601C6CF66EB74E0FB0195
:10232000449150E080E80E94EB0509CF973009F412
:10233000BECF983021F481E08093F10000CF993036
:1023400009F0FDCE837009F0B2CFE8E4F1E081E05E
:1023500031E096E32191222371F08093E9003093DC
:10236000EB00DF0111972C912093EC009093ED008E
:102370008F5F873079F78EE78093EA001092EA004A
:102380008F898093CC01DBCE8B8D9C8D1092E900E0
:102390001092B8011092B7019093B6018093B501E5
:1023A000898D811192C08E899D89913A49F481323B
:1023B00009F07DCF47E050E064E071E080E0B3CF0A
:1023C000913209F074CF833269F48F89988DB0E02F
:1023D000A0E08093000190930101A0930201B093CB
:1023E0000301ADCE803269F48091E80082FFFCCF1A
:1023F00067E084E091E00E9442068BEF8093E80062
:102400009ECE823209F09BCE8F8980930B01EEEF36
:10241000FFE7859194918B3F9C4D51F1E0E0F8E00E
:102420008091040190910501A0910601B0910701EE
:10243000803B9440A105B105F1F480910B0180FD32
:102440001AC0EE3F8AE0F80789F587E797E791839E
:102450008083809160008093B90188E19BE00FB692
:10246000F894A895809360000FBE9093600067CEAB
:10247000EEEFFAE0D5CF808191818737974709F059
:102480005ECEA89580916000886180936000809105
:10249000B90180936000EE3F2AE0F20789F0809155
:1024A000FE0A9091FF0A9183808349CE80819181B9
:1024B0008737980751F29093FF0A8093FE0AC5CFA1
:1024C0001092FF0A1092FE0A3ACE0E94A805DC0183
:1024D00012960D911C910115110509F4E8CED80151
:1024E000ED91FC910190F081E02DBE016B5E7F4F7C
:1024F000C8010995811123CEF80100851185EBCF24
:10250000181619060CF41BCED2CEF1E0FF12BECE87
:102510006AEB74E004CF1F920F920FB60F92112452
:102520002F933F938F939F93AF93BF9380914D02CF
:1025300090914E02A0914F02B09150023091B001A3
:1025400023E0230F2D3758F50196A11DB11D2093CF
:10255000B00180934D0290934E02A0934F02B0932E
:1025600050028091B1019091B201A091B301B0915C
:10257000B4010196A11DB11D8093B1019093B201E8
:10258000A093B301B093B401BF91AF919F918F918C
:102590003F912F910F900FBE0F901F90189526E836
:1025A000230F0296A11DB11DD2CFEF92FF920F9380
:1025B0001F93CF93DF93F82E192FE62E042F81E07F
:1025C000860F880F0E94BD0583E00E94BD05CF2DB8
:1025D000D12FEC0EFD2EF11CCE15DF05B9F007FF53
:1025E00013C0FE0184910E94BD05182F80E00E9457
:1025F000BD05812321968111EFCFDF91CF911F91EE
:102600000F91FF90EF9008958881EDCF81E0F5CF95
:10261000E1E5F2E01382128288EE93E0A0E0B0E000
:1026200084839583A683B78382E591E09183808339
:102630008FEF9FEF95878487EFEDF6E01582168286
:1026400080E1878314821382118680E791E0918371
:102650008083EAECF6E01382128284E691E09183B3
:1026600080838AEC92E09683858380E890E090876F
:10267000878380E490E09287818787E0848B81E084
:10268000838B16861586108A17861486138681E03A
:1026900090E0928B818B1482E1EAF2E08CE081A3DE
:1026A00082A310A60895CF93DF93CDB7DEB7C758A6
:1026B000D1090FB6F894DEBF0FBECDBF789484B5B4
:1026C000826084BD84B5816084BD85B5826085BD2E
:1026D00085B5816085BD80916E00816080936E00BC
:1026E00010928100809181008260809381008091AE
:1026F000810081608093810080918000816080935F
:10270000800080919100826080939100809191007F
:10271000816080939100809190008160809390000F
:102720008091C10084608093C1008091C10082606B
:102730008093C1008091C10081608093C10080912D
:10274000C30081608093C3008091C0008260809349
:10275000C0008091C20081608093C20080917A00A5
:10276000846080937A0080917A00826080937A00FE
:1027700080917A00816080937A0080917A008068ED
:1027800080937A001092CC011092BC011092BB0190
:102790008091D70081608093D70080EA8093D80031
:1027A00089B5806189BD89B5826089BD09B400FEA3
:1027B000FDCF61E070E080E090E00E9446078091EC
:1027C000D8008F7C80618093D8008091E000807F6A
:1027D0008093E0008091E1008E7E8093E1008DE0A7
:1027E0008093E200559A209A81EC80937C0085B119
:1027F000806F85B984B1877E84B984B1876E84B9CE
:102800005E9A5F988AB1806D8AB9769A6E9881B324
:10281000806F81BB899880B38D7080BB80E58CBD53
:1028200081E08DBD85E090E00E9400085F9A85E020
:1028300090E00E9400085E985C98E0E9F5E08DE980
:1028400095E024912EBD00000DB407FEFDCF31961A
:102850008E179F07B1F75C9A81E88093640080919E
:10286000650081608093650080E00E943E040E94C4
:10287000050887FF15C05C9885EA8EBD00000DB481
:1028800007FEFDCF5C9A2E982F982D9880916400BA
:1028900080628093640081E083BF889513BEFCCF83
:1028A0000E94050882FF48C02D980E940508847880
:1028B0008438E1F40E94FE0788EC90E00E94000852
:1028C0002F9882E090E00E944C208F3F29F06FEF1C
:1028D00082E090E00E94542084EF91E00E94000882
:1028E0002F9A0E94050884788438D9F30E9405083D
:1028F00084718431E1F40E94FE0788EC90E00E942C
:1029000000082E9882E090E00E944C20882329F055
:1029100060E082E090E00E94542084EF91E00E9409
:1029200000082E9A0E94050884718431D9F388EC3E
:1029300090E00E940008B4CF0E94FE0782E090E081
:102940000E944C20882309F4E5C03E9A3F9A81E01A
:1029500090E00E944C208470782E81E090E00E94EC
:102960004C2081FF0FC071102E9800EF1FEFE8E0A0
:10297000EE2EF12C0E94050886FFCFC02E9A2F9ACA
:102980000E94FE0782E390E00E9400080E94050872
:102990008111F8CF8FEF9FEF90935E0280935D02DD
:1029A0000E94CE0C52E4252E312C772473940E9481
:1029B0005A04882309F4FCC48091E4068093E50658
:1029C0000E9405088093E40680910E01882309F493
:1029D000CDC2EAECF2E085E59191DF0111979823F1
:1029E0009C9380952AEC36E02E173F07A9F780E0EC
:1029F0000E943E040E944D0480E8EDECF1E0DE010F
:102A0000119601900D928A95E1F71091400160E0D6
:102A100070E0CB010E948F0421E0412F70E060E064
:102A2000082E000C990B0E946C0860E070E0CB014E
:102A30000E94FE04682F880F770B6034710538F40C
:102A400021E040913F0190E080E00E940D08C0909D
:102A50002F01D0903001E0903101F090320120E060
:102A600030E0A901C701B6010E94902220E030E0C9
:102A700040E05FE387FDE1C0C701B6010E94D620B8
:102A80000E94B9210E94F51C6B017C0180903301EA
:102A900090903401A0903501B090360120E030E0F4
:102AA000A901C501B4010E94902220E030E040E07D
:102AB0005FE387FDC7C0C501B4010E94D6200E9414
:102AC000B9210E94F51C9B01AC01C701B6010E940F
:102AD000EE1C87FFBCC060E070E0CB010E94FE04EA
:102AE000182FC701B6010E948F04612F110F770BB9
:102AF0006150710921E042E0082E000C990B0E9400
:102B00006C0820E030E040E85FE3C701B6010E94B6
:102B1000D620BACF3E983F981ACF772029F00430BC
:102B2000110511F42E9A2F9881E00E943E0498011D
:102B300017FF04C022273327201B310B27703327B0
:102B4000C80117FD079673E0959587957A95E1F78B
:102B500017FF05C00197A701421B530B9A01AC0157
:102B60005695542F44275795479546535D4FB0E0EF
:102B7000A0E02701421A530A8F3F6FEF96070CF42B
:102B80003BC05A01E4E9AE0EB11C6A0170E060E09E
:102B9000FD01E052FB4F4F018F3F980779F0F401A0
:102BA000E60FF71FE491F0E01F01022E01C0220C96
:102BB0000A94EAF7F60164882628248A211531054B
:102BC00081F0F401E60FF71FE491F0E01F01042CFF
:102BD00002C0359427940A94E2F7F5016080262814
:102BE00020826F5F7F4FFFEFAF1ABF0AEFEFCE1A61
:102BF000DE0A6835710581F60196A85ABF4F405824
:102C00005F4FA03BB10509F0B7CF80E00E943E04C2
:102C10008FE090E00E9400080F5F1F4F09311105FF
:102C200009F0A8CE772011F02F9A2D9880E991E035
:102C30000E9400080E94FE07A5CEC701B6010E94AF
:102C4000D5201ECFC501B4010E94D52038CFC09039
:102C50003701D0903801E0903901F0903A0120E03E
:102C600030E0A901C701B6010E94902220E030E0C7
:102C700040E05FE387FD4FC0C701B6010E94D62048
:102C80000E94B9210E94F51C6B017C0180903B01E0
:102C900090903C01A0903D01B0903E0120E030E0DA
:102CA000A901C501B4010E94902220E030E040E07B
:102CB0005FE387FD35C0C501B4010E94D6200E94A4
:102CC000B9210E94F51C9B01AC01C701B6010E940D
:102CD000EE1C87FF2AC0C701B6010E94FE04182F10
:102CE00060E070E0CB010E948F04612F110F770B21
:102CF0006034710538F421E042E0082E000C990B95
:102D00000E940D0820E030E040E85FE3C701B60113
:102D10000E94D620B9CFC701B6010E94D520B0CFFE
:102D2000C501B4010E94D520CACF60913F01615016
:102D3000770B072E000C880B990B0E94F51C9B014A
:102D4000AC0160E070E0CB010E9447216B017C0187
:102D5000AC019B0160E070E080E89FE30E94D52019
:102D600020912F0130913001409131015091320179
:102D70000E94541D4B015C012091330130913401BC
:102D80004091350150913601C701B6010E94541D92
:102D90009B01AC01C501B4010E94D620AB01BC016E
:102DA000CE0101960E94F60E0E94FE04482E662473
:102DB000639410913F01611608F0D6C0662D062C71
:102DC000000C770B880B990B0E94F51C6B017C01A2
:102DD000412F4150550BBA01072E000C880B990B5F
:102DE0000E94F51C9B01AC01C701B6010E9447215E
:102DF0006B017C01AC019B0160E070E080E89FE327
:102E00000E94D52020912F01309130014091310155
:102E1000509132010E94541D4B015C0120913301FD
:102E2000309134014091350150913601C701B6010E
:102E30000E94541D9B01AC01C501B4010E94D62023
:102E4000AB01BC01CE0101960E94F60E0E94FE0469
:102E5000CD57DF4F8883C358D040082F880F110B00
:102E6000E62CF12C042C000C5508C70101975801E1
:102E7000A418B508B7FE03C0B194A194B10852E0FC
:102E8000A516B10454F4302F212F8701E32EF22E22
:102E9000342D252D2C01832F922F0415150554F068
:102EA0003E2D2F2D7C01832F922F302F212F820139
:102EB000432E522E4201801A910AFC01EE19FF099D
:102EC000CF57DF4FF983E883C158D040F7FF09C0DF
:102ED000F195E195F109CF57DF4FF983E883C158A8
:102EE000D040640197FE03C0FFEFCF1ADF0AD594EC
:102EF000C794E816F9067CF581E0282F880F330B7C
:102F0000CA57DF4F39832883C658D0404016510630
:102F100024F141E0B801C70132E0A316B10414F472
:102F2000B701C8010E944E08CF57DF4F4881598131
:102F3000C158D040C41AD50AD7FE0AC0CA57DF4FBD
:102F400088819981C658D040E80EF91EC80CD91C5A
:102F50000F5F1F4FDBCF8FEFD0CF6394CD57DF4F85
:102F60004880C358D04025CF10920E0170920D01B9
:102F700080910C018111BFC00E944D0480E80E9425
:102F80009B03882339F08091BE01882319F081507A
:102F90008093BE0180E10E949B03882329F08091E9
:102FA000BE018F5F8093BE0180E20E949B0381116E
:102FB0001092BD0180E40E949B0381117092BD01BB
:102FC00088E00E949B038823E9F00091BE0110E095
:102FD0008091BD01882309F476C003531E4FF80188
:102FE000608170E090E080E00E94F31C40E00E946D
:102FF0000A0B0091BE0110E003531E4F0E94C02136
:10300000F801608384E00E949B03882331F0709272
:103010000C0170920E0170920D019DE0C92E92E09C
:10302000D92E0DEC11E0B12CA12C20E4E22EF12CD4
:103030001092D8061092D7061092D6061092D50696
:10304000B092DA06A092D906F60161917191819150
:1030500091916F0142E00E94840BF092D806E092B9
:10306000D706F092D606E092D506B092DA06A09284
:10307000D906F80161918F0170E090E080E040E1B5
:103080000E94010AF7E0AF0EB11C28E3A216B104BA
:1030900079F68091BE0137E0839FC001112440E2A0
:1030A00050E05093D8064093D7065093D6064093ED
:1030B000D5069093DA068093D9068091BD018823C6
:1030C000B1F08EE315C0000F111F000F111F035F39
:1030D0001D4FF801608171818281938143E00E94DC
:1030E0000A0BF80160837183828393838BCF8CE317
:1030F0000E94E9095AC1813009F0D8C100E410E00A
:1031000020E040E470E060E0C8010E946C080F5FBE
:103110001F4F00381105A1F780E80E949B03882308
:1031200039F08091BE01823018F082508093BE0148
:1031300080E10E949B03882339F08091BE01843096
:1031400018F48E5F8093BE0180E20E949B03882367
:1031500039F08091BE01882319F081508093BE011F
:1031600080E40E949B03882339F08091BE01863061
:1031700018F48F5F8093BE0188E00E949B03882330
:1031800089F08091BE01813009F487C108F418C12B
:10319000843009F486C1863009F485C170920D012E
:1031A0001092BE0121E04FE370E060E081E490E026
:1031B0000E940D0821E040E461E070E080E490E0CE
:1031C0000E940D0821E04FE36FE370E081E490E09E
:1031D0000E940D0821E04DE362E070E080E490E0A1
:1031E0000E946C0821E04DE362E070E080E690E030
:1031F0000E946C0802E010E021E040E4B80180E4A5
:1032000090E00E940D080C5E1F4F02351105A1F7DA
:103210003092D8062092D7063092D6062092D50654
:1032200084E090E09093DA068093D90661ED75E032
:103230008AEC96E00E944F06E2E6F0E0F093D806B2
:10324000E093D706F093D606E093D50624E030E06D
:103250003093DA062093D9066AEC75E08AEC96E0A2
:103260000E944F063092D8062092D7063092D6069A
:103270002092D50648E150E05093DA064093D906F3
:1032800064EC75E08AEC96E00E944F0682E690E0DE
:103290009093D8068093D7069093D6068093D50650
:1032A000E8E1F0E0F093DA06E093D9066EEB75E022
:1032B0008AEC96E00E944F063092D8062092D706FC
:1032C0003092D6062092D5062CE230E03093DA0612
:1032D0002093D90667EB75E08AEC96E00E944F06D2
:1032E00042E650E05093D8064093D7065093D60656
:1032F0004093D5068CE290E09093DA068093D9064D
:1033000061EB75E08AEC96E00E944F068091BE0169
:10331000082F069594E1099F80011124B8016E5F82
:103320007F4F8170CC57DF4F8883C458D040CB5734
:10333000DF4F1882C558D040CC57DF4FE880F98066
:10334000C458D04085E0EE0CFF1C8A95E1F7E1E41B
:10335000EE0EF11C603471052CF420E04FE1C70142
:103360000E940D08B8016A5E7F4F603471052CF42D
:1033700020E04FE1C7010E940D08B8016F5F7F4F49
:10338000603471052CF421E040E2C7010E940D0871
:10339000B801695E7F4F603471052CF421E040E292
:1033A000C7010E940D0810920D0180E00E943E04AA
:1033B00080E090E0892B09F4FACA0E940000F5CA67
:1033C0007092C80244E050E06EED75E084EC92E04B
:1033D0000E94CD1C1092C9028091C102882339F04D
:1033E0008150E82FF0E0EF55FD4F1082F7CF10929B
:1033F000C1026FE071E081EA92E00E945226809162
:10340000C1028F5FE82FF0E0EF55FD4F90819111E1
:10341000F8CF8093C1028091C902811130C00E940F
:103420005A048823C1F38091E4068093E5060E9444
:1034300005088093E4060E944D040E94A6030E94A2
:10344000470A2091C3022850330B8091C20290E0BA
:1034500002969093D8068093D7069093D6068093D1
:10346000D5063093DA062093D90661EA72E08AEC39
:1034700096E00E94F20980E00E943E04CCCF61EA0F
:1034800072E08FE091E00E9452260E94CE0C8823C9
:1034900009F496CF70920E0181CE83E080930C01E7
:1034A0007DCE86E0FBCF10920C0178CE833009F000
:1034B0007CCF00E410E020E040E470E060E0C80170
:1034C0000E946C080F5F1F4F00381105A1F780E8BC
:1034D0000E949B03882339F08091BE01882319F054
:1034E00081508093BE0180E10E949B03882339F0C4
:1034F0008091BE01833018F48F5F8093BE0188E015
:103500000E949B03882369F08091BE01813009F4F9
:103510008DC008F477C0823009F49CC0833009F470
:10352000ADC084E00E949B03882341F070920E019D
:1035300070920D0170920C011092BE0128E430E0EF
:103540003093D8062093D7063093D6062093D5061D
:1035500044E050E05093DA064093D9066CEA75E0F7
:103560008AEC96E00E944F0660912F017091300125
:1035700080913101909132010E945C0C67EA75E004
:103580008AEC96E00E944F066091330170913401FD
:1035900080913501909136010E945C0C62EA75E0E1
:1035A0008AEC96E00E944F066091370170913801D5
:1035B0008091390190913A010E945C0C6DE975E0AF
:1035C0008AEC96E00E944F0660913B0170913C01AD
:1035D00080913D0190913E010E945C0C8091BE0162
:1035E00057E0859FC001112404963092D80620929E
:1035F000D7063092D6062092D5069093DA068093AD
:10360000D9065FCD60912F01709130018091310119
:103610009091320143E00E940A0B60932F01709356
:10362000300180933101909332017BCF609133015F
:1036300070913401809135019091360143E00E94F0
:103640000A0B60933301709334018093350190939A
:10365000360167CF6091370170913801809139014F
:1036600090913A0143E00E940A0B609337017093F6
:1036700038018093390190933A0153CF60913B0117
:1036800070913C0180913D0190913E0143E00E9488
:103690000A0B60933B0170933C0180933D01909332
:1036A0003E013FCFEF920F931F93CF93DF93E8013B
:1036B00034E047FD34E1042E000C550B57FF03C0E6
:1036C000519541955109E32E022F242FAE010E94FE
:1036D000C11DCE01DF91CF911F910F91EF90089501
:1036E000B0E0A0E0E6E7FBE10C9473205C017B0115
:1036F0006115710519F0DB018D939C9385010F5FB6
:103700001F4FF501D0818D2F90E00E94C41C6C01E9
:10371000892BB9F5DD32B9F50F5F1F4FD501119631
:10372000DC91C1E05801F1E0AF1AB10843E050E08C
:1037300064E571E0C5010E94D61C892B69F568011A
:1037400082E0C80ED11C45E050E06FE471E0C60194
:103750000E94D61C892B21F4680197E0C90ED11C68
:10376000E114F10419F0D701CD92DC9260E070E031
:1037700080E89FEFC111FFC060E070E080E89FE744
:10378000FAC05801BBCFDB3229F485010E5F1F4F11
:10379000F501D181C0E0C6CF43E050E06CE471E0B8
:1037A000C5010E94D61C892BE9F0F80110E000E069
:1037B00020E030E0A9015F01B0ED8B2E8D0E89E095
:1037C0008815C8F19C2E689491F88C2F8870C2FFE0
:1037D00016C0811102C00F5F1F4F3196D501DC91D9
:1037E000C92DE9CFE114F10429F00E5F1F4FF70155
:1037F0001183008360E070E080EC9FE7BCC0882309
:1038000011F001501109A5E0B0E00E9462209B0177
:10381000AC01220F331F441F551F280D311D411DC0
:10382000511D283999E93907490799E15907A8F243
:10383000C6609C2ED2CFAEEF8A1206C0C3FD3CC03C
:103840009C2E689493F8C9CFDF7DD534A9F580818B
:103850008D3239F4C061DF011296818162E070E03F
:1038600006C0DF018B32C1F3119661E070E0805336
:103870005D01A61AB70A8A30F8F4E0E8CE16ECE04B
:10388000DE065CF4B601660F771F660F771FC60E63
:10389000D71ECC0CDD1CC80ED11C5D01FFEFAF1A8A
:1038A000BF0A8C9180538A30A8F1C4FF03C0D19421
:1038B000C194D1080C0D1D1DC1FF09C0E114F10414
:1038C00031F081E0A81AB108D701AD92BC92CA01CB
:1038D000B9010E94F31CC370C33009F490584B0126
:1038E0005C0120E030E0A9010E94EE1C882309F46D
:1038F00040C0C3E8D1E017FF05C01195019511093B
:10390000CBE6D1E06E01B8E1CB1AD10880E2E82E17
:10391000F12C0FC0D501B1CFFE0125913591459114
:1039200054910E191F09C501B4010E94541D4B0189
:103930005C01D501C4010E151F0574F72497F59499
:10394000E794CC16DD06A9F78A2F880F8B2F881FE6
:103950008F3F49F020E030E0A901C501B4010E9489
:10396000EE1C811106C082E290E09093EB068093FA
:10397000EA06C501B401CDB7DEB7ECE00C948F20A8
:10398000662777270C94701B91110C94F81F8032D6
:1039900019F089508550C8F70895FB01DC0102C079
:1039A00005900D9241505040D8F70895FB01DC017D
:1039B0004150504088F08D9181341CF08B350CF4CF
:1039C000805E659161341CF06B350CF4605E861B83
:1039D000611171F3990B0895881BFCCF0E94301D73
:1039E00008F481E00895E89409C097FB3EF49095AF
:1039F0008095709561957F4F8F4F9F4F9923A9F0C8
:103A0000F92F96E9BB279395F69587957795679556
:103A1000B795F111F8CFFAF4BB0F11F460FF1BC09A
:103A20006F5F7F4F8F4F9F4F16C0882311F096E92D
:103A300011C0772321F09EE8872F762F05C06623DB
:103A400071F096E8862F70E060E02AF09A95660F94
:103A5000771F881FDAF7880F9695879597F908954D
:103A6000990F0008550FAA0BE0E8FEEF161617068F
:103A7000E807F907C0F012161306E407F50798F0F7
:103A8000621B730B840B950B39F40A2661F0232B10
:103A9000242B252B21F408950A2609F4A140A6958C
:103AA0008FEF811D811D08950E94671D0C941220C7
:103AB0000E94042038F00E940B2020F0952311F082
:103AC0000C94FB1F0C94012011240C9446200E949E
:103AD000232070F3959FC1F3950F50E0551F629F0F
:103AE000F001729FBB27F00DB11D639FAA27F00D57
:103AF000B11DAA1F649F6627B00DA11D661F829F7E
:103B00002227B00DA11D621F739FB00DA11D621F62
:103B1000839FA00D611D221F749F3327A00D611D7F
:103B2000231F849F600D211D822F762F6A2F112461
:103B30009F5750409AF0F1F088234AF0EE0FFF1F94
:103B4000BB1F661F771F881F91505040A9F79E3FEB
:103B5000510580F00C94FB1F0C9446205F3FE4F36A
:103B6000983ED4F3869577956795B795F795E79541
:103B70009F5FC1F7FE2B880F911D9695879597F94A
:103B80000895A9E0B0E0E7ECFDE10C9473206A0130
:103B9000F22EB02E102FFBE3AF2EA01608F41BE37D
:103BA0001F5F012F27E0AE014F5F5F4F0E94201F74
:103BB000BC018981982F9970913009F43FC09BE234
:103BC000E1FC04C09E2D9170E0FC3AC05E2D507166
:103BD000E82FE87083FF46C084E0911101C083E0C4
:103BE000EF2DE81B8F1508F0E0E0D6018E2F20E2C4
:103BF000552351F1992329F0D6019C93C6010196D2
:103C00006C0196012D5F3F4FE2FE24C08EE4D60189
:103C10008C9391E411969C93119712968C93D901F1
:103C20008E2F90E281111BC0E20FF32FF11D108245
:103C30008EEF9FEF2996ECE00C948F209DE2C6CF8B
:103C400090E2C4CF2D9381508111FCCFCE0ED11CB8
:103C5000E0E0D0CF8EE6D6018C9391E6DBCF9D934A
:103C60008150E0CF482F447082FF3DC084E0911125
:103C700001C083E08F1510F4EF2DE81BD6018E2FC5
:103C800020E2552309F1992329F0D6019C93C6011E
:103C900001966C0196012D5F3F4FE2FE1BC089E447
:103CA000D6018C938EE411968C93119786E412962C
:103CB0008C93D9018E2F90E2882309F4B5CF9D9380
:103CC0008150FACF2D9381508111FCCFCE0ED11CA3
:103CD000E0E0D9CF89E6D6018C938EE611968C93DD
:103CE000119786E6E4CF9B0177FF02C030E020E029
:103CF000A1E0B0E0911102C0B0E0A0E0F90131967E
:103D0000AE0FBF1F8B2C912CBB2009F461C0540156
:103D1000EFEFAE1ABE0AAA0DBB1DFA161B0619F06C
:103D200014F04F2D4A1B511188C0E3FC59C0760195
:103D3000A42FB0E2A1114FC0C40ED11C992309F4E5
:103D40005BC040E0D6011196F60190836D015523CA
:103D500009F448C0012F060F9A81582F507184FF33
:103D600003C0913309F4015010160CF047C009301C
:103D700008F008E0EEE2FE2E5B01A01AB108850112
:103D80009194819491082F3F320729F4D601FC9237
:103D9000F60131966F016217730794F1021713074A
:103DA0007CF5DB01A21BB30BAA24A394B12CAC0EAF
:103DB000BD1EAA0DBB1D11968C9121503109D60153
:103DC000119628153905F4F0F60180836D01DBCFDB
:103DD000B12CA12CA0CFF701B1937F01A150AACFA4
:103DE0009111B0CFD601942F50E302C05D93915052
:103DF0009111FCCFC40ED11C40E0ACCF01E0BACF92
:103E000080E3DBCF6217730731F4963388F4953380
:103E100011F4552369F0F6018083FD01842F90E2AF
:103E2000811108C0A40FB11D1C9290E080E002CF68
:103E300081E3F1CF91938150F3CF911183CF8ACF5A
:103E4000283008F027E03327DA01990F311D87FD6C
:103E5000916000966105710539F432602E5F3D93E3
:103E600030E32A95E1F708959F3F30F080387105DF
:103E7000610509F03C5F3C5F3D93913008F080683C
:103E8000911DDF93CF931F930F93FF92EF92192F02
:103E9000987F9695E92F96959695E90FFF27EF5114
:103EA000FE4F99273327EE24FF24A701E701059051
:103EB0000894079428F4360FE71EF81E491F511D79
:103EC000660F771F881F991F0694A1F70590079426
:103ED00028F4E70EF81E491F561FC11D770F881FD3
:103EE000991F661F0694A1F70590079428F4F80E11
:103EF000491F561FC71FD11D880F991F661F771FA7
:103F00000694A1F70590079420F4490F561FC71F88
:103F1000D81F990F661F771F881F0694A9F78491F1
:103F20001095177041F0D695C79557954795F7941A
:103F3000E7941A95C1F7E7E8F1E0689415901591B8
:103F400035916591959105907FE27395E118F10A9D
:103F5000430B560BC90BD009C0F7E10CF11E431FF0
:103F6000561FC91FD01D7EF4703311F48A95E6CF19
:103F7000E894015030F0080F0AF40027021708F403
:103F8000202F2395022F7A3328F079E37D932A9509
:103F9000E9F710C07D932A9589F606949795679561
:103FA000379517951794E118F10A430B560BC90B77
:103FB000D00998F023957E9173957A3308F070E3D9
:103FC0007C932013B8F77E9170617D9330F08395D8
:103FD00071E37D9370E32A95E1F71124EF90FF9050
:103FE0000F911F91CF91DF91992787FD90950895AB
:103FF00099278827089597F99F6780E870E060E027
:1040000008959FEF80EC089500240A941616170671
:1040100018060906089500240A94121613061406B9
:1040200005060895092E0394000C11F4882352F01C
:10403000BB0F40F4BF2B11F460FF04C06F5F7F4FD4
:104040008F4F9F4F089557FD9058440F551F59F0BB
:104050005F3F71F04795880F97FB991F61F09F3F75
:1040600079F087950895121613061406551FF2CF9E
:104070004695F1DF08C0161617061806991FF1CFEE
:1040800086957105610508940895E894BB27662715
:104090007727CB0197F90895F999FECF92BD81BD9D
:1040A000F89A992780B50895262FF999FECF1FBA5F
:1040B00092BD81BD20BD0FB6F894FA9AF99A0FBE51
:1040C000019608950E94C620A59F900DB49F900D63
:1040D000A49F800D911D112408952F923F924F921D
:1040E0005F926F927F928F929F92AF92BF92CF9288
:1040F000DF92EF92FF920F931F93CF93DF93CDB791
:10410000DEB7CA1BDB0B0FB6F894DEBF0FBECDBF08
:1041100009942A88398848885F846E847D848C84D9
:104120009B84AA84B984C884DF80EE80FD800C81E2
:104130001B81AA81B981CE0FD11D0FB6F894DEBFC5
:104140000FBECDBFED010895A1E21A2EAA1BBB1B25
:10415000FD010DC0AA1FBB1FEE1FFF1FA217B30753
:10416000E407F50720F0A21BB30BE40BF50B661F69
:10417000771F881F991F1A9469F76095709580952D
:1041800090959B01AC01BD01CF010895A29FB001A4
:10419000B39FC001A39F700D811D1124911DB29F7B
:1041A000700D811D1124911D08955058BB27AA2719
:1041B0000E94ED200C9412200E94042038F00E94EE
:1041C0000B2020F039F49F3F19F426F40C940120C1
:1041D0000EF4E095E7FB0C94FB1FE92F0E942320CF
:1041E00058F3BA17620773078407950720F079F42C
:1041F000A6F50C9445200EF4E0950B2EBA2FA02DB9
:104200000B01B90190010C01CA01A0011124FF2783
:10421000591B99F0593F50F4503E68F11A16F0407E
:10422000A22F232F342F4427585FF3CF469537957D
:104230002795A795F0405395C9F77EF41F16BA0B42
:10424000620B730B840BBAF09150A1F0FF0FBB1FF0
:10425000661F771F881FC2F70EC0BA0F621F731F39
:10426000841F48F4879577956795B795F7959E3F96
:1042700008F0B0CF9395880F08F09927EE0F979527
:10428000879508950E945322E3950C947C220E9406
:104290005B210C9412200E940B2058F00E940420F5
:1042A00040F029F45F3F29F00C94FB1F51110C944E
:1042B00046200C9401200E94232068F39923B1F337
:1042C000552391F3951B550BBB27AA27621773073C
:1042D000840738F09F5F5F4F220F331F441FAA1FD0
:1042E000A9F335D00E2E3AF0E0E832D0915050408C
:1042F000E695001CCAF72BD0FE2F29D0660F771F3A
:10430000881FBB1F261737074807AB07B0E809F01F
:10431000BB0B802DBF01FF2793585F4F3AF09E3FA4
:10432000510578F00C94FB1F0C9446205F3FE4F39A
:10433000983ED4F3869577956795B795F7959F5FE7
:10434000C9F7880F911D9695879597F90895E1E033
:10435000660F771F881FBB1F621773078407BA0792
:1043600020F0621B730B840BBA0BEE1F88F7E095ED
:1043700008950E94C0216894B1110C9446200895BC
:104380000E942B2088F09F5798F0B92F9927B7519A
:10439000B0F0E1F0660F771F881F991F1AF0BA95E9
:1043A000C9F714C0B13091F00E944520B1E00895E2
:1043B0000C944520672F782F8827B85F39F0B93FD4
:1043C000CCF3869577956795B395D9F73EF490959C
:1043D0008095709561957F4F8F4F9F4F08950E94F4
:1043E000042020F019F00E940B2050F40C940120BE
:1043F0000C944620E92F0E94232088F35523B1F323
:10440000E7FB6217730784079507A8F189F3E92F83
:10441000FF2788232AF03197660F771F881FDAF766
:10442000952F5527442332F091505040220F331FCF
:10443000441FD2F7BB27E91BF50B621B730B840BE0
:10444000B109B1F222F4620F731F841FB11D3197BD
:104450002AF0660F771F881FBB1FEFCF9150504087
:1044600062F041F0882332F0660F771F881F915069
:104470005040C1F793950C944322869577956795A4
:104480009F5FD9F7F7CF9F3F31F0915020F4879588
:1044900077956795B795880F911D9695879597F9AC
:1044A00008950C9401200E942B20D8F3E894E0E0BA
:1044B000BB279F57F0F02AED3FE049EC06C0EE0F16
:1044C000BB0F661F771F881F28F0B23A6207730779
:1044D000840728F0B25A620B730B840BE3959A950C
:1044E00072F7803830F49A95BB0F661F771F881FCC
:1044F000D2F790480C944522EF93E0FF07C0A2EA60
:104500002AED3FE049EC5FEB0E94ED200E94122073
:104510000F90039401FC9058ECEAF0E00C945323C4
:104520000E94301D08F48FEF0895FA01EE0FFF1F6F
:10453000309621053105A1F16115710561F48038CE
:10454000BFE39B0749F168949038810561F080389A
:10455000BFEF9B0741F099234AF5FF3FE105310585
:10456000210519F1E8940894E795D901AA2329F4C3
:10457000AB2FBE2FF85FD0F310C0FF5F70F4A6958D
:10458000E0F7F73950F019F0FF3A38F49F779F932E
:104590000DD00F9007FC9058089546F00C94012020
:1045A00060E070E080E89FE308954FE79F775F93B6
:1045B0004F933F932F930E94B1232F913F914F919F
:1045C0005F910E94541D0C94FA229F930E945322E3
:1045D0000F9007FCEE5F0C947C220E94301D880B2C
:1045E000990B089529F416F00C94FB1F0C944520A8
:1045F0000C9401200E942B20A8F39638A0F707F80E
:104600000F92E8942BE33AEA48EB5FE70E946A1DB9
:104610000F920F920F924DB75EB70F920E94F9233F
:10462000EAECF0E00E942C234F915F91EF91FF9113
:10463000E595EE1FFF1F49F0FE57E0684427EE0F97
:10464000441FFA95E1F74195550B0E9473230F9093
:1046500007FE0C9467230895DF93CF931F930F9366
:10466000FF92EF92DF927B018C01689406C0DA2EF4
:10467000EF010E94671DFE01E894A59125913591F7
:1046800045915591A6F3EF010E94ED20FE0197019F
:10469000A801DA9469F7DF90EF90FF900F911F91D6
:1046A000CF91DF9108959F938F937F936F93FF93A3
:1046B000EF939B01AC010E94541DEF91FF910E946A
:1046C0002C232F913F914F915F910C94541D9B018E
:1046D000AC0160E070E080E89FE30C9447210C940B
:1046E000FB1F0C9443220E942B20D8F39923C9F37B
:1046F000940F511DA3F39150504094F059F088232A
:1047000032F0660F771F881F91505040C1F79E3FCF
:1047100051052CF7880F911D9695879597F9089567
:104720005F3FACF0983E9CF0BB27869577956795E8
:10473000B79508F4B1609395C1F7BB0F58F711F422
:1047400060FFE8CF6F5F7F4F8F4F9F4FE3CF0C9499
:10475000462016F00C9443220C94012068940C948B
:10476000FB1F0E942B20A8F39923C1F3AEF3DF9324
:10477000CF931F930F93FF92C92FDD2788232AF031
:104780002197660F771F881FDAF720E030E040E8B6
:104790005FEB9FE3883920F0803E38F021968F77D9
:1047A0000E94D620E2EFF0E004C00E94D620EFE1A4
:1047B000F1E00E942C238B01BE01EC01FB2E6F5710
:1047C00071097595771F880B990B0E94F51C28E1DC
:1047D00032E741E35FE30E94671DAF2D9801AE0110
:1047E000FF900F911F91CF91DF910E94ED200C94CB
:1047F0001220FA01DC01AA0FBB1F9B01AC01BF57BD
:1048000028F4222733274427507820C0B75190F44A
:10481000AB2F0024469537952795011CA395D2F31D
:10482000002071F0220F331F441FB395DAF30ED02E
:104830000C94D52061307105A0E88A07B94630F4A0
:104840009B01AC016627772788279078309621F066
:1048500020833183428353830895991B79E004C0F8
:10486000991F961708F0961B881F7A95C9F78095AF
:10487000089597FB072E16F4009407D077FD09D012
:104880000E94532407FC05D03EF4909581959F4FDC
:104890000895709561957F4F0895EE0FFF1F059065
:1048A000F491E02D0994AA1BBB1B51E107C0AA1F7C
:1048B000BB1FA617B70710F0A61BB70B881F991FC1
:1048C0005A95A9F780959095BC01CD0108950F9355
:1048D0001F93CF93DF938230910510F482E090E034
:1048E000E091EE06F091EF0630E020E0B0E0A0E0CD
:1048F000309799F42115310509F44AC0281B390B6A
:1049000024303105D8F58A819B816115710589F1C3
:10491000FB0193838283FE0111C04081518102819A
:10492000138148175907E0F04817590799F4109771
:1049300061F012960C93129713961C933296CF0146
:10494000DF91CF911F910F9108950093EE06109380
:10495000EF06F4CF2115310551F04217530738F017
:10496000A901DB019A01BD01DF01F801C1CFEF010F
:10497000F9CF9093EF068093EE06CDCFFE01E20FC4
:10498000F31F819391932250310939832883D7CF24
:104990002091EC063091ED06232B41F42091430148
:1049A000309144013093ED062093EC0620914101B3
:1049B000309142012115310541F42DB73EB74091A8
:1049C000450150914601241B350BE091EC06F09116
:1049D000ED06E217F307A0F42E1B3F0B281739074B
:1049E00078F0AC014E5F5F4F2417350748F04E0F4B
:1049F0005F1F5093ED064093EC06819391939FCFF8
:104A0000F0E0E0E09CCFCF93DF930097E9F0FC016A
:104A1000329713821282A091EE06B091EF06ED015B
:104A200030E020E01097A1F420813181820F931FA4
:104A30002091EC063091ED062817390709F061C086
:104A4000F093ED06E093EC06DF91CF910895EA0133
:104A5000CE17DF07E8F54A815B819E0141155105BC
:104A6000B1F7E901FB83EA8349915991C40FD51F3E
:104A7000EC17FD0761F4808191810296840F951FE8
:104A8000E90199838883828193819B838A83F0E003
:104A9000E0E012968D919C9113970097B9F52D91B6
:104AA0003C911197CD010296820F931F2091EC0645
:104AB0003091ED062817390739F6309751F51092E5
:104AC000EF061092EE06B093ED06A093EC06BCCF75
:104AD000D383C28340815181840F951FC817D907A2
:104AE00061F44E5F5F4F88819981480F591F518350
:104AF00040838A819B81938382832115310509F04C
:104B0000B0CFF093EF06E093EE069ECFFD01DC01FF
:104B1000C0CF13821282D7CFB0E0A0E0E2E9F5E285
:104B20000C946F208C01009751F4CB010E946724F4
:104B30008C01C801CDB7DEB7E0E10C948B20FC01FD
:104B4000E60FF71F9C0122503109E217F30708F422
:104B50009DC0D901CD91DC911197C617D70798F068
:104B6000C530D10530F3CE0104978617970708F3B7
:104B7000C61BD70B2297C193D1936D937C93CF0122
:104B80000E940325D6CF5B01AC1ABD0A4C018C0EE6
:104B90009D1EA091EE06B091EF06512C412CF12CF8
:104BA000E12C109731F58091EC069091ED06881577
:104BB000990509F05CC04616570608F058C0809168
:104BC000410190914201009741F48DB79EB7409109
:104BD000450150914601841B950BE817F90708F031
:104BE00055C0F093ED06E093EC06F9017183608304
:104BF000A0CF8D919C91119712966C90129713965D
:104C00007C901397A815B90559F56C0142E0C40EC4
:104C1000D11CCA14DB0420F1AC014A195B09DA018A
:104C20001296159780F06282738251834083D90176
:104C30006D937C93E114F10471F0D7011396FC930A
:104C4000EE93129776CF22968C0F9D1FF9019183D8
:104C50008083F301EFCFF093EF06E093EE0669CF88
:104C60004816590608F42C017D01D3019ACFCB01D7
:104C70000E9467247C01009749F0AE01B8010E94B0
:104C80004926C8010E940325870153CF10E000E0A8
:104C900050CFFB01DC0102C001900D924150504009
:104CA000D8F70895FB01DC0101900D920020E1F797
:064CB0000895F894FFCF07
:104CB600FFFFFFFF00E100000000000001010128E6
:104CC600782D372928782B322900000000000000B3
:104CD60000000000000000000000000000000000CE
:104CE6000020C100002041000020C1000020413FFB
:104CF6003F0000F006800000C18081000000000037
:104D06000000A0067907C106B6060707C506E30632
:104D16000000000038097306EF09EE0900000000E4
:104D2600BC05300031003200330034003500360057
:104D36003700380039002E00280029002B004F4B81
:104D4600002A002F005E00250078003C2D003C3C28
:104D5600006E616E00696E66006F7666000D0A0071
:00000001FF
