:100000000C941B030C9443030C9443030C94430380
:100010000C9443030C9443030C9443030C94430348
:100020000C9443030C9443030C944D0C0C94BC0CA3
:100030000C9443030C9443030C9443030C94430328
:100040000C9443030C9443030C9443030C94430318
:100050000C9443030C9443030C9443030C94EE0E52
:100060000C9443030C9443030C9443030C944303F8
:100070000C9443030C9443030C9443030C944303E8
:100080000C9443030C9443030C9443030C944303D8
:100090000C9443030C9443030C9443030C944303C8
:1000A0000C9443030C9443030C94430307634236BC
:1000B000B79BD8A71A39685618AEBAAB558C1D3CF9
:1000C000B7CC5763BD6DEDFD753EF6177231BF00BD
:1000D0000000803F08000000BE922449123EABAAF7
:1000E000AA2ABECDCCCC4C3E00000080BEABAAAA52
:1000F000AA3E00000000BF000000803F000000009A
:1001000000084178D3BB4387D1133D190E3CC3BDD2
:100110004282AD2B3E68EC8276BED98FE1A93E4C7F
:1001200080EFFFBE01C4FF7F3F00000000004E4192
:100130004E494E495459494E46CDCCCC3D0AD72361
:100140003C17B7D13877CC2B329595E6241FB14FA9
:100150000A000020410000C84200401C4620BCBEEE
:100160004CCA1B0E5AAEC59D7400407A10F35A005B
:10017000A0724E18090010A5D4E80000E8764817D0
:100180000000E40B54020000CA9A3B000000E1F5B5
:1001900005000080969800000040420F000000A07B
:1001A0008601000000102700000000E803000000A6
:1001B000006400000000000A0000000000010000D0
:1001C0000000002C76D888DC674F0823DFC1DFAE43
:1001D00059E1B1B796E5E3E453C63AE6519976960C
:1001E000E8E6C28426EB898C9B62ED407C6FFCEFD5
:1001F000BC9C9F40F2BAA56FA5F490055A2AF75C03
:10020000936B6CF9676DC11BFCE0E40D47FEF520B4
:10021000E6B500D0ED902E0300943577050080847C
:100220001E080000204E0A000000C80C3333333390
:100230000F986E12831141EF8D2114893BE65516FC
:10024000CFFEE6DB18D1844B381BF77C1D901DA434
:10025000BBE424203284725E228100C9F124ECA127
:10026000E53D272F0300033F0A3F163F1A090412FA
:100270001A251A28031E21211E0A040A040E0460EE
:10028000040404200804021E211E223F20392522D6
:1002900021251A07043F1725191E25190139071AA8
:1002A000251A12251E1434040A111414110A04010B
:1002B0002D061E212D2E3E053E3F251A1E21213FD3
:1002C000211E3F253F051E213D3F043F213F2121A7
:1002D0001F3F043B3F203F0204023F3F02043F1EFA
:1002E000211E3F05021E312E3F053A2619013F010E
:1002F0003F203F1F301F1F201C201F3B043B033C9F
:100300000339273F21020408213F02010220202057
:100310000102142C383F2418182418243F183428BC
:100320003E0548543C3F04383D403D3F043A3F3C85
:10033000043C04383C04381824187C241818247C05
:100340003C0428141F241C203C1C201C1C2038208A
:100350003C3408344C503C342C043B213B213B04BE
:10036000020604000104070A0D11121416191C1DBF
:10037000202124272A2D303336393C3F424344473D
:10038000494C4F5356595C5F616366696C6E71737B
:10039000787C7F8285888A8D9093989B9EA0A2A569
:1003A000A7AAADAFB2B5B7BABDBFC2C5C6C8CBCCA0
:1003B000D1D4D7DADDDFE1E3E6E9EEF1F4F6F9FADC
:1003C000FD0000000000240027002A002D0030005E
:1003D00000B00000A170E150964F26900F1D070C51
:1003E000009669004AE44A004844400080681000D2
:1003F0000F99FB8F9DBDBBFB77D4D4DF1F1A1AFE6C
:100400007F5D5DFF805A0000A0A4AA0010BA3400EE
:10041000FF5953F3FF9B9B9EFFB9B996FF9595D16A
:100420009FF4940FFC295F91FF1838F8FF9294FF16
:10043000FF95D5F7BFB5DDD7F18F81F1F788C8F704
:1004400079C6467909FD9B090196F8008281828070
:10045000507162007756560076763700A2B7730166
:1004600007720600782750007334740077517600C5
:100470007F55F700477110003247720073647300B4
:1004800015A2750061679400009F6060F4F2F6F2B7
:10049000080B000202020100090400000102020030
:1004A00000052400100105240101010424020605B1
:1004B0002406000107058103100040090401000221
:1004C0000A00000007050202400000070583024001
:1004D00000000403090412010002EF02014041235D
:1004E000368000010102030141726475696E6F205C
:1004F0004C4C430041726475626F7900F0F89C8E39
:100500008783878E9CF8F00000FEFF03030303033C
:10051000070EFCF80000FEFF0303030303070EFCB5
:10052000F80000FFFF00000000000000FFFF0000D7
:10053000FEFF8383838383C7EE7C380000F8FC0EC4
:1005400007030303070EFCF800003F7FE0C0808034
:10055000C0E07F3FFFFF01010101010101FFFF003A
:1005600000FFFF0C0C0C0C1C3E77E3C100007FFF6A
:10057000C0C0C0C0C0E0703F1F00001F3F70E0C09F
:10058000C0C0E0703F1F00007FFFC1C1C1C1C1E317
:10059000773E1C00001F3F70E0C0C0C0E0703F1FEE
:1005A000000000000001FFFF01000000D5F08D14E5
:1005B000A1C881CFD9F1AF20003E3C2A3738393469
:1005C0003536313233302E2D000000002500280052
:1005D0002B002E003100040404040403040502026D
:1005E00002020403020202020606060606060404CC
:1005F000020202040404080201104080401020405E
:100600008040800802040180402010020110801008
:10061000204040200000000200090F0000030401F8
:10062000000C0000000000000000000000000000BE
:1006300000000000D70F11241FBECFEFDAE0DEBFAD
:10064000CDBF11E0A0E0B1E0EAEFF3E402C0059015
:100650000D92AC3EB107D9F728E0ACEEB1E001C095
:100660001D92AB30B207E1F713E0CBE1D3E004C059
:100670002197FE010E94F61FCA31D107C9F70E94D7
:1006800043100C94FB210C940000909100089823D7
:1006900029F49091FF07982381E009F480E0089500
:1006A000E5EEF3E0A0E0B8E000800EBC8111012C83
:1006B0001197A0FDFDCF0192B9F70DB4089580E028
:1006C000E5EEF3E081118FEF002481938193819314
:1006D00081930394D1F708958FB7F894409155030F
:1006E0005091560360915703709158038FBF8091CA
:1006F0000208942F981B80910308882331F090936F
:1007000004081092030880E00895209101089217D0
:1007100040F49F5F9217A0F491E093BF889513BEB9
:10072000089581E080930308409302088091FD07BB
:100730009091FE0701969093FE078093FD0781E05C
:100740000895FC0180914802882311F13FB7F89485
:1007500082E08093E9002091F200822F90E0181649
:10076000190614F481E090E0882339F0289844E6D3
:10077000409347024091F1004083222339F02091B9
:10078000F200211103C02BE62093E8003FBF08953B
:100790008FEF9FEF08952FB7F89483E08093E900DF
:1007A0009091E800892F807295FF04C09091F2002B
:1007B00080E4891B2FBF089580913F0281110DC0F5
:1007C00082E080933B0284E080933C0210923E02E0
:1007D00010923D0281E080933F028BE392E0089506
:1007E00008954091F3015091F4012091F10130916D
:1007F000F20142175307B4F49091E8009570E1F3C9
:100800009091E80092FD19C08093F1008091F3016E
:100810009091F40101968F739927892B19F48EEF2B
:100820008093E8008091F3019091F40101969093F8
:10083000F4018093F30181E0089580E00895DF9250
:10084000EF92FF920F931F93CF93DF93D82E8A01DD
:10085000EB017B01E40EF51ECE15DF0559F0D7FE46
:1008600012C0FE0184910E94F10321968111F4CF00
:100870000FEF1FEFC801DF91CF911F910F91FF90F4
:10088000EF90DF9008958881EECF0F931F93CF9361
:10089000DF931F92CDB7DEB782E0898342E450E058
:1008A00060E974E080E80E941F040E94DC03DC0120
:1008B00012960D911C910115110589F0D801ED9149
:1008C000FC910280F381E02DBE016F5F7F4FC80174
:1008D000099597FD04C0F80100851185ECCF898149
:1008E0000F90DF91CF911F910F910895615030F0DB
:1008F0002091F100FC0120830196F8CF289884E62E
:10090000809347020895AF92BF92CF92DF92EF9209
:10091000FF920F931F93CF93DF936C017B018B01A9
:10092000040F151FEB015E01AE18BF08C017D107F9
:1009300059F06991D601ED91FC910190F081E02D83
:10094000C6010995892B79F7C501DF91CF911F91D8
:100950000F91FF90EF90DF90CF90BF90AF900895F0
:10096000CF93DF931F92CDB7DEB76983DC01ED91A2
:10097000FC910280F381E02D41E050E0BE016F5F09
:100980007F4F09950F90DF91CF91089583E0809379
:10099000E9008091F200882319F08AE38093E8004F
:1009A00008950E94CB0390E00895CF93DF931F92A8
:1009B000CDB7DEB7FC018485958597FD08C02FEF84
:1009C0003FEF358724870F90DF91CF910895CE01B7
:1009D00001960E94A103019719F4898190E0F3CF59
:1009E0008FEF9FEFF0CF0F931F93CF93DF931F9263
:1009F000CDB7DEB78C01FC018485958597FF0BC0D0
:100A0000CE0101960E94A103019771F4898190E0C3
:100A1000F80195878487F801848595850F90DF918B
:100A2000CF911F910F9108958FEF9FEFF1CFFC01B0
:100A30008485958597FD0BC09FB7F89482E08093DD
:100A4000E9008091F2009FBF90E0019608959FB762
:100A5000F89482E08093E9008091F2009FBF90E0DB
:100A600008953FB7F8948091ED019091EE01A09127
:100A7000EF01B091F00126B5A89B05C02F3F19F0FA
:100A80000196A11DB11D3FBFBA2FA92F982F88270E
:100A9000BC01CD01620F711D811D911D42E0660FE9
:100AA000771F881F991F4A95D1F708958F929F92BB
:100AB000AF92BF92CF92DF92EF92FF926B017C01D7
:100AC0000E9431054B015C01C114D104E104F10421
:100AD000B9F00E943105681979098A099B09683EB5
:100AE00073408105910580F321E0C21AD108E10825
:100AF000F10888EE880E83E0981EA11CB11CE4CF9B
:100B0000FF90EF90DF90CF90BF90AF909F908F902D
:100B100008958F929F92AF92BF92CF92DF92EF9201
:100B2000FF920F931F93CF93DF936C017B018A0198
:100B300080910B01882309F45CC0809148028823CE
:100B400009F457C08091F70180FF05C08091E00053
:100B500082608093E000E801B12C8AEFA82E93E038
:100B6000892E2AE3922E209711F4BB20D9F10E94FE
:100B7000CB0381110AC0AA94AA20D9F161E070E0E8
:100B800080E090E00E945605EECF8C171D0611F014
:100B90000CF08C2F9FB7F8948092E9002091E80028
:100BA00025FD02C09FBFDFCF282F30E0C21BD30B33
:100BB000F701815020F041914093F100FACFE20E0D
:100BC000F31EBB2021F09092E800B12CEBCF809176
:100BD000E80085FDE7CF9092E800BB24B39420970E
:100BE00009F3F3CF5D9884E68093F60110161106A1
:100BF0003CF081E090E0F6019383828310E000E016
:100C0000C801DF91CF911F910F91FF90EF90DF907E
:100C1000CF90BF90AF909F908F9008956F927F92EA
:100C20008F929F92AF92BF92CF92DF92EF92FF92FC
:100C30000F931F93CF93DF934C017B01C22F102F93
:100C400098E0A92EB12C642E669466946694712C5B
:100C5000CA0187709927892B79F5D40117962D91B0
:100C60003C91C7019927B9010E94E21F269DF0011E
:100C7000279DF00D369DF00D11248E0F9F1FD4017E
:100C80001596ED91FC91E80FF91F2081111112C00A
:100C9000C095C223C083DF91CF911F910F91FF9028
:100CA000EF90DF90CF90BF90AF909F908F907F900C
:100CB0006F900895C22BEECFD0E04770C42ED12C98
:100CC00083E0660C771C8A95E1F79E0101C0220F34
:100CD0004A95EAF7012FA301B701C4010E940E064D
:100CE000A301485F5F4FC5018C199D0902C0D595CE
:100CF000C7958A95E2F7A7CF5F926F927F928F9206
:100D00009F92AF92BF92CF92DF92EF92FF920F939A
:100D10001F93CF93DF93EC016A30F1F48D859E85AC
:100D20009C878B878C892F853889820F932F911D03
:100D3000988B8F8781E090E0DF91CF911F910F9189
:100D4000FF90EF90DF90CF90BF90AF909F908F90EB
:100D50007F906F905F900895AB84BC84693031F4CC
:100D600029E0A20EB11CBC86AB86E4CF3DEFA316F2
:100D70003FEFB3060CF45DC08F819885A816B906C5
:100D80000CF057C0CF84D8888DEFC8168FEFD806E7
:100D90000CF44FC089859A85C816D9060CF049C055
:100DA000603208F46FE780EE860F9FE9960F9A3164
:100DB00018F49FEFC91AD90A8C3011F08B3119F44D
:100DC0002FEFC21AD20A869534E0839FC001112406
:100DD0009C0120533C4F7901912C812C162F1170CE
:100DE000F701E80DF91D549011112DC0352D3F70FC
:100DF000532E3501680C791C8C81882361F001E049
:100E000089899A89892B09F000E02FE0A601B301B6
:100E1000CE010E940E060989252DA601B301CE013F
:100E20000E940E068FEF881A980A94E089169104A2
:100E3000B9F68B8990E004962B853C85820F931F31
:100E40009C878B8777CF52948FE05822D2CF2D9AF0
:100E50000895BC0190E080E00C9456058FB1809518
:100E6000807F669B88601C9B84600895480F592F83
:100E7000511D14161506D4F580389105BCF597FF61
:100E800002C090E080E04138510514F040E850E0A5
:100E9000481BFB0177FD379633E0F595E7953A95CA
:100EA000E1F7F695FE2FEE27F795E795E80FF91F86
:100EB000EB51FC4F6770772781E090E001C0880F0D
:100EC0006A95EAF7382F213041F4415078F081914A
:100ED000DF011197832B8C93F8CF8095415030F030
:100EE0009191DF01119798239C93F8CF0895803852
:100EF0009105B8F460347105A0F420E191E061FD42
:100F000094E060FD990F62FD9295687F269FD00165
:100F10001124A80FAB51BC4F8C9140FF03C0892B0B
:100F20008C93089590958923FBCFDF92EF92FF92E7
:100F30000F931F93CF93DF937C01D22E8B01040F6D
:100F4000111DEB0177FF02C0D0E0C0E0C801013401
:100F5000110514F080E490E0C817D9073CF44D2D3A
:100F6000BE01C7010E9477072196F0CFDF91CF9194
:100F70001F910F91FF90EF90DF900895CF92DF9235
:100F8000EF92FF920F93CF93DF936C017B01C42FFD
:100F9000D22F6034710520F4202FC6010E9436073D
:100FA000B7016D0F711D61507109603471052CF42A
:100FB000202F4C2FC6010E943607202F4D2FB7013E
:100FC000C6010E949507C6018C0F911D202F4D2F41
:100FD000B7010197DF91CF910F91FF90EF90DF90D4
:100FE000CF900C949507E2E0F6E02491E3EEF5E073
:100FF0008491882399F090E0880F991FFC01EE53AB
:10100000FC4FA591B491FC01E853FA4F859194915E
:101010008FB7F894EC91E22BEC938FBF81E00E94A4
:10102000380F6AEF70E080E090E00E94560580E0A3
:101030000E94380F6AEF70E080E090E00E94560551
:10104000EDCFCF92DF92EF92FF926B017C0120E017
:1010500030E04EEF52E40E94611E6FE71816F4F084
:1010600020E030E040E053ECC701B6010E943A1B9B
:1010700060E887FD13C020E030E0A901C701B60198
:101080000E94611E20E030E040E05FE387FD0CC07D
:10109000C701B6010E94EB1C0E94C91D862FFF905C
:1010A000EF90DF90CF900895C701B6010E94EA1C2F
:1010B000F3CF8F929F92AF92BF92CF92DF92EF9237
:1010C000FF92CF93DF93C9E4D2E0C884D984EA8445
:1010D000FB84A70196010E94EA1C4B015C01A70159
:1010E00096016C857D858E859F850E94EA1C9B01FB
:1010F000AC01C501B4010E94571D9B01AC0160E029
:1011000070E080E89FE30E94EA1C20E030E04CE7BA
:1011100052E40E94A01BDF91CF91FF90EF90DF90EF
:10112000CF90BF90AF909F908F900C9421086F92BA
:101130007F928F929F92AF92BF92CF92DF92EF9267
:10114000FF920F931F93CF93DF934C017B01C22F2C
:10115000102F98E0A92EB12C642E669466946694A4
:10116000712CCA0187709927892B79F5D4011796BC
:101170002D913C91C7019927B9010E94E21F269D3C
:10118000F001279DF00D369DF00D11248E0F9F1F4D
:10119000D4011596ED91FC91E80FF91F20811111F2
:1011A00012C0C095C223C083DF91CF911F910F91D0
:1011B000FF90EF90DF90CF90BF90AF909F908F9077
:1011C0007F906F900895C22BEECFD0E04770C42E71
:1011D000D12C83E0660C771C8A95E1F79E0101C053
:1011E000220F4A95EAF7012FA301B701C4010E941B
:1011F0009708A301485F5F4FC5018C199D0902C084
:10120000D595C7958A95E2F7A7CF4F925F926F92D7
:101210007F928F929F92AF92BF92CF92DF92EF9286
:10122000FF920F931F93CF93DF93EC016D3071F01A
:101230006A30F9F48D859E859C878B878C892F85F4
:101240003889820F932F911D988B8F8781E090E0D2
:10125000DF91CF911F910F91FF90EF90DF90CF9092
:10126000BF90AF909F908F907F906F905F904F90C6
:101270000895EB84FC84693031F448E0E40EF11CFD
:10128000FC86EB86E3CF603231F48B8990E00296E6
:10129000E80EF91EF5CF162F8F819885E816F9060E
:1012A0000CF04DC08F8498885BEF85165FEF950634
:1012B0000CF445C089859A85881699060CF03FC0C4
:1012C00080EE860F8F3508F038C0862F90E09C01A5
:1012D0002E5B3C4FF901A490B12CA5014D595D4FF7
:1012E0005A01FC01ED5BFC4F5490F9012491521A14
:1012F000D12CC12CC51418F5F501EC0DFD1D449041
:1013000037016C0C7D1C8C81882361F001E0898998
:101310009A89892B09F000E02FEFA401B301CE01D7
:101320000E9497080989242DA401B301CE010E94CF
:101330009708FFEFCF1ADF0ADDCF8FE3C7CF612F0A
:1013400070E0FB01ED5BFC4F84916E5B7C4FFB0119
:101350006491E82FE61B8B89E80FFF27FF1F8B8521
:101360009C85E80FF91FFC87EB8770CF682F85EE0F
:1013700097E00C940509089590E080E00895FB0142
:1013800001900020E9F73197AF01461B570BDC01B4
:10139000ED91FC910280F381E02D09948F929F9250
:1013A000AF92BF920F931F93CF93DF93CDB7DEB76A
:1013B000A1970FB6F894DEBF0FBECDBF19A2423081
:1013C00008F44AE08E010F5D1F4F842E912CB12C42
:1013D000A12CA50194010E94B91CE62FB901CA01F4
:1013E000EA3004F5E05DD801EE938D01232B242B28
:1013F000252B79F790E080E0109729F0BD0185EE6C
:1014000097E00E94BF09A1960FB6F894DEBF0FBE09
:10141000CDBFDF91CF911F910F91BF90AF909F9063
:101420008F900895E95CDFCFDF92EF92FF920F93E8
:101430001F93CF93DF93242F1092CF033091CC03CF
:10144000E32FF0E0E355FC4F332319F031501292B3
:10145000FBCF1092CC030CEA13E040E00E9470171F
:101460008091CC038F5F21E0280FE82FF0E0E75553
:10147000FC4F9381911192C08093CC0311E0CAE09C
:10148000DBEA8091CF0381115CC10E946C03882349
:10149000C1F38091FF07809300080E942E0780937C
:1014A000FF070E945F0380E20E944503882339F012
:1014B0008091AB03882319F081508093AB0380E4C3
:1014C0000E9445030091CD03882371F02091AB0366
:1014D0008091CE03089FC001112401972817190697
:1014E0001CF42F5F2093AB0380E80E944503882300
:1014F00039F08091AB03801718F0801B8093AB0309
:1015000080E10E944503882389F08091AB032091FC
:10151000CE032150330B029FA001039F500D1124D5
:10152000841715061CF4080F0093AB0388E00E9493
:101530004503882371F0E091AB03A091CC03E13027
:10154000F1F1A8F1E23009F040C0A11129C01092D8
:10155000CC0384E00E944503882359F0E091CC033A
:10156000EE2339F0E150E093CC03F0E0E755FC4F77
:10157000138200E06091AA0370E08091A90390E0DB
:101580002091CD03201778F121E043E30C9F800DDB
:10159000911D11240E9495070F5FECCF822F63CF1E
:1015A000A150EA2FF0E0E755FC4F1382CECF109305
:1015B000CF03B0E0A755BC4F13961C92CACFAA2305
:1015C00041F2A150A093CC03F4CFF0E0E754FA4FDE
:1015D000E49181E08A0F8093CC03B0E0A755BC4F23
:1015E0001396EC93B6CF00E06091AA0370E080916F
:1015F000CE03801780F00C9F600D711D11246034A4
:1016000071053CF48091A90321E04FE190E00E9434
:1016100036070F5FE9CF00E08091CE03081798F5F9
:101620000C9F70011124D12C4091CD038091AA030D
:10163000282F30E08091A90390E0D41610F5DC9EAD
:10164000800D911D112402969093F3078093F20769
:101650009093F1078093F007C701820F931F0296C2
:101660009093F5078093F407ED2DF0E0049FE00DD3
:10167000F11D1124E754FA4F84910E94B609D394C6
:10168000D3CF0F5FC9CF9091AB039D9F812D1124C4
:1016900086956091AA0370E08C9F600D711D1124E6
:1016A000282F220F820F981BE091A903F0E000E0A1
:1016B0002BE04BE0DF019C9FA00DB11D1124CD015B
:1016C0000E94BE079091AB039D9F812D11248695AA
:1016D0006091AA0370E08C9F600D711D1124615010
:1016E0007109282F220F820F292F281B8091A9030F
:1016F00090E02C9F800D911D112401E02DE04DE024
:1017000001970E94BE072091AA032850330B8091B5
:10171000A90390E002969093F3078093F2079093C9
:10172000F1078093F0073093F5072093F4076CEAF4
:1017300073E085EE97E00E94BF0980E00E945003AD
:10174000A0CE8CEA93E0DF91CF911F910F91FF9093
:10175000EF90DF900C948E17EC01009739F00E9407
:10176000BF0969E471E0CE010E94BF090E94F3073E
:101770000F931F93CF93DF93EC018B016CE471E027
:10178000101611067CF4B801660F771F660F771FDD
:101790008A819B810E9435219B838A83892B31F426
:1017A00061E871E0888199810E94AC0B1D830C83F4
:1017B000DF91CF911F910F910895CF92DF92EF9219
:1017C000FF92FC01268137812115310531F46DEA44
:1017D00071E0808191810E94AC0BA281B381215084
:1017E000310937832683C901880F991F880F991FF4
:1017F000A80FB91FCD90DD90ED90FC90211531051B
:10180000A9F064817581CB0177FD03969595879545
:1018100095958795821793074CF077FF02C06F5F0D
:101820007F4F75956795CF010E94B80BC701B60130
:10183000FF90EF90DF90CF900895CF92DF92EF92DC
:10184000FF92CF93DF93EC016A017B016E817F8170
:101850008C819D816817790729F4660F771FCE0167
:101860000E94B80B2A813B818E819F81AC014F5F22
:101870005F4F5F834E83880F991F880F991F820FD8
:10188000931FFC01C082D182E282F382DF91CF916B
:10189000FF90EF90DF90CF9008951F920F920FB6B8
:1018A0000F9211248F939F938091E1009091E1001A
:1018B000937F9093E10083FF0FC01092E90091E0C5
:1018C0009093EB001092EC0092E39093ED00109255
:1018D000480298E09093F00082FF22C093E090933A
:1018E000E9009091F200992319F09AE39093E800AF
:1018F0009091F601992341F09091F60191509093C7
:10190000F601911101C05D9A90914702992341F02F
:1019100090914702915090934702911101C0289AEB
:1019200084FF18C08091E2008E7E81608093E20087
:101930008091E1008F7E8093E1008091F7018E7E9F
:1019400080618093F7019F918F910F900FBE0F9050
:101950001F90189580FFF7CF8091E2008E7E806106
:101960008093E2008091E1008E7E8093E10080917F
:10197000F7018E7E8160E5CF1F920F920FB60F9216
:101980001124CF92DF92EF92FF920F931F932F9328
:101990003F934F935F936F937F938F939F93AF93F7
:1019A000BF93EF93FF93CF93DF93CDB7DEB76C97E1
:1019B000DEBFCDBF1092E9008091E80083FF25C013
:1019C00068E0CE0145960E94760482EF8093E8009D
:1019D0008D8987FF39C09091E80090FFFCCF982F48
:1019E000907609F034C19E894F89588D2F89F88CE3
:1019F000911131C0803861F58091F8018093F10038
:101A00001092F1008EEF8093E8006C960FB6F89478
:101A1000DEBF0FBECDBFDF91CF91FF91EF91BF91A0
:101A2000AF919F918F917F916F915F914F913F9176
:101A30002F911F910F91FF90EF90DF90CF900F901B
:101A40000FBE0F901F9018959EEF9093E800C7CFA0
:101A50001092F100D5CF913059F48111D3CF41309C
:101A6000510581F68091F8018D7F8093F801CACFEE
:101A7000933049F48111C6CF4130510519F6809158
:101A8000F8018260F2CF953041F48091E80080FF48
:101A9000FCCF20682093E300B5CF963009F0A9C0B1
:101AA0000B8D1C8D22E01092E9001092F40110922F
:101AB000F301F2122EC01092F2011092F1010E9475
:101AC00045041F8299E09983FA8291E09E8390EA0F
:101AD00098879AEF99872091F3013091F401275F5D
:101AE0003F4F3C832B838D831092E9001092F401C9
:101AF0001092F3011093F2010093F10149E050E0DC
:101B0000BE016F5F7F4F80E00E941F040E9445046A
:101B100079CF1093F2010093F1010E94DC03DC0104
:101B200012960D911C910115110509F451C1D801AE
:101B3000ED91FC910480F581E02DBE016B5E7F4F3D
:101B4000C8010995009709F03EC1F801008511858B
:101B5000EACFF3E0FF120EC08F89882309F440C05A
:101B6000823061F440E867E084EF94E00E94A40FC3
:101B7000811148CF81E28093EB0047CF813029F477
:101B800040E86BE088EE94E0F1CF833099F70E9453
:101B9000DC03DC011296ED90FC908E010F5F1F4F6D
:101BA0006801E114F10479F0D701ED91FC91068010
:101BB000F781E02DB801C7010995080F111DF70144
:101BC000E084F184EECFD8011C92F6010190002050
:101BD000E9F73197BF016C197D0940E0C601C6CF16
:101BE00062ED74E0FB01449150E080E80E941F0424
:101BF00009CF973009F4BECF983021F481E080936B
:101C0000F10000CF993009F0FDCE837009F0B2CF1A
:101C1000E3E1F1E081E031E096E32191222371F0EC
:101C20008093E9003093EB00DF0111972C91209312
:101C3000EC009093ED008F5F873079F78EE780930B
:101C4000EA001092EA008F8980934802DBCE8B8DE8
:101C50009C8D1092E9001092F4011092F301909380
:101C6000F2018093F101898D811192C08E899D8945
:101C7000913A49F4813209F07DCF47E050E064E0C9
:101C800071E080E0B3CF913209F074CF833269F410
:101C90008F89988DB0E0A0E08093000190930101BE
:101CA000A0930201B0930301ADCE803269F480911C
:101CB000E80082FFFCCF67E084E091E00E947604B8
:101CC0008BEF8093E8009ECE823209F09BCE8F8905
:101CD00080930B01EEEFFFE7859194918B3F9C4D34
:101CE00051F1E0E0F8E08091040190910501A091AC
:101CF0000601B0910701803B9440A105B105F1F4C4
:101D000080910B0180FD1AC0EE3F8AE0F80789F54B
:101D100087E797E791838083809160008093F50146
:101D200088E19BE00FB6F894A895809360000FBE01
:101D30009093600067CEEEEFFAE0D5CF808191817D
:101D40008737974709F05ECEA8958091600088613B
:101D5000809360008091F50180936000EE3F2AE05F
:101D6000F20789F08091FE0A9091FF0A91838083A7
:101D700049CE808191818737980751F29093FF0A6D
:101D80008093FE0AC5CF1092FF0A1092FE0A3ACE47
:101D90000E94DC03DC0112960D911C9101151105C6
:101DA00009F4E8CED801ED91FC910190F081E02D8D
:101DB000BE016B5E7F4FC8010995811123CEF801EA
:101DC00000851185EBCF181619060CF41BCED2CE68
:101DD000F1E0FF12BECE66ED74E004CF1F920F92C9
:101DE0000FB60F9211242F933F938F939F93AF932E
:101DF000BF938091550390915603A0915703B091E2
:101E000058033091EC0123E0230F2D3758F501964C
:101E1000A11DB11D2093EC018093550390935603AF
:101E2000A0935703B09358038091ED019091EE0178
:101E3000A091EF01B091F0010196A11DB11D809319
:101E4000ED019093EE01A093EF01B093F001BF91EB
:101E5000AF919F918F913F912F910F900FBE0F9057
:101E60001F90189526E8230F0296A11DB11DD2CF11
:101E7000E1E2F6E02491E2E0F6E03491E3EEF5E011
:101E80009491992309F430C02223E9F021502F3096
:101E9000D0F4E22FF0E0E15BF04F0C94F61F7D0FE1
:101EA000810F5E0F750F790F630F630F630F840F40
:101EB0008A0F8E0F920F980F630F9C0F2091800056
:101EC0002F7720938000E92FF0E0EE0FFF1FE853FB
:101ED000FA4FA591B4919FB7F894EC91811132C05B
:101EE00030953E233C939FBF0895209180002F7D25
:101EF000E8CF20918000277FE4CF24B52F7724BD41
:101F0000E2CF24B52F7DFBCF209190002F77209337
:101F10009000D9CF209190002F7DF9CF2091900093
:101F2000277FF5CF2091C0002F772093C000CBCF23
:101F30002091C0002F7DF9CF2091C200277F2093F0
:101F4000C200C1CF3E2BCECFEF92FF920F931F93D3
:101F5000CF93DF93F82E192FE62E042F81E0860F02
:101F6000880F0E94F10383E00E94F103CF2DD12F4F
:101F7000EC0EFD2EF11CCE15DF05B9F007FF13C0E6
:101F8000FE0184910E94F103182F80E00E94F1036A
:101F9000812321968111EFCFDF91CF911F910F9176
:101FA000FF90EF9008958881EDCF81E0F5CFCF933A
:101FB000DF93E9E5F3E01382128288EE93E0A0E07C
:101FC000B0E084839583A683B7838DE191E091830C
:101FD00080838FEF9FEF95878487EAEFF7E0158284
:101FE000168280E1878314821382118687E491E050
:101FF00091838083E5EEF7E0138212828BE391E018
:1020000091838083A5EEB3E0B683A58360E870E09A
:102010007087678340E450E05287418787E0848B74
:1020200091E0938B16861586108A17861486138680
:1020300021E030E0328B218B1482E0EDF3E013825B
:102040001282CFE2D1E0D183C083B683A5837087AB
:1020500067835287418785E0848B938B168615862C
:10206000108A178614861386328B218B1482E9EA34
:10207000F3E09CE09083918393E094A385A316A260
:10208000DF91CF910895CF93DF93CDB7DEB7C055E1
:10209000D1090FB6F894DEBF0FBECDBF789484B5DA
:1020A000826084BD84B5816084BD85B5826085BD54
:1020B00085B5816085BD80916E00816080936E00E2
:1020C00010928100809181008260809381008091D4
:1020D0008100816080938100809180008160809385
:1020E00080008091910082608093910080919100A6
:1020F0008160809391008091900081608093900036
:102100008091C10084608093C1008091C100826091
:102110008093C1008091C10081608093C100809153
:10212000C30081608093C3008091C000826080936F
:10213000C0008091C20081608093C20080917A00CB
:10214000846080937A0080917A00826080937A0024
:1021500080917A00816080937A0080917A00806813
:1021600080937A00109248021092F8011092F701C1
:102170008091D70081608093D70080EA8093D80057
:1021800089B5806189BD89B5826089BD09B400FEC9
:10219000FDCF61E070E080E090E00E945605809104
:1021A000D8008F7C80618093D8008091E000807F90
:1021B0008093E0008091E1008E7E8093E1008DE0CD
:1021C0008093E200559A209A81EC80937C0085B13F
:1021D000806F85B984B1877E84B984B1876E84B9F4
:1021E0005E9A5F988AB1806D8AB9769A6E9881B34B
:1021F000806F81BB899880B38D7080BB80E58CBD7A
:1022000081E08DBD85E090E00E9429075F9A85E01E
:1022100090E00E9429075E985C98ECEAF5E089EB73
:1022200095E024912EBD00000DB407FEFDCF319640
:102230008E179F07B1F75C9A81E8809364008091C4
:10224000650081608093650080E00E9450030E94D9
:102250002E0787FF15C05C9885EA8EBD00000DB47F
:1022600007FEFDCF5C9A2E982F982D9880916400E0
:1022700080628093640081E083BF889513BEFCCFA9
:102280000E942E0782FF48C02D980E942E07847856
:102290008438E1F40E94270788EC90E00E94290727
:1022A0002F9882E090E00E94611C8F3F29F06FEF31
:1022B00082E090E00E94691C84EF91E00E9429076F
:1022C0002F9A0E942E0784788438D9F30E942E0713
:1022D00084718431E1F40E94270788EC90E00E9429
:1022E00029072E9882E090E00E94611C882329F043
:1022F00060E082E090E00E94691C84EF91E00E941F
:1023000029072E9A0E942E0784718431D9F388EC14
:1023100090E00E942907B4CF0E94270782E090E056
:102320000E94611C882309F440C13E9A3F9A81E0D3
:1023300090E00E94611C8470982E81E090E00E94E1
:10234000611C81FF11C091102E9800EF1FEFA8E0D3
:10235000EA2EF12CB8E58B2E0E942E0786FF28C1AD
:102360002E9A2F9A0E94270782E390E00E94290765
:102370000E942E078111F8CF8FEF9FEF9093660395
:102380008093650340E050E060E271EC40934902C5
:1023900050934A0260934B0270934C0280E090E0AD
:1023A000A0E2B1E480934D0290934E02A0934F02BD
:1023B000B0935002409351025093520260935302E3
:1023C000709354028093550290935602A093570243
:1023D000B093580280E090E0A0E0B0E4809319024E
:1023E00090931A02A0931B02B0931C0280E090E02D
:1023F000A0EAB0E480931D0290931E02A0931F02F6
:10240000B09320029EEF9093F9011092FA0185E8B3
:102410008093FB011092FC0183E88093FD0121E091
:102420002093FE019093FF018093000281E8809346
:1024300001028FEF809302029E012F5D3F4F2B968A
:102440003FAF2EAF2B970E946C03882309F4CBC4B7
:102450008091FF07809300080E942E078093FF075A
:102460000E945F0380E80E944503882339F0809131
:102470003A02882319F0815080933A0280E10E9449
:102480004503882329F080913A028F5F80933A02B6
:1024900080E20E94450381111092390280E40E947B
:1024A0004503882319F081E08093390288E00E9477
:1024B00045038823E9F000913A0210E08091390247
:1024C000882309F408C107501E4FD8016C9170E0B1
:1024D00090E080E00E943F1B40E00E94140A0091BF
:1024E0003A0210E007501E4F0E94D01DF801608391
:1024F00084E00E944503882309F4F4C380E4E9EFF3
:10250000F1E0DE01119601900D928A95E1F759E50F
:10251000C52E52E0D52E10E08090490290904A02DC
:10252000A0904B02B0904C02A501940160914D0225
:1025300070914E0280914F02909150020E94EA1CCD
:102540002B013C01612F012E000C770B880B990B9E
:102550000E94411B20E030E048E752E40E94571DF2
:102560009B01AC01C301B2010E94A01BA501940113
:102570000E94EB1C4B015C0127961FAE1EAE2797F5
:1025800029961FAE1EAE299723961FAE1EAE239727
:1025900088E090E00E94102025969FAF8EAF25978F
:1025A000892B09F0ACC00E94F3073E983F98BFCE3C
:1025B000992029F00430110511F42E9A2F9881E00A
:1025C0000E945003980117FF04C022273327201BC5
:1025D000310B27703327C80117FD0796F3E0959557
:1025E0008795FA95E1F717FF05C00197A701421BF0
:1025F000530B9A01BC017695762F662777956795E0
:102600006B517C4FB0E0A0E02701421A530A8F3F84
:102610005FEF95070CF43FC08A9E50018B9EB00C73
:10262000112450E040E0F501E450FB4F5F013B0115
:10263000F0E86F0E711C8F3F980791F0F501E40FE1
:10264000F51FE4916B01C40ED51EF0E01F01022EB0
:1026500001C0220C0A94EAF7F60134882328248A60
:102660002115310599F0F501E40FF51FE49163019F
:10267000C40ED51EF0E01F01042C02C0359427942F
:102680000A94E2F7F60134882328248A4F5F5F4FCB
:102690004835510581F6019660587F4F1197C1F476
:1026A00080E00E9450038FE090E00E9429070F5FB6
:1026B0001F4F0931110509F04FCE992011F02F9AC3
:1026C0002D9880E991E00E9429070E9427074CCEAF
:1026D000A1E0B0E09CCF000F111F000F111F075E9B
:1026E0001D4FD8016D917D918D919C9143E00E9489
:1026F000140AF8016083718382839383F9CE22E008
:1027000030E027963FAF2EAF2797AE014F5F5F4F68
:102710007A01D701ED917D01E7FD04C1F0E0389623
:10272000EE0FFF1FEE0FFF1F21E030E02C0F3D1FCB
:10273000E20FF31F4081518162817381CE018F5B73
:102740009F4F0E941D0C2B964EAD5FAD2B974E15E3
:102750005F05F9F6CE018F5B9F4F0E94DD0B4B01A9
:102760005C0125968EAD9FAD25970E94AC20D601C9
:102770008D929D92AD92BD926D011F5F1F3309F046
:10278000CBCEC0904902D0904A02E0904B02F0902C
:102790004C02A701960160E070E0CB010E94EA1CA8
:1027A0004B015C01A701960160914D0270914E02B0
:1027B00080914F02909150020E94EA1C9B01AC0153
:1027C000C501B4010E94571D20E030E04CE752E4FF
:1027D0000E94A01B0E94210821E04FE370E060E00E
:1027E000082E000C990B0E94950760E070E0CB0169
:1027F0000E945908682F880F770B6034710530F4F8
:1028000021E04FE390E080E00E943607C09049024B
:10281000D0904A02E0904B02F0904C0220E030E071
:10282000A901C701B6010E94611E20E030E040E02E
:102830005FE387FD04C1C701B6010E94EB1C0E9443
:10284000C91D0E94411B6B017C0180904D0290903C
:102850004E02A0904F02B090500220E030E0A9015B
:10286000C501B4010E94611E20E030E040E05FE35A
:1028700087FDEAC0C501B4010E94EB1C0E94C91D7E
:102880000E94411B9B01AC01C701B6010E943A1B8B
:1028900018160CF4DEC060E070E0CB010E9459080D
:1028A000182F4090490250904A0260904B0270905D
:1028B0004C02A3019201C701B6010E94EA1C2F96A7
:1028C0006CAF7DAF8EAF9FAF2F97A3019201C50173
:1028D000B4010E94EA1C9B01AC012F966CAD7DAD4A
:1028E0008EAD9FAD2F970E94571D20E030E04CE742
:1028F00052E40E94A01B0E942108612F110F770B48
:102900006150710921E043E0082E000C990B0E94F0
:10291000950720E030E040E85FE3C701B6010E9480
:10292000EB1C91CFE138A9F4CE018F5B9F4F0E9441
:10293000DD0B2B013C01CE018F5B9F4F0E94DD0B15
:102940009B01AC01C301B2010E94EB1CAB01BC01B5
:10295000F5CEE23899F4CE018F5B9F4F0E94DD0BDC
:102960002B013C01CE018F5B9F4F0E94DD0B9B0131
:10297000AC01C301B2010E94EA1CE8CFE33899F42C
:10298000CE018F5B9F4F0E94DD0B2B013C01CE01DE
:102990008F5B9F4F0E94DD0B9B01AC01C301B20115
:1029A0000E94A01BD3CFE43899F4CE018F5B9F4FD8
:1029B0000E94DD0B2B013C01CE018F5B9F4F0E94DB
:1029C000DD0B9B01AC01C301B2010E94571DBECFBC
:1029D000E53889F4CE018F5B9F4F0E94DD0B2B0100
:1029E0003C01CE018F5B9F4F0E94DD0BA301920142
:1029F0000E94661EABCFE63889F4CE018F5B9F4FF5
:102A00000E94DD0B2B013C01CE018F5B9F4F0E948A
:102A1000DD0BA30192010E940A1E98CFB501A4010B
:102A2000EE3F09F48BCEE03809F094CECE018F5BF7
:102A30009F4F0E94DD0BAB01BC0170587FCEC701D8
:102A4000B6010E94EA1CFBCEC501B4010E94EA1C3B
:102A500015CFC0905102D0905202E0905302F090F6
:102A6000540220E030E0A901C701B6010E94611EB6
:102A700020E030E040E05FE387FD77C0C701B601AA
:102A80000E94EB1C0E94C91D0E94411B6B017C012E
:102A90008090550290905602A0905702B090580234
:102AA00020E030E0A901C501B4010E94611E20E0D0
:102AB00030E040E05FE387FD5DC0C501B4010E94E6
:102AC000EB1C0E94C91D0E94411B9B01AC01C70168
:102AD000B6010E943A1B18160CF451C0C701B6018A
:102AE0000E945908182F8090490290904A02A090A5
:102AF0004B02B0904C02A501940160E070E0CB0164
:102B00000E94EA1C2B013C01A501940160914D0239
:102B100070914E0280914F02909150020E94EA1CE7
:102B20009B01AC01C301B2010E94571D20E030E0BF
:102B30004CE752E40E94A01B0E942108612F110F54
:102B4000770B6034710540F4082E000C990B21E0DE
:102B500043E001970E94360720E030E040E85FE361
:102B6000C701B6010E94EB1C91CFC701B6010E94BC
:102B7000EA1C88CFC501B4010E94EA1CA2CF609173
:102B8000590270915A0280915B0290915C020E94FE
:102B90005908E82EEDE5F2E02D96FFAFEEAF2D9748
:102BA000AA24A394B12C65012D96AEADBFAD2D978F
:102BB0006D917D918D919D912D96BFAFAEAF2D976B
:102BC0000E945908082F880F110B0E2C000CFF08CB
:102BD000C501019728014E185F0857FE03C05194A4
:102BE00041945108B2E04B16510454F4302F212F78
:102BF0008501C32ED22E3E2D2F2D7C01832F922FA7
:102C00000E151F0554F03C2D2D2D6C01832F922F96
:102C1000302F212F8701E32EF22E4701801A910ACF
:102C20001C012C183D0837FE03C031942194310853
:102C3000340197FE03C0EFEF6E1A7E0A7594679415
:102C4000C816D9062CF581E0282F880F330B619622
:102C50003FAF2EAF6197E016F106E4F041E0B80116
:102C6000C60132E04316510414F4B601C8010E94B3
:102C700077076218730877FE08C061964EAD5FADA6
:102C80006197C40ED51E680C791C0F5F1F4FE3CFF0
:102C90008FEFDACF2D96EEADFFAD2D973497608193
:102CA0007181828193810E945908E82E5FEFA51AF5
:102CB000B50A8EE3A816B10409F075CF80E00E9432
:102CC00050030E946C038823E1F38091FF078093F7
:102CD00000080E942E078093FF0784E00E944503AE
:102CE000882369F389E1C82E82E0D82E99EFE92E76
:102CF00091E0F92E10E000E01092F3071092F20735
:102D00001092F1071092F0071093F5070093F40763
:102D1000D6018D909D90AD90BD906D01A50194015F
:102D2000C501B4010E94B61E6FED71E081111BC098
:102D300024013501E89477F82FEF3FEF4FE75FE785
:102D4000C301B2010E94B61E811155C02FEF3FEFA3
:102D50004FE75FE7C301B2010E943A1B18160CF05F
:102D60004AC063EE71E085EE97E00E94BF09E0E49F
:102D7000F0E0F093F307E093F207F093F107E093AC
:102D8000F0071093F5070093F407D7016D917D01CB
:102D900070E090E080E040E10E94CE09095F1F4FA3
:102DA0000833110509F0A8CF80913A02B7E08B9F54
:102DB000C0011124E0E2F0E0F093F307E093F207A2
:102DC000F093F107E093F0079093F5078093F407F1
:102DD00080913902882309F481C08EE30E94B609EC
:102DE00080E00E94500320E030E0232B09F42BCB3D
:102DF0000E94000028CB2FEF3FEF4FE75FE4C501B3
:102E0000B4010E94611E18161CF467EE71E0ABCF8E
:102E10002FEF3FEF4FE75FECC501B4010E943A1B73
:102E200087FDF3CF20E030E0A901C501B4010E9485
:102E30003A1B87FF07C08DE20E94B609B7FAB0942B
:102E4000B7F8B0942AE037ED43EA5BE3C501B4017B
:102E50000E94EB1C2B013C010E94D01D4B015C0128
:102E60000E943F1B9B01AC01C301B2010E94EA1CFE
:102E70002B013C014AE0C501B4010E94CE098EE25B
:102E80000E94B60920E030E040E251E4C301B20103
:102E90000E94A01B2B013C010E94D01D4B01B12CB4
:102EA000A12C4AE0C501B4010E94CE09C501B401BC
:102EB0000E943F1B9B01AC01C301B2010E94EA1CAE
:102EC00020E030E040E251E40E94A01B0E94D01DAF
:102ED00090E080E04AE00E94CE0949CF8CE37ECFAB
:102EE000EF920F931F93CF93DF93E80134E047FDF8
:102EF00034E1042E000C550B57FF03C0519541954A
:102F00005109E32E022F242FAE010E949217CE0109
:102F1000DF91CF911F910F91EF900895662777274A
:102F20000C94F118A9E0B0E0E8E9F7E10C94881CF2
:102F30006A01F22EB02E102FFBE3AF2EA01608F47C
:102F40001BE31F5F012F27E0AE014F5F5F4F0E9421
:102F5000411ABC018981982F9970913009F43FC0C2
:102F60009BE2E1FC04C09E2D9170E0FC3AC05E2D16
:102F70005071E82FE87083FF46C084E0911101C0D2
:102F800083E0EF2DE81B8F1508F0E0E0D6018E2FCF
:102F900020E2552351F1992329F0D6019C93C601D3
:102FA00001966C0196012D5F3F4FE2FE24C08EE436
:102FB000D6018C9391E411969C93119712968C9361
:102FC000D9018E2F90E281111BC0E20FF32FF11D6A
:102FD00010828EEF9FEF2996ECE00C94A41C9DE2EA
:102FE000C6CF90E2C4CF2D9381508111FCCFCE0E7D
:102FF000D11CE0E0D0CF8EE6D6018C9391E6DBCFFA
:103000009D938150E0CF482F447082FF3DC084E003
:10301000911101C083E08F1510F4EF2DE81BD6014C
:103020008E2F20E2552309F1992329F0D6019C9394
:10303000C60101966C0196012D5F3F4FE2FE1BC059
:1030400089E4D6018C938EE411968C93119786E4D3
:1030500012968C93D9018E2F90E2882309F4B5CF74
:103060009D938150FACF2D9381508111FCCFCE0ECC
:10307000D11CE0E0D9CF89E6D6018C938EE611967B
:103080008C93119786E6E4CF9B0177FF02C030E076
:1030900020E0A1E0B0E0911102C0B0E0A0E0F901B1
:1030A0003196AE0FBF1F8B2C912CBB2009F461C051
:1030B0005401EFEFAE1ABE0AAA0DBB1DFA161B068D
:1030C00019F014F04F2D4A1B511188C0E3FC59C070
:1030D0007601A42FB0E2A1114FC0C40ED11C9923D8
:1030E00009F45BC040E0D6011196F60190836D01B2
:1030F000552309F448C0012F060F9A81582F5071AB
:1031000084FF03C0913309F4015010160CF047C03E
:10311000093008F008E0EEE2FE2E5B01A01AB108CB
:1031200085019194819491082F3F320729F4D601AB
:10313000FC92F60131966F016217730794F1021742
:1031400013077CF5DB01A21BB30BAA24A394B12CBB
:10315000AC0EBD1EAA0DBB1D11968C9121503109DC
:10316000D601119628153905F4F0F60180836D011A
:10317000DBCFB12CA12CA0CFF701B1937F01A150DF
:10318000AACF9111B0CFD601942F50E302C05D9326
:1031900091509111FCCFC40ED11C40E0ACCF01E0A6
:1031A000BACF80E3DBCF6217730731F4963388F42C
:1031B000953311F4552369F0F6018083FD01842FC6
:1031C00090E2811108C0A40FB11D1C9290E080E034
:1031D00002CF81E3F1CF91938150F3CF911183CF4F
:1031E0008ACFB0E0A0E0E7EFF8E10C94881C5C0126
:1031F0007B016115710519F0DB018D939C938501AD
:103200000F5F1F4FF501D0818D2F90E00E94191B99
:103210006C01892BB9F5DD32B9F50F5F1F4FD50170
:103220001196DC91C1E05801F1E0AF1AB10843E01A
:1032300050E066E371E0C5010E94221B892B69F50D
:10324000680182E0C80ED11C45E050E061E371E006
:10325000C6010E94221B892B21F4680197E0C90E48
:10326000D11CE114F10419F0D701CD92DC9260E099
:1032700070E080E89FEFC111FFC060E070E080E87F
:103280009FE7FAC05801BBCFDB3229F485010E5FFE
:103290001F4FF501D181C0E0C6CF43E050E06EE2A0
:1032A00071E0C5010E94221B892BE9F0F80110E0B2
:1032B00000E020E030E0A9015F01B0ED8B2E8D0E23
:1032C00089E08815C8F19C2E689491F88C2F88703D
:1032D000C2FF16C0811102C00F5F1F4F3196D5018A
:1032E000DC91C92DE9CFE114F10429F00E5F1F4FE5
:1032F000F7011183008360E070E080EC9FE7BCC0C1
:10330000882311F001501109A5E0B0E00E94771C5C
:103310009B01AC01220F331F441F551F280D311D87
:10332000411D511D283999E93907490799E1590784
:10333000A8F2C6609C2ED2CFAEEF8A1206C0C3FDA3
:103340003CC09C2E689493F8C9CFDF7DD534A9F595
:1033500080818D3239F4C061DF011296818162E093
:1033600070E006C0DF018B32C1F3119661E070E0BE
:1033700080535D01A61AB70A8A30F8F4E0E8CE1649
:10338000ECE0DE065CF4B601660F771F660F771F70
:10339000C60ED71ECC0CDD1CC80ED11C5D01FFEF84
:1033A000AF1ABF0A8C9180538A30A8F1C4FF03C0C2
:1033B000D194C194D1080C0D1D1DC1FF09C0E114A9
:1033C000F10431F081E0A81AB108D701AD92BC92A6
:1033D000CA01B9010E943F1BC370C33009F4905861
:1033E0004B015C0120E030E0A9010E943A1B8823D8
:1033F00009F440C0C5E6D1E017FF05C0119501955D
:103400001109CDE4D1E06E01B8E1CB1AD10880E218
:10341000E82EF12C0FC0D501B1CFFE0125913591D9
:10342000459154910E191F09C501B4010E94A01BBA
:103430004B015C01D501C4010E151F0574F72497DB
:10344000F594E794CC16DD06A9F78A2F880F8B2F09
:10345000881F8F3F49F020E030E0A901C501B40189
:103460000E943A1B811106C082E290E09093060808
:1034700080930508C501B401CDB7DEB7ECE00C942C
:10348000A41C283008F027E03327DA01990F311DFA
:1034900087FD916000966105710539F432602E5FF9
:1034A0003D9330E32A95E1F708959F3F30F080384F
:1034B0007105610509F03C5F3C5F3D93913008F078
:1034C0008068911DDF93CF931F930F93FF92EF922C
:1034D000192F987F9695E92F96959695E90FFF27D6
:1034E000ED53FE4F99273327EE24FF24A701E70170
:1034F00005900894079428F4360FE71EF81E491F1C
:10350000511D660F771F881F991F0694A1F705901C
:10351000079428F4E70EF81E491F561FC11D770FA8
:10352000881F991F661F0694A1F70590079428F439
:10353000F80E491F561FC71FD11D880F991F661F00
:10354000771F0694A1F70590079420F4490F561FA2
:10355000C71FD81F990F661F771F881F0694A9F7EA
:1035600084911095177041F0D695C795579547955A
:10357000F794E7941A95C1F7E9E6F1E0689415909D
:10358000159135916591959105907FE27395E118BC
:10359000F10A430B560BC90BD009C0F7E10CF11E21
:1035A000431F561FC91FD01D7EF4703311F48A9536
:1035B000E6CFE894015030F0080F0AF40027021714
:1035C00008F4202F2395022F7A3328F079E37D9396
:1035D0002A95E9F710C07D932A9589F60694979568
:1035E0006795379517951794E118F10A430B560B19
:1035F000C90BD00998F023957E9173957A3308F022
:1036000070E37C932013B8F77E9170617D9330F066
:10361000839571E37D9370E32A95E1F71124EF9090
:10362000FF900F911F91CF91DF91992787FD909582
:10363000089591110C940D1C803219F08950855019
:10364000C8F70895FB01DC014150504088F08D918E
:1036500081341CF08B350CF4805E659161341CF074
:103660006B350CF4605E861B611171F3990B089544
:10367000881BFCCF0E947C1B08F481E00895E8942D
:1036800009C097FB3EF490958095709561957F4FAA
:103690008F4F9F4F9923A9F0F92F96E9BB27939558
:1036A000F695879577956795B795F111F8CFFAF468
:1036B000BB0F11F460FF1BC06F5F7F4F8F4F9F4F99
:1036C00016C0882311F096E911C0772321F09EE8F7
:1036D000872F762F05C0662371F096E8862F70E05D
:1036E00060E02AF09A95660F771F881FDAF7880F37
:1036F0009695879597F90895990F0008550FAA0B8D
:10370000E0E8FEEF16161706E807F907C0F01216F4
:103710001306E407F50798F0621B730B840B950BF7
:1037200039F40A2661F0232B242B252B21F408954C
:103730000A2609F4A140A6958FEF811D811D0895E9
:103740000E94B31B0C94271C0E94191C38F00E9485
:10375000201C20F0952311F00C94101C0C94161CC6
:1037600011240C945B1C0E94381C70F3959FC1F3CC
:10377000950F50E0551F629FF001729FBB27F00D1F
:10378000B11D639FAA27F00DB11DAA1F649F662774
:10379000B00DA11D661F829F2227B00DA11D621FC3
:1037A000739FB00DA11D621F839FA00D611D221F7D
:1037B000749F3327A00D611D231F849F600D211D61
:1037C000822F762F6A2F11249F5750409AF0F1F0E4
:1037D00088234AF0EE0FFF1FBB1F661F771F881F4D
:1037E00091505040A9F79E3F510580F00C94101C59
:1037F0000C945B1C5F3FE4F3983ED4F38695779579
:103800006795B795F795E7959F5FC1F7FE2B880FF2
:10381000911D9695879597F908959927882708957A
:1038200097F99F6780E870E060E008959FEF80EC73
:10383000089500240A941616170618060906089516
:1038400000240A9412161306140605060895092E7C
:103850000394000C11F4882352F0BB0F40F4BF2BEB
:1038600011F460FF04C06F5F7F4F8F4F9F4F08952B
:1038700057FD9058440F551F59F05F3F71F0479521
:10388000880F97FB991F61F09F3F79F08795089506
:10389000121613061406551FF2CF4695F1DF08C025
:1038A000161617061806991FF1CF86957105610542
:1038B00008940895E894BB2766277727CB0197F9EA
:1038C0000895F999FECF92BD81BDF89A992780B5E8
:1038D0000895262FF999FECF1FBA92BD81BD20BD54
:1038E0000FB6F894FA9AF99A0FBE019608950E94BD
:1038F000DB1CA59F900DB49F900DA49F800D911D82
:10390000112408952F923F924F925F926F927F926F
:103910008F929F92AF92BF92CF92DF92EF92FF92DF
:103920000F931F93CF93DF93CDB7DEB7CA1BDB0B8B
:103930000FB6F894DEBF0FBECDBF09942A88398830
:1039400048885F846E847D848C849B84AA84B98437
:10395000C884DF80EE80FD800C811B81AA81B98143
:10396000CE0FD11D0FB6F894DEBF0FBECDBFED0157
:103970000895A1E21A2EAA1BBB1BFD010DC0AA1FB0
:10398000BB1FEE1FFF1FA217B307E407F50720F0C8
:10399000A21BB30BE40BF50B661F771F881F991F43
:1039A0001A9469F760957095809590959B01AC018C
:1039B000BD01CF010895A29FB001B39FC001A39F95
:1039C000700D811D1124911DB29F700D811D112458
:1039D000911D08955058BB27AA270E94021D0C94E0
:1039E000271C0E94191C38F00E94201C20F039F47A
:1039F0009F3F19F426F40C94161C0EF4E095E7FB97
:103A00000C94101CE92F0E94381C58F3BA17620757
:103A100073078407950720F079F4A6F50C945A1CD7
:103A20000EF4E0950B2EBA2FA02D0B01B9019001D9
:103A30000C01CA01A0011124FF27591B99F0593F1D
:103A400050F4503E68F11A16F040A22F232F342F65
:103A50004427585FF3CF469537952795A795F040B3
:103A60005395C9F77EF41F16BA0B620B730B840BC8
:103A7000BAF09150A1F0FF0FBB1F661F771F881F80
:103A8000C2F70EC0BA0F621F731F841F48F48795D8
:103A900077956795B795F7959E3F08F0B0CF9395CA
:103AA000880F08F09927EE0F9795879508950E9443
:103AB0006B1D0C94271C0E94201C58F00E94191C9E
:103AC00040F029F45F3F29F00C94101C51110C9424
:103AD0005B1C0C94161C0E94381C68F39923B1F3EC
:103AE000552391F3951B550BBB27AA276217730724
:103AF000840738F09F5F5F4F220F331F441FAA1FB8
:103B0000A9F335D00E2E3AF0E0E832D09150504073
:103B1000E695001CCAF72BD0FE2F29D0660F771F21
:103B2000881FBB1F261737074807AB07B0E809F007
:103B3000BB0B802DBF01FF2793585F4F3AF09E3F8C
:103B4000510578F00C94101C0C945B1C5F3FE4F35F
:103B5000983ED4F3869577956795B795F7959F5FCF
:103B6000C9F7880F911D9695879597F90895E1E01B
:103B7000660F771F881FBB1F621773078407BA077A
:103B800020F0621B730B840BBA0BEE1F88F7E095D5
:103B900008950E94D01D6894B1110C945B1C089587
:103BA0000E94401C88F09F5798F0B92F9927B75171
:103BB000B0F0E1F0660F771F881F991F1AF0BA95D1
:103BC000C9F714C0B13091F00E945A1CB1E00895B9
:103BD0000C945A1C672F782F8827B85F39F0B93FAB
:103BE000CCF3869577956795B395D9F73EF4909584
:103BF0008095709561957F4F8F4F9F4F08950E94DC
:103C0000191C20F019F00E94201C50F40C94161C72
:103C10000C945B1CE92F0E94381C88F35523B1F3E8
:103C2000E7FB6217730784079507A8F189F3E92F6B
:103C3000FF2788232AF03197660F771F881FDAF74E
:103C4000952F5527442332F091505040220F331FB7
:103C5000441FD2F7BB27E91BF50B621B730B840BC8
:103C6000B109B1F222F4620F731F841FB11D3197A5
:103C70002AF0660F771F881FBB1FEFCF915050406F
:103C800062F041F0882332F0660F771F881F915051
:103C90005040C1F793950C94531E86957795679580
:103CA0009F5FD9F7F7CF9F3F31F0915020F4879570
:103CB00077956795B795880F911D9695879597F994
:103CC00008950E947C1B08F48FEF0895FA01EE0F0F
:103CD000FF1F309621053105A1F16115710561F4D1
:103CE0008038BFE39B0749F168949038810561F003
:103CF0008038BFEF9B0741F099234AF5FF3FE1056C
:103D00003105210519F1E8940894E795D901AA2312
:103D100029F4AB2FBE2FF85FD0F310C0FF5F70F413
:103D2000A695E0F7F73950F019F0FF3A38F49F778D
:103D30009F930DD00F9007FC9058089546F00C9477
:103D4000161C60E070E080E89FE308954FE79F77DE
:103D50005F934F933F932F930E94661F2F913F9144
:103D60004F915F910E94A01B0C94C31E0E947C1B6C
:103D7000880B990B089529F416F00C94101C0C94E0
:103D80005A1C0C94161C0E94401CA8F39638A0F7ED
:103D900007F80F92E8942BE33AEA48EB5FE70E94BA
:103DA000B61B0F920F920F924DB75EB70F920E9403
:103DB000AE1FECEAF0E00E94F51E4F915F91EF918B
:103DC000FF91E595EE1FFF1F49F0FE57E06844277D
:103DD000EE0F441FFA95E1F74195550B0E94281FFD
:103DE0000F9007FE0C941C1F0895DF93CF931F9331
:103DF0000F93FF92EF92DF927B018C01689406C0D3
:103E0000DA2EEF010E94B31BFE01E894A5912591E3
:103E1000359145915591A6F3EF010E94021DFE01D7
:103E20009701A801DA9469F7DF90EF90FF900F9166
:103E30001F91CF91DF9108959B01AC0160E070E08C
:103E400080E89FE30C94571D0C94101C0C94531E97
:103E50000E94401CD8F39923C9F3940F511DA3F37A
:103E60009150504094F059F0882332F0660F771F3C
:103E7000881F91505040C1F79E3F51052CF7880F85
:103E8000911D9695879597F908955F3FACF0983E00
:103E90009CF0BB27869577956795B79508F4B16038
:103EA0009395C1F7BB0F58F711F460FFE8CF6F5F30
:103EB0007F4F8F4F9F4FE3CF0C945B1C16F00C94F9
:103EC000531E0C94161C68940C94101C0E94401CE9
:103ED000A8F39923C1F3AEF3DF93CF931F930F930E
:103EE000FF92C92FDD2788232AF02197660F771FBD
:103EF000881FDAF720E030E040E85FEB9FE3883985
:103F000020F0803E38F021968F770E94EB1CE4ED84
:103F1000F0E004C00E94EB1CE1E0F1E00E94F51E1D
:103F20008B01BE01EC01FB2E6F5771097595771F50
:103F3000880B990B0E94411B28E132E741E35FE3C4
:103F40000E94B31BAF2D9801AE01FF900F911F91FE
:103F5000CF91DF910E94021D0C94271CFA01DC0115
:103F6000AA0FBB1F9B01AC01BF5728F422273327A0
:103F70004427507820C0B75190F4AB2F00244695C9
:103F800037952795011CA395D2F3002071F0220FDD
:103F9000331F441FB395DAF30ED00C94EA1C613042
:103FA0007105A0E88A07B94630F49B01AC01662789
:103FB000772788279078309621F0208331834283B9
:103FC0005383089597FB072E16F4009407D077FDCE
:103FD00009D00E94FC1F07FC05D03EF49095819506
:103FE0009F4F0895709561957F4F0895EE0FFF1FC5
:103FF0000590F491E02D0994AA1BBB1B51E107C069
:10400000AA1FBB1FA617B70710F0A61BB70B881F68
:10401000991F5A95A9F780959095BC01CD010895F7
:104020000F931F93CF93DF938230910510F482E0BA
:1040300090E0E0910908F0910A0830E020E0B0E05B
:10404000A0E0309799F42115310509F44AC0281BE6
:10405000390B24303105D8F58A819B8161157105B2
:1040600089F1FB0193838283FE0111C0408151815C
:104070000281138148175907E0F04817590799F44E
:10408000109761F012960C93129713961C93329628
:10409000CF01DF91CF911F910F91089500930908EF
:1040A00010930A08F4CF2115310551F04217530738
:1040B00038F0A901DB019A01BD01DF01F801C1CF90
:1040C000EF01F9CF90930A0880930908CDCFFE0144
:1040D000E20FF31F81939193225031093983288392
:1040E000D7CF2091070830910808232B41F4209165
:1040F0000E0130910F01309308082093070820919A
:104100000C0130910D012115310541F42DB73EB759
:104110004091100150911101241B350BE0910708CB
:10412000F0910808E217F307A0F42E1B3F0B2817A5
:10413000390778F0AC014E5F5F4F2417350748F020
:104140004E0F5F1F50930808409307088193919387
:104150009FCFF0E0E0E09CCFCF93DF930097E9F0B2
:10416000FC01329713821282A0910908B0910A08CB
:10417000ED0130E020E01097A1F420813181820F21
:10418000931F20910708309108082817390709F074
:1041900061C0F0930808E0930708DF91CF9108957C
:1041A000EA01CE17DF07E8F54A815B819E014115E0
:1041B0005105B1F7E901FB83EA8349915991C40F95
:1041C000D51FEC17FD0761F4808191810296840F61
:1041D000951FE90199838883828193819B838A83D8
:1041E000F0E0E0E012968D919C9113970097B9F55D
:1041F0002D913C911197CD010296820F931F209132
:104200000708309108082817390739F6309751F513
:1042100010920A0810920908B0930808A0930708A2
:10422000BCCFD383C28340815181840F951FC817AF
:10423000D90761F44E5F5F4F88819981480F591FFC
:10424000518340838A819B81938382832115310529
:1042500009F0B0CFF0930A08E09309089ECFFD0162
:10426000DC01C0CF13821282D7CFB0E0A0E0EBE335
:10427000F1E20C94841C8C01009751F4CB010E9454
:1042800010208C01C801CDB7DEB7E0E10C94A01C72
:10429000FC01E60FF71F9C0122503109E217F307DA
:1042A00008F49DC0D901CD91DC911197C617D707AD
:1042B00098F0C530D10530F3CE01049786179707E3
:1042C00008F3C61BD70B2297C193D1936D937C93B0
:1042D000CF010E94AC20D6CF5B01AC1ABD0A4C01C5
:1042E0008C0E9D1EA0910908B0910A08512C412CFA
:1042F000F12CE12C109731F5809107089091080876
:104300008815990509F05CC04616570608F058C094
:1043100080910C0190910D01009741F48DB79EB7EB
:104320004091100150911101841B950BE817F9077A
:1043300008F055C0F0930808E0930708F90171836D
:104340006083A0CF8D919C91119712966C901297DB
:1043500013967C901397A815B90559F56C0142E0A6
:10436000C40ED11CCA14DB0420F1AC014A195B094C
:10437000DA011296159780F062827382518340832E
:10438000D9016D937C93E114F10471F0D701139678
:10439000FC93EE93129776CF22968C0F9D1FF90116
:1043A00091838083F301EFCFF0930A08E09309082B
:1043B00069CF4816590608F42C017D01D3019ACF24
:1043C000CB010E9410207C01009749F0AE01B8019A
:1043D0000E94F221C8010E94AC20870153CF10E057
:1043E00000E050CFFB01DC0102C001900D92415072
:0A43F0005040D8F70895F894FFCF6D
:1043FA00FFFFFFFF00E100000000000000000B08C3
:10440A00800000C1808100000000000000B0048923
:10441A0005D104C6041705D504F304000000007C86
:10442A00068304BC09BB090000000005098304BC1B
:10443A0009BB0900000000F0030D0A005354414370
:10444A004B3A206572726F722064756520746F2012
:10445A00756E646573697261626C652073697A65E9
:10446A0020666F7220737461636B2073697A652E9C
:10447A0000535441434B3A20696E7375666669630B
:10448A0069656E74206D656D6F727920746F207224
:10449A006573697A6520737461636B2E00535441A6
:1044AA00434B3A2063616E277420706F70206974E1
:1044BA00656D2066726F6D20737461636B3A207349
:1044CA007461636B20697320656D7074792E006E58
:0C44DA00616E00696E66006F766600007F
:00000001FF
