:100000000C9434030C945C030C945C030C945C031C
:100010000C945C030C945C030C945C030C945C03E4
:100020000C945C030C945C030C9475110C94E41117
:100030000C945C030C945C030C945C030C945C03C4
:100040000C945C030C945C030C945C030C945C03B4
:100050000C945C030C945C030C945C030C941614D9
:100060000C945C030C945C030C945C030C945C0394
:100070000C945C030C945C030C945C030C945C0384
:100080000C945C030C945C030C945C030C945C0374
:100090000C945C030C945C030C945C030C945C0364
:1000A0000C945C030C945C030C945C0305A84CCD8D
:1000B000B2D44EB93836A9020C50B9918688083CA2
:1000C000A6AAAA2ABE000000803F07634236B79B5B
:1000D000D8A71A39685618AEBAAB558C1D3CB7CCA8
:1000E0005763BD6DEDFD753EF6177231BF00000020
:1000F000803F08000000BE922449123EABAAAA2A03
:10010000BECDCCCC4C3E00000080BEABAAAAAA3E1D
:1001100000000000BF000000803F00000000000859
:100120004178D3BB4387D1133D190E3CC3BD4282F6
:10013000AD2B3E68EC8276BED98FE1A93E4C80EFB4
:10014000FFBE01C4FF7F3F00000000004E414E494A
:100150004E495459494E46CDCCCC3D0AD7233C1785
:10016000B7D13877CC2B329595E6241FB14F0A00D2
:100170000020410000C84200401C4620BCBE4CCAC2
:100180001B0E5AAEC59D7400407A10F35A00A0723F
:100190004E18090010A5D4E80000E87648170000C2
:1001A000E40B54020000CA9A3B000000E1F5050090
:1001B0000080969800000040420F000000A08601D9
:1001C000000000102700000000E8030000000064A9
:1001D00000000000000A0000000000010000000014
:1001E000002C76D888DC674F0823DFC1DFAE59E1E9
:1001F000B1B796E5E3E453C63AE651997696E8E658
:10020000C28426EB898C9B62ED407C6FFCEFBC9C2A
:100210009F40F2BAA56FA5F490055A2AF75C936B3C
:100220006CF9676DC11BFCE0E40D47FEF520E6B5F7
:1002300000D0ED902E0300943577050080841E08D1
:100240000000204E0A000000C80C333333330F98EF
:100250006E12831141EF8D2114893BE65516CFFEB6
:10026000E6DB18D1844B381BF77C1D901DA4BBE442
:1002700024203284725E228100C9F124ECA1E53D84
:100280002753796E746178204572726F72004272E2
:1002900061636B657473206D69736D61746368006D
:1002A000576169742E2E2E0012FFFDFE18130708E9
:1002B000091719040506162001020315FC00101188
:1002C00014FFFDFE070809040506010203001011D2
:1002D0002F0300033F0A3F163F1A0904121A251A7A
:1002E00028031E21211E0A040A040E0460040404CB
:1002F000200804021E211E223F2039252221251A12
:1003000007043F1725191E25190139071A251A1246
:10031000251E1434040A111414110A04012D061E9A
:10032000212D2E3E053E3F251A1E21213F211E3F35
:10033000253F051E213D3F043F213F21211F3F0452
:100340003B3F203F0204023F3F02043F1E211E3F6D
:1003500005021E312E3F053A2619013F013F203F7D
:100360001F301F1F201C201F3B043B033C03392769
:100370003F21020408213F02010220202001021433
:100380002C383F2418182418243F1834283E0548D8
:10039000543C3F04383D403D3F043A3F3C043C045C
:1003A000383C04381824187C241818247C3C042871
:1003B000141F241C203C1C201C1C2038203C34080A
:1003C000344C503C342C043B213B213B04020604BA
:1003D000000104070A0D11121416191C1D202124F6
:1003E000272A2D303336393C3F42434447494C4F4E
:1003F0005356595C5F616366696C6E7173787C7F7C
:100400008285888A8D9093989B9EA0A2A5A7AAAD6D
:10041000AFB2B5B7BABDBFC2C5C6C8CBCCD1D4D7B1
:10042000DADDDFE1E3E6E9EEF1F4F6F9FAFD00A04A
:10043000028E02810263616E277420706F702C201F
:10044000737461636B20656D7074790063616E27EE
:1004500074207065656B2C20737461636B20656D0F
:100460007074790063616E277420706F702C207334
:100470007461636B20656D707479006E6F206D65BB
:100480006D0063616E277420726573697A652074EC
:1004900068617420736D616C6C006E6F206D656DAA
:1004A0000063616E277420726573697A65207468D1
:1004B000617420736D616C6C00F0F89C8E8783878B
:1004C0008E9CF8F00000FEFF0303030303070EFCFD
:1004D000F80000FEFF0303030303070EFCF800000F
:1004E000FFFF00000000000000FFFF0000FEFF8390
:1004F00083838383C7EE7C380000F8FC0E07030378
:1005000003070EFCF800003F7FE0C08080C0E07F62
:100510003FFFFF01010101010101FFFF0000FFFF9B
:100520000C0C0C0C1C3E77E3C100007FFFC0C0C068
:10053000C0C0E0703F1F00001F3F70E0C0C0C0E0BF
:10054000703F1F00007FFFC1C1C1C1C1E3773E1CE6
:1005500000001F3F70E0C0C0C0E0703F1F000000FF
:10056000000001FFFF01000000D5F08D14A1C8813B
:10057000CFD9F1AF2000887E0901282828280C1245
:100580002125122C408005F2A5A0FEAAAAFE100883
:100590000817262510087E81A99181A1817EFC94EF
:1005A00097B5B59794FC596D617800596D696E00E7
:1005B000586D617800586D696E00546F6F6C730AE6
:1005C000746F646F00446972656374005472616390
:1005D000650A746F646F005461626C650A746F64BD
:1005E0006F0057696E646F770046756E6374696F4C
:1005F0006E00080B00020202010009040000010263
:100600000200000524001001052401010104240258
:1006100006052406000107058103100040090401B6
:1006200000020A00000007050202400000070583DF
:10063000024000000403090412010002EF0201401D
:100640004123368000010102030141726475696E25
:100650006F204C4C430041726475626F7900030552
:10066000C1020505A802981411241FBECFEFDAE0DD
:10067000DEBFCDBF11E0A0E0B1E0E2E3F2E502C0F1
:1006800005900D92A23BB107D9F727E0A2EBB1E0AC
:1006900001C01D92A637B207E1F713E0C4E3D3E02F
:1006A00004C02197FE010E940B27C333D107C9F76D
:1006B0000E94E3140C9417290C940000E0E5F3E089
:1006C000A0E0B8E000800EBC8111012C1197A0FDC4
:1006D000FDCF0192B9F70DB4089580E00C945E034C
:1006E00090916B07982329F490916A07982381E0F1
:1006F00009F480E008958FB7F8944091D3025091A7
:10070000D4026091D5027091D6028FBF80916D079F
:10071000942F981B80916E07882331F090936F0778
:1007200010926E0780E0089520916C07921740F4B4
:100730009F5F9217A0F491E093BF889513BE089530
:1007400081E080936E0740936D07809168079091D8
:1007500069070196909369078093680781E008957F
:100760002F923F924F925F926F927F928F929F92C1
:10077000AF92BF92CF92DF92EF92FF920F931F93AF
:10078000CF93DF9330E0F901E80FF91FF7FD96C032
:10079000803891050CF092C0FB01E00FF11DF7FDD0
:1007A0008DC0603471050CF089C0DB0177FF04C097
:1007B000AA27BB27A61BB70BA770BB27EB0177FDAA
:1007C0002796E3E0D595C795EA95E1F777FF07C04F
:1007D000219768E070E0FB01EA1BFB0BDF01069547
:1007E00006950695602E712C7A01AE015695542F10
:1007F000442757954795480F591F405B5C4FBE01F2
:10080000E8E0F0E02F014A1A5B0A6F3FFFEF7F0735
:100810000CF444C06C0110E000E04A01F0E88F0ED7
:10082000911CD7FC2EC06F3F760709F45AC0F70120
:10083000E00FF11FE4915A01A00EB11EF0E01F017C
:100840000A2E01C0220C0A94EAF7F5013080232811
:1008500020821097B1F06730710599F0F701E00F31
:10086000F11FE4915401A00EB11EF0E01F01042C11
:1008700002C0359427940A94E2F7F50130802328CA
:1008800020820F5F1F4FFFEFCF1ADF0A02171307F7
:100890002CF4E0E8CE16D10409F0C3CF6F5F7F4F90
:1008A000E20EF31E40585F4FFB01EC1BFD0BE615FB
:1008B000F70524F46830710509F0A7CFDF91CF91D7
:1008C0001F910F91FF90EF90DF90CF90BF90AF906E
:1008D0009F908F907F906F905F904F903F902F9060
:1008E0000895109709F0BACFCCCF823109F465C0D2
:1008F00050F5853009F452C098F4823009F478C07C
:1009000038F4882309F471C0813009F441C0089596
:10091000833009F440C08430D1F78BE791E008952B
:10092000883009F441C038F48630D9F1873079F73E
:1009300081E891E008958031D1F1E0F5893039F70F
:1009400085E891E00895883109F440C088F4853144
:1009500089F138F48331A1F18431C9F68BE891E053
:100960000895863181F1873191F682E991E0089509
:100970008C3F91F138F4893161F1803241F68AE996
:1009800091E008958E3F71F150F18DE891E0089566
:1009900085E791E0089589E791E008958DE791E07A
:1009A00008958FE791E0089583E891E0089587E83E
:1009B00091E008958EE991E008958BE991E0089522
:1009C00089E891E0089580E991E0089584E991E053
:1009D000089586E991E0089588E991E008958DE908
:1009E00091E0089580EA91E0089583E791E0089509
:1009F00087E791E0089580E20E947003882339F030
:100A000080914E03882319F0815080934E0380E437
:100A10000E947003882381F020914E0380914A0345
:100A200090914B03899FC001112401972817190643
:100A30001CF42F5F20934E0380E80E9470038823EC
:100A400049F080914E0390914A03891718F0891B51
:100A500080934E0380E10E947003882399F0809177
:100A60004E0390914A0320914B032150330B929FE8
:100A7000A001939F500D1124841715061CF4890FB3
:100A800080934E0388E00E947003882391F1E091E7
:100A90004E0380914C0390914D03E80FF92FF11D07
:100AA0008491E09147038E3FD9F1E0F48D3F91F1BD
:100AB0000E9475049C0190E0E091470381E08E0F55
:100AC00080934703D901A90FB11D8C91F0E0E95D36
:100AD000FC4F80839F5FF901E90FF11D8081811137
:100AE000EBCF07C081E080934F03F0E0E95DFC4F5E
:100AF000108284E00E947003882359F0E09147033C
:100B0000EE2339F0E150E0934703F0E0E95DFC4F5C
:100B100010820895EE2369F3E150E0934703E5CF97
:100B2000EE2339F0E150AE2FB0E0A95DBC4F1C922E
:100B3000F7CF10924703DDCF80E0E0E5F3E08111CD
:100B40008FEF002481938193819381930394D1F754
:100B500008958F929F92AF92BF92CF92DF92EF92C1
:100B6000FF92C0903001D0903101E0903201F090BE
:100B70003301A70196010E9493234B015C01A70159
:100B80009601609134017091350180913601909108
:100B900037010E9493239B01AC01C501B4010E945F
:100BA00005246B017C016091400170E090E080E0E1
:100BB0000E94B11F9B01AC01C701B6010E94122027
:100BC0006B017C0120E030E04EEF52E40E944E25A4
:100BD0006FE71816F4F020E030E040E053ECC70176
:100BE000B6010E94AC1F60E887FD13C020E030E032
:100BF000A901C701B6010E944E2520E030E040E087
:100C00005FE387FD10C0C701B6010E9494230E94D4
:100C10007724862FFF90EF90DF90CF90BF90AF901A
:100C20009F908F900895C701B6010E949323EFCF44
:100C30008F929F92AF92BF92CF92DF92EF92FF92EC
:100C4000C0903C01D0903D01E0903E01F0903F010A
:100C5000A70196010E9493234B015C01A701960115
:100C6000609138017091390180913A0190913B0176
:100C70000E9493239B01AC01C501B4010E9405248D
:100C80006B017C016091410170E090E080E00E9486
:100C9000B11F9B01AC01C701B6010E9412206B017C
:100CA0007C0120E030E04EEF52E40E944E256FE7D9
:100CB0001816F4F020E030E040E053ECC701B60134
:100CC0000E94AC1F60E887FD13C020E030E0A9015E
:100CD000C701B6010E944E2520E030E040E05FE30E
:100CE00087FD10C0C701B6010E9494230E9477249B
:100CF000862FFF90EF90DF90CF90BF90AF909F90A6
:100D00008F900895C701B6010E949323EFCFFC0195
:100D10008091D202882311F13FB7F89482E080934A
:100D2000E9002091F200822F90E01816190614F4C1
:100D300081E090E0882339F0289844E64093D1027E
:100D40004091F1004083222339F02091F2002111DB
:100D500003C02BE62093E8003FBF08958FEF9FEF7D
:100D600008952FB7F89483E08093E9009091E8000C
:100D7000892F807295FF04C09091F20080E4891B56
:100D80002FBF08958091C90281110DC082E0809328
:100D9000C50284E08093C6021092C8021092C70276
:100DA00081E08093C90285EC92E00895CF93DF93B0
:100DB0001F92CDB7DEB76983DC01ED91FC91028013
:100DC000F381E02D41E050E0BE016F5F7F4F099558
:100DD0000F90DF91CF91089583E08093E900809197
:100DE000F200882319F08AE38093E80008950E94B6
:100DF000B10690E00895CF93DF931F92CDB7DEB791
:100E0000FC018485958597FD08C02FEF3FEF35875E
:100E100024870F90DF91CF910895CE0101960E9413
:100E20008706019719F4898190E0F3CF8FEF9FEF48
:100E3000F0CF0F931F93CF93DF931F92CDB7DEB701
:100E40008C01FC018485958597FF0BC0CE0101962E
:100E50000E948706019771F4898190E0F8019587D7
:100E60008487F801848595850F90DF91CF911F913C
:100E70000F9108958FEF9FEFF1CFFC018485958549
:100E800097FD0BC09FB7F89482E08093E9008091B2
:100E9000F2009FBF90E0019608959FB7F89482E01A
:100EA0008093E9008091F2009FBF90E00895409107
:100EB000BF025091C0022091BD023091BE02421784
:100EC0005307B4F49091E8009570E1F39091E80035
:100ED00092FD19C08093F1008091BF029091C002F1
:100EE00001968F739927892B19F48EEF8093E80070
:100EF0008091BF029091C00201969093C0028093AE
:100F0000BF0281E0089580E00895DF92EF92FF92A2
:100F10000F931F93CF93DF93D82E8A01EB017B01B0
:100F2000E40EF51ECE15DF0559F0D7FE12C0FE0106
:100F300084910E94570721968111F4CF0FEF1FEF84
:100F4000C801DF91CF911F910F91FF90EF90DF903B
:100F500008958881EECF0F931F93CF93DF931F9255
:100F6000CDB7DEB782E0898342E450E062EF75E0FE
:100F700080E80E9485070E94C206DC0112960D914E
:100F80001C910115110589F0D801ED91FC910280A9
:100F9000F381E02DBE016F5F7F4FC801099597FD7A
:100FA00004C0F80100851185ECCF89810F90DF9195
:100FB000CF911F910F910895615030F02091F10071
:100FC000FC0120830196F8CF289884E68093D10213
:100FD00008950895AF92BF92CF92DF92EF92FF9261
:100FE0000F931F93CF93DF936C017B018B01040F51
:100FF000151FEB015E01AE18BF08C017D10759F0ED
:101000006991D601ED91FC910190F081E02DC6012E
:101010000995892B79F7C501DF91CF911F910F9128
:10102000FF90EF90DF90CF90BF90AF9008953FB7C3
:10103000F8948091B3019091B401A091B501B09161
:10104000B60126B5A89B05C02F3F19F00196A11D3A
:10105000B11D3FBFBA2FA92F982F8827BC01CD0102
:10106000620F711D811D911D42E0660F771F881F61
:10107000991F4A95D1F708958F929F92AF92BF9290
:10108000CF92DF92EF92FF926B017C010E941708D2
:101090004B015C01C114D104E104F104B9F00E94D8
:1010A0001708681979098A099B09683E7340810508
:1010B000910580F321E0C21AD108E108F10888EE19
:1010C000880E83E0981EA11CB11CE4CFFF90EF9026
:1010D000DF90CF90BF90AF909F908F9008958F92A8
:1010E0009F92AF92BF92CF92DF92EF92FF920F93B7
:1010F0001F93CF93DF936C017B018A0180912F01B5
:10110000882309F45CC08091D202882309F457C077
:101110008091C40280FF05C08091E00082608093CE
:10112000E000E801B12C8AEFA82E93E0892E2AE393
:10113000922E209711F4BB20D9F10E94B1068111A3
:101140000AC0AA94AA20D9F161E070E080E090E0A2
:101150000E943C08EECF8C171D0611F00CF08C2F6E
:101160009FB7F8948092E9002091E80025FD02C025
:101170009FBFDFCF282F30E0C21BD30BF701815078
:1011800020F041914093F100FACFE20EF31EBB2014
:1011900021F09092E800B12CEBCF8091E80085FD22
:1011A000E7CF9092E800BB24B394209709F3F3CFE4
:1011B0005D9884E68093C302101611063CF081E02E
:1011C00090E0F6019383828310E000E0C801DF9194
:1011D000CF911F910F91FF90EF90DF90CF90BF9034
:1011E000AF909F908F9008952D9A0895BC0190E044
:1011F00080E00C943C088FB18095807F669B88606E
:101200001C9B84600895480F592F511D1416150614
:10121000D4F580389105BCF597FF02C090E080E0DE
:101220004138510514F040E850E0481BFB0177FDC0
:10123000379633E0F595E7953A95E1F7F695FE2F69
:10124000EE27F795E795E80FF91FE05BFC4F677015
:10125000772781E090E001C0880F6A95EAF7382F80
:10126000213041F4415078F08191DF011197832BB7
:101270008C93F8CF8095415030F09191DF01119718
:1012800098239C93F8CF089580389105B8F4603482
:101290007105A0F420E191E061FD94E060FD990FFB
:1012A00062FD9295687F269FD0011124A80FA05B54
:1012B000BC4F8C9140FF03C0892B8C93089590956F
:1012C0008923FBCFDF92EF92FF920F931F93CF936F
:1012D000DF937C01D22E8B01040F111DEB0177FFF0
:1012E00002C0D0E0C0E0C8010134110514F080E470
:1012F00090E0C817D9073CF44D2DBE01C7010E94EC
:1013000044092196F0CFDF91CF911F910F91FF906B
:10131000EF90DF900895CF92DF92EF92FF920F93BC
:10132000CF93DF936C017B01C42FD22F6034710502
:1013300020F4202FC6010E940309B7016D0F711D13
:1013400061507109603471052CF4202F4C2FC601B7
:101350000E940309202F4D2FB701C6010E94620988
:10136000C6018C0F911D202F4D2FB7010197DF91E2
:10137000CF910F91FF90EF90DF90CF900C94620986
:101380006F927F928F929F92AF92BF92CF92DF9295
:10139000EF92FF920F931F93CF93DF934C017B014A
:1013A000C22F102F98E0A92EB12C642E669466945B
:1013B0006694712CCA0187709927892B79F5D4011D
:1013C00017962D913C91C7019927B9010E94F726E4
:1013D000269DF001279DF00D369DF00D11248E0FF6
:1013E0009F1FD4011596ED91FC91E80FF91F208104
:1013F000111112C0C095C223C083DF91CF911F91FC
:101400000F91FF90EF90DF90CF90BF90AF909F90A3
:101410008F907F906F900895C22BEECFD0E04770F1
:10142000C42ED12C83E0660C771C8A95E1F79E01CF
:1014300001C0220F4A95EAF7012FA301B701C401A9
:101440000E94C009A301485F5F4FC5018C199D0927
:1014500002C0D595C7958A95E2F7A7CF4F925F92C4
:101460006F927F928F929F92AF92BF92CF92DF92B4
:10147000EF92FF920F931F93CF93DF93EC016D30A8
:1014800071F06A30F9F48D859E859C878B878C89F5
:101490002F853889820F932F911D988B8F8781E03C
:1014A00090E0DF91CF911F910F91FF90EF90DF902F
:1014B000CF90BF90AF909F908F907F906F905F90F4
:1014C0004F900895EB84FC84693031F448E0E40ED9
:1014D000F11CFC86EB86E3CF603231F48B8990E01F
:1014E0000296E80EF91EF5CF162F8F819885E81623
:1014F000F9060CF04DC08F8498885BEF85165FEF7E
:1015000095060CF445C089859A85881699060CF0D5
:101510003FC080EE860F8F3508F038C0862F90E0F0
:101520009C0121553C4FF901A490B12CA5014053D9
:101530005D4F5A01FC01E055FC4F5490F901249194
:10154000521AD12CC12CC51418F5F501EC0DFD1D56
:10155000449037016C0C7D1C8C81882361F001E084
:1015600089899A89892B09F000E02FEFA401B30142
:10157000CE010E94C0090989242DA401B301CE0126
:101580000E94C009FFEFCF1ADF0ADDCF8FE3C7CF7C
:10159000612F70E0FB01E055FC4F849161557C4F59
:1015A000FB016491E82FE61B8B89E80FFF27FF1FE3
:1015B0008B859C85E80FF91FFC87EB8770CF0F9315
:1015C0001F93CF93DF938C01D0E0C0E0F801EC0FC4
:1015D000FD1F6491662341F080E597E00E942E0A8A
:1015E000892B11F02196F2CFCE01DF91CF911F917F
:1015F0000F910895682F80E597E00C942E0A0895C6
:1016000090E080E00895FC0101900020E9F7319717
:10161000AF01481B590BBC0180E597E00C94EA0729
:1016200020E533E098E045E5F90150E0419340952D
:101630005F5F8513FBCF915020583F4F9111F4CF3E
:1016400010925003109251031092520310925303C0
:1016500010925403109255031092560310925703A0
:1016600010925E0710925D0710925C0710925B0764
:101670001092600710925F07CB010E94DF0A83EA95
:1016800091E00E94030B0E947B038823E1F3809189
:101690006A0780936B070E94FB0880936A0788E0C3
:1016A0000E947003811103C00E946D03ECCF089566
:1016B000DC011396EC911397E11104C08CE494E0E3
:1016C0000E9493148D919C91E80FF92FF11D319791
:1016D00080810895E82FF0E0EE0FFF1FE15DFB4FE2
:1016E0006591749180E40C94100B8F929F92AF924D
:1016F000BF920F931F93CF93DF93CDB7DEB7A19720
:101700000FB6F894DEBF0FBECDBF19A2423008F469
:101710004AE08E010F5D1F4F842E912CB12CA12C1D
:10172000A50194010E946223E62FB901CA01EA30A3
:10173000F4F4E05DD801EE938D01232B242B252BAF
:1017400079F790E080E0109719F0CD010E94030B2B
:10175000A1960FB6F894DEBF0FBECDBFDF91CF913B
:101760001F910F91BF90AF909F908F900895E95C6B
:10177000E1CFFF920F931F93CF93DF93C0E0DAE0A6
:1017800040914B036091490370E08091480390E0E1
:1017900020914A032C1768F04D9F402D11244F5F74
:1017A00021E0CD9F800D911D11240E946209CF5F21
:1017B000E7CFC0E0DAE040914A036091490370E06E
:1017C00080914B038C1798F0CD9F600D711D1124F3
:1017D0006034710554F44D9F402D11244F5F80916A
:1017E000480321E090E00E940309CF5FE4CF10E0BE
:1017F0008AE0F82E80914B031817D0F51F9DE00169
:10180000112400E040914A0380914903282F30E0E1
:101810008091480390E0041748F50F9D800D911DBD
:101820001124029690935E0780935D0790935C0766
:1018300080935B07CE01820F931F029690936007FF
:1018400080935F07E02F149FE00D112480914C03DB
:1018500090914D03E80FF92FF11D84910E947504BA
:10186000009711F00E94030B0F5FCCCF1F5FC2CF18
:1018700080914E0360914A030E94EB2660914903D8
:10188000CAE08C9F90011124620F732F711D80910B
:1018900048039C9FF001112400E02BE04BE08E0FE9
:1018A0009F2F911D0E948B0980914E0360914A03E6
:1018B0000E94EB26609149038C9F90011124620FD6
:1018C000732F711D61507109809148039C9FE00145
:1018D00011248C0F9D2F911D01E02DE04DE001970B
:1018E0000E948B09DF91CF911F910F91FF90089576
:1018F000CF92DF92EF92FF920F931F93CF936B01E2
:101900007C01C42F10924E0344E050E06EE576E077
:101910008AE493E00E948B1F10924F03809147034B
:10192000882339F08150E82FF0E0E95DFC4F108208
:10193000F7CF1092470307E213E02C2F40E0C701D6
:10194000B6010E94101E809147038F5F21E0280F8F
:10195000E82FF0E0E95DFC4F9081911133C0809356
:10196000470380914F0381112FC00E947B0388237E
:10197000C1F380916A0780936B070E94FB088093F4
:101980006A070E949C050E94FB040E94B90B2091EB
:1019900049032850330B8091480390E002969093BE
:1019A0005E0780935D0790935C0780935B0730939D
:1019B000600720935F0787E293E00E94030B0E9479
:1019C0006D03CFCF822FC2CF87E293E0CF911F91DB
:1019D0000F91FF90EF90DF90CF900C947E1F4F926D
:1019E0005F926F927F928F929F92AF92BF92CF92AF
:1019F000DF92EF92FF920F931F93CF936B017C01C5
:101A0000742EAC019B010E94AB25882399F086EAD5
:101A100091E0CF911F910F91FF90EF90DF90CF90C9
:101A2000BF90AF909F908F907F906F905F904F90FE
:101A30000C94030B46015701E894B7F82FEF3FEFE2
:101A40004FE75FE7C501B4010E94AB2581110DC0CE
:101A50002FEF3FEF4FE75FE7C501B4010E94AC1FD6
:101A600018161CF48AEA91E0D4CF2FEF3FEF4FE72E
:101A70005FE4C701B6010E944E2518161CF48EEAD9
:101A800091E0C7CF2FEF3FEF4FE75FECC701B60103
:101A90000E94AC1F87FDF3CF20E030E0A901C70111
:101AA000B6010E94AC1F10E000E087FF08C08DE285
:101AB0000E94FA0A8C01F7FAF094F7F8F094C0E06B
:101AC00060E070E080E09FE37C1641F020E030E0D1
:101AD00040E251E40E940524CF5FF6CFA7019601B2
:101AE0000E9494232B013C010E947E244B015C0147
:101AF0004AE00E94750B7C01E00EF11ECC23B1F18F
:101B0000C501B4010E94B11F9B01AC01C301B20128
:101B10000E9493234B015C018EE20E94FA0AE80EB8
:101B2000F91EC15018F120E030E040E251E4C50157
:101B3000B4010E9412202B013C010E947E244B0123
:101B4000B12CA12C4AE0C501B4010E94750BE80E2E
:101B5000F91EC501B4010E94B11F9B01AC01C30174
:101B6000B2010E9493234B015C01DBCFC701CF91EF
:101B70001F910F91FF90EF90DF90CF90BF90AF90AB
:101B80009F908F907F906F905F904F900895CF932C
:101B9000DF930E94EF0CEC0183EA91E00E94030BBB
:101BA0008C0F9D1FDF91CF9108951F93CF93DF93EB
:101BB000EC01162F81EA94E0662359F070E08881E9
:101BC00099810E944A2899838883892B21F48AE984
:101BD00094E00E9493141A83DF91CF911F9108958E
:101BE000CF93FC019381911104C084E694E00E949C
:101BF0009314A081B18191509383A90FB11DCC9111
:101C0000992351F06281862F86958695891720F059
:101C10006695CF010E94D50D8C2FCF9108951F930B
:101C2000CF93DF93EC01162F6A818B81681304C078
:101C3000660FCE010E94D50D88819981EB8121E04C
:101C40002E0F2B83E80FF92FF11D1083DF91CF9119
:101C50001F9108951F93CF93DF93EC01162F82E815
:101C600094E0662371F084E0689FB00111248881BC
:101C700099810E944A2899838883892B21F48BE7D4
:101C800094E00E9493141A83DF91CF911F910895DD
:101C9000CF92DF92EF92FF92FC019381911104C0E9
:101CA00085E394E00E949314A081B18191509383C5
:101CB00084E0989F90011124A20FB31FCD90DD9076
:101CC000ED90FC90992351F06281862F8695869540
:101CD000891720F06695CF010E942A0EC701B60130
:101CE000FF90EF90DF90CF900895CF92DF92EF9228
:101CF000FF92CF93DF93EC016A017B016A818B81B4
:101D0000681304C0660FCE010E942A0E2881398113
:101D10009B8181E0890F8B8344E0949FC001112453
:101D2000820F931FFC01C082D182E282F382DF9195
:101D3000CF91FF90EF90DF90CF9008952F923F9238
:101D40004F925F926F927F928F929F92AF92BF92CB
:101D5000CF92DF92EF92FF920F931F93CF93DF9377
:101D600000D000D000D01F92CDB7DEB77C016B0150
:101D7000312C3394F601E30DF11D80818111F9CFEF
:101D80001C8282E090E00E9425279A83898382E06A
:101D90008B83412C512C00E09FEF431408F047C186
:101DA000842C912C5601A80CB91CF50180818B3232
:101DB00089F19CF4883209F46AC13CF4882341F12A
:101DC00016E6853239F010E04BC18932F9F013E69E
:101DD0008A32C9F7903668F425C08E3509F46AC195
:101DE0005CF48D3209F439C18F3269F714E690360C
:101DF000A8F0913FF9F412C0833709F443C1883742
:101E000009F42DC18336F9F611E83DC111EFE2CF97
:101E10001FEFE0CF11E6903608F03DC180E8810F5A
:101E2000803718F0103F09F039C163E6CE01019602
:101E30000E940F0E111132C122242394200EF701AB
:101E4000E00FF11D508201E0050DBE016B5F7F4F79
:101E5000C5010E942E1EE52DF0E07096EE0FFF1FCB
:101E6000EE0FFF1FEE0DFF1D60837183828393834E
:101E70008D819E818C199D098816990619F044243C
:101E80004A94480E152D502ECEC0A0EA9A2E910EDF
:101E9000FFE1F91508F485C08C81882309F403C19A
:101EA000CE0101960E94580B972D762C692EA92CF5
:101EB000B12C90E8980F903708F450C0E0EAE80F92
:101EC000E03208F062C0E730F8F4F0E0E659F04F95
:101ED0000C940B273F10820F820F3C103C10710FA7
:101EE0003C10F4E06F2EF6E0F915F8F0F501E55836
:101EF000F04F0C940B27A30FC20FC20F930F930F39
:101F0000A00F930FE2E06E2E96E0991570F0F501A8
:101F1000E457F04F0C940B27A30FA60FA60F930FB7
:101F2000930FA00F930F73E0772E7614B8F076100E
:101F30002CC0853671F168F4803668F01F820EC0BF
:101F400064E0762EF2CF55E0752EEFCF42E0742E8E
:101F5000ECCF863699F3EF81E111A5C088248394F4
:101F6000800ECE0101960E94F00DF701E00FF11DE9
:101F700080838C81882381F0CE0101960E94580BCA
:101F8000082D97CF32E0732EE9CF862D672C782E5F
:101F90008AC0F1E0FF8387C0862D672C782E082D3C
:101FA00082C0103F11F460EF7FC0113FA9F58C8112
:101FB00081111FC011E089819A810E94C127812F60
:101FC00027960FB6F894DEBF0FBECDBFDF91CF913D
:101FD0001F910F91FF90EF90DF90CF90BF90AF9047
:101FE0009F908F907F906F905F904F903F902F9039
:101FF0000895CE0101960E94580B803FC1F1BB2489
:10200000B394B00ECE0101960E94F00DF701E00FDF
:10201000F11D80830B2DCBCF22242394200EF701BA
:10202000E00FF11D10834394022D912FB6CE8C81C9
:102030006701C00ED11C882359F0CE0101960E9481
:10204000F00DF6018083803F09F4B4CF0F5FEFCF2E
:102050008FEFF601808310E0AECF12E6BBCE10E426
:10206000903608F4E2CE913F09F4DFCEE3CECE0104
:1020700001960E94F00D1CC023E0622E34CF95E043
:10208000692E31CF10E8903608F0B3CECECE10EFE7
:10209000903608F4CACE913F09F4C0CE80E8810F93
:1020A000803708F0F2CE612FCE0101960E940F0E0C
:1020B000202EB9CF15E68ECE2F923F924F925F928F
:1020C0006F927F928F929F92AF92BF92CF92DF9248
:1020D000EF92FF920F931F93CF93DF9300D000D026
:1020E0001F92CDB7DEB77C014A015B0169011C82FA
:1020F00088E090E00E9425279A83898382E08B8381
:102100008701170120E4220E311CD801ED918D01C9
:10211000E03488F4F0E07096EE0FFF1FEE0FFF1F23
:10212000EE0DFF1D4081518162817381CE010196C8
:102130000E94750E8EC080EA8E0F803208F07CC03F
:10214000E036D1F010F0E736D0F09C81FD819F178A
:1021500008F4C9C0873008F07CC0E82FF0E0EB54E9
:10216000FF4ECE0101960C940B271611C210D3100E
:10217000E010EF10FC100911B1E0BD83E6CFE2E002
:10218000ED83E3CF0E94480E2B013C01CE01019666
:102190000E94480E9B01AC01C301B2010E9494232E
:1021A000AB01BC01C3CF0E94480E2B013C01CE0104
:1021B00001960E94480EA30192010E949323F0CF42
:1021C0000E94480E2B013C01CE0101960E94480E50
:1021D0009B01AC01C301B2010E941220E1CF0E9419
:1021E000480E2B013C01CE0101960E94480EA3012E
:1021F00092010E940524D4CF0E94480E2B013C017D
:10220000CE0101960E94480EA30192010E9453251F
:10221000C7CF0E94480E2B013C01CE0101960E94BF
:10222000480EA30192010E94B824BACF0E94480E22
:10223000AB01BC0170587ACF80E88E0F803708F070
:1022400041C08C81882309F44EC0E03869F1E1383F
:1022500091F10215130509F058CF8C81811139C015
:10226000D6011D921D921D921C92139710E0898138
:102270009A810E94C127812F0F900F900F900F908D
:102280000F90DF91CF911F910F91FF90EF90DF9012
:10229000CF90BF90AF909F908F907F906F905F9006
:1022A0004F903F902F900895CE0101960E94480EC6
:1022B0000E94A32575CFCE0101960E94480E0E9470
:1022C00000246ECFEF3F49F2E03419F6B501A401C6
:1022D0002DCFCE0101960E94480EF60160837183D6
:1022E00082839383C3CF12E0C2CF1F920F920FB6A7
:1022F0000F9211248F939F938091E1009091E100C0
:10230000937F9093E10083FF0FC01092E90091E06A
:102310009093EB001092EC0092E39093ED001092FA
:10232000D20298E09093F00082FF22C093E0909355
:10233000E9009091F200992319F09AE39093E80054
:102340009091C302992341F09091C30291509093D0
:10235000C302911101C05D9A9091D102992341F07D
:102360009091D10291509093D102911101C0289A7D
:1023700084FF18C08091E2008E7E81608093E2002D
:102380008091E1008F7E8093E1008091C4028E7E77
:1023900080618093C4029F918F910F900FBE0F9028
:1023A0001F90189580FFF7CF8091E2008E7E8061AC
:1023B0008093E2008091E1008E7E8093E100809125
:1023C000C4028E7E8160E5CF1F920F920FB60F92EE
:1023D0001124CF92DF92EF92FF920F931F932F93CE
:1023E0003F934F935F936F937F938F939F93AF939D
:1023F000BF93EF93FF93CF93DF93CDB7DEB76C9787
:10240000DEBFCDBF1092E9008091E80083FF25C0B8
:1024100068E0CE0145960E94DC0782EF8093E800D9
:102420008D8987FF39C09091E80090FFFCCF982FED
:10243000907609F034C19E894F89588D2F89F88C88
:10244000911131C0803861F58091C2028093F10012
:102450001092F1008EEF8093E8006C960FB6F8941E
:10246000DEBF0FBECDBFDF91CF91FF91EF91BF9146
:10247000AF919F918F917F916F915F914F913F911C
:102480002F911F910F91FF90EF90DF90CF900F90C1
:102490000FBE0F901F9018959EEF9093E800C7CF46
:1024A0001092F100D5CF913059F48111D3CF413042
:1024B000510581F68091C2028D7F8093C202CACFFE
:1024C000933049F48111C6CF4130510519F68091FE
:1024D000C2028260F2CF953041F48091E80080FF23
:1024E000FCCF20682093E300B5CF963009F0A9C057
:1024F0000B8D1C8D22E01092E9001092C002109208
:10250000BF02F2122EC01092BE021092BD020E94B3
:10251000AB071F8299E09983FA8291E09E8390EA4B
:1025200098879AEF99872091BF023091C002275F68
:102530003F4F3C832B838D831092E9001092C002A1
:102540001092BF021093BE020093BD0249E050E01A
:10255000BE016F5F7F4F80E00E9485070E94AB073E
:1025600079CF1093BE020093BD020E94C206DC0127
:1025700012960D911C910115110509F451C1D80154
:10258000ED91FC910480F581E02DBE016B5E7F4FE3
:10259000C8010995009709F03EC1F8010085118531
:1025A000EACFF3E0FF120EC08F89882309F440C000
:1025B000823061F440E867E086E596E00E946014AE
:1025C000811148CF81E28093EB0047CF813029F41D
:1025D00040E86BE08AE496E0F1CF833099F70E94FF
:1025E000C206DC011296ED90FC908E010F5F1F4F2A
:1025F0006801E114F10479F0D701ED91FC910680B6
:10260000F781E02DB801C7010995080F111DF701E9
:10261000E084F184EECFD8011C92F60101900020F5
:10262000E9F73197BF016C197D0940E0C601C6CFBB
:1026300064E376E0FB01449150E080E80E94850766
:1026400009CF973009F4BECF983021F481E0809310
:10265000F10000CF993009F0FDCE837009F0B2CFC0
:10266000E9E4F1E081E031E096E32191222371F089
:102670008093E9003093EB00DF0111972C912093B8
:10268000EC009093ED008F5F873079F78EE78093B1
:10269000EA001092EA008F898093D202DBCE8B8D04
:1026A0009C8D1092E9001092C0021092BF0290938C
:1026B000BE028093BD02898D811192C08E899D8951
:1026C000913A49F4813209F07DCF47E050E068E269
:1026D00071E080E0B3CF913209F074CF833269F4B6
:1026E0008F89988DB0E0A0E080932401909325011C
:1026F000A0932601B0932701ADCE803269F480917A
:10270000E80082FFFCCF67E088E291E00E94DC07EE
:102710008BEF8093E8009ECE823209F09BCE8F89AA
:1027200080932F01EEEFFFE7859194918B3F9C4DB5
:1027300051F1E0E0F8E08091280190912901A09109
:102740002A01B0912B01803B9440A105B105F1F421
:1027500080912F0180FD1AC0EE3F8AE0F80789F5CD
:1027600087E797E791838083809160008093C1021F
:1027700088E19BE00FB6F894A895809360000FBEA7
:102780009093600067CEEEEFFAE0D5CF8081918123
:102790008737974709F05ECEA895809160008861E1
:1027A000809360008091C10280936000EE3F2AE038
:1027B000F20789F08091FE0A9091FF0A918380834D
:1027C00049CE808191818737980751F29093FF0A13
:1027D0008093FE0AC5CF1092FF0A1092FE0A3ACEED
:1027E0000E94C206DC0112960D911C910115110583
:1027F00009F4E8CED801ED91FC910190F081E02D33
:10280000BE016B5E7F4FC8010995811123CEF8018F
:1028100000851185EBCF181619060CF41BCED2CE0D
:10282000F1E0FF12BECE68E376E004CF1F920F9274
:102830000FB60F9211242F933F938F939F93AF93D3
:10284000BF938091D3029091D402A091D502B09110
:10285000D6023091B20123E0230F2D3758F50196AF
:10286000A11DB11D2093B2018093D3029093D40295
:10287000A093D502B093D6028091B3019091B40198
:10288000A091B501B091B6010196A11DB11D809333
:10289000B3019093B401A093B501B093B601BF9179
:1028A000AF919F918F913F912F910F900FBE0F90FD
:1028B0001F90189526E8230F0296A11DB11DD2CFB7
:1028C000EF92FF920F931F93CF93DF93F82E192F60
:1028D000E62E042F81E0860F880F0E94570783E0C1
:1028E0000E945707CF2DD12FEC0EFD2EF11CCE15D7
:1028F000DF05B9F007FF13C0FE0184910E9457075E
:10290000182F80E00E945707812321968111EFCF75
:10291000DF91CF911F910F91FF90EF9008958881E3
:10292000EDCF81E0F5CFBC0180E80E94100BFFCF16
:10293000E7EDF2E01382128288EE93E0A0E0B0E0CF
:1029400084839583A683B78383E591E09183808315
:102950008FEF9FEF95878487E5E6F7E01582168273
:1029600080E1878314821382118681E791E091834D
:102970008083E0E5F7E01382128285E691E091839F
:10298000808380E593E09683858380E890E090875C
:10299000878380E490E09287818787E0848B81E061
:1029A000838B16861586108A17861486138681E017
:1029B00090E0928B818B1482E7E2F3E08CE081A3BC
:1029C00082A310A60895CF93DF93CDB7DEB7CE587C
:1029D000D1090FB6F894DEBF0FBECDBF789484B591
:1029E000826084BD84B5816084BD85B5826085BD0B
:1029F00085B5816085BD80916E00816080936E0099
:102A0000109281008091810082608093810080918A
:102A1000810081608093810080918000816080933B
:102A2000800080919100826080939100809191005C
:102A300081608093910080919000816080939000EC
:102A40008091C10084608093C1008091C100826048
:102A50008093C1008091C10081608093C10080910A
:102A6000C30081608093C3008091C0008260809326
:102A7000C0008091C20081608093C20080917A0082
:102A8000846080937A0080917A00826080937A00DB
:102A900080917A00816080937A0080917A008068CA
:102AA00080937A001092D2021092C2021092C40255
:102AB0008091D70081608093D70080EA8093D8000E
:102AC00089B5806189BD89B5826089BD09B400FE80
:102AD000FDCF61E070E080E090E00E943C088091D2
:102AE000D8008F7C80618093D8008091E000807F47
:102AF0008093E0008091E1008E7E8093E1008DE084
:102B00008093E200559A209A81EC80937C0085B1F5
:102B1000806F85B984B1877E84B984B1876E84B9AA
:102B20005E9A5F988AB1806D8AB9769A6E9881B301
:102B3000806F81BB899880B38D7080BB80E58CBD30
:102B400081E08DBD85E090E00E94F6085F9A85E007
:102B500090E00E94F6085E985C98E9E6F5E086E76A
:102B600095E024912EBD00000DB407FEFDCF3196F7
:102B70008E179F07B1F75C9A81E88093640080917B
:102B800065008160809365000E946D030E94FB08D0
:102B900087FF15C05C9885EA8EBD00000DB407FE66
:102BA000FDCF5C9A2E982F982D98809164008062BA
:102BB0008093640081E083BF889513BEFCCF0E94A0
:102BC000FB0882FF48C02D980E94FB088478843857
:102BD000E1F40E94F40888EC90E00E94F6082F9837
:102BE00082E090E00E940A238F3F29F06FEF82E09D
:102BF00090E00E94122384EF91E00E94F6082F9A41
:102C00000E94FB0884788438D9F30E94FB08847101
:102C10008431E1F40E94F40888EC90E00E94F60808
:102C20002E9882E090E00E940A23882329F060E039
:102C300082E090E00E94122384EF91E00E94F60867
:102C40002E9A0E94FB0884718431D9F388EC90E0BD
:102C50000E94F608B4CF0E94F40882E090E00E943F
:102C60000A23882309F401C13E9A3F9A81E090E04B
:102C70000E940A23182F147081E090E00E940A231A
:102C800081FF0EC011112E98F0EFEF2EFF24FA9461
:102C90000E94FB0886FFECC02E9A2F9A0E94F4082F
:102CA00082E390E00E94F6080E94FB088111F8CFB1
:102CB00060E071E08DE392E00E949E0E72E4272EA8
:102CC000312CE2E66E2E712C0E947B03882309F4DE
:102CD0005EC580916A0780936B070E94FB08809312
:102CE0006A0780912301882309F4CFC1E0E5F3E06E
:102CF00085E59191DF01119798239C93809520E5BC
:102D000037E02E173F07A9F70E946D030E949C052C
:102D100080E8EDE3F2E0DE01119601900D928A95D4
:102D2000E1F71091410160E070E0CB010E94A9053C
:102D300021E0412F70E060E0082E000C990B0E940A
:102D4000620960E070E0CB010E941806682F880FCE
:102D5000770B6034710538F421E04091400190E038
:102D600080E00E94030920E030E0A9016091380171
:102D70007091390180913A0190913B010E94AC1F02
:102D800087FFADC020E030E0A90160913C01709167
:102D90003D0180913E0190913F010E944E25181601
:102DA0000CF09DC0C0903001D0903101E090320114
:102DB000F090330120E030E0A901C701B6010E9484
:102DC0004E2520E030E040E05FE387FD7EC0C70194
:102DD000B6010E9494230E9477240E94B31F6B01C6
:102DE0007C018090340190903501A0903601B09024
:102DF000370120E030E0A901C501B4010E944E2551
:102E000020E030E040E05FE387FD64C0C501B4012D
:102E10000E9494230E9477240E94B31F9B01AC015F
:102E2000C701B6010E94AC1F87FF59C060E070E087
:102E3000CB010E941806182FC701B6010E94A905F0
:102E4000612F110F770B6150710921E042E0082ECC
:102E5000000C990B0E94620920E030E040E85FE33B
:102E6000C701B6010E949423BACF3E983F98FECE88
:102E7000112331F024E0E216F10411F42E9A2F9878
:102E800081E00E945E0300E128E549EB54E0B701D0
:102E900084E190E00E94B0030E946D038FE090E017
:102EA0000E94F6083FEFE31AF30A89E1E816F104FD
:102EB00009F0EECE112311F02F9A2D9880E991E0C0
:102EC0000E94F6080E94F408EBCEC701B6010E94EA
:102ED000932381CFC501B4010E9493239BCF20E0AF
:102EE00030E0A9016091300170913101809132018F
:102EF000909133010E94AC1F87FF7EC020E030E03C
:102F0000A901609134017091350180913601909151
:102F100037010E944E2518160CF06EC0C090380183
:102F2000D0903901E0903A01F0903B0120E030E090
:102F3000A901C701B6010E944E2520E030E040E023
:102F40005FE387FD4FC0C701B6010E9494230E9432
:102F500077240E94B31F6B017C0180903C0190900C
:102F60003D01A0903E01B0903F0120E030E0A9017A
:102F7000C501B4010E944E2520E030E040E05FE34F
:102F800087FD35C0C501B4010E9494230E947724B7
:102F90000E94B31F9B01AC01C701B6010E94AC1F88
:102FA00087FF2AC0C701B6010E941806182F60E0EB
:102FB00070E0CB010E94A905612F110F770B6034DF
:102FC000710538F421E042E0082E000C990B0E94B4
:102FD000030920E030E040E85FE3C701B6010E944A
:102FE0009423B9CFC701B6010E949323B0CFC50186
:102FF000B4010E949323CACF609140016150770BC6
:10300000072E000C880B990B0E94B31F9B01AC018B
:1030100060E070E0CB010E9405246B017C01AC01F3
:103020009B0160E070E080E89FE30E949323209181
:1030300030013091310140913201509133010E94B1
:1030400012204B015C0120913401309135014091F7
:10305000360150913701C701B6010E9412209B0131
:10306000AC01C501B4010E949423AB01BC019E01D7
:103070002F573F4FCE0101960E945C10882309F420
:10308000B9C00E946A0B10922301309122013323B0
:1030900019F081E080932101809120018111CCC140
:1030A0000E949C0580E80E947003882339F080917B
:1030B0003C02882319F0815080933C0280E10E94F9
:1030C0007003882329F080913C028F5F80933C023B
:1030D00080E20E947003811110923B0280E40E9402
:1030E0007003882319F081E080933B0288E00E94FE
:1030F00070038823E9F000913C0210E080913B02CC
:10310000882309F481C1035C1D4FF801608170E0E0
:1031100090E080E00E94B11F40E00E94780C009196
:103120003C0210E0035C1D4F0E947E24F801608386
:1031300084E00E947003882339F081E080932301AA
:1031400080932101809320014DE7E42E42E0F42E8C
:103150000DE312E0D12CC12C10925E0710925D0796
:1031600010925C0710925B07D0926007C0925F07D5
:10317000F70161917191819191917F0142E00E94EB
:10318000EF0C20E430E030935E0720935D0730932E
:103190005C0720935B07D0926007C0925F07F8013D
:1031A00061918F0170E090E080E040E10E94750B3A
:1031B000F7E0CF0ED11C28E3C216D10469F6809146
:1031C0003C0237E0839FC0011124E0E2F0E0F0937D
:1031D0005E07E0935D07F0935C07E0935B079093D5
:1031E000600780935F0780913B02882309F420C128
:1031F0008EE31FC1CF57DF4F688179818A819B8120
:10320000C158D0400E941806482E31E0CB57DF4FFE
:103210003883C558D04010914001CB57DF4F88818B
:10322000C558D040811708F02ECF682F880F770B34
:10323000880B990B0E94B31F6B017C01E12FE150B9
:10324000FF0BBF01072E000C880B990B0E94B31FC8
:103250009B01AC01C701B6010E9405246B017C01F2
:10326000AC019B0160E070E080E89FE30E94932343
:103270002091300130913101409132015091330160
:103280000E9412204B015C012091340130913501E4
:103290004091360150913701C701B6010E941220BA
:1032A0009B01AC01C501B4010E949423AB01BC0198
:1032B0009E012F573F4FCE0101960E945C10CF57C1
:1032C000DF4F688179818A819B81C158D0400E94FB
:1032D0001806C857DF4F8883C858D040082F880F7A
:1032E000110BCB57DF4FF881C558D040EF2EF12C92
:1032F000042C000C5508C70101975801A418B50803
:10330000B7FE03C0B194A194B10822E0A216B104A3
:1033100054F4302F212F8701E32EF22E342D252D4A
:103320002C01832F922F0415150554F03E2D2F2DBF
:103330007C01832F922F302F212F8201432E522E7A
:103340004201801A910AFC01EE19FF09CA57DF4FAA
:10335000F983E883C658D040F7FF09C0F195E1959D
:10336000F109CA57DF4FF983E883C658D04064019A
:1033700097FE03C0FFEFCF1ADF0AD594C794E81673
:10338000F9067CF581E0282F880F330BC357DF4FF8
:1033900039832883CD58D0404016510624F141E0AE
:1033A000B801C70132E0A316B10414F4B701C80193
:1033B0000E944409CA57DF4F88819981C658D0407E
:1033C000C81AD90AD7FE0AC0C357DF4FE881F9816E
:1033D000CD58D040EE0EFF1EC80CD91C0F5F1F4FFA
:1033E000DBCF8FEFD0CFCB57DF4FF881C558D04020
:1033F000FF5FCB57DF4FF883C558D040C857DF4F2A
:103400004880C858D04007CF000F111F000F111F70
:1034100003581D4FF801608171818281938143E0DF
:103420000E94780CF801608371838283938380CE3D
:103430008CE30E94FA0AA9C1813009F0BBC190E077
:1034400080E0FC01E057FC4F20E011922F5F203418
:10345000E1F780589F4F8115F4E09F0791F780E8CE
:103460000E947003882339F080913C02823018F06A
:10347000825080933C0280E10E947003882339F0DF
:1034800080913C02843018F48E5F80933C0280E28D
:103490000E947003882339F080913C02882319F040
:1034A000815080933C0280E40E947003882339F0AD
:1034B00080913C02863018F48F5F80933C0288E054
:1034C0000E947003882391F080913C02813009F4BE
:1034D0006AC108F464C1843009F467C1863009F414
:1034E00066C181E08093210110923C02809121010C
:1034F000882309F44AC121E04FE370E060E081E4F1
:1035000090E00E94030921E040E461E070E080E483
:1035100090E00E94030921E04FE36FE370E081E453
:1035200090E00E94030921E04DE362E070E080E456
:1035300090E00E94620921E04DE362E070E080E6E5
:1035400090E00E94620902E010E021E040E4B8014E
:1035500080E490E00E9403090C5E1F4F02351105C4
:10356000A1F730925E0720925D0730925C072092AF
:103570005B0704E010E01093600700935F0789EE9B
:1035800095E00E94DF0A70925E0760925D0770927C
:103590005C0760925B071093600700935F0782EE01
:1035A00095E00E94DF0A30925E0720925D0730921C
:1035B0005C0720925B0728E130E03093600720939E
:1035C0005F0787ED95E00E94DF0A70925E076092C8
:1035D0005D0770925C0760925B0788E190E09093D2
:1035E000600780935F078CEC95E00E94DF0A3092C1
:1035F0005E0720925D0730925C0720925B07ECE249
:10360000F0E0F0936007E0935F0785EC95E00E949F
:10361000DF0A70925E0760925D0770925C076092AD
:103620005B072CE230E03093600720935F078AEB62
:1036300095E00E94DF0AF12CE12C8E2D9EEF9E0D6D
:10364000923070F1853061F1A70123E0440F551FDE
:103650002A95E1F74A585A4F6E2D669534E1639FDB
:10366000B0011124635F7F4F8170C757DF4F88839C
:10367000C958D040C657DF4F1882CA58D040C757E4
:10368000DF4F88819981C958D04035E0880F991F54
:103690003A95E1F708E028E0895A9F4F0E94B0036D
:1036A0008FEFE81AF80A96E0E916F10431F68091F6
:1036B0003C02E82EE694E4E1EE9E700111246701DD
:1036C000F2E0CF0ED11C8170C557DF4F8883CB58F5
:1036D000D040C457DF4F1882CC58D040C557DF4F79
:1036E00008811981CB58D04095E0000F111F9A95A1
:1036F000E1F70F5B1F4F20E4C216D10434F420E041
:103700004FE1B601C8010E940309B7016A5E7F4F0D
:10371000603471052CF420E04FE1C8010E940309D8
:10372000B7016F5F7F4F603471052CF421E040E2F8
:10373000C8010E940309B701695E7F4F60347105BB
:103740002CF421E040E2C8010E94030934E1E30EB9
:10375000F11CB12C83E0A82E4A2D4B1921E0B701B2
:10376000C8010E946209B39421E04B2DB601C80143
:103770004C960E9462090F5F1F4F8FEFE81AF80AFC
:1037800093E0B912E9CF109221010E946D0320E06D
:1037900030E0232B09F498CA0E94000095CA82E009
:1037A000809320019ECE83E0FBCF86E0F9CF10927C
:1037B000200197CE823009F084C090E080E0FC01C7
:1037C000E057FC4F20E011922F5F2034E1F7805842
:1037D0009F4F8115E4E09E0791F73323B1F18CE40C
:1037E000809348038CE08093490381E080934E03EB
:1037F00044E050E062E676E08AE493E00E948B1FAA
:1038000010924F0380914703882339F08150E82FAD
:10381000F0E0E95DFC4F1082F7CF1092470360E0C3
:1038200071E087E293E00E941029809147038F5F47
:1038300021E0280FE82FF0E0E95DFC4F9081911125
:1038400038C080934703109222010E94FB048091AC
:103850004F038823A9F067E273E08DE392E00E94B2
:103860009E0E811128C067E273E080E091E00E9423
:10387000102981E08093230180932201809320010D
:1038800020E430E030935E0720935D0730935C07BF
:1038900020935B071092600710925F0787E293E026
:1038A0000E94030B83EA91E00E94030B0E94B90B74
:1038B0006CCF822FBDCF0E946A0B81E080932201E2
:1038C000DFCF833009F0FBC000E410E020E040E4EB
:1038D00070E060E0C8010E9462090F5F1F4F00386E
:1038E0001105A1F780E80E947003882339F08091C8
:1038F0003C02882319F0815080933C0280E10E94B1
:103900007003882339F080913C02833018F48F5F74
:1039100080933C0288E00E947003882381F08091AC
:103920003C02813009F48FC008F479C0823009F478
:103930009EC0833009F4AFC081E08093230184E00E
:103940000E947003882339F081E0809321018093E5
:10395000200110923C0288E490E090935E078093EF
:103960005D0790935C0780935B0784E090E0909301
:10397000600780935F0785EB95E00E94DF0A609106
:10398000300170913101809132019091330143E017
:1039900050E00E94C70D80EB95E00E94DF0A609125
:1039A000340170913501809136019091370143E0E7
:1039B00050E00E94C70D8BEA95E00E94DF0A6091FB
:1039C00038017091390180913A0190913B0143E0B7
:1039D00050E00E94C70D86EA95E00E94DF0A6091E0
:1039E0003C0170913D0180913E0190913F0143E087
:1039F00050E00E94C70D80913C02E7E08E9FC0011D
:103A00001124049630925E0720925D0730925C0785
:103A100020925B079093600780935F07E9CB6091EA
:103A2000300170913101809132019091330143E076
:103A30000E94780C609330017093310180933201C1
:103A40009093330179CF6091340170913501809169
:103A500036019091370143E00E94780C6093340165
:103A600070933501809336019093370165CF609153
:103A700038017091390180913A0190913B0143E006
:103A80000E94780C609338017093390180933A0159
:103A900090933B0151CF60913C0170913D01809129
:103AA0003E0190913F0143E00E94780C60933C01FD
:103AB00070933D0180933E0190933F013DCF843050
:103AC00009F463CE863009F071C081E080934E0323
:103AD00044E050E062E676E08AE493E00E948B1FC7
:103AE00010924F0380914703811133C01092470316
:103AF00080914F03811134C00E947B038823C1F35E
:103B000080916A0780936B070E94FB0880936A0785
:103B10000E949C050E94FB040E94B90B209149035E
:103B20002850330B8091480390E0029690935E07F3
:103B300080935D0790935C0780935B0730936007E9
:103B400020935F0787E293E00E94030B0E946D03BE
:103B5000CFCF8150E82FF0E0E95DFC4F1082C4CF59
:103B6000809147038823D1F067E273E08BEB91E00B
:103B70000E949E0E81110FC027EB31E040E050E023
:103B8000BA018BEB91E00E945C10811104C08CE3C0
:103B900080932001FACD0E946A0BF7CD81E08093DB
:103BA00020018093230180932201EFCD8C3309F013
:103BB000ECCD0E949C0588E00E947003882319F0D8
:103BC00086E08093200184E00E947003882339F00E
:103BD00081E0809320018093230180932201109241
:103BE0005E0710925D0710925C0710925B071092BF
:103BF000600710925F0787E293E00E94030B83EA5D
:103C000091E00E94030B6091B7017091B80180911F
:103C1000B9019091BA0142E050E00E94C70DB5CDC4
:103C2000EF920F931F93CF93DF93E80134E047FDAA
:103C300034E1042E000C550B57FF03C051954195FC
:103C40005109E32E022F242FAE010E947F20CE01C6
:103C5000DF91CF911F910F91EF900895B0E0A0E018
:103C6000E4E3FEE10C9431235C017B0161157105F5
:103C700019F0DB018D939C9385010F5F1F4FF501B8
:103C8000D0818D2F90E00E94821F6C01892BB9F5A5
:103C9000DD32B9F50F5F1F4FD5011196DC91C1E000
:103CA0005801F1E0AF1AB10843E050E064E571E07B
:103CB000C5010E94941F892B69F5680182E0C80E36
:103CC000D11C45E050E06FE471E0C6010E94941FF2
:103CD000892B21F4680197E0C90ED11CE114F1048D
:103CE00019F0D701CD92DC9260E070E080E89FEFA0
:103CF000C111FFC060E070E080E89FE7FAC05801A2
:103D0000BBCFDB3229F485010E5F1F4FF501D18156
:103D1000C0E0C6CF43E050E06CE471E0C5010E9412
:103D2000941F892BE9F0F80110E000E020E030E07A
:103D3000A9015F01B0ED8B2E8D0E89E08815C8F1C9
:103D40009C2E689491F88C2F8870C2FF16C0811148
:103D500002C00F5F1F4F3196D501DC91C92DE9CF0D
:103D6000E114F10429F00E5F1F4FF7011183008366
:103D700060E070E080EC9FE7BCC0882311F0015048
:103D80001109A5E0B0E00E9420239B01AC01220FA5
:103D9000331F441F551F280D311D411D511D28394A
:103DA00099E93907490799E15907A8F2C6609C2E9D
:103DB000D2CFAEEF8A1206C0C3FD3CC09C2E6894E1
:103DC00093F8C9CFDF7DD534A9F580818D3239F4E0
:103DD000C061DF011296818162E070E006C0DF0100
:103DE0008B32C1F3119661E070E080535D01A61A39
:103DF000B70A8A30F8F4E0E8CE16ECE0DE065CF4B0
:103E0000B601660F771F660F771FC60ED71ECC0C44
:103E1000DD1CC80ED11C5D01FFEFAF1ABF0A8C91EB
:103E200080538A30A8F1C4FF03C0D194C194D10853
:103E30000C0D1D1DC1FF09C0E114F10431F081E03A
:103E4000A81AB108D701AD92BC92CA01B9010E946B
:103E5000B11FC370C33009F490584B015C0120E0DE
:103E600030E0A9010E94AC1F882309F440C0C3E8D8
:103E7000D1E017FF05C0119501951109CBE6D1E0FE
:103E80006E01B8E1CB1AD10880E2E82EF12C0FC008
:103E9000D501B1CFFE0125913591459154910E196F
:103EA0001F09C501B4010E9412204B015C01D5011C
:103EB000C4010E151F0574F72497F594E794CC16EA
:103EC000DD06A9F78A2F880F8B2F881F8F3F49F0B7
:103ED00020E030E0A901C501B4010E94AC1F8111AE
:103EE00006C082E290E09093710780937007C5014D
:103EF000B401CDB7DEB7ECE00C944D2366277727ED
:103F00000C942E1E91110C94B622803219F0895017
:103F10008550C8F70895FB01DC0102C005900D92A1
:103F200041505040D8F70895FB01DC01415050400A
:103F300088F08D9181341CF08B350CF4805E659196
:103F400061341CF06B350CF4605E861B611171F3FB
:103F5000990B0895881BFCCF0E94EE1F08F481E0A6
:103F60000895E89409C097FB3EF49095809570956C
:103F700061957F4F8F4F9F4F9923A9F0F92F96E9B5
:103F8000BB279395F695879577956795B795F1112A
:103F9000F8CFFAF4BB0F11F460FF1BC06F5F7F4FC7
:103FA0008F4F9F4F16C0882311F096E911C07723D9
:103FB00021F09EE8872F762F05C0662371F096E8E2
:103FC000862F70E060E02AF09A95660F771F881FB1
:103FD000DAF7880F9695879597F90895990F000855
:103FE000550FAA0BE0E8FEEF16161706E807F907CB
:103FF000C0F012161306E407F50798F0621B730B66
:10400000840B950B39F40A2661F0232B242B252BE6
:1040100021F408950A2609F4A140A6958FEF811D89
:10402000811D08950E9425200C94D0220E94C22256
:1040300038F00E94C92220F0952311F00C94B92287
:104040000C94BF2211240C9404230E94E12270F3EB
:10405000959FC1F3950F50E0551F629FF001729F2D
:10406000BB27F00DB11D639FAA27F00DB11DAA1F3C
:10407000649F6627B00DA11D661F829F2227B00D89
:10408000A11D621F739FB00DA11D621F839FA00D14
:10409000611D221F749F3327A00D611D231F849F64
:1040A000600D211D822F762F6A2F11249F575040BB
:1040B0009AF0F1F088234AF0EE0FFF1FBB1F661F36
:1040C000771F881F91505040A9F79E3F510580F0FF
:1040D0000C94B9220C9404235F3FE4F3983ED4F38C
:1040E000869577956795B795F795E7959F5FC1F7A3
:1040F000FE2B880F911D9695879597F90895A9E055
:10410000B0E0E5E8F0E20C9431236A01F22EB02E23
:10411000102FFBE3AF2EA01608F41BE31F5F012F47
:1041200027E0AE014F5F5F4F0E94DE21BC01898115
:10413000982F9970913009F43FC09BE2E1FC04C0D4
:104140009E2D9170E0FC3AC05E2D5071E82FE87012
:1041500083FF46C084E0911101C083E0EF2DE81B8E
:104160008F1508F0E0E0D6018E2F20E2552351F1A3
:10417000992329F0D6019C93C60101966C01960102
:104180002D5F3F4FE2FE24C08EE4D6018C9391E474
:1041900011969C93119712968C93D9018E2F90E2D1
:1041A00081111BC0E20FF32FF11D10828EEF9FEFE4
:1041B0002996ECE00C944D239DE2C6CF90E2C4CF4B
:1041C0002D9381508111FCCFCE0ED11CE0E0D0CFD9
:1041D0008EE6D6018C9391E6DBCF9D938150E0CFA4
:1041E000482F447082FF3DC084E0911101C083E0FC
:1041F0008F1510F4EF2DE81BD6018E2F20E25523EA
:1042000009F1992329F0D6019C93C60101966C010E
:1042100096012D5F3F4FE2FE1BC089E4D6018C93CF
:104220008EE411968C93119786E412968C93D901A3
:104230008E2F90E2882309F4B5CF9D938150FACF59
:104240002D9381508111FCCFCE0ED11CE0E0D9CF4F
:1042500089E6D6018C938EE611968C93119786E6AB
:10426000E4CF9B0177FF02C030E020E0A1E0B0E0A6
:10427000911102C0B0E0A0E0F9013196AE0FBF1F6E
:104280008B2C912CBB2009F461C05401EFEFAE1AC6
:10429000BE0AAA0DBB1DFA161B0619F014F04F2D0D
:1042A0004A1B511188C0E3FC59C07601A42FB0E22B
:1042B000A1114FC0C40ED11C992309F45BC040E08A
:1042C000D6011196F60190836D01552309F448C07B
:1042D000012F060F9A81582F507184FF03C091332C
:1042E00009F4015010160CF047C0093008F008E03E
:1042F000EEE2FE2E5B01A01AB10885019194819433
:1043000091082F3F320729F4D601FC92F60131962D
:104310006F016217730794F1021713077CF5DB0135
:10432000A21BB30BAA24A394B12CAC0EBD1EAA0DE4
:10433000BB1D11968C9121503109D601119628157B
:104340003905F4F0F60180836D01DBCFB12CA12C8F
:10435000A0CFF701B1937F01A150AACF9111B0CFA7
:10436000D601942F50E302C05D9391509111FCCF80
:10437000C40ED11C40E0ACCF01E0BACF80E3DBCF6C
:104380006217730731F4963388F4953311F455238B
:1043900069F0F6018083FD01842F90E2811108C04D
:1043A000A40FB11D1C9290E080E002CF81E3F1CF19
:1043B00091938150F3CF911183CF8ACF283008F0A9
:1043C00027E03327DA01990F311D87FD91600096B0
:1043D0006105710539F432602E5F3D9330E32A9513
:1043E000E1F708959F3F30F080387105610509F0CD
:1043F0003C5F3C5F3D93913008F08068911DDF93F6
:10440000CF931F930F93FF92EF92192F987F96955A
:10441000E92F96959695E90FFF27EF51FE4F9927C3
:104420003327EE24FF24A701E701059008940794A1
:1044300028F4360FE71EF81E491F511D660F771F1F
:10444000881F991F0694A1F70590079428F4E70E9A
:10445000F81E491F561FC11D770F881F991F661F21
:104460000694A1F70590079428F4F80E491F561FEB
:10447000C71FD11D880F991F661F771F0694A1F7CC
:104480000590079420F4490F561FC71FD81F990F96
:10449000661F771F881F0694A9F7849110951770DF
:1044A00041F0D695C79557954795F794E7941A9597
:1044B000C1F7E7E8F1E068941590159135916591A1
:1044C000959105907FE27395E118F10A430B560B25
:1044D000C90BD009C0F7E10CF11E431F561FC91FBD
:1044E000D01D7EF4703311F48A95E6CFE894015024
:1044F00030F0080F0AF40027021708F4202F239544
:10450000022F7A3328F079E37D932A95E9F710C0DA
:104510007D932A9589F60694979567953795179513
:104520001794E118F10A430B560BC90BD00998F008
:1045300023957E9173957A3308F070E37C93201372
:10454000B8F77E9170617D9330F0839571E37D9330
:1045500070E32A95E1F71124EF90FF900F911F91DE
:10456000CF91DF91992787FD909508959927882706
:10457000089597F99F6780E870E060E008959FEFE5
:1045800080EC089500240A941616170618060906EA
:10459000089500240A9412161306140605060895B9
:1045A000092E0394000C11F4882352F0BB0F40F441
:1045B000BF2B11F460FF04C06F5F7F4F8F4F9F4F81
:1045C000089557FD9058440F551F59F05F3F71F003
:1045D0004795880F97FB991F61F09F3F79F087956A
:1045E0000895121613061406551FF2CF4695F1DFF3
:1045F00008C0161617061806991FF1CF8695710583
:10460000610508940895E894BB2766277727CB01B6
:1046100097F90895F999FECF92BD81BDF89A99272F
:1046200080B50895262FF999FECF1FBA92BD81BD9E
:1046300020BD0FB6F894FA9AF99A0FBE0196089524
:104640000E948423A59F900DB49F900DA49F800D80
:10465000911D112408952F923F924F925F926F9275
:104660007F928F929F92AF92BF92CF92DF92EF9202
:10467000FF920F931F93CF93DF93CDB7DEB7CA1B83
:10468000DB0B0FB6F894DEBF0FBECDBF09942A88AE
:10469000398848885F846E847D848C849B84AA8456
:1046A000B984C884DF80EE80FD800C811B81AA81E3
:1046B000B981CE0FD11D0FB6F894DEBF0FBECDBFAE
:1046C000ED010895A1E21A2EAA1BBB1BFD010DC02E
:1046D000AA1FBB1FEE1FFF1FA217B307E407F507B2
:1046E00020F0A21BB30BE40BF50B661F771F881F8E
:1046F000991F1A9469F760957095809590959B0124
:10470000AC01BD01CF010895A29FB001B39FC001CC
:10471000A39F700D811D1124911DB29F700D811DED
:104720001124911D08955058BB27AA270E94AB233E
:104730000C94D0220E94C22238F00E94C92220F09C
:1047400039F49F3F19F426F40C94BF220EF4E0953F
:10475000E7FB0C94B922E92F0E94E12258F3BA1723
:10476000620773078407950720F079F4A6F50C9487
:1047700003230EF4E0950B2EBA2FA02D0B01B901E7
:1047800090010C01CA01A0011124FF27591B99F0C7
:10479000593F50F4503E68F11A16F040A22F232FD3
:1047A000342F4427585FF3CF469537952795A79523
:1047B000F0405395C9F77EF41F16BA0B620B730BCA
:1047C000840BBAF09150A1F0FF0FBB1F661F771F3B
:1047D000881FC2F70EC0BA0F621F731F841F48F4F0
:1047E000879577956795B795F7959E3F08F0B0CF79
:1047F0009395880F08F09927EE0F97958795089560
:104800000E941125E3950C943A250E9419240C94DA
:10481000D0220E94C92258F00E94C22240F029F4FE
:104820005F3F29F00C94B92251110C9404230C948D
:10483000BF220E94E12268F39923B1F3552391F33B
:10484000951B550BBB27AA2762177307840738F0FF
:104850009F5F5F4F220F331F441FAA1FA9F335D05C
:104860000E2E3AF0E0E832D091505040E695001C10
:10487000CAF72BD0FE2F29D0660F771F881FBB1FCA
:10488000261737074807AB07B0E809F0BB0B802DA8
:10489000BF01FF2793585F4F3AF09E3F510578F0D4
:1048A0000C94B9220C9404235F3FE4F3983ED4F3B4
:1048B000869577956795B795F7959F5FC9F7880FA8
:1048C000911D9695879597F90895E1E0660F771FFA
:1048D000881FBB1F621773078407BA0720F0621B8B
:1048E000730B840BBA0BEE1F88F7E09508950E94B6
:1048F0007E246894B1110C94042308950E94E92247
:1049000088F09F5798F0B92F9927B751B0F0E1F090
:10491000660F771F881F991F1AF0BA95C9F714C040
:10492000B13091F00E940323B1E008950C94032369
:10493000672F782F8827B85F39F0B93FCCF3869579
:1049400077956795B395D9F73EF4909580957095D6
:1049500061957F4F8F4F9F4F08950E94C22220F094
:1049600019F00E94C92250F40C94BF220C94042325
:10497000E92F0E94E12288F35523B1F3E7FB621788
:10498000730784079507A8F189F3E92FFF27882388
:104990002AF03197660F771F881FDAF7952F552772
:1049A000442332F091505040220F331F441FD2F75E
:1049B000BB27E91BF50B621B730B840BB109B1F22A
:1049C00022F4620F731F841FB11D31972AF0660F06
:1049D000771F881FBB1FEFCF9150504062F041F00E
:1049E000882332F0660F771F881F91505040C1F71F
:1049F00093950C9401258695779567959F5FD9F7D8
:104A0000F7CF9F3F31F0915020F4879577956795C8
:104A1000B795880F911D9695879597F908950C94F1
:104A2000BF220E94E922D8F3E894E0E0BB279F5719
:104A3000F0F02AED3FE049EC06C0EE0FBB0F661F19
:104A4000771F881F28F0B23A62077307840728F09F
:104A5000B25A620B730B840BE3959A9572F7803808
:104A600030F49A95BB0F661F771F881FD2F79048C6
:104A70000C940325EF93E0FF07C0A2EA2AED3FE084
:104A800049EC5FEB0E94AB230E94D0220F9003946D
:104A900001FC9058ECEAF0E00C9411260E94EE1F05
:104AA00008F48FEF0895FA01EE0FFF1F30962105ED
:104AB0003105A1F16115710561F48038BFE39B07F1
:104AC00049F168949038810561F08038BFEF9B0709
:104AD00041F099234AF5FF3FE1053105210519F120
:104AE000E8940894E795D901AA2329F4AB2FBE2FA7
:104AF000F85FD0F310C0FF5F70F4A695E0F7F739C8
:104B000050F019F0FF3A38F49F779F930DD00F9033
:104B100007FC9058089546F00C94BF2260E070E0C6
:104B200080E89FE308954FE79F775F934F933F930C
:104B30002F930E946F262F913F914F915F910E947A
:104B400012200C94B8259F930E9411250F9007FC0A
:104B5000EE5F0C943A250E94EE1F880B990B089586
:104B600029F416F00C94B9220C9403230C94BF2260
:104B70000E94E922A8F39638A0F707F80F92E8946C
:104B80002BE33AEA48EB5FE70E9428200F920F924E
:104B90000F924DB75EB70F920E94B726EAECF0E095
:104BA0000E94EA254F915F91EF91FF91E595EE1FED
:104BB000FF1F49F0FE57E0684427EE0F441FFA95A7
:104BC000E1F74195550B0E9431260F9007FE0C949A
:104BD00025260895DF93CF931F930F93FF92EF92B3
:104BE000DF927B018C01689406C0DA2EEF010E94EF
:104BF0002520FE01E894A591259135914591559187
:104C0000A6F3EF010E94AB23FE019701A801DA94FD
:104C100069F7DF90EF90FF900F911F91CF91DF9197
:104C200008959F938F937F936F93FF93EF939B01CF
:104C3000AC010E941220EF91FF910E94EA252F9172
:104C40003F914F915F910C9412209B01AC0160E069
:104C500070E080E89FE30C9405240C94B9220C9436
:104C600001250E94E922D8F39923C9F3940F511D1D
:104C7000A3F39150504094F059F0882332F0660F1E
:104C8000771F881F91505040C1F79E3F51052CF768
:104C9000880F911D9695879597F908955F3FACF021
:104CA000983E9CF0BB27869577956795B79508F455
:104CB000B1609395C1F7BB0F58F711F460FFE8CFCF
:104CC0006F5F7F4F8F4F9F4FE3CF0C94042316F0FD
:104CD0000C9401250C94BF2268940C94B9220E9474
:104CE000E922A8F39923C1F3AEF3DF93CF931F9387
:104CF0000F93FF92C92FDD2788232AF02197660F93
:104D0000771F881FDAF720E030E040E85FEB9FE391
:104D1000883920F0803E38F021968F770E949423C6
:104D2000E2EFF0E004C00E949423EFE1F1E00E9482
:104D3000EA258B01BE01EC01FB2E6F5771097595B9
:104D4000771F880B990B0E94B31F28E132E741E3DC
:104D50005FE30E942520AF2D9801AE01FF900F91D7
:104D60001F91CF91DF910E94AB230C94D022FA01C6
:104D7000DC01AA0FBB1F9B01AC01BF5728F42227FF
:104D800033274427507820C0B75190F4AB2F00242C
:104D9000469537952795011CA395D2F3002071F015
:104DA000220F331F441FB395DAF30ED00C949323D4
:104DB00061307105A0E88A07B94630F49B01AC0167
:104DC0006627772788279078309621F020833183D3
:104DD000428353830895991B79E004C0991F961765
:104DE00008F0961B881F7A95C9F78095089597FB60
:104DF000072E16F4009407D077FD09D00E941127E2
:104E000007FC05D03EF4909581959F4F08957095CD
:104E100061957F4F0895EE0FFF1F0590F491E02DEF
:104E20000994AA1BBB1B51E107C0AA1FBB1FA617F1
:104E3000B70710F0A61BB70B881F991F5A95A9F743
:104E400080959095BC01CD0108950F931F93CF934A
:104E5000DF938230910510F482E090E0E0917407D6
:104E6000F091750730E020E0B0E0A0E0309799F4D1
:104E70002115310509F44AC0281B390B24303105AE
:104E8000D8F58A819B816115710589F1FB019383B6
:104E90008283FE0111C04081518102811381481734
:104EA0005907E0F04817590799F4109761F01296E6
:104EB0000C93129713961C933296CF01DF91CF91EA
:104EC0001F910F9108950093740710937507F4CF05
:104ED0002115310551F04217530738F0A901DB01C4
:104EE0009A01BD01DF01F801C1CFEF01F9CF909325
:104EF000750780937407CDCFFE01E20FF31F8193F6
:104F000091932250310939832883D7CF209172079A
:104F100030917307232B41F42091440130914501D6
:104F2000309373072093720720914201309143011F
:104F30002115310541F42DB73EB7409146015091FE
:104F40004701241B350BE0917207F0917307E217BC
:104F5000F307A0F42E1B3F0B2817390778F0AC019C
:104F60004E5F5F4F2417350748F04E0F5F1F509379
:104F7000730740937207819391939FCFF0E0E0E035
:104F80009CCFCF93DF930097E9F0FC013297138217
:104F90001282A0917407B0917507ED0130E020E016
:104FA0001097A1F420813181820F931F2091720705
:104FB000309173072817390709F061C0F093730720
:104FC000E0937207DF91CF910895EA01CE17DF07D2
:104FD000E8F54A815B819E0141155105B1F7E90170
:104FE000FB83EA8349915991C40FD51FEC17FD0744
:104FF00061F4808191810296840F951FE901998364
:105000008883828193819B838A83F0E0E0E012961B
:105010008D919C9113970097B9F52D913C91119723
:10502000CD010296820F931F209172073091730772
:105030002817390739F6309751F5109275071092F5
:105040007407B0937307A0937207BCCFD383C28356
:1050500040815181840F951FC817D90761F44E5FB5
:105060005F4F88819981480F591F518340838A81FE
:105070009B81938382832115310509F0B0CFF09392
:105080007507E09374079ECFFD01DC01C0CF13824A
:105090001282D7CFB0E0A0E0E0E5F8E20C942D2337
:1050A0008C01009751F4CB010E9425278C01C80187
:1050B000CDB7DEB7E0E10C944923FC01E60FF71F02
:1050C0009C0122503109E217F30708F49DC0D90171
:1050D000CD91DC911197C617D70798F0C530D1054F
:1050E00030F3CE0104978617970708F3C61BD70B3A
:1050F0002297C193D1936D937C93CF010E94C127D6
:10510000D6CF5B01AC1ABD0A4C018C0E9D1EA0913E
:105110007407B0917507512C412CF12CE12C10979C
:1051200031F580917207909173078815990509F000
:105130005CC04616570608F058C080914201909115
:105140004301009741F48DB79EB7409146015091BD
:105150004701841B950BE817F90708F055C0F09339
:105160007307E0937207F90171836083A0CF8D917B
:105170009C91119712966C90129713967C901397AE
:10518000A815B90559F56C0142E0C40ED11CCA142A
:10519000DB0420F1AC014A195B09DA01129615977C
:1051A00080F06282738251834083D9016D937C9336
:1051B000E114F10471F0D7011396FC93EE9312976A
:1051C00076CF22968C0F9D1FF90191838083F30186
:1051D000EFCFF0937507E093740769CF481659062F
:1051E00008F42C017D01D3019ACFCB010E94252721
:1051F0007C01009749F0AE01B8010E940729C8015F
:105200000E94C127870153CF10E000E050CFFB017F
:10521000DC0102C001900D9241505040D8F7089532
:10522000FB01DC0101900D920020E1F70895F89454
:02523000FFCFAE
:1052320035732878290000000000000000000000FB
:10524200000000000000000000000000000000005C
:1052520001010101FFFFFFFF00E10000000000006B
:10526200000020C100002041000020C100002041B8
:105272003F3F00007607800000C1808100000000EF
:10528200000000D6066F08F706EC063D07FB06197C
:1052920007000000002E0AEA07000BFF0A000000C8
:1052A20000E90730003100320033003400350036A7
:1052B200003700380039002E0029002B004F4B0028
:1052C2002A002F005E00250078007328003C2D0084
:1052D2003C3C000D0A006E616E00696E66006F76DE
:0252E200660064
:00000001FF
