:100000000C94E6020C940E030C940E030C940E0355
:100010000C940E030C940E030C940E030C940E031C
:100020000C940E030C940E030C94CB0E0C943A0F0C
:100030000C940E030C940E030C940E030C940E03FC
:100040000C940E030C940E030C940E030C940E03EC
:100050000C940E030C940E030C940E030C946C1170
:100060000C940E030C940E030C940E030C940E03CC
:100070000C940E030C940E030C940E030C940E03BC
:100080000C940E030C940E030C940E030C940E03AC
:100090000C940E030C940E030C940E030C940E039C
:1000A0000C940E030C940E030C940E0305A84CCD77
:1000B000B2D44EB93836A9020C50B9918688083CA2
:1000C000A6AAAA2ABE000000803F07634236B79B5B
:1000D000D8A71A39685618AEBAAB558C1D3CB7CCA8
:1000E0005763BD6DEDFD753EF6177231BF00000020
:1000F000803F08000000BE922449123EABAAAA2A03
:10010000BECDCCCC4C3E00000080BEABAAAAAA3E1D
:1001100000000000BF000000803F00000000000859
:100120004178D3BB4387D1133D190E3CC3BD4282F6
:10013000AD2B3E68EC8276BED98FE1A93E4C80EFB4
:10014000FFBE01C4FF7F3F00000000004E414E494A
:100150004E495459494E46CDCCCC3D0AD7233C1785
:10016000B7D13877CC2B329595E6241FB14F0A00D2
:100170000020410000C84200401C4620BCBE4CCAC2
:100180001B0E5AAEC59D7400407A10F35A00A0723F
:100190004E18090010A5D4E80000E87648170000C2
:1001A000E40B54020000CA9A3B000000E1F5050090
:1001B0000080969800000040420F000000A08601D9
:1001C000000000102700000000E8030000000064A9
:1001D00000000000000A0000000000010000000014
:1001E000002C76D888DC674F0823DFC1DFAE59E1E9
:1001F000B1B796E5E3E453C63AE651997696E8E658
:10020000C28426EB898C9B62ED407C6FFCEFBC9C2A
:100210009F40F2BAA56FA5F490055A2AF75C936B3C
:100220006CF9676DC11BFCE0E40D47FEF520E6B5F7
:1002300000D0ED902E0300943577050080841E08D1
:100240000000204E0A000000C80C333333330F98EF
:100250006E12831141EF8D2114893BE65516CFFEB6
:10026000E6DB18D1844B381BF77C1D901DA4BBE442
:1002700024203284725E228100C9F124ECA1E53D84
:100280002712FFFDFE1813070809171904050616A3
:10029000FC01020315FC00101114FFFDFE07080904
:1002A0000405060102030010112F0300033F0A3F5B
:1002B000163F1A0904121A251A28031E21211E0AA4
:1002C000040A040E0460040404200804021E211E13
:1002D000223F2039252221251A07043F1725191E00
:1002E00025190139071A251A12251E1434040A117A
:1002F0001414110A04012D061E212D2E3E053E3F29
:10030000251A1E21213F211E3F253F051E213D3F6D
:10031000043F213F21211F3F043B3F203F020402B5
:100320003F3F02043F1E211E3F05021E312E3F05A6
:100330003A2619013F013F203F1F301F1F201C207C
:100340001F3B043B033C0339273F21020408213FA4
:100350000201022020200102142C383F2418182406
:1003600018243F1834283E0548543C3F04383D408B
:100370003D3F043A3F3C043C04383C043818241800
:100380007C241818247C3C0428141F241C203C1CAA
:10039000201C1C2038203C3408344C503C342C04A5
:1003A0003B213B213B04020604000104070A0D1116
:1003B000121416191C1D202124272A2D30333639FA
:1003C0003C3F42434447494C4F5356595C5F61633D
:1003D00066696C6E7173787C7F8285888A8D909354
:1003E000989B9EA0A2A5A7AAADAFB2B5B7BABDBF54
:1003F000C2C5C6C8CBCCD1D4D7DADDDFE1E3E6E9AC
:10040000EEF1F4F6F9FAFD0063616E277420706F67
:10041000702C20737461636B20656D707479006358
:10042000616E277420706F702C20737461636B2071
:10043000656D707479006E6F206D656D0063616E1F
:10044000277420726573697A6520746861742073FB
:100450006D616C6C006E6F206D656D0063616E2761
:100460007420726573697A65207468617420736D95
:10047000616C6C00080B000202020100090400001C
:1004800001020200000524001001052401010104FD
:100490002402060524060001070581031000400917
:1004A000040100020A0000000705020240000007E4
:1004B0000583024000000403090412010002EF0258
:1004C000014041233680000101020301417264753D
:1004D000696E6F204C4C430041726475626F790005
:1004E000F0F89C8E8783878E9CF8F00000FEFF0357
:1004F00003030303070EFCF80000FEFF03030303DE
:1005000003070EFCF80000FFFF00000000000000E1
:10051000FFFF0000FEFF8383838383C7EE7C3800E8
:1005200000F8FC0E07030303070EFCF800003F7FF2
:10053000E0C08080C0E07F3FFFFF010101010101B9
:1005400001FFFF0000FFFF0C0C0C0C1C3E77E3C109
:1005500000007FFFC0C0C0C0C0E0703F1F00001F90
:100560003F70E0C0C0C0E0703F1F00007FFFC1C10E
:10057000C1C1C1E3773E1C00001F3F70E0C0C0C096
:10058000E0703F1F000000000001FFFF01000000BD
:10059000D5F08D14A1C881CFD9F1AF200053656586
:1005A0002052504E20646562756700536565206770
:1005B00072617068005365742066756E6374696F4C
:1005C0006E0003059A0205058102EF1111241FBE7A
:1005D000CFEFDAE0DEBFCDBF11E0A0E0B1E0E6EAA8
:1005E000F7E402C005900D92AC39B107D9F726E0C7
:1005F000ACE9B1E001C01D92AE3AB207E1F712E0FA
:10060000C6EED2E004C02197FE010E94C521C53E7E
:10061000D107C9F70E943F120C94D1230C9400001B
:10062000813109F45EC038F5853009F44EC088F494
:10063000823009F471C030F4882309F46AC0813033
:10064000F1F108958330F1F18430D9F786E691E035
:100650000895883009F43FC038F48630C9F18730F6
:1006600081F78CE691E008958930C1F1803149F736
:1006700082E791E008958731E9F188F48431B9F196
:1006800038F4823189F18331E1F686E791E008950B
:10069000853139F18631A9F68DE791E008958C3FD7
:1006A00079F138F4883149F1893159F683E891E0DC
:1006B00008958E3F59F138F18AE791E0089580E678
:1006C00091E0089584E691E0089588E691E0089528
:1006D0008AE691E008958EE691E0089580E791E042
:1006E000089588E891E0089584E791E0089588E707
:1006F00091E008958FE791E0089581E891E00895F1
:1007000085E891E0089587E891E008958AE891E00E
:1007100008958EE591E0089582E691E00895909124
:10072000A306982329F49091A206982381E009F466
:1007300080E00895CF9380E20E948F03882339F0F0
:1007400080916502882319F081508093650280E4CE
:100750000E948F03882381F02091650280916102BD
:1007600090916202899FC0011124019728171906F0
:100770001CF42F5F2093650280E80E948F0388237A
:1007800049F08091650290916102891718F0891BE8
:100790008093650280E10E948F03882399F0809105
:1007A000650290916102209162022150330B929F69
:1007B000A001939F500D1124841715061CF4890F76
:1007C0008093650288E00E948F03882339F1E091CD
:1007D00065028091630290916402E80FF92FF11D88
:1007E0008491C09186028E3FC1F180F48D3F41F12A
:1007F0000E94100321E02C0F20938602FC018081CF
:10080000EC2FF0E0E15AFD4F878308C081E0809330
:100810008702EC2FF0E0E15AFD4F178284E00E943E
:100820008F03882359F0E0918602EE2339F0E150DE
:10083000E0938602F0E0E15AFD4F1782CF910895D0
:10084000CC2361F3EFEFEC0FE0938602E3CFC150CE
:10085000EC2FF0E0E15AFD4F1782C111F8CF109252
:100860008602DCCFE8E8F2E0A0E0B8E000800EBC51
:100870008111012C1197A0FDFDCF0192B9F70DB4A4
:10088000089580E00C94320480E0E8E8F2E0811101
:100890008FEF002481938193819381930394D1F707
:1008A00008958FB7F8944091F9015091FA01609141
:1008B000FB017091FC018FBF8091A506942F981BBE
:1008C0008091A606882331F09093A7061092A60681
:1008D00080E008952091A406921740F49F5F92173C
:1008E000A0F491E093BF889513BE089581E08093B2
:1008F000A6064093A5068091A0069091A1060196B8
:100900009093A1068093A00681E008958F929F9214
:10091000AF92BF92CF92DF92EF92FF92C0904D02C2
:10092000D0904E02E0904F02F0905002A701960145
:100930000E944D1E4B015C01A7019601609151027E
:100940007091520280915302909154020E944D1E68
:100950009B01AC01C501B4010E94BF1E6B017C016B
:1009600060915D0270E090E080E00E946B1A9B0154
:10097000AC01C701B6010E94CC1A6B017C0120E0DA
:1009800030E04EEF52E40E9408206FE71816F4F0B2
:1009900020E030E040E053ECC701B6010E94661A47
:1009A00060E887FD13C020E030E0A901C701B6016F
:1009B0000E94082020E030E040E05FE387FD10C0A7
:1009C000C701B6010E944E1E0E94311F862FFF9064
:1009D000EF90DF90CF90BF90AF909F908F90089551
:1009E000C701B6010E944D1EEFCF8F929F92AF922A
:1009F000BF92CF92DF92EF92FF92C0905902D090B7
:100A00005A02E0905B02F0905C02A70196010E94FE
:100A10004D1E4B015C01A70196016091550270913A
:100A2000560280915702909158020E944D1E9B01E0
:100A3000AC01C501B4010E94BF1E6B017C01609135
:100A40005E0270E090E080E00E946B1A9B01AC01B6
:100A5000C701B6010E94CC1A6B017C0120E030E096
:100A60004EEF52E40E9408206FE71816F4F020E0E1
:100A700030E040E053ECC701B6010E94661A60E81E
:100A800087FD13C020E030E0A901C701B6010E9434
:100A9000082020E030E040E05FE387FD10C0C701A0
:100AA000B6010E944E1E0E94311F862FFF90EF90CC
:100AB000DF90CF90BF90AF909F908F900895C70127
:100AC000B6010E944D1EEFCFFC018091B801882332
:100AD00011F13FB7F89482E08093E9002091F20091
:100AE000822F90E01816190614F481E090E0882314
:100AF00039F0289844E64093B7014091F1004083D3
:100B0000222339F02091F200211103C02BE620931B
:100B1000E8003FBF08958FEF9FEF08952FB7F89437
:100B200083E08093E9009091E800892F807295FF1F
:100B300004C09091F20080E4891B2FBF089580913A
:100B4000AF0181110DC082E08093AB0184E08093FE
:100B5000AC011092AE011092AD0181E08093AF0123
:100B60008BEA91E0089508954091A3015091A4016A
:100B70002091A1013091A20142175307B4F4909142
:100B8000E8009570E1F39091E80092FD19C0809320
:100B9000F1008091A3019091A40101968F73992790
:100BA000892B19F48EEF8093E8008091A301909136
:100BB000A40101969093A4018093A30181E008957C
:100BC00080E00895DF92EF92FF920F931F93CF93EF
:100BD000DF93D82E8A01EB017B01E40EF51ECE15C2
:100BE000DF0559F0D7FE12C0FE0184910E94B405C2
:100BF00021968111F4CF0FEF1FEFC801DF91CF9144
:100C00001F910F91FF90EF90DF9008958881EECFB4
:100C10000F931F93CF93DF931F92CDB7DEB782E080
:100C2000898342E450E064E774E080E80E94E205D2
:100C30000E949F05DC0112960D911C910115110572
:100C400089F0D801ED91FC910280F381E02DBE0185
:100C50006F5F7F4FC801099597FD04C0F8010085BB
:100C60001185ECCF89810F90DF91CF911F910F916A
:100C70000895615030F02091F100FC01208301962D
:100C8000F8CF289884E68093B7010895AF92BF9279
:100C9000CF92DF92EF92FF920F931F93CF93DF9348
:100CA0006C017B018B01040F151FEB015E01AE1877
:100CB000BF08C017D10759F06991D601ED91FC9199
:100CC0000190F081E02DC6010995892B79F7C501C6
:100CD000DF91CF911F910F91FF90EF90DF90CF9018
:100CE000BF90AF900895CF93DF931F92CDB7DEB73B
:100CF0006983DC01ED91FC910280F381E02D41E0FC
:100D000050E0BE016F5F7F4F09950F90DF91CF914B
:100D1000089583E08093E9008091F200882319F020
:100D20008AE38093E80008950E948E0590E008957C
:100D3000CF93DF931F92CDB7DEB7FC0184859585F5
:100D400097FD08C02FEF3FEF358724870F90DF9185
:100D5000CF910895CE0101960E946405019719F480
:100D6000898190E0F3CF8FEF9FEFF0CF0F931F9328
:100D7000CF93DF931F92CDB7DEB78C01FC01848542
:100D8000958597FF0BC0CE0101960E9464050197DF
:100D900071F4898190E0F80195878487F801848552
:100DA00095850F90DF91CF911F910F9108958FEF4F
:100DB0009FEFF1CFFC018485958597FD0BC09FB710
:100DC000F89482E08093E9008091F2009FBF90E068
:100DD000019608959FB7F89482E08093E90080918E
:100DE000F2009FBF90E008953FB7F89480919D0175
:100DF00090919E01A0919F01B091A00126B5A89B62
:100E000005C02F3F19F00196A11DB11D3FBFBA2F9C
:100E1000A92F982F8827BC01CD01620F711D811D5C
:100E2000911D42E0660F771F881F991F4A95D1F7E1
:100E300008958F929F92AF92BF92CF92DF92EF92DE
:100E4000FF926B017C010E94F4064B015C01C1140E
:100E5000D104E104F104B9F00E94F406681979099B
:100E60008A099B09683E73408105910580F321E062
:100E7000C21AD108E108F10888EE880E83E0981EB6
:100E8000A11CB11CE4CFFF90EF90DF90CF90BF90FA
:100E9000AF909F908F9008958F929F92AF92BF9244
:100EA000CF92DF92EF92FF920F931F93CF93DF9336
:100EB0006C017B018A0180910B01882309F45CC0DD
:100EC0008091B801882309F457C08091A70180FF61
:100ED00005C08091E00082608093E000E801B12CC1
:100EE0008AEFA82E93E0892E2AE3922E209711F400
:100EF000BB20D9F10E948E0581110AC0AA94AA20B4
:100F0000D9F161E070E080E090E00E941907EECF37
:100F10008C171D0611F00CF08C2F9FB7F89480925F
:100F2000E9002091E80025FD02C09FBFDFCF282FF8
:100F300030E0C21BD30BF701815020F04191409368
:100F4000F100FACFE20EF31EBB2021F09092E800F0
:100F5000B12CEBCF8091E80085FDE7CF9092E800BF
:100F6000BB24B394209709F3F3CF5D9884E6809374
:100F7000A601101611063CF081E090E0F601938383
:100F8000828310E000E0C801DF91CF911F910F91A3
:100F9000FF90EF90DF90CF90BF90AF909F908F9099
:100FA00008952D9A0895BC0190E080E00C941907F3
:100FB0008FB18095807F669B88601C9B84600895BC
:100FC000480F592F511D14161506D4F58038910578
:100FD000BCF597FF02C090E080E04138510514F065
:100FE00040E850E0481BFB0177FD379633E0F5956C
:100FF000E7953A95E1F7F695FE2FEE27F795E795F9
:10100000E80FF91FE857FD4F6770772781E090E000
:1010100001C0880F6A95EAF7382F213041F441501A
:1010200078F08191DF011197832B8C93F8CF809515
:10103000415030F09191DF01119798239C93F8CFA4
:10104000089580389105B8F460347105A0F420E16A
:1010500091E061FD94E060FD990F62FD9295687FDB
:10106000269FD0011124A80FA857BD4F8C9140FF97
:1010700003C0892B8C93089590958923FBCFDF9231
:10108000EF92FF920F931F93CF93DF937C01D22EA9
:101090008B01040F111DEB0177FF02C0D0E0C0E00F
:1010A000C8010134110514F080E490E0C817D90795
:1010B0003CF44D2DBE01C7010E9421082196F0CFBE
:1010C000DF91CF911F910F91FF90EF90DF900895E6
:1010D000CF92DF92EF92FF920F93CF93DF936C0149
:1010E0007B01C42FD22F6034710520F4202FC6015C
:1010F0000E94E007B7016D0F711D615071096034E6
:1011000071052CF4202F4C2FC6010E94E007202FE0
:101110004D2FB701C6010E943F08C6018C0F911DDB
:10112000202F4D2FB7010197DF91CF910F91FF90A5
:10113000EF90DF90CF900C943F086F927F928F9248
:101140009F92AF92BF92CF92DF92EF92FF920F9356
:101150001F93CF93DF934C017B01C22F102F98E098
:10116000A92EB12C642E669466946694712CCA01E3
:1011700087709927892B79F5D40117962D913C9189
:10118000C7019927B9010E94B121269DF001279D31
:10119000F00D369DF00D11248E0F9F1FD401159672
:1011A000ED91FC91E80FF91F2081111112C0C0953B
:1011B000C223C083DF91CF911F910F91FF90EF90D9
:1011C000DF90CF90BF90AF909F908F907F906F9067
:1011D0000895C22BEECFD0E04770C42ED12C83E00F
:1011E000660C771C8A95E1F79E0101C0220F4A9593
:1011F000EAF7012FA301B701C4010E949D08A301D2
:10120000485F5F4FC5018C199D0902C0D595C795F0
:101210008A95E2F7A7CF4F925F926F927F928F925B
:101220009F92AF92BF92CF92DF92EF92FF920F9375
:101230001F93CF93DF93EC016D3071F06A30F9F4B6
:101240008D859E859C878B878C892F853889820F19
:10125000932F911D988B8F8781E090E0DF91CF9144
:101260001F910F91FF90EF90DF90CF90BF90AF90C4
:101270009F908F907F906F905F904F900895EB8438
:10128000FC84693031F448E0E40EF11CFC86EB8606
:10129000E3CF603231F48B8990E00296E80EF91EBC
:1012A000F5CF162F8F819885E816F9060CF04DC002
:1012B0008F8498885BEF85165FEF95060CF445C028
:1012C00089859A85881699060CF03FC080EE860FB6
:1012D0008F3508F038C0862F90E09C0128573C4F8E
:1012E000F901A490B12CA50147555D4F5A01FC01AD
:1012F000E757FC4F5490F9012491521AD12CC12C7C
:10130000C51418F5F501EC0DFD1D449037016C0C6A
:101310007D1C8C81882361F001E089899A89892B61
:1013200009F000E02FEFA401B301CE010E949D0857
:101330000989242DA401B301CE010E949D08FFEF6D
:10134000CF1ADF0ADDCF8FE3C7CF612F70E0FB013B
:10135000E757FC4F849168577C4FFB016491E82F5D
:10136000E61B8B89E80FFF27FF1F8B859C85E80F05
:10137000F91FFC87EB8770CF682F88E896E00C9404
:101380000B09089590E080E00895FB010190002092
:10139000E9F73197AF01461B570BDC01ED91FC914A
:1013A0000280F381E02D09948F929F92AF92BF92B9
:1013B0000F931F93CF93DF93CDB7DEB7A1970FB6EF
:1013C000F894DEBF0FBECDBF19A2423008F44AE048
:1013D0008E010F5D1F4F842E912CB12CA12CA501E5
:1013E00094010E941C1EE62FB901CA01EA3004F5DF
:1013F000E05DD801EE938D01232B242B252B79F76B
:1014000090E080E0109729F0BD0188E896E00E9406
:10141000C509A1960FB6F894DEBF0FBECDBFDF9110
:10142000CF911F910F91BF90AF909F908F90089593
:10143000E95CDFCFFF920F931F93CF93DF93C0E060
:10144000DAE0409162026091600270E080915F0298
:1014500090E0209161022C1768F04D9F402D1124DF
:101460004F5F21E0CD9F800D911D11240E943F0808
:10147000CF5FE7CFC0E0DAE04091610260916002A7
:1014800070E0809162028C1798F0CD9F600D711D05
:1014900011246034710554F44D9F402D11244F5F89
:1014A00080915F0221E090E00E94E007CF5FE4CFEF
:1014B00010E08AE0F82E80916202181708F03DC013
:1014C0001F9DE001112400E04091610280916002C3
:1014D000282F30E080915F0290E0041760F50F9DA7
:1014E000800D911D11240296909396068093950687
:1014F0009093940680939306CE01820F931F0296D9
:101500009093980680939706E02F149FE00D112486
:101510008091630290916402E80FF92FF11D84918C
:101520000E941003009729F0BC0188E896E00E9411
:10153000C5090F5FC9CF1F5FBECF80916502609163
:1015400061020E94A52160916002CAE08C9F900117
:101550001124620F732F711D80915F029C9FF00117
:10156000112400E02BE04BE08E0F9F2F911D0E9475
:10157000680880916502609161020E94A5216091D6
:1015800060028C9F90011124620F732F711D6150B6
:10159000710980915F029C9FE00111248C0F9D2FA7
:1015A000911D01E02DE04DE001970E946808209117
:1015B00060022850330B80915F0290E00296909376
:1015C00096068093950690939406809393063093A5
:1015D00098062093970666E672E088E896E0DF9129
:1015E000CF911F910F91FF900C94C509CF92DF927C
:1015F000EF92FF920F931F93CF936B017C01C42F47
:101600001092650244E050E062EC75E081E692E001
:101610000E94451A1092870280918602882339F031
:101620008150E82FF0E0E15AFD4F1782F7CF10927A
:10163000860206E612E02C2F40E0C701B6010E94A8
:10164000CA18809186028F5F21E0280FE82FF0E012
:10165000E15AFD4F978191111BC0809386028091C2
:101660008702811117C00E9451048823C1F3809121
:10167000A2068093A3060E94D8078093A2060E9428
:1016800044040E949A030E941A0A0E944104E7CF70
:10169000822FDACF86E692E0CF911F910F91FF90D3
:1016A000EF90DF90CF900C94381AEF92FF920F9347
:1016B0001F93CF93DF938C017B01D0E0C0E0F70153
:1016C000EC0FFD1F6491662361F0D801ED91FC9150
:1016D0000190F081E02DC8010995892B11F0219628
:1016E000EECF6DE871E0C8010E94C5098C0F9D1F07
:1016F000DF91CF911F910F91FF90EF9008951F936D
:10170000CF93DF93EC01162F8CE594E0662359F01C
:1017100070E0888199810E94042399838883892BB2
:1017200021F485E594E00E94E9111A83DF91CF91BD
:101730001F910895CF93FC019381911104C08FE113
:1017400094E00E94E911A081B18191509383A90F87
:10175000B11DCC91992351F06281862F8695869593
:10176000891720F06695CF010E947F0B8C2FCF91B7
:1017700008951F93CF93DF93EC01162F6A818B811D
:10178000681304C0660FCE010E947F0B8881998187
:10179000EB8121E02E0F2B83E80FF92FF11D108331
:1017A000DF91CF911F9108956F927F928F929F92B8
:1017B000AF92BF92CF92DF92EF92FF920F931F935F
:1017C000CF93DF9300D000D000D0CDB7DEB7812C0F
:1017D0008394E82DF0E0E35FFE4F80818111F8CF24
:1017E0001C8282E090E00E94DF219A83898382E05C
:1017F0008B83912CC12C10E02FEF981408F035C189
:10180000A92CB12CD501A35FBE4F9C919A3209F44B
:101810008AC00CF06FC0953209F47FC044F50FEF19
:10182000992359F1DD24D394D10EE12FF0E0E75450
:10183000FE4FC08211E01C0DBE016B5F7F4FCD01DA
:101840000E94E81824E0C29EF0011124E752FE4FE6
:1018500060837183828393838D819E818D509140BB
:10186000A816B90609F061C00C2DC12EABC0983284
:1018700009F451C001EF9932A9F680E8800F602F7A
:10188000803708F4C5C080EC800F803408F0BDC0FC
:10189000023421F480EC820F803410F0213F09F4EF
:1018A00000E4D12E10EC100FA12EB12CEC81EE2310
:1018B00009F483C089819A81E80FF92FF11D3197CE
:1018C000808190E8980F903708F480C0E0ECE80F32
:1018D000E03408F072C0E73008F03FC0F0E0ED58A7
:1018E000F34F0C94C5216D0DAB0CAB0C6A0D6A0D5A
:1018F0009B0C6A0D9F32A9F03CF49B32D1F002E4BC
:101900009D3209F4BACF8ECF9E3549F00EEF98374D
:1019100009F4B3CF87CF00EFB0CF06E4AECF05E434
:10192000ACCF04E4AACF03E4A8CF99249A94980EEC
:101930009BCF01E4A2CFF4E0FF2E1730E0F4F501D5
:10194000EC55F34F0C94C521D10CFA0CFA0CC90CD0
:10195000C90CCD0CC90CE2E0FE2E173060F4F50185
:10196000EC54F34F0C94C521D10CD50CD50CC90CFB
:10197000C90CCD0CC90C9F2DFE2CE92EFE1448F18C
:10198000FE103CC08534F1F1A0F48034A0F0712C3D
:1019900020C0EF2C73E0F72EF1CFEF2C64E0F62E91
:1019A000EDCFEF2C55E0F52EE9CFEF2C42E0F42EF1
:1019B000E5CF863461F3772061F0602FCE01019688
:1019C0000E94B90B93941D2D202F17CF8F2DFE2C25
:1019D000E82E662463946D0CCE0101960E949A0B4A
:1019E000ED2DF0E0E754FE4F80838E2DEF2CF82E86
:1019F000D62C5CCFEF2C32E0F32EEBCF8E2DEF2CDC
:101A0000F82EDBCF77247394D8CF003F39F460EF02
:101A1000CE0101960E94B90BD12ED4CF013FE1F443
:101A2000EC8189819A81EE2309F44DC0E80FF92FEA
:101A3000F11D31978081803F09F447C0DD24D394A4
:101A4000D10ECE0101960E949A0BE12FF0E0E754EF
:101A5000FE4F80831D2DE4CFDD24D394D10EE12FE2
:101A6000F0E0E754FE4F0083ADCFE12EF12C8C81E6
:101A7000F701E754FE4F7F01882341F01F5FCE013D
:101A800001960E949A0BF7018083EFCF8FEF80833E
:101A900011E089819A810E947B22812F26960FB6C0
:101AA000F894DEBF0FBECDBFDF91CF911F910F9194
:101AB000FF90EF90DF90CF90BF90AF909F908F906E
:101AC0007F906F90089510E0E4CFCE0101960E94C0
:101AD0009A0BA2CF23E0F22E30CF95E0F92E2DCF36
:101AE0001F93CF93DF93EC01162F8DE394E06623D1
:101AF00071F084E0689FB0011124888199810E946F
:101B0000042399838883892B21F486E394E00E943F
:101B1000E9111A83DF91CF911F910895CF92DF923F
:101B2000EF92FF92FC019381911104C088E094E050
:101B30000E94E911A081B1819150938384E0989F24
:101B400090011124A20FB31FCD90DD90ED90FC9079
:101B5000992351F06281862F86958695891720F00A
:101B60006695CF010E94700DC701B601FF90EF90FE
:101B7000DF90CF900895CF92DF92EF92FF92CF93B4
:101B8000DF93EC016A017B016A818B81681304C0D9
:101B9000660FCE010E94700D288139819B8181E002
:101BA000890F8B8344E0949FC0011124820F931FFF
:101BB000FC01C082D182E282F382DF91CF91FF905B
:101BC000EF90DF90CF9008954F925F926F927F9247
:101BD0008F929F92AF92BF92CF92DF92EF92FF923D
:101BE0000F931F93CF93DF9300D000D0CDB7DEB714
:101BF0007C014A015B011C8288E090E00E94DF21A9
:101C00009A83898382E08B838701670180E2C80E13
:101C1000D11CD801ED918D01E03488F4F0E03896C4
:101C2000EE0FFF1FEE0FFF1FEE0DFF1D40815181D4
:101C300062817381CE0101960E94BB0D6CC080EC65
:101C40008E0F803408F05FC0873008F064C0E82F42
:101C5000F0E0E15DF14FCE0101960C94C5217D0EBF
:101C6000360E360E470E560E630E700E0E948E0D07
:101C70002B013C01CE0101960E948E0D9B01AC010F
:101C8000C301B2010E944E1EAB01BC01D3CF0E9422
:101C90008E0D2B013C01CE0101960E948E0D9B0101
:101CA000AC01C301B2010E94CC1AEECF0E948E0D8E
:101CB0002B013C01CE0101960E948E0DA3019201E1
:101CC0000E94BF1EE1CF0E948E0D2B013C01CE0170
:101CD00001960E948E0DA30192010E940D20D4CF87
:101CE0000E948E0D2B013C01CE0101960E948E0DAB
:101CF000A30192010E94721FC7CF0E948E0DAB01FB
:101D0000BC01705897CF80E88E0F8037E8F5E03837
:101D100069F1E13891F1C016D10609F07ACF8C81D2
:101D2000C12CD12C7601882331F0CE0101960E947E
:101D30008E0D6B017C0189819A810E947B22C701F3
:101D4000B6010F900F900F900F90DF91CF911F91E0
:101D50000F91FF90EF90DF90CF90BF90AF909F904A
:101D60008F907F906F905F904F900895CE01019675
:101D70000E948E0D0E945D2087CFCE0101960E94A9
:101D80008E0D0E94BA1E80CFEF3F49F2EE3F19F64A
:101D9000B501A4014FCF1F920F920FB60F921124DD
:101DA0008F939F938091E1009091E100937F9093B6
:101DB000E10083FF0FC01092E90091E09093EB00E7
:101DC0001092EC0092E39093ED001092B80198E02D
:101DD0009093F00082FF22C093E09093E9009091ED
:101DE000F200992319F09AE39093E8009091A601EC
:101DF000992341F09091A60191509093A6019111E1
:101E000001C05D9A9091B701992341F09091B7017B
:101E100091509093B701911101C0289A84FF18C086
:101E20008091E2008E7E81608093E2008091E100EB
:101E30008F7E8093E1008091A7018E7E80618093E8
:101E4000A7019F918F910F900FBE0F901F90189533
:101E500080FFF7CF8091E2008E7E80618093E20068
:101E60008091E1008E7E8093E1008091A7018E7EBB
:101E70008160E5CF1F920F920FB60F921124CF927F
:101E8000DF92EF92FF920F931F932F933F934F9305
:101E90005F936F937F938F939F93AF93BF93EF93D2
:101EA000FF93CF93DF93CDB7DEB76C97DEBFCDBF87
:101EB0001092E9008091E80083FF25C068E0CE0120
:101EC00045960E94390682EF8093E8008D8987FF4E
:101ED00039C09091E80090FFFCCF982F907609F0E0
:101EE00034C19E894F89588D2F89F88C911131C04A
:101EF000803861F58091A8018093F1001092F10083
:101F00008EEF8093E8006C960FB6F894DEBF0FBE9C
:101F1000CDBFDF91CF91FF91EF91BF91AF919F9195
:101F20008F917F916F915F914F913F912F911F9171
:101F30000F91FF90EF90DF90CF900F900FBE0F901A
:101F40001F9018959EEF9093E800C7CF1092F10074
:101F5000D5CF913059F48111D3CF4130510581F65D
:101F60008091A8018D7F8093A801CACF933049F456
:101F70008111C6CF4130510519F68091A8018260C8
:101F8000F2CF953041F48091E80080FFFCCF2068CB
:101F90002093E300B5CF963009F0A9C00B8D1C8DBE
:101FA00022E01092E9001092A4011092A301F21213
:101FB0002EC01092A2011092A1010E9408061F8259
:101FC00099E09983FA8291E09E8390EA98879AEF4C
:101FD00099872091A3013091A401275F3F4F3C8353
:101FE0002B838D831092E9001092A4011092A3011B
:101FF0001093A2010093A10149E050E0BE016F5F80
:102000007F4F80E00E94E2050E94080679CF10937E
:10201000A2010093A1010E949F05DC0112960D917F
:102020001C910115110509F451C1D801ED91FC91E4
:102030000480F581E02DBE016B5E7F4FC8010995DC
:10204000009709F03EC1F80100851185EACFF3E061
:10205000FF120EC08F89882309F440C0823061F4DA
:1020600040E867E088ED94E00E94B611811148CF06
:1020700081E28093EB0047CF813029F440E86BE0A8
:102080008CEC94E0F1CF833099F70E949F05DC013E
:102090001296ED90FC908E010F5F1F4F6801E114C6
:1020A000F10479F0D701ED91FC910680F781E02DE4
:1020B000B801C7010995080F111DF701E084F184EB
:1020C000EECFD8011C92F60101900020E9F731977C
:1020D000BF016C197D0940E0C601C6CF66EB74E014
:1020E000FB01449150E080E80E94E20509CF97305F
:1020F00009F4BECF983021F481E08093F10000CF45
:10210000993009F0FDCE837009F0B2CFE4E3F1E03D
:1021100081E031E096E32191222371F08093E90080
:102120003093EB00DF0111972C912093EC009093FA
:10213000ED008F5F873079F78EE78093EA00109289
:10214000EA008F898093B801DBCE8B8D9C8D109235
:10215000E9001092A4011092A3019093A201809330
:10216000A101898D811192C08E899D89913A49F48E
:10217000813209F07DCF47E050E064E071E080E01B
:10218000B3CF913209F074CF833269F48F89988D7F
:10219000B0E0A0E08093000190930101A0930201C0
:1021A000B0930301ADCE803269F48091E80082FFE4
:1021B000FCCF67E084E091E00E9439068BEF8093CA
:1021C000E8009ECE823209F09BCE8F8980930B016E
:1021D000EEEFFFE7859194918B3F9C4D51F1E0E04C
:1021E000F8E08091040190910501A0910601B09161
:1021F0000701803B9440A105B105F1F480910B01EA
:1022000080FD1AC0EE3F8AE0F80789F587E797E777
:1022100091838083809160008093A50188E19BE099
:102220000FB6F894A895809360000FBE909360005D
:1022300067CEEEEFFAE0D5CF80819181873797475F
:1022400009F05ECEA895809160008861809360005F
:102250008091A50180936000EE3F2AE0F20789F0AB
:102260008091FE0A9091FF0A9183808349CE8081FC
:1022700091818737980751F29093FF0A8093FE0A65
:10228000C5CF1092FF0A1092FE0A3ACE0E949F0517
:10229000DC0112960D911C910115110509F4E8CE8F
:1022A000D801ED91FC910190F081E02DBE016B5EB3
:1022B0007F4FC8010995811123CEF8010085118552
:1022C000EBCF181619060CF41BCED2CEF1E0FF129C
:1022D000BECE6AEB74E004CF1F920F920FB60F923E
:1022E00011242F933F938F939F93AF93BF9380912C
:1022F000F9019091FA01A091FB01B091FC0130919C
:102300009C0123E0230F2D3758F50196A11DB11D27
:1023100020939C018093F9019093FA01A093FB0113
:10232000B093FC0180919D0190919E01A0919F012D
:10233000B091A0010196A11DB11D80939D019093C4
:102340009E01A0939F01B093A001BF91AF919F9177
:102350008F913F912F910F900FBE0F901F90189566
:1023600026E8230F0296A11DB11DD2CFEF92FF9256
:102370000F931F93CF93DF93F82E192FE62E042F80
:1023800081E0860F880F0E94B40583E00E94B405A7
:10239000CF2DD12FEC0EFD2EF11CCE15DF05B9F09F
:1023A00007FF13C0FE0184910E94B405182F80E03E
:1023B0000E94B405812321968111EFCFDF91CF9147
:1023C0001F910F91FF90EF9008958881EDCF81E0EC
:1023D000F5CFBC018DEF91E00E94550BFFCFEDEFE3
:1023E000F1E01382128288EE93E0A0E0B0E08483F3
:1023F0009583A683B7838EE391E0918380838FEFEB
:102400009FEF95878487EDE9F6E01582168280E1DB
:1024100087831482138211868CE591E091838083F7
:10242000E8E8F6E01382128280E591E091838083F0
:1024300088E892E09683858380E890E090878783A0
:1024400080E490E09287818787E0848B81E0838BB2
:1024500016861586108A17861486138681E090E00A
:10246000928B818B1482EFE5F2E08CE08083818394
:1024700010A6EDE4F2E08FE3808B818B0895CF937B
:10248000DF93CDB7DEB7C354D1090FB6F894DEBFE2
:102490000FBECDBF789484B5826084BD84B5816061
:1024A00084BD85B5826085BD85B5816085BD80911F
:1024B0006E00816080936E00109281008091810097
:1024C000826080938100809181008160809381008F
:1024D0008091800081608093800080919100826073
:1024E0008093910080919100816080939100809110
:1024F00090008160809390008091C10084608093FF
:10250000C1008091C10082608093C1008091C100B0
:1025100081608093C1008091C30081608093C3007B
:102520008091C00082608093C0008091C200816071
:102530008093C20080917A00846080937A008091B9
:102540007A00826080937A0080917A008160809323
:102550007A0080917A00806880937A001092B801A6
:102560001092A8011092A7018091D70081608093FA
:10257000D70080EA8093D80089B5806189BD89B58C
:10258000826089BD09B400FEFDCF61E070E080E0AB
:1025900090E00E9419078091D8008F7C8061809321
:1025A000D8008091E000807F8093E0008091E1007E
:1025B0008E7E8093E1008DE08093E200559A209A10
:1025C00081EC80937C0085B1806F85B984B1877E72
:1025D00084B984B1876E84B95E9A5F988AB1806D40
:1025E0008AB9769A6E9881B3806F81BB899880B3DF
:1025F0008D7080BB80E58CBD81E08DBD85E090E075
:102600000E94D3075F9A85E090E00E94D3075E980E
:102610005C98E0E9F5E08DE995E024912EBD00009D
:102620000DB407FEFDCF31968E179F07B1F75C9A68
:1026300081E88093640080916500816080936500EB
:102640000E9441040E94D80787FF15C05C9885EA64
:102650008EBD00000DB407FEFDCF5C9A2E982F981A
:102660002D988091640080628093640081E083BF34
:10267000889513BEFCCF0E94D80782FF48C02D98D2
:102680000E94D80784788438E1F40E94D10788EC4E
:1026900090E00E94D3072F9882E090E00E94C41D32
:1026A0008F3F29F06FEF82E090E00E94CC1D84EF15
:1026B00091E00E94D3072F9A0E94D807847884382B
:1026C000D9F30E94D80784718431E1F40E94D107C4
:1026D00088EC90E00E94D3072E9882E090E00E9460
:1026E000C41D882329F060E082E090E00E94CC1DA8
:1026F00084EF91E00E94D3072E9A0E94D80784713C
:102700008431D9F388EC90E00E94D307B4CF0E94C3
:10271000D10782E090E00E94C41D882309F433C1F0
:102720003E9A3F9A81E090E00E94C41D8470782E0A
:1027300081E090E00E94C41D81FF0FC071102E98AF
:1027400000EF1FEFB8E0AB2EB12C0E94D80786FF38
:102750001DC12E9A2F9A0E94D10782E390E00E9419
:10276000D3070E94D8078111F8CF8FEF9FEF909386
:102770000A028093090240E050E060E271EC40936D
:102780004D0250934E0260934F027093500280E0CE
:1027900090E0A0E2B1E48093510290935202A093A2
:1027A0005302B093540240935502509356026093E3
:1027B0005702709358028093590290935A02A09343
:1027C0005B02B0935C020E94D40B0E9451048823E8
:1027D00009F409C28091A2068093A3060E94D8073B
:1027E0008093A2060E94440430900C01311003C271
:1027F00080E80E948F03882339F08091AA01882302
:1028000019F081508093AA0180E10E948F038823F0
:1028100029F08091AA018F5F8093AA0180E20E9433
:102820008F0381111092A90180E40E948F038823F5
:1028300019F081E08093A90188E00E948F0388232A
:10284000E9F00091AA0110E08091A901882309F420
:102850003EC107541E4FF801608170E090E080E0B7
:102860000E946B1A40E00E94F60A0091AA0110E053
:1028700007541E4F0E94381FF801608384E00E94B5
:102880008F03882319F081E080930C0139EDC32E6A
:1028900031E0D32E49EBE42E41E0F42E10E000E0CD
:1028A0001092960610929506109294061092930636
:1028B0001093980600939706F60181909190A1904D
:1028C000B1906F01A5019401C501B4010E9465207A
:1028D00060E971E081111BC024013501E89477F8AB
:1028E0002FEF3FEF4FE75FE7C301B2010E94652082
:1028F000811101C12FEF3FEF4FE75FE7C301B20145
:102900000E94661A18160CF0F6C064E971E088E8B7
:1029100096E00E94C50920E430E0309396062093AB
:10292000950630939406209393061093980600938F
:102930009706F70161917F0170E090E080E040E14F
:102940000E94D409095F1F4F0833110509F0A8CF71
:102950008091AA01F7E08F9FC001112420E230E0AE
:102960003093960620939506309394062093930611
:1029700090939806809397068091A901882309F483
:102980002DC18EE32CC13E983F98CCCE772029F004
:102990000430110511F42E9A2F9881E00E94320420
:1029A000980117FF04C022273327201B310B277003
:1029B0003327C80117FD0796A3E095958795AA953B
:1029C000E1F717FF05C00197A501421B530B9A01C0
:1029D000BC017695762F662777956795F12CE12CCB
:1029E0001501221A330A8F3F5FEF95070CF44EC092
:1029F000E8E5EE9D4001EF9D900C1124DB01A85706
:102A0000BD4F50E040E0F401E052FB4F4F01FB01AD
:102A1000E85FFC4F2F018F3F980781F0F401E40F2E
:102A2000F51FE491022E01C0EE0F0A94EAF75496C6
:102A3000FC915497EF2B5496EC9354972115310544
:102A4000F1F0F401E40FF51F64906201C40ED51E8D
:102A5000E62DF0E0022C02C0F595E7950A94E2F726
:102A60002396FFAFEEAF2397F601F4892496FFAFCC
:102A7000249722966FAC22976F2AF601648A4F5FE3
:102A80005F4F11964835510509F0C5CF0196605842
:102A90007F4FEA94EF28B9F40E9441048FE090E060
:102AA0000E94D3070F5F1F4F0931110509F04DCE6A
:102AB000772011F02F9A2D9880E991E00E94D3079A
:102AC0000E94D1074ACEEE24E394F12C8CCF000F64
:102AD000111F000F111F07521E4FF80160817181F5
:102AE0008281938143E00E94F60AF801608371833A
:102AF00082839383C3CE2FEF3FEF4FE75FE4C5019F
:102B0000B4010E94082018161CF468E971E0FFCE99
:102B10002FEF3FEF4FE75FECC501B4010E94661A4B
:102B200087FDF3CF20E030E0A901C501B4010E9488
:102B3000661A87FF07C08DE20E94BC09B7FAB094FD
:102B4000B7F8B0942AE037ED43EA5BE3C501B4017E
:102B50000E944E1E2B013C010E94381F4B015C015C
:102B60000E946B1A9B01AC01C301B2010E944D1E71
:102B70002B013C014AE0C501B4010E94D4098EE258
:102B80000E94BC0920E030E040E251E4C301B20100
:102B90000E94CC1A2B013C010E94381F4B01B12C22
:102BA000A12C4AE0C501B4010E94D409C501B401B9
:102BB0000E946B1A9B01AC01C301B2010E944D1E21
:102BC00020E030E040E251E40E94CC1A0E94381F1D
:102BD00090E080E04AE00E94D4099DCE8CE30E9400
:102BE000BC090E94410420E030E0232B09F4EDCD24
:102BF0000E940000EACD31E03312F3CF80E80E945A
:102C00008F03882339F08091AA01882319F081501D
:102C10008093AA0180E10E948F03882339F080917C
:102C2000AA01823018F48F5F8093AA0188E00E9485
:102C30008F03882361F08091AA01813009F489C053
:102C400011E0813008F46DC0823009F49CC288E044
:102C500090E09093960680939506909394068093C7
:102C60009306109298061092970665EB75E088E837
:102C700096E00E94550B6BEA75E088E896E00E94AA
:102C8000550B6DE975E088E896E00E94550B809140
:102C9000AA01E7E08E9FC0011124109296061092BF
:102CA000950610929406109293069093980680933E
:102CB000970667CE109286026DE071E086E692E09C
:102CC0000E94CA23809186028F5FE82FF0E0E15ACC
:102CD000FD4F97819111F8CF8093860280918702F2
:102CE000811115C00E9451048823C1F38091A2066E
:102CF0008093A3060E94D8078093A2060E944404F2
:102D00000E949A030E941A0A0E944104E7CF66E6D5
:102D100072E08DE091E00E94CA230E94D40B8111E1
:102D200096CF1093650244E050E066EC75E081E6D2
:102D300092E00E94451A10928702809186028823B1
:102D400009F4B8CF8150E82FF0E0E15AFD4F178227
:102D5000F6CF80E4E9EBF1E0DE01119601900D92EF
:102D60008A95E1F710915E0260E070E0CB010E946D
:102D7000860421E0412F70E060E0082E000C990BE2
:102D80000E943F0860E070E0CB010E94F504682FCC
:102D9000880F770B6034710538F421E040915D02B3
:102DA00090E080E00E94E007C0904D02D0904E027B
:102DB000E0904F02F090500220E030E0A901C701FE
:102DC000B6010E94082020E030E040E05FE387FD8C
:102DD0004EC0C701B6010E944E1E0E94311F0E94C4
:102DE0006D1A6B017C018090510290905202A0906C
:102DF0005302B090540220E030E0A901C501B401B3
:102E00000E94082020E030E040E05FE387FD34C00E
:102E1000C501B4010E944E1E0E94311F0E946D1A0E
:102E20009B01AC01C701B6010E94661A87FF29C049
:102E300060E070E0CB010E94F504182FC701B601D5
:102E40000E948604612F110F770B6150710921E0F8
:102E500042E0082E000C990B0E943F0820E030E071
:102E600040E85FE3C701B6010E944E1EBACFC7011A
:102E7000B6010E944D1EB1CFC501B4010E944D1E86
:102E8000CBCFC0905502D0905602E0905702F09000
:102E9000580220E030E0A901C701B6010E940820D5
:102EA00020E030E040E05FE387FD4FC0C701B6019E
:102EB0000E944E1E0E94311F0E946D1A6B017C0100
:102EC0008090590290905A02A0905B02B0905C02F0
:102ED00020E030E0A901C501B4010E94082020E0F3
:102EE00030E040E05FE387FD35C0C501B4010E94DA
:102EF0004E1E0E94311F0E946D1A9B01AC01C7013A
:102F0000B6010E94661A87FF2AC0C701B6010E9457
:102F1000F504182F60E070E0CB010E948604612F59
:102F2000110F770B6034710538F421E042E0082E70
:102F3000000C990B0E94E00720E030E040E85FE3DE
:102F4000C701B6010E944E1EB9CFC701B6010E944B
:102F50004D1EB0CFC501B4010E944D1ECACF609175
:102F60005D026150770B072E000C880B990B0E94B5
:102F70006D1A9B01AC0160E070E0CB010E94BF1EA6
:102F80006B017C01AC019B0160E070E080E89FE395
:102F90000E944D1E20914D0230914E0240914F02F1
:102FA000509150020E94CC1A4B015C0120915102B9
:102FB000309152024091530250915402C701B60120
:102FC0000E94CC1A9B01AC01C501B4010E944E1EA7
:102FD000AB01BC01CE0101960E94E40D0E94F504F4
:102FE000082F10915D02311608F0B9C0632D032C33
:102FF000000C770B880B990B0E946D1A6B017C01FA
:10300000412F4150550BBA01072E000C880B990B2C
:103010000E946D1A9B01AC01C701B6010E94BF1E40
:103020006B017C01AC019B0160E070E080E89FE3F4
:103030000E944D1E20914D0230914E0240914F0250
:10304000509150020E94CC1A4B015C012091510218
:10305000309152024091530250915402C701B6017F
:103060000E94CC1A9B01AC01C501B4010E944E1E06
:10307000AB01BC01CE0101960E94E40D0E94F50453
:10308000282EE82E880FFF08C32CD12C002E000C10
:10309000110BC60101975701A01AB10AB7FE03C070
:1030A000B194A194B10852E0A516B10454F43E2D98
:1030B0002F2D7601C32ED22E302F212F8C01832F5E
:1030C000922FE016F10654F03C2D2D2D6C01832F2C
:1030D000922F3E2D2F2D7801032F122F48018E188D
:1030E0009F082C014C185D0857FE03C05194419471
:1030F0005108340197FE03C0EFEF6E1A7E0A7594F3
:103100006794C816D90634F581E0282F880F330B51
:1031100023963FAF2EAF23970E151F05ECF041E02D
:10312000B701C60132E0A316B10414F4B601C70119
:103130000E9421086418750877FE08C023964EADDA
:103140005FAD2397C40ED51E680C791C5FEFE51A9E
:10315000F50AE2CF8FEFD9CF3394022D42CF0E94F0
:1031600041040E9451048823E1F38091A2068093D8
:10317000A3060E94D8078093A20684E00E948F03D2
:10318000882369F364CD10920C011092AA01109269
:10319000A9015DCDEF920F931F93CF93DF93E801C9
:1031A00034E047FD34E1042E000C550B57FF03C0FB
:1031B000519541955109E32E022F242FAE010E9413
:1031C000391BCE01DF91CF911F910F91EF900895A0
:1031D000B0E0A0E0EEEEF8E10C94EB1D5C017B01A9
:1031E0006115710519F0DB018D939C9385010F5FCB
:1031F0001F4FF501D0818D2F90E00E943C1A6C0189
:10320000892BB9F5DD32B9F50F5F1F4FD501119646
:10321000DC91C1E05801F1E0AF1AB10843E050E0A1
:1032200064E571E0C5010E944E1A892B69F56801B9
:1032300082E0C80ED11C45E050E06FE471E0C601A9
:103240000E944E1A892B21F4680197E0C90ED11C07
:10325000E114F10419F0D701CD92DC9260E070E046
:1032600080E89FEFC111FFC060E070E080E89FE759
:10327000FAC05801BBCFDB3229F485010E5F1F4F26
:10328000F501D181C0E0C6CF43E050E06CE471E0CD
:10329000C5010E944E1A892BE9F0F80110E000E008
:1032A00020E030E0A9015F01B0ED8B2E8D0E89E0AA
:1032B0008815C8F19C2E689491F88C2F8870C2FFF5
:1032C00016C0811102C00F5F1F4F3196D501DC91EE
:1032D000C92DE9CFE114F10429F00E5F1F4FF7016A
:1032E0001183008360E070E080EC9FE7BCC088231E
:1032F00011F001501109A5E0B0E00E94DA1D9B0118
:10330000AC01220F331F441F551F280D311D411DD5
:10331000511D283999E93907490799E15907A8F258
:10332000C6609C2ED2CFAEEF8A1206C0C3FD3CC051
:103330009C2E689493F8C9CFDF7DD534A9F58081A0
:103340008D3239F4C061DF011296818162E070E054
:1033500006C0DF018B32C1F3119661E070E080534B
:103360005D01A61AB70A8A30F8F4E0E8CE16ECE060
:10337000DE065CF4B601660F771F660F771FC60E78
:10338000D71ECC0CDD1CC80ED11C5D01FFEFAF1A9F
:10339000BF0A8C9180538A30A8F1C4FF03C0D19436
:1033A000C194D1080C0D1D1DC1FF09C0E114F10429
:1033B00031F081E0A81AB108D701AD92BC92CA01E0
:1033C000B9010E946B1AC370C33009F490584B01C5
:1033D0005C0120E030E0A9010E94661A882309F40C
:1033E00040C0C3E8D1E017FF05C011950195110950
:1033F000CBE6D1E06E01B8E1CB1AD10880E2E82E2D
:10340000F12C0FC0D501B1CFFE0125913591459129
:1034100054910E191F09C501B4010E94CC1A4B0129
:103420005C01D501C4010E151F0574F72497F594AE
:10343000E794CC16DD06A9F78A2F880F8B2F881FFB
:103440008F3F49F020E030E0A901C501B4010E949E
:10345000661A811106C082E290E09093A9068093DB
:10346000A806C501B401CDB7DEB7ECE00C94071E89
:10347000662777270C94E81891110C94701D803200
:1034800019F089508550C8F70895FB01DC0102C08E
:1034900005900D9241505040D8F70895FB01DC0192
:1034A0004150504088F08D9181341CF08B350CF4E4
:1034B000805E659161341CF06B350CF4605E861B98
:1034C000611171F3990B0895881BFCCF0E94A81A13
:1034D00008F481E00895E89409C097FB3EF49095C4
:1034E0008095709561957F4F8F4F9F4F9923A9F0DD
:1034F000F92F96E9BB279395F6958795779567956C
:10350000B795F111F8CFFAF4BB0F11F460FF1BC0AF
:103510006F5F7F4F8F4F9F4F16C0882311F096E942
:1035200011C0772321F09EE8872F762F05C06623F0
:1035300071F096E8862F70E060E02AF09A95660FA9
:10354000771F881FDAF7880F9695879597F9089562
:10355000990F0008550FAA0BE0E8FEEF16161706A4
:10356000E807F907C0F012161306E407F50798F00C
:10357000621B730B840B950B39F40A2661F0232B25
:10358000242B252B21F408950A2609F4A140A695A1
:103590008FEF811D811D08950E94DF1A0C948A1DF2
:1035A0000E947C1D38F00E94831D20F0952311F0AD
:1035B0000C94731D0C94791D11240C94BE1D0E9453
:1035C0009B1D70F3959FC1F3950F50E0551F629FAF
:1035D000F001729FBB27F00DB11D639FAA27F00D6C
:1035E000B11DAA1F649F6627B00DA11D661F829F93
:1035F0002227B00DA11D621F739FB00DA11D621F78
:10360000839FA00D611D221F749F3327A00D611D94
:10361000231F849F600D211D822F762F6A2F112476
:103620009F5750409AF0F1F088234AF0EE0FFF1FA9
:10363000BB1F661F771F881F91505040A9F79E3F00
:10364000510580F00C94731D0C94BE1D5F3FE4F394
:10365000983ED4F3869577956795B795F795E79556
:103660009F5FC1F7FE2B880F911D9695879597F95F
:103670000895A9E0B0E0EFE3FBE10C94EB1D6A01D3
:10368000F22EB02E102FFBE3AF2EA01608F41BE392
:103690001F5F012F27E0AE014F5F5F4F0E94981C14
:1036A000BC018981982F9970913009F43FC09BE249
:1036B000E1FC04C09E2D9170E0FC3AC05E2D50717B
:1036C000E82FE87083FF46C084E0911101C083E0D9
:1036D000EF2DE81B8F1508F0E0E0D6018E2F20E2D9
:1036E000552351F1992329F0D6019C93C6010196E7
:1036F0006C0196012D5F3F4FE2FE24C08EE4D6019F
:103700008C9391E411969C93119712968C93D90106
:103710008E2F90E281111BC0E20FF32FF11D10825A
:103720008EEF9FEF2996ECE00C94071E9DE2C6CF2A
:1037300090E2C4CF2D9381508111FCCFCE0ED11CCD
:10374000E0E0D0CF8EE6D6018C9391E6DBCF9D935F
:103750008150E0CF482F447082FF3DC084E091113A
:1037600001C083E08F1510F4EF2DE81BD6018E2FDA
:1037700020E2552309F1992329F0D6019C93C60133
:1037800001966C0196012D5F3F4FE2FE1BC089E45C
:10379000D6018C938EE411968C93119786E4129641
:1037A0008C93D9018E2F90E2882309F4B5CF9D9395
:1037B0008150FACF2D9381508111FCCFCE0ED11CB8
:1037C000E0E0D9CF89E6D6018C938EE611968C93F2
:1037D000119786E6E4CF9B0177FF02C030E020E03E
:1037E000A1E0B0E0911102C0B0E0A0E0F901319693
:1037F000AE0FBF1F8B2C912CBB2009F461C054016C
:10380000EFEFAE1ABE0AAA0DBB1DFA161B0619F081
:1038100014F04F2D4A1B511188C0E3FC59C07601AA
:10382000A42FB0E2A1114FC0C40ED11C992309F4FA
:103830005BC040E0D6011196F60190836D015523DF
:1038400009F448C0012F060F9A81582F507184FF48
:1038500003C0913309F4015010160CF047C0093031
:1038600008F008E0EEE2FE2E5B01A01AB108850127
:103870009194819491082F3F320729F4D601FC924C
:10388000F60131966F016217730794F1021713075F
:103890007CF5DB01A21BB30BAA24A394B12CAC0EC4
:1038A000BD1EAA0DBB1D11968C9121503109D60168
:1038B000119628153905F4F0F60180836D01DBCFF0
:1038C000B12CA12CA0CFF701B1937F01A150AACFB9
:1038D0009111B0CFD601942F50E302C05D93915067
:1038E0009111FCCFC40ED11C40E0ACCF01E0BACFA7
:1038F00080E3DBCF6217730731F4963388F4953396
:1039000011F4552369F0F6018083FD01842F90E2C4
:10391000811108C0A40FB11D1C9290E080E002CF7D
:1039200081E3F1CF91938150F3CF911183CF8ACF6F
:10393000283008F027E03327DA01990F311D87FD81
:10394000916000966105710539F432602E5F3D93F8
:1039500030E32A95E1F708959F3F30F080387105F4
:10396000610509F03C5F3C5F3D93913008F0806851
:10397000911DDF93CF931F930F93FF92EF92192F17
:10398000987F9695E92F96959695E90FFF27EF5129
:10399000FE4F99273327EE24FF24A701E701059066
:1039A0000894079428F4360FE71EF81E491F511D8E
:1039B000660F771F881F991F0694A1F7059007943B
:1039C00028F4E70EF81E491F561FC11D770F881FE8
:1039D000991F661F0694A1F70590079428F4F80E26
:1039E000491F561FC71FD11D880F991F661F771FBC
:1039F0000694A1F70590079420F4490F561FC71F9E
:103A0000D81F990F661F771F881F0694A9F7849106
:103A10001095177041F0D695C79557954795F7942F
:103A2000E7941A95C1F7E7E8F1E0689415901591CD
:103A300035916591959105907FE27395E118F10AB2
:103A4000430B560BC90BD009C0F7E10CF11E431F05
:103A5000561FC91FD01D7EF4703311F48A95E6CF2E
:103A6000E894015030F0080F0AF40027021708F418
:103A7000202F2395022F7A3328F079E37D932A951E
:103A8000E9F710C07D932A9589F606949795679576
:103A9000379517951794E118F10A430B560BC90B8C
:103AA000D00998F023957E9173957A3308F070E3EE
:103AB0007C932013B8F77E9170617D9330F08395ED
:103AC00071E37D9370E32A95E1F71124EF90FF9065
:103AD0000F911F91CF91DF91992787FD90950895C0
:103AE00099278827089597F99F6780E870E060E03C
:103AF00008959FEF80EC089500240A941616170687
:103B000018060906089500240A94121613061406CE
:103B100005060895092E0394000C11F4882352F031
:103B2000BB0F40F4BF2B11F460FF04C06F5F7F4FE9
:103B30008F4F9F4F089557FD9058440F551F59F0D0
:103B40005F3F71F04795880F97FB991F61F09F3F8A
:103B500079F087950895121613061406551FF2CFB3
:103B60004695F1DF08C0161617061806991FF1CF03
:103B700086957105610508940895E894BB2766272A
:103B80007727CB0197F90895F999FECF92BD81BDB2
:103B9000F89A992780B50895262FF999FECF1FBA74
:103BA00092BD81BD20BD0FB6F894FA9AF99A0FBE66
:103BB000019608950E943E1EA59F900DB49F900D02
:103BC000A49F800D911D112408952F923F924F9232
:103BD0005F926F927F928F929F92AF92BF92CF929D
:103BE000DF92EF92FF920F931F93CF93DF93CDB7A6
:103BF000DEB7CA1BDB0B0FB6F894DEBF0FBECDBF1E
:103C000009942A88398848885F846E847D848C84EE
:103C10009B84AA84B984C884DF80EE80FD800C81F7
:103C20001B81AA81B981CE0FD11D0FB6F894DEBFDA
:103C30000FBECDBFED010895A1E21A2EAA1BBB1B3A
:103C4000FD010DC0AA1FBB1FEE1FFF1FA217B30768
:103C5000E407F50720F0A21BB30BE40BF50B661F7E
:103C6000771F881F991F1A9469F760957095809542
:103C700090959B01AC01BD01CF010895A29FB001B9
:103C8000B39FC001A39F700D811D1124911DB29F90
:103C9000700D811D1124911D08955058BB27AA272E
:103CA0000E94651E0C948A1D0E947C1D38F00E94A3
:103CB000831D20F039F49F3F19F426F40C94791DEC
:103CC0000EF4E095E7FB0C94731DE92F0E949B1DF9
:103CD00058F3BA17620773078407950720F079F441
:103CE000A6F50C94BD1D0EF4E0950B2EBA2FA02D59
:103CF0000B01B90190010C01CA01A0011124FF2799
:103D0000591B99F0593F50F4503E68F11A16F04093
:103D1000A22F232F342F4427585FF3CF4695379592
:103D20002795A795F0405395C9F77EF41F16BA0B57
:103D3000620B730B840BBAF09150A1F0FF0FBB1F05
:103D4000661F771F881FC2F70EC0BA0F621F731F4E
:103D5000841F48F4879577956795B795F7959E3FAB
:103D600008F0B0CF9395880F08F09927EE0F97953C
:103D7000879508950E94CB1FE3950C94F41F0E9431
:103D8000D31E0C948A1D0E94831D58F00E947C1D36
:103D900040F029F45F3F29F00C94731D51110C94ED
:103DA000BE1D0C94791D0E949B1D68F39923B1F3ED
:103DB000552391F3951B550BBB27AA276217730751
:103DC000840738F09F5F5F4F220F331F441FAA1FE5
:103DD000A9F335D00E2E3AF0E0E832D091505040A1
:103DE000E695001CCAF72BD0FE2F29D0660F771F4F
:103DF000881FBB1F261737074807AB07B0E809F035
:103E0000BB0B802DBF01FF2793585F4F3AF09E3FB9
:103E1000510578F00C94731D0C94BE1D5F3FE4F3C4
:103E2000983ED4F3869577956795B795F7959F5FFC
:103E3000C9F7880F911D9695879597F90895E1E048
:103E4000660F771F881FBB1F621773078407BA07A7
:103E500020F0621B730B840BBA0BEE1F88F7E09502
:103E600008950E94381F6894B1110C94BE1D0895E6
:103E70000E94A31D88F09F5798F0B92F9927B7513A
:103E8000B0F0E1F0660F771F881F991F1AF0BA95FE
:103E9000C9F714C0B13091F00E94BD1DB1E0089582
:103EA0000C94BD1D672F782F8827B85F39F0B93F74
:103EB000CCF3869577956795B395D9F73EF49095B1
:103EC0008095709561957F4F8F4F9F4F08950E9409
:103ED0007C1D20F019F00E94831D50F40C94791D74
:103EE0000C94BE1DE92F0E949B1D88F35523B1F34E
:103EF000E7FB6217730784079507A8F189F3E92F99
:103F0000FF2788232AF03197660F771F881FDAF77B
:103F1000952F5527442332F091505040220F331FE4
:103F2000441FD2F7BB27E91BF50B621B730B840BF5
:103F3000B109B1F222F4620F731F841FB11D3197D2
:103F40002AF0660F771F881FBB1FEFCF915050409C
:103F500062F041F0882332F0660F771F881F91507E
:103F60005040C1F793950C94BB1F86957795679544
:103F70009F5FD9F7F7CF9F3F31F0915020F487959D
:103F800077956795B795880F911D9695879597F9C1
:103F900008950C94791D0E94A31DD8F3E894E0E0E5
:103FA000BB279F57F0F02AED3FE049EC06C0EE0F2B
:103FB000BB0F661F771F881F28F0B23A620773078E
:103FC000840728F0B25A620B730B840BE3959A9521
:103FD00072F7803830F49A95BB0F661F771F881FE1
:103FE000D2F790480C94BD1FEF93E0FF07C0A2EA00
:103FF0002AED3FE049EC5FEB0E94651E0E948A1D9E
:104000000F90039401FC9058ECEAF0E00C94CB2064
:104010000E94A81A08F48FEF0895FA01EE0FFF1F0F
:10402000309621053105A1F16115710561F48038E3
:10403000BFE39B0749F168949038810561F08038AF
:10404000BFEF9B0741F099234AF5FF3FE10531059A
:10405000210519F1E8940894E795D901AA2329F4D8
:10406000AB2FBE2FF85FD0F310C0FF5F70F4A695A2
:10407000E0F7F73950F019F0FF3A38F49F779F9343
:104080000DD00F9007FC9058089546F00C94791DC0
:1040900060E070E080E89FE308954FE79F775F93CB
:1040A0004F933F932F930E9429212F913F914F913E
:1040B0005F910E94CC1A0C9472209F930E94CB1F98
:1040C0000F9007FCEE5F0C94F41F0E94A81A880B57
:1040D000990B089529F416F00C94731D0C94BD1DD2
:1040E0000C94791D0E94A31DA8F39638A0F707F839
:1040F0000F92E8942BE33AEA48EB5FE70E94E21A5A
:104100000F920F920F924DB75EB70F920E947121DE
:10411000EAECF0E00E94A4204F915F91EF91FF91B3
:10412000E595EE1FFF1F49F0FE57E0684427EE0FAC
:10413000441FFA95E1F74195550B0E94EB200F9033
:1041400007FE0C94DF200895DF93CF931F930F9306
:10415000FF92EF92DF927B018C01689406C0DA2E09
:10416000EF010E94DF1AFE01E894A5912591359197
:1041700045915591A6F3EF010E94651EFE0197013E
:10418000A801DA9469F7DF90EF90FF900F911F91EB
:10419000CF91DF9108959F938F937F936F93FF93B8
:1041A000EF939B01AC010E94CC1AEF91FF910E940A
:1041B000A4202F913F914F915F910C94CC1A9B01B9
:1041C000AC0160E070E080E89FE30C94BF1E0C94AB
:1041D000731D0C94BB1F0E94A31DD8F39923C9F330
:1041E000940F511DA3F39150504094F059F088233F
:1041F00032F0660F771F881F91505040C1F79E3FE5
:1042000051052CF7880F911D9695879597F908957C
:104210005F3FACF0983E9CF0BB27869577956795FD
:10422000B79508F4B1609395C1F7BB0F58F711F437
:1042300060FFE8CF6F5F7F4F8F4F9F4FE3CF0C94AE
:10424000BE1D16F00C94BB1F0C94791D68940C9441
:10425000731D0E94A31DA8F39923C1F3AEF3DF934E
:10426000CF931F930F93FF92C92FDD2788232AF046
:104270002197660F771F881FDAF720E030E040E8CB
:104280005FEB9FE3883920F0803E38F021968F77EE
:104290000E944E1EE2EFF0E004C00E944E1EEFE1CD
:1042A000F1E00E94A4208B01BE01EC01FB2E6F57B0
:1042B00071097595771F880B990B0E946D1A28E17B
:1042C00032E741E35FE30E94DF1AAF2D9801AE01B0
:1042D000FF900F911F91CF91DF910E94651E0C946A
:1042E0008A1DFA01DC01AA0FBB1F9B01AC01BF575D
:1042F00028F4222733274427507820C0B75190F460
:10430000AB2F0024469537952795011CA395D2F332
:10431000002071F0220F331F441FB395DAF30ED043
:104320000C944D1E61307105A0E88A07B94630F43F
:104330009B01AC016627772788279078309621F07B
:1043400020833183428353830895991B79E004C00D
:10435000991F961708F0961B881F7A95C9F78095C4
:10436000089597FB072E16F4009407D077FD09D027
:104370000E94CB2107FC05D03EF4909581959F4F7C
:104380000895709561957F4F0895EE0FFF1F05907A
:10439000F491E02D0994AA1BBB1B51E107C0AA1F91
:1043A000BB1FA617B70710F0A61BB70B881F991FD6
:1043B0005A95A9F780959095BC01CD0108950F936A
:1043C0001F93CF93DF938230910510F482E090E049
:1043D000E091AC06F091AD0630E020E0B0E0A0E066
:1043E000309799F42115310509F44AC0281B390B7F
:1043F00024303105D8F58A819B816115710589F1D9
:10440000FB0193838283FE0111C0408151810281AF
:10441000138148175907E0F04817590799F4109786
:1044200061F012960C93129713961C933296CF015B
:10443000DF91CF911F910F9108950093AC061093D7
:10444000AD06F4CF2115310551F04217530738F06E
:10445000A901DB019A01BD01DF01F801C1CFEF0124
:10446000F9CF9093AD068093AC06CDCFFE01E20F5D
:10447000F31F819391932250310939832883D7CF39
:104480002091AA063091AB06232B41F420912F01F5
:10449000309130013093AB062093AA0620912D0174
:1044A00030912E012115310541F42DB73EB74091D1
:1044B000310150913201241B350BE091AA06F09195
:1044C000AB06E217F307A0F42E1B3F0B28173907A2
:1044D00078F0AC014E5F5F4F2417350748F04E0F60
:1044E0005F1F5093AB064093AA06819391939FCF91
:1044F000F0E0E0E09CCFCF93DF930097E9F0FC0180
:10450000329713821282A091AC06B091AD06ED01F4
:1045100030E020E01097A1F420813181820F931FB9
:104520002091AA063091AB062817390709F061C01F
:10453000F093AB06E093AA06DF91CF910895EA01CC
:10454000CE17DF07E8F54A815B819E0141155105D1
:10455000B1F7E901FB83EA8349915991C40FD51F53
:10456000EC17FD0761F4808191810296840F951FFD
:10457000E90199838883828193819B838A83F0E018
:10458000E0E012968D919C9113970097B9F52D91CB
:104590003C911197CD010296820F931F2091AA069C
:1045A0003091AB062817390739F6309751F510923C
:1045B000AD061092AC06B093AB06A093AA06BCCF92
:1045C000D383C28340815181840F951FC817D907B7
:1045D00061F44E5F5F4F88819981480F591F518365
:1045E00040838A819B81938382832115310509F061
:1045F000B0CFF093AD06E093AC069ECFFD01DC0199
:10460000C0CF13821282D7CFB0E0A0E0EAE0F3E29D
:104610000C94E71D8C01009751F4CB010E94DF211F
:104620008C01C801CDB7DEB7E0E10C94031EFC019C
:10463000E60FF71F9C0122503109E217F30708F437
:104640009DC0D901CD91DC911197C617D70798F07D
:10465000C530D10530F3CE0104978617970708F3CC
:10466000C61BD70B2297C193D1936D937C93CF0137
:104670000E947B22D6CF5B01AC1ABD0A4C018C0E86
:104680009D1EA091AC06B091AD06512C412CF12C91
:10469000E12C109731F58091AA069091AB06881510
:1046A000990509F05CC04616570608F058C080917D
:1046B0002D0190912E01009741F48DB79EB7409146
:1046C000310150913201841B950BE817F90708F06E
:1046D00055C0F093AB06E093AA06F901718360839D
:1046E000A0CF8D919C91119712966C901297139672
:1046F0007C901397A815B90559F56C0142E0C40EDA
:10470000D11CCA14DB0420F1AC014A195B09DA019F
:104710001296159780F06282738251834083D9018B
:104720006D937C93E114F10471F0D7011396FC931F
:10473000EE93129776CF22968C0F9D1FF9019183ED
:104740008083F301EFCFF093AD06E093AC0669CF21
:104750004816590608F42C017D01D3019ACFCB01EC
:104760000E94DF217C01009749F0AE01B8010E9450
:10477000C123C8010E947B22870153CF10E000E0D3
:1047800050CFFB01DC0102C001900D92415050401E
:10479000D8F70895FB01DC0101900D920020E1F7AC
:0647A0000895F894FFCF1C
:1047A600FFFFFFFF00E100000000000001322A7851
:1047B6005E322B352A780000000000000000000061
:1047C600000000000000000000000000000000AE35
:1047D60006800000C1808100000000000000730612
:1047E6004C0794068906DA069806B606000000000D
:1047F6000B094606C209C10900000000B3053000D6
:1048060031003200330034003500360037003800FE
:1048160039002E00280029002B004F4B002A002FBC
:10482600005E00250078003C2D003C3C000D0A008F
:0C4836006E616E00696E66006F766600B1
:00000001FF
