:100000000C9437030C945F030C945F030C945F0310
:100010000C945F030C945F030C945F030C945F03D8
:100020000C945F030C945F030C94AD110C941C12A0
:100030000C945F030C945F030C945F030C945F03B8
:100040000C945F030C945F030C945F030C945F03A8
:100050000C945F030C945F030C945F030C944E1498
:100060000C945F030C945F030C945F030C945F0388
:100070000C945F030C945F030C945F030C945F0378
:100080000C945F030C945F030C945F030C945F0368
:100090000C945F030C945F030C945F030C945F0358
:1000A0000C945F030C945F030C945F0305A84CCD84
:1000B000B2D44EB93836A9020C50B9918688083CA2
:1000C000A6AAAA2ABE000000803F07634236B79B5B
:1000D000D8A71A39685618AEBAAB558C1D3CB7CCA8
:1000E0005763BD6DEDFD753EF6177231BF00000020
:1000F000803F08000000BE922449123EABAAAA2A03
:10010000BECDCCCC4C3E00000080BEABAAAAAA3E1D
:1001100000000000BF000000803F00000000000859
:100120004178D3BB4387D1133D190E3CC3BD4282F6
:10013000AD2B3E68EC8276BED98FE1A93E4C80EFB4
:10014000FFBE01C4FF7F3F00000000004E414E494A
:100150004E495459494E46CDCCCC3D0AD7233C1785
:10016000B7D13877CC2B329595E6241FB14F0A00D2
:100170000020410000C84200401C4620BCBE4CCAC2
:100180001B0E5AAEC59D7400407A10F35A00A0723F
:100190004E18090010A5D4E80000E87648170000C2
:1001A000E40B54020000CA9A3B000000E1F5050090
:1001B0000080969800000040420F000000A08601D9
:1001C000000000102700000000E8030000000064A9
:1001D00000000000000A0000000000010000000014
:1001E000002C76D888DC674F0823DFC1DFAE59E1E9
:1001F000B1B796E5E3E453C63AE651997696E8E658
:10020000C28426EB898C9B62ED407C6FFCEFBC9C2A
:100210009F40F2BAA56FA5F490055A2AF75C936B3C
:100220006CF9676DC11BFCE0E40D47FEF520E6B5F7
:1002300000D0ED902E0300943577050080841E08D1
:100240000000204E0A000000C80C333333330F98EF
:100250006E12831141EF8D2114893BE65516CFFEB6
:10026000E6DB18D1844B381BF77C1D901DA4BBE442
:1002700024203284725E228100C9F124ECA1E53D84
:100280002753796E746178204572726F72004272E2
:1002900061636B657473206D69736D61746368006D
:1002A000576169742E2E2E0012FFFDFE18130708E9
:1002B000091719040506162001020315FC00101188
:1002C00014FFFDFE070809040506010203001011D2
:1002D0002F0300033F0A3F163F1A0904121A251A7A
:1002E00028031E21211E0A040A040E0460040404CB
:1002F000200804021E211E223F2039252221251A12
:1003000007043F1725191E25190139071A251A1246
:10031000251E1434040A111414110A04012D061E9A
:10032000212D2E3E053E3F251A1E21213F211E3F35
:10033000253F051E213D3F043F213F21211F3F0452
:100340003B3F203F0204023F3F02043F1E211E3F6D
:1003500005021E312E3F053A2619013F013F203F7D
:100360001F301F1F201C201F3B043B033C03392769
:100370003F21020408213F02010220202001021433
:100380002C383F2418182418243F1834283E0548D8
:10039000543C3F04383D403D3F043A3F3C043C045C
:1003A000383C04381824187C241818247C3C042871
:1003B000141F241C203C1C201C1C2038203C34080A
:1003C000344C503C342C043B213B213B04020604BA
:1003D000A0028E02810263616E277420706F702C00
:1003E00020737461636B20656D7074790063616E56
:1003F0002774207065656B2C20737461636B2065B6
:100400006D7074790063616E277420706F702C209A
:10041000737461636B20656D707479006E6F206D0D
:10042000656D0063616E277420726573697A65205B
:100430007468617420736D616C6C006E6F206D6503
:100440006D0063616E277420726573697A6520742C
:1004500068617420736D616C6C00F0F89C8E87830A
:10046000878E9CF8F00000FEFF0303030303070ED2
:10047000FCF80000FEFF0303030303070EFCF80073
:1004800000FFFF00000000000000FFFF0000FEFF73
:100490008383838383C7EE7C380000F8FC0E070358
:1004A0000303070EFCF800003F7FE0C08080C0E03F
:1004B0007F3FFFFF01010101010101FFFF0000FF7C
:1004C000FF0C0C0C0C1C3E77E3C100007FFFC0C08A
:1004D000C0C0C0E0703F1F00001F3F70E0C0C0C040
:1004E000E0703F1F00007FFFC1C1C1C1C1E3773E83
:1004F0001C00001F3F70E0C0C0C0E0703F1F000044
:1005000000000001FFFF01000000D5F08D14A1C81C
:1005100081CFD9F1AF200064783D006628782900AA
:100520007800887E0901282828280C122125122C01
:10053000408005F2A5A0FEAAAAFE100808172625ED
:1005400010087E81A99181A1817EFC9497B5B59711
:1005500094FC596D617800596D696E00586D617831
:1005600000586D696E00546F6F6C730A746F646F1E
:10057000004469726563740054726163650A746F44
:10058000646F005461626C650057696E646F770038
:1005900046756E6374696F6E00080B0002020201FB
:1005A00000090400000102020000052400100105FA
:1005B0002401010104240206052406000107058127
:1005C0000310004009040100020A000000070502B0
:1005D00002400000070583024000000403090412E2
:1005E000010002EF020140412336800001010203B5
:1005F0000141726475696E6F204C4C430041726416
:1006000075626F79000305C1020505A802000104A7
:10061000070A0D11121416191C1D202124272A2D3A
:10062000303336393C3F42434447494C4F53565987
:100630005C5F616366696C6E7173787C7F828588AC
:100640008A8D9093989B9EA0A2A5A7AAADAFB2B5A4
:10065000B7BABDBFC2C5C6C8CBCCD1D4D7DADDDFEF
:10066000E1E3E6E9EEF1F4F6F9FAFD00D014112425
:100670001FBECFEFDAE0DEBFCDBF11E0A0E0B1E0FA
:10068000ECEFF7E502C005900D92A23BB107D9F758
:1006900027E0A2EBB1E001C01D92A63AB207E1F754
:1006A00013E0C7E3D3E004C02197FE010E94F029C4
:1006B000C633D107C9F70E941B150C94FC2B0C9470
:1006C0000000282F30E0F901E351FA4F84912451C2
:1006D0003A4FF9012491821B0895E0E8F3E0A0E08D
:1006E000B8E000800EBC8111012C1197A0FDFDCF58
:1006F0000192B9F70DB4089580E00C946D039091C8
:100700009B07982329F490919A07982381E009F494
:1007100080E008958FB7F89440910303509104034B
:1007200060910503709106038FBF80919D07942F00
:10073000981B80919E07882331F090939F07109219
:100740009E0780E0089520919C07921740F49F5FD8
:100750009217A0F491E093BF889513BE089581E0AD
:1007600080939E0740939D078091980790919907E9
:100770000196909399078093980781E008952F92AE
:100780003F924F925F926F927F928F929F92AF9221
:10079000BF92CF92DF92EF92FF920F931F93CF936E
:1007A000DF9330E0F901E80FF91FF7FD96C08038BC
:1007B00091050CF092C0FB01E00FF11DF7FD8DC01B
:1007C000603471050CF089C0DB0177FF04C0AA27F3
:1007D000BB27A61BB70BA770BB27EB0177FD27969E
:1007E000E3E0D595C795EA95E1F777FF07C0219734
:1007F00068E070E0FB01EA1BFB0BDF010695069544
:100800000695602E712C7A01AE015695542F44271F
:1008100057954795480F591F40585C4FBE01E8E077
:10082000F0E02F014A1A5B0A6F3FFFEF7F070CF4DD
:1008300044C06C0110E000E04A01F0E88F0E911C0A
:10084000D7FC2EC06F3F760709F45AC0F701E00FBE
:10085000F11FE4915A01A00EB11EF0E01F010A2E13
:1008600001C0220C0A94EAF7F50130802328208287
:100870001097B1F06730710599F0F701E00FF11FA3
:10088000E4915401A00EB11EF0E01F01042C02C03F
:10089000359427940A94E2F7F501308023282082CA
:1008A0000F5F1F4FFFEFCF1ADF0A021713072CF459
:1008B000E0E8CE16D10409F0C3CF6F5F7F4FE20EA0
:1008C000F31E40585F4FFB01EC1BFD0BE615F705CF
:1008D00024F46830710509F0A7CFDF91CF911F9103
:1008E0000F91FF90EF90DF90CF90BF90AF909F90CF
:1008F0008F907F906F905F904F903F902F900895D2
:10090000109709F0BACFCCCF823109F465C050F509
:10091000853009F452C098F4823009F478C038F474
:10092000882309F471C0813009F441C008958330EF
:1009300009F440C08430D1F78BE791E00895883006
:1009400009F441C038F48630D9F1873079F781E86D
:1009500091E008958031D1F1E0F5893039F785E8EB
:1009600091E00895883109F440C088F4853189F117
:1009700038F48331A1F18431C9F68BE891E0089510
:10098000863181F1873191F682E991E008958C3FBB
:1009900091F138F4893161F1803241F68AE991E0D0
:1009A00008958E3F71F150F18DE891E0089585E74B
:1009B00091E0089589E791E008958DE791E0089529
:1009C0008FE791E0089583E891E0089587E891E04A
:1009D00008958EE991E008958BE991E0089589E802
:1009E00091E0089580E991E0089584E991E0089507
:1009F00086E991E0089588E991E008958DE991E014
:100A0000089580EA91E0089583E791E0089587E7EB
:100A100091E0089580E20E947F03882339F080915D
:100A20007E03882319F0815080937E0380E40E9426
:100A30007F03882381F020917E0380917A03909137
:100A40007B03899FC00111240197281719061CF404
:100A50002F5F20937E0380E80E947F03882349F064
:100A600080917E0390917A03891718F0891B8093F7
:100A70007E0380E10E947F03882399F080917E03AA
:100A800090917A0320917B032150330B929FA00118
:100A9000939F500D1124841715061CF4890F809321
:100AA0007E0388E00E947F03882391F1E0917E031A
:100AB00080917C0390917D03E80FF92FF11D8491C3
:100AC000E09177038E3FD9F1E0F48D3F91F10E94E0
:100AD00084049C0190E0E091770381E08E0F809385
:100AE0007703D901A90FB11D8C91F0E0E95AFC4FB1
:100AF00080839F5FF901E90FF11D80818111EBCFA8
:100B000007C081E080937F03F0E0E95AFC4F108238
:100B100084E00E947F03882359F0E0917703EE235D
:100B200039F0E150E0937703F0E0E95AFC4F10828E
:100B30000895EE2369F3E150E0937703E5CFEE23C8
:100B400039F0E150AE2FB0E0A95ABC4F1C92F7CF5C
:100B500010927703DDCF80E0E0E8F3E081118FEFC2
:100B6000002481938193819381930394D1F7089515
:100B70008F929F92AF92BF92CF92DF92EF92FF92AD
:100B8000C0903001D0903101E0903201F0903301FB
:100B9000A70196010E9478264B015C01A7019601EE
:100BA0006091340170913501809136019091370147
:100BB0000E9478269B01AC01C501B4010E94EA267F
:100BC0006B017C016091400170E090E080E00E9448
:100BD00096229B01AC01C701B6010E94F7226B016E
:100BE0007C0120E030E04EEF52E40E9433286FE7B2
:100BF0001816F4F020E030E040E053ECC701B601F5
:100C00000E94912260E887FD13C020E030E0A90136
:100C1000C701B6010E94332820E030E040E05FE3E6
:100C200087FD10C0C701B6010E9479260E945C278B
:100C3000862FFF90EF90DF90CF90BF90AF909F9066
:100C40008F900895C701B6010E947826EFCF8F924A
:100C50009F92AF92BF92CF92DF92EF92FF92C0909D
:100C60003C01D0903D01E0903E01F0903F01A70192
:100C700096010E9478264B015C01A70196016091C4
:100C800038017091390180913A0190913B010E94A5
:100C900078269B01AC01C501B4010E94EA266B01D4
:100CA0007C016091410170E090E080E00E9496221A
:100CB0009B01AC01C701B6010E94F7226B017C01C8
:100CC00020E030E04EEF52E40E9433286FE7181620
:100CD000F4F020E030E040E053ECC701B6010E94A0
:100CE000912260E887FD13C020E030E0A901C70130
:100CF000B6010E94332820E030E040E05FE387FD4A
:100D000010C0C701B6010E9479260E945C27862F79
:100D1000FF90EF90DF90CF90BF90AF909F908F901B
:100D20000895C701B6010E947826EFCFFC0180919B
:100D30000203882311F13FB7F89482E08093E90021
:100D40002091F200822F90E01816190614F481E029
:100D500090E0882339F0289844E6409301034091BD
:100D6000F1004083222339F02091F200211103C0C9
:100D70002BE62093E8003FBF08958FEF9FEF089583
:100D80002FB7F89483E08093E9009091E800892FD1
:100D9000807295FF04C09091F20080E4891B2FBF00
:100DA00008958091F90281110DC082E08093F502CF
:100DB00084E08093F6021092F8021092F70281E02C
:100DC0008093F90285EF92E00895CF93DF931F920D
:100DD000CDB7DEB76983DC01ED91FC910280F38130
:100DE000E02D41E050E0BE016F5F7F4F09950F900D
:100DF000DF91CF91089583E08093E9008091F20024
:100E0000882319F08AE38093E80008950E94C006C1
:100E100090E00895CF93DF931F92CDB7DEB7FC012A
:100E20008485958597FD08C02FEF3FEF3587248790
:100E30000F90DF91CF910895CE0101960E94960602
:100E4000019719F4898190E0F3CF8FEF9FEFF0CFF6
:100E50000F931F93CF93DF931F92CDB7DEB78C0113
:100E6000FC018485958597FF0BC0CE0101960E94F9
:100E70009606019771F4898190E0F801958784873F
:100E8000F801848595850F90DF91CF911F910F9187
:100E900008958FEF9FEFF1CFFC018485958597FD35
:100EA0000BC09FB7F89482E08093E9008091F20034
:100EB0009FBF90E0019608959FB7F89482E08093D9
:100EC000E9008091F2009FBF90E008954091EF0209
:100ED0005091F0022091ED023091EE02421753073B
:100EE000B4F49091E8009570E1F39091E80092FDE0
:100EF00019C08093F1008091EF029091F002019669
:100F00008F739927892B19F48EEF8093E8008091D5
:100F1000EF029091F00201969093F0028093EF021D
:100F200081E0089580E00895DF92EF92FF920F93A1
:100F30001F93CF93DF93D82E8A01EB017B01E40E40
:100F4000F51ECE15DF0559F0D7FE12C0FE018491C3
:100F50000E94660721968111F4CF0FEF1FEFC801A1
:100F6000DF91CF911F910F91FF90EF90DF90089547
:100F70008881EECF0F931F93CF93DF931F92CDB74E
:100F8000DEB782E0898342E450E069E975E080E8F9
:100F90000E9494070E94D106DC0112960D911C91CB
:100FA0000115110589F0D801ED91FC910280F381C2
:100FB000E02DBE016F5F7F4FC801099597FD04C00A
:100FC000F80100851185ECCF89810F90DF91CF91D9
:100FD0001F910F910895615030F02091F100FC01B4
:100FE00020830196F8CF289884E680930103089522
:100FF0000895AF92BF92CF92DF92EF92FF920F933C
:101000001F93CF93DF936C017B018B01040F151F9E
:10101000EB015E01AE18BF08C017D10759F0699106
:10102000D601ED91FC910190F081E02DC60109956A
:10103000892B79F7C501DF91CF911F910F91FF9017
:10104000EF90DF90CF90BF90AF9008953FB7F894A6
:101050008091B3019091B401A091B501B091B60116
:1010600026B5A89B05C02F3F19F00196A11DB11D03
:101070003FBFBA2FA92F982F8827BC01CD01620F3F
:10108000711D811D911D42E0660F771F881F991FFA
:101090004A95D1F708958F929F92AF92BF92CF92C7
:1010A000DF92EF92FF926B017C010E9426084B01B8
:1010B0005C01C114D104E104F104B9F00E942608D6
:1010C000681979098A099B09683E73408105910571
:1010D00080F321E0C21AD108E108F10888EE880EF9
:1010E00083E0981EA11CB11CE4CFFF90EF90DF902D
:1010F000CF90BF90AF909F908F9008958F929F92C6
:10110000AF92BF92CF92DF92EF92FF920F931F9315
:10111000CF93DF936C017B018A0180912F0188239B
:1011200009F45CC080910203882309F457C08091C0
:10113000F40280FF05C08091E00082608093E000AF
:10114000E801B12C8AEFA82E93E0892E2AE3922E93
:10115000209711F4BB20D9F10E94C00681110AC06A
:10116000AA94AA20D9F161E070E080E090E00E94AA
:101170004B08EECF8C171D0611F00CF08C2F9FB78B
:10118000F8948092E9002091E80025FD02C09FBFFD
:10119000DFCF282F30E0C21BD30BF701815020F0A6
:1011A00041914093F100FACFE20EF31EBB2021F0F3
:1011B0009092E800B12CEBCF8091E80085FDE7CF5D
:1011C0009092E800BB24B394209709F3F3CF5D9885
:1011D00084E68093F302101611063CF081E090E063
:1011E000F6019383828310E000E0C801DF91CF9184
:1011F0001F910F91FF90EF90DF90CF90BF90AF9035
:101200009F908F9008952D9A0895BC0190E080E002
:101210000C944B088FB18095807F669B88601C9BE7
:1012200084600895480F592F511D14161506D4F5E2
:1012300080389105BCF597FF02C090E080E041380E
:10124000510514F040E850E0481BFB0177FD37964C
:1012500033E0F595E7953A95E1F7F695FE2FEE2701
:10126000F795E795E80FF91FE058FC4F677077276F
:1012700081E090E001C0880F6A95EAF7382F2130AD
:1012800041F4415078F08191DF011197832B8C93C9
:10129000F8CF8095415030F09191DF01119798235C
:1012A0009C93F8CF08956034710510F40C941209E2
:1012B000089580389105B8F460347105A0F420E1F8
:1012C00091E061FD94E060FD990F62FD9295687F69
:1012D000269FD0011124A80FA058BC4F8C9140FF2D
:1012E00003C0892B8C93089590958923FBCFDF92BF
:1012F000EF92FF920F931F93CF93DF937C01D22E37
:101300008B01040F111DEB0177FF02C0D0E0C0E09C
:10131000C8010134110514F080E490E0C817D90722
:101320003CF44D2DBE01C7010E9459092196F0CF12
:10133000DF91CF911F910F91FF90EF90DF90089573
:10134000CF92DF92EF92FF920F93CF93DF936C01D6
:101350007B01C42FD22F202F0E945309B7016D0F9C
:10136000711D61507109202F4C2FC6010E94530935
:10137000202F4D2FB701C6010E947709C6018C0F9F
:10138000911D202F4D2FB7010197DF91CF910F9124
:10139000FF90EF90DF90CF900C9477096F927F923F
:1013A0008F929F92AF92BF92CF92DF92EF92FF9275
:1013B0000F931F93CF93DF934C017B01C22F102F0C
:1013C00098E0A92EB12C642E669466946694712CD4
:1013D000CA0187709927892B79F5D40117962D9129
:1013E0003C91C7019927B9010E94DC29269DF00193
:1013F000279DF00D369DF00D11248E0F9F1FD401F7
:101400001596ED91FC91E80FF91F2081111112C082
:10141000C095C223C083DF91CF911F910F91FF90A0
:10142000EF90DF90CF90BF90AF909F908F907F9084
:101430006F900895C22BEECFD0E04770C42ED12C10
:1014400083E0660C771C8A95E1F79E0101C0220FAC
:101450004A95EAF7012FA301B701C4010E94CE0902
:10146000A301485F5F4FC5018C199D0902C0D59546
:10147000C7958A95E2F7A7CF4F925F926F927F92BE
:101480008F929F92AF92BF92CF92DF92EF92FF9294
:101490000F931F93CF93DF93EC016D3071F06A309F
:1014A000F9F48D859E859C878B878C892F8538895B
:1014B000820F932F911D988B8F8781E090E0DF91B1
:1014C000CF911F910F91FF90EF90DF90CF90BF9041
:1014D000AF909F908F907F906F905F904F90089506
:1014E000CB84DC84693031F428E0C20ED11CDC8668
:1014F000CB86E3CF603231F48B8990E00296C80E40
:10150000D91EF5CF162F8F819885C816D9060CF0F5
:1015100049C08F8498883BEF83163FEF93060CF405
:1015200041C089859A85881699060CF03BC080EEEB
:10153000860F8F35A8F5862F282F2152330BF901FE
:10154000E35FF94FE491F0E09F0120533D4F7901B3
:101550000E946103482EB12CA12CA41418F5F701A8
:10156000EA0DFB1D549036016A0C7B1C8C8188238C
:1015700061F001E089899A89892B09F000E02FEF59
:10158000A401B301CE010E94CE090989252DA40131
:10159000B301CE010E94CE093FEFA31AB30ADDCFFB
:1015A0008FE3CACF812F0E9461032B89280F332735
:1015B000331F8B859C85820F931F9C878B877DCFE4
:1015C0000F931F93CF93DF938C01D0E0C0E0F8011D
:1015D000EC0FFD1F6491662341F080E897E00E94C4
:1015E0003C0A892B11F02196F2CFCE01DF91CF91E9
:1015F0001F910F910895682F80E897E00C943C0AA2
:10160000089590E080E00895FC0101900020E9F742
:101610003197AF01481B590BBC0180E897E00C944F
:10162000F907E0E8F3E09F0145E590E0D90150E0DB
:101630004C935F5FA058BF4F5830D1F740959F5FE4
:101640002F5F3F4F8913F2CF80EC93E011928E17FA
:101650009F07E1F710928E0710928D0710928C076A
:1016600010928B071092900710928F07CB010E9467
:10167000E00A83EA91E00E94040B0E948A03882317
:10168000E1F380919A0780939B070E940A09809357
:101690009A0788E00E947F03811103C00E947C03A7
:1016A000ECCF0895DC011396EC911397E11104C07F
:1016B0008DEE93E00E94CB148D919C91E80FF92F51
:1016C000F11D319780810895E82FF0E0EE0FFF1FA4
:1016D000E053FC4F6591749180E40C94110B8F9250
:1016E0009F92AF92BF920F931F93CF93DF93CDB78B
:1016F000DEB7A1970FB6F894DEBF0FBECDBF19A21B
:10170000423008F44AE08E010F5D1F4F842E912C69
:10171000B12CA12CA50194010E944726E62FB90106
:10172000CA01EA30F4F4E05DD801EE938D01232B79
:10173000242B252B79F790E080E0109719F0CD014C
:101740000E94040BA1960FB6F894DEBF0FBECDBF6A
:10175000DF91CF911F910F91BF90AF909F908F908D
:101760000895E95CE1CF5F926F927F928F929F9292
:10177000AF92BF92CF92DF92EF92FF920F931F939F
:10178000CF93DF93C0E0DAE040917B03609179036F
:1017900070E08091780390E020917A032C1768F034
:1017A0004D9F402D11244F5F21E0CD9F800D911D55
:1017B00011240E947709CF5FE7CFC0E0DAE04091C3
:1017C0007A036091790370E08091780390E0209132
:1017D0007B032C1768F04D9F402D11244F5FCD9F48
:1017E000600D711D112421E00E945309CF5FE7CFE6
:1017F00010E03AE0732E48E0A42EB12C80917B03D8
:10180000181708F05AC0179D4001112400E080917C
:101810007A03C0917903D0E0E0907803F12C0817A7
:1018200008F049C0E02F189FE00D112480917C033F
:1018300090917D03E80FF92FF11D84910E9484049B
:101840006C01C80DD91D2296079DE00CF11C1124D6
:1018500082E0E80EF11C612C512CF601E60DF11D21
:101860008081882329F063940E946103580EF5CF8C
:101870006A9480919307689E500C1124C5018519C4
:10188000910997FD019695958795E80EF91EF092BE
:101890008E07E0928D07F0928C07E0928B07D09331
:1018A0009007C0938F07C114D10419F0C6010E949C
:1018B000040B0F5FACCF1F5FA1CF80917E036091BF
:1018C0007A030E94D02960917903CAE08C9F90012D
:1018D0001124620F732F711D809178039C9FF0017A
:1018E000112400E02BE04BE08E0F9F2F911D0E94F2
:1018F000A00980917E0360917A030E94D0296091B3
:1019000079038C9F90011124620F732F711D615018
:101910007109809178039C9FE00111248C0F9D2F09
:10192000911D01E02DE04DE001970E94A009DF919B
:10193000CF911F910F91FF90EF90DF90CF90BF90CC
:10194000AF909F908F907F906F905F900895CF920F
:10195000DF92EF92FF920F931F93CF936B017C0165
:10196000C42F10927E0344E050E065E076E08AE701
:1019700093E00E94702210927F0380917703882366
:1019800039F08150E82FF0E0E95AFC4F1082F7CF90
:101990001092770307E513E02C2F40E0C701B60152
:1019A0000E94F520809177038F5F21E0280FE82FB8
:1019B000F0E0E95AFC4F9081911133C08093770396
:1019C00080917F0381112FC00E948A038823C1F375
:1019D00080919A0780939B070E940A0980939A0737
:1019E0000E94AB050E940A050E94B30B2091790367
:1019F0002850330B8091780390E0029690938E07E5
:101A000080938D0790938C0780938B07309390077A
:101A100020938F0787E593E00E94040B0E947C03CC
:101A2000CFCF822FC2CF87E593E0CF911F910F9147
:101A3000FF90EF90DF90CF900C9463224F925F92D3
:101A40006F927F928F929F92AF92BF92CF92DF92CE
:101A5000EF92FF920F931F93CF936B017C01742E33
:101A6000AC019B010E949028882399F086EA91E0BE
:101A7000CF911F910F91FF90EF90DF90CF90BF908B
:101A8000AF909F908F907F906F905F904F900C944D
:101A9000040B46015701E894B7F82FEF3FEF4FE7EB
:101AA0005FE7C501B4010E94902881110DC02FEF9E
:101AB0003FEF4FE75FE7C501B4010E94912218167E
:101AC0001CF48AEA91E0D4CF2FEF3FEF4FE75FE4B9
:101AD000C701B6010E94332818161CF48EEA91E063
:101AE000C7CF2FEF3FEF4FE75FECC701B6010E9472
:101AF000912287FDF3CF20E030E0A901C701B601B4
:101B00000E94912210E000E087FF08C08DE20E9451
:101B1000FB0A8C01F7FAF094F7F8F094C0E060E06B
:101B200070E080E09FE37C1641F020E030E040E28E
:101B300051E40E94EA26CF5FF6CFA70196010E94EA
:101B400079262B013C010E9463274B015C014AE08E
:101B50000E946F0B7C01E00EF11ECC23B1F1C50198
:101B6000B4010E9496229B01AC01C301B2010E9404
:101B700078264B015C018EE20E94FB0AE80EF91EFA
:101B8000C15018F120E030E040E251E4C501B40159
:101B90000E94F7222B013C010E9463274B01B12CCC
:101BA000A12C4AE0C501B4010E946F0BE80EF91E9A
:101BB000C501B4010E9496229B01AC01C301B20190
:101BC0000E9478264B015C01DBCFC701CF911F91AA
:101BD0000F91FF90EF90DF90CF90BF90AF909F90CC
:101BE0008F907F906F905F904F900895CF93DF9389
:101BF0000E941E0DEC0183EA91E00E94040B8C0F01
:101C00009D1FDF91CF9108951F93CF93DF93EC0138
:101C1000162F82E494E0662359F070E08881998160
:101C20000E942F2B99838883892B21F48BE394E0E6
:101C30000E94CB141A83DF91CF911F910895CF9307
:101C4000FC019381911104C085E094E00E94CB14C3
:101C5000A081B18191509383A90FB11DCC9199239B
:101C600051F06281862F86958695891720F06695BA
:101C7000CF010E94040E8C2FCF9108951F93CF9314
:101C8000DF93EC01162F6A818B81681304C0660F05
:101C9000CE010E94040E88819981EB8121E02E0FF4
:101CA0002B83E80FF92FF11D1083DF91CF911F9146
:101CB00008951F93CF93DF93EC01162F83E294E0F6
:101CC000662371F084E0689FB001112488819981B6
:101CD0000E942F2B99838883892B21F48CE194E037
:101CE0000E94CB141A83DF91CF911F910895CF9258
:101CF000DF92EF92FF92FC019381911104C086ED77
:101D000093E00E94CB14A081B1819150938384E031
:101D1000989F90011124A20FB31FCD90DD90ED90FC
:101D2000FC90992351F06281862F869586958917BC
:101D300020F06695CF010E94590EC701B601FF90B1
:101D4000EF90DF90CF900895CF92DF92EF92FF92C5
:101D5000CF93DF93EC016A017B016A818B81681369
:101D600004C0660FCE010E94590E288139819B81E3
:101D700081E0890F8B8344E0949FC0011124820F7E
:101D8000931FFC01C082D182E282F382DF91CF9166
:101D9000FF90EF90DF90CF9008952F923F924F9257
:101DA0005F926F927F928F929F92AF92BF92CF92EB
:101DB000DF92EF92FF920F931F93CF93DF9300D0A8
:101DC00000D000D01F92CDB7DEB77C016B01312C63
:101DD0003394F601E30DF11D80818111F9CF1C824E
:101DE00082E090E00E940A2A9A83898382E08B83B2
:101DF000412C512C00E09FEF431408F047C1842C84
:101E0000912C5601A80CB91CF50180818B3289F107
:101E10009CF4883209F46AC13CF4882341F116E647
:101E2000853239F010E04BC18932F9F013E68A327D
:101E3000C9F7903668F425C08E3509F46AC15CF4A0
:101E40008D3209F439C18F3269F714E69036A8F063
:101E5000913FF9F412C0833709F443C1883709F47C
:101E60002DC18336F9F611E83DC111EFE2CF1FEF26
:101E7000E0CF11E6903608F03DC180E8810F803751
:101E800018F0103F09F039C163E6CE0101960E94B7
:101E90003E0E111132C122242394200EF701E00FCF
:101EA000F11D508201E0050DBE016B5F7F4FC50142
:101EB0000E941321E52DF0E07096EE0FFF1FEE0F4C
:101EC000FF1FEE0DFF1D60837183828393838D81DD
:101ED0009E818C199D098816990619F044244A940C
:101EE000480E152D502ECEC0A0EA9A2E910EFFE17D
:101EF000F91508F485C08C81882309F403C1CE014B
:101F000001960E94520B972D762C692EA92CB12C8C
:101F100090E8980F903708F450C0E0EAE80FE032FC
:101F200008F062C0E730F8F4F0E0E756F04F0C94A8
:101F3000F0296E10B10FB10F6B106B10A00F6B106A
:101F4000F4E06F2EF6E0F915F8F0F501E655F04FE4
:101F50000C94F029D20FF10FF10FC20FC20FCF0F67
:101F6000C20FE2E06E2E96E0991570F0F501E5548F
:101F7000F04F0C94F029D20FD50FD50FC20FC20F1E
:101F8000CF0FC20F73E0772E7614B8F076102CC006
:101F9000853671F168F4803668F01F820EC064E007
:101FA000762EF2CF55E0752EEFCF42E0742EECCFB7
:101FB000863699F3EF81E111A5C088248394800EC1
:101FC000CE0101960E941F0EF701E00FF11D8083E4
:101FD0008C81882381F0CE0101960E94520B082D3E
:101FE00097CF32E0732EE9CF862D672C782E8AC0EA
:101FF000F1E0FF8387C0862D672C782E082D82C0E4
:10200000103F11F460EF7FC0113FA9F58C81811161
:102010001FC011E089819A810E94A62A812F2796EC
:102020000FB6F894DEBF0FBECDBFDF91CF911F91E9
:102030000F91FF90EF90DF90CF90BF90AF909F9067
:102040008F907F906F905F904F903F902F9008956A
:10205000CE0101960E94520B803FC1F1BB24B39484
:10206000B00ECE0101960E941F0EF701E00FF11D88
:1020700080830B2DCBCF22242394200EF701E00F79
:10208000F11D10834394022D912FB6CE8C816701F0
:10209000C00ED11C882359F0CE0101960E941F0E5C
:1020A000F6018083803F09F4B4CF0F5FEFCF8FEF4D
:1020B000F601808310E0AECF12E6BBCE10E490367E
:1020C00008F4E2CE913F09F4DFCEE3CECE010196D3
:1020D0000E941F0E1CC023E0622E34CF95E0692EB3
:1020E00031CF10E8903608F0B3CECECE10EF903658
:1020F00008F4CACE913F09F4C0CE80E8810F803742
:1021000008F0F2CE612FCE0101960E943E0E202EE5
:10211000B9CF15E68ECE2F923F924F925F926F927B
:102120007F928F929F92AF92BF92CF92DF92EF9267
:10213000FF920F931F93CF93DF9300D000D01F9295
:10214000CDB7DEB77C014A015B0189011C8288E0C2
:1021500090E00E940A2A9A83898382E08B8380E040
:1021600090E0A0ECBFE7F80180839183A283B38362
:1021700067011701F0E42F0E311CD601ED916D01BE
:10218000E03488F4F0E07096EE0FFF1FEE0FFF1FB3
:10219000EE0DFF1D4081518162817381CE01019658
:1021A0000E94A40E8EC080EA8E0F803208F07CC0A0
:1021B000E036D1F010F0E736D0F09C81FD819F171A
:1021C00008F4C9C0873008F07CC0E82FF0E0E35184
:1021D000FF4ECE0101960C94F0294E11FA100B110E
:1021E0001811271134114111B1E0BD83E6CFE2E0AF
:1021F000ED83E3CF0E94770E2B013C01CE010196C7
:102200000E94770E9B01AC01C301B2010E947926A6
:10221000AB01BC01C3CF0E94770E2B013C01CE0164
:1022200001960E94770EA30192010E947826F0CFBA
:102230000E94770E2B013C01CE0101960E94770E81
:102240009B01AC01C301B2010E94F722E1CF0E94C1
:10225000770E2B013C01CE0101960E94770EA3015F
:1022600092010E94EA26D4CF0E94770E2B013C01F6
:10227000CE0101960E94770EA30192010E94382898
:10228000C7CF0E94770E2B013C01CE0101960E9420
:10229000770EA30192010E949D27BACF0E94770E6C
:1022A000AB01BC0170587ACF80E88E0F803708F000
:1022B00041C08C81882309F44EC0E03869F1E138CF
:1022C00091F1C214D30409F058CF8C81811139C027
:1022D000D8011D921D921D921C92139710E08981C6
:1022E0009A810E94A62A812F0F900F900F900F9035
:1022F0000F90DF91CF911F910F91FF90EF90DF90A2
:10230000CF90BF90AF909F908F907F906F905F9095
:102310004F903F902F900895CE0101960E94770E26
:102320000E94882875CFCE0101960E94770E0E94E8
:10233000E5266ECFEF3F49F2E03419F6B501A4016E
:102340002DCFCE0101960E94770EF8016083718334
:1023500082839383C3CF12E0C2CF1F920F920FB636
:102360000F9211248F939F938091E1009091E1004F
:10237000937F9093E10083FF0FC01092E90091E0FA
:102380009093EB001092EC0092E39093ED0010928A
:10239000020398E09093F00082FF22C093E09093B4
:1023A000E9009091F200992319F09AE39093E800E4
:1023B0009091F302992341F09091F3029150909300
:1023C000F302911101C05D9A90910103992341F0AC
:1023D00090910103915090930103911101C0289AAB
:1023E00084FF18C08091E2008E7E81608093E200BD
:1023F0008091E1008F7E8093E1008091F4028E7ED7
:1024000080618093F4029F918F910F900FBE0F9087
:102410001F90189580FFF7CF8091E2008E7E80613B
:102420008093E2008091E1008E7E8093E1008091B4
:10243000F4028E7E8160E5CF1F920F920FB60F924D
:102440001124CF92DF92EF92FF920F931F932F935D
:102450003F934F935F936F937F938F939F93AF932C
:10246000BF93EF93FF93CF93DF93CDB7DEB76C9716
:10247000DEBFCDBF1092E9008091E80083FF25C048
:1024800068E0CE0145960E94EB0782EF8093E8005A
:102490008D8987FF39C09091E80090FFFCCF982F7D
:1024A000907609F034C19E894F89588D2F89F88C18
:1024B000911131C0803861F58091F2028093F10072
:1024C0001092F1008EEF8093E8006C960FB6F894AE
:1024D000DEBF0FBECDBFDF91CF91FF91EF91BF91D6
:1024E000AF919F918F917F916F915F914F913F91AC
:1024F0002F911F910F91FF90EF90DF90CF900F9051
:102500000FBE0F901F9018959EEF9093E800C7CFD5
:102510001092F100D5CF913059F48111D3CF4130D1
:10252000510581F68091F2028D7F8093F202CACF2D
:10253000933049F48111C6CF4130510519F680918D
:10254000F2028260F2CF953041F48091E80080FF82
:10255000FCCF20682093E300B5CF963009F0A9C0E6
:102560000B8D1C8D22E01092E9001092F002109267
:10257000EF02F2122EC01092EE021092ED020E94B3
:10258000BA071F8299E09983FA8291E09E8390EACC
:1025900098879AEF99872091EF023091F002275F98
:1025A0003F4F3C832B838D831092E9001092F00201
:1025B0001092EF021093EE020093ED0249E050E01A
:1025C000BE016F5F7F4F80E00E9494070E94BA07B0
:1025D00079CF1093EE020093ED020E94D106DC0148
:1025E00012960D911C910115110509F451C1D801E4
:1025F000ED91FC910480F581E02DBE016B5E7F4F73
:10260000C8010995009709F03EC1F80100851185C0
:10261000EACFF3E0FF120EC08F89882309F440C08F
:10262000823061F440E867E08DEF95E00E949814F5
:10263000811148CF81E28093EB0047CF813029F4AC
:1026400040E86BE081EF95E0F1CF833099F70E948D
:10265000D106DC011296ED90FC908E010F5F1F4FAA
:102660006801E114F10479F0D701ED91FC91068045
:10267000F781E02DB801C7010995080F111DF70179
:10268000E084F184EECFD8011C92F6010190002085
:10269000E9F73197BF016C197D0940E0C601C6CF4B
:1026A0006BED75E0FB01449150E080E80E949407D7
:1026B00009CF973009F4BECF983021F481E08093A0
:1026C000F10000CF993009F0FDCE837009F0B2CF50
:1026D000E9E4F1E081E031E096E32191222371F019
:1026E0008093E9003093EB00DF0111972C91209348
:1026F000EC009093ED008F5F873079F78EE7809341
:10270000EA001092EA008F8980930203DBCE8B8D62
:102710009C8D1092E9001092F0021092EF029093BB
:10272000EE028093ED02898D811192C08E899D8980
:10273000913A49F4813209F07DCF47E050E068E2F8
:1027400071E080E0B3CF913209F074CF833269F445
:102750008F89988DB0E0A0E08093240190932501AB
:10276000A0932601B0932701ADCE803269F4809109
:10277000E80082FFFCCF67E088E291E00E94EB076F
:102780008BEF8093E8009ECE823209F09BCE8F893A
:1027900080932F01EEEFFFE7859194918B3F9C4D45
:1027A00051F1E0E0F8E08091280190912901A09199
:1027B0002A01B0912B01803B9440A105B105F1F4B1
:1027C00080912F0180FD1AC0EE3F8AE0F80789F55D
:1027D00087E797E791838083809160008093F1027F
:1027E00088E19BE00FB6F894A895809360000FBE37
:1027F0009093600067CEEEEFFAE0D5CF80819181B3
:102800008737974709F05ECEA89580916000886170
:10281000809360008091F10280936000EE3F2AE097
:10282000F20789F08091FE0A9091FF0A91838083DC
:1028300049CE808191818737980751F29093FF0AA2
:102840008093FE0AC5CF1092FF0A1092FE0A3ACE7C
:102850000E94D106DC0112960D911C910115110503
:1028600009F4E8CED801ED91FC910190F081E02DC2
:10287000BE016B5E7F4FC8010995811123CEF8011F
:1028800000851185EBCF181619060CF41BCED2CE9D
:10289000F1E0FF12BECE6FED75E004CF1F920F92F4
:1028A0000FB60F9211242F933F938F939F93AF9363
:1028B000BF938091030390910403A0910503B0910D
:1028C00006033091B20123E0230F2D3758F501960E
:1028D000A11DB11D2093B2018093030390930403C3
:1028E000A0930503B09306038091B3019091B401C6
:1028F000A091B501B091B6010196A11DB11D8093C3
:10290000B3019093B401A093B501B093B601BF9108
:10291000AF919F918F913F912F910F900FBE0F908C
:102920001F90189526E8230F0296A11DB11DD2CF46
:10293000EF92FF920F931F93CF93DF93F82E192FEF
:10294000E62E042F81E0860F880F0E94660783E041
:102950000E946607CF2DD12FEC0EFD2EF11CCE1557
:10296000DF05B9F007FF13C0FE0184910E946607DE
:10297000182F80E00E946607812321968111EFCFF6
:10298000DF91CF911F910F91FF90EF900895888173
:10299000EDCF81E0F5CFBC0180E80E94110BFFCFA5
:1029A000E7E0F3E01382128288EE93E0A0E0B0E06B
:1029B00084839583A683B78383E591E091838083A5
:1029C0008FEF9FEF95878487E5E9F7E01582168200
:1029D00080E1878314821382118681E791E09183DD
:1029E0008083E0E8F7E01382128285E691E091832C
:1029F000808380E893E09683858380E890E09087E9
:102A0000878380E490E09287818787E0848B81E0F0
:102A1000838B16861586108A17861486138681E0A6
:102A200090E0928B818B1482E7E5F3E08CE081A348
:102A300082A310A60895CF93DF93CDB7DEB7C35915
:102A4000D2400FB6F894DEBF0FBECDBF789484B5E8
:102A5000826084BD84B5816084BD85B5826085BD9A
:102A600085B5816085BD80916E00816080936E0028
:102A7000109281008091810082608093810080911A
:102A800081008160809381008091800081608093CB
:102A900080008091910082608093910080919100EC
:102AA000816080939100809190008160809390007C
:102AB0008091C10084608093C1008091C1008260D8
:102AC0008093C1008091C10081608093C10080919A
:102AD000C30081608093C3008091C00082608093B6
:102AE000C0008091C20081608093C20080917A0012
:102AF000846080937A0080917A00826080937A006B
:102B000080917A00816080937A0080917A00806859
:102B100080937A00109202031092F2021092F40253
:102B20008091D70081608093D70080EA8093D8009D
:102B300089B5806189BD89B5826089BD09B400FE0F
:102B4000FDCF61E070E080E090E00E944B08809152
:102B5000D8008F7C80618093D8008091E000807FD6
:102B60008093E0008091E1008E7E8093E1008DE013
:102B70008093E200559A209A81EC80937C0085B185
:102B8000806F85B984B1877E84B984B1876E84B93A
:102B90005E9A5F988AB1806D8AB9769A6E9881B391
:102BA000806F81BB899880B38D7080BB80E58CBDC0
:102BB00081E08DBD85E090E00E9405095F9A85E087
:102BC00090E00E9405095E985C98EAE0F5E087E1F4
:102BD00095E024912EBD00000DB407FEFDCF319687
:102BE0008E179F07B1F75C9A81E88093640080910B
:102BF00065008160809365000E947C030E940A0941
:102C000087FF15C05C9885EA8EBD00000DB407FEF5
:102C1000FDCF5C9A2E982F982D9880916400806249
:102C20008093640081E083BF889513BEFCCF0E942F
:102C30000A0982FF48C02D980E940A0984788438C6
:102C4000E1F40E94030988EC90E00E9405092F98A6
:102C500082E090E00E94EF258F3F29F06FEF82E045
:102C600090E00E94F72584EF91E00E9405092F9AD9
:102C70000E940A0984788438D9F30E940A09847171
:102C80008431E1F40E94030988EC90E00E94050978
:102C90002E9882E090E00E94EF25882329F060E0E2
:102CA00082E090E00E94F72584EF91E00E94050900
:102CB0002E9A0E940A0984718431D9F388EC90E03D
:102CC0000E940509B4CF0E94030982E090E00E94AF
:102CD000EF25882309F422C13E9A3F9A81E090E0D3
:102CE0000E94EF25182F147081E090E00E94EF25DC
:102CF00081FF0EC011112E9850EFE52EFF24FA949B
:102D00000E940A0986FF0DC12E9A2F9A0E9403097C
:102D100082E390E00E9405090E940A098111F8CF20
:102D200060E071E08DE692E00E94CD0E10926502A7
:102D300010926602109267021092680280E090E0A2
:102D4000A0E8BFE38093690290936A02A0936B02AC
:102D5000B0936C0232E6432E512C42E4E42EF12C67
:102D60000E948A03882309F4C3C580919A0780933F
:102D70009B070E940A0980939A0780912301882368
:102D800009F441C2E0E8F3E085E59191DF01119794
:102D900098239C938095A0E8B7E0AE17BF07A9F7EA
:102DA0000E947C030E94AB0580E8EDE6F2E0DE01C4
:102DB000AF57BE4F01900D928A95E1F710914101F6
:102DC00060E070E0CB010E94B80521E0412F70E087
:102DD00060E0082E000C990B0E94770910914001C9
:102DE00060E070E0CB010E942706682F880F770B08
:102DF00021E0412F90E080E00E94530920E030E084
:102E0000A901609138017091390180913A01909146
:102E10003B010E94912287FFC1C020E030E0A90160
:102E200060913C0170913D0180913E0190913F0184
:102E30000E94332818160CF0B1C080903001909099
:102E40003101A0903201B090330120E030E0A901BF
:102E5000C501B4010E94332820E030E040E05FE388
:102E600087FD8CC0C501B4010E9479260E945C27B1
:102E70000E9498224B015C018091340190913501B0
:102E8000A0913601B0913701CB57DD4F88839983EC
:102E9000AA83BB83C558D24020E030E0A901BC0121
:102EA000CD010E94332820E030E040E05FE387FD61
:102EB0006AC0CB57DD4F688179818A819B81C55873
:102EC000D2400E9479260E945C270E9498229B0192
:102ED000AC01C501B4010E94912287FF5FC060E090
:102EE00070E0CB010E942706182FC501B4010E9493
:102EF000B805612F110F770B6150710921E042E095
:102F0000082E000C990B0E94770920E030E040E881
:102F10005FE3C501B4010E947926ACCF3E983F988B
:102F2000DDCE112331F024E0E216F10411F42E9AE3
:102F30002F9881E00E946D0300E128E54AE554E006
:102F4000B70184E190E00E94BF030E947C038FE000
:102F500090E00E9405093FEFE31AF30A89E1E816C1
:102F6000F10409F0CDCE112311F02F9A2D9880E9AC
:102F700091E00E9405090E940309CACEC501B4016F
:102F80000E94782673CFCB57DD4F688179818A8183
:102F90009B81C558D2400E94782695CF20E030E032
:102FA000A9016091300170913101809132019091BD
:102FB00033010E94912287FF8FC020E030E0A901F9
:102FC0006091340170913501809136019091370103
:102FD0000E94332818160CF07FC080903801909022
:102FE0003901A0903A01B0903B0120E030E0A90106
:102FF000C501B4010E94332820E030E040E05FE3E7
:1030000087FD5AC0C501B4010E9479260E945C2741
:103010000E9498224B015C0180913C0190913D01FE
:10302000A0913E01B0913F01CB57DD4F888399833A
:10303000AA83BB83C558D24020E030E0A901BC017F
:10304000CD010E94332820E030E040E05FE387FDBF
:1030500038C0CB57DD4F688179818A819B81C55803
:10306000D2400E9479260E945C270E9498229B01F0
:10307000AC01C501B4010E94912287FF2DC0C5019A
:10308000B4010E942706182F60E070E0CB010E9477
:10309000B805612F110F770B21E042E0082E000CDC
:1030A000990B0E94530920E030E040E85FE3C5013E
:1030B000B4010E947926AECFC501B4010E947826E2
:1030C000A5CFCB57DD4F688179818A819B81C55817
:1030D000D2400E947826C7CF609140016150770BA3
:1030E000072E000C880B990B0E9498229B01AC01C3
:1030F00060E070E0CB010E94EA264B015C01AC016C
:103100009B0160E070E080E89FE30E9478262091B8
:1031100030013091310140913201509133010E94D0
:10312000F722CB57DD4F688379838A839B83C55809
:10313000D2402091340130913501409136015091B7
:103140003701C501B4010E94F7229B01AC01CB57A6
:10315000DD4F688179818A819B81C558D2400E9468
:103160007926AB01BC019E012F573D4FCE018F57F1
:103170009E4F0E948B10882309F4FBC00E94640BB1
:1031800080E8EDE6F2E0DE01AF5FBD4F01900D9209
:103190008A95E1F70DE312E0D12CC12CB6010D2C7C
:1031A000000C880B990B0E949822209169023091A3
:1031B0006A0240916B0250916C020E94F7222091AA
:1031C00065023091660240916702509168020E9448
:1031D0007926AB01BC01F80141935193619371933E
:1031E0005F0198012C5E3F4FCE018F5F9D4F0E9483
:1031F0008B10FFEFCF1ADF0A850125E0C216D1043C
:1032000069F61092230130912201332319F081E0F5
:1032100080932101809120018111DBC10E94AB05C7
:1032200080E80E947F03882339F080913C02882344
:1032300019F0815080933C0280E10E947F03882333
:1032400029F080913C028F5F80933C0280E20E94D3
:103250007F03811110923B0280E40E947F03882348
:1032600019F081E080933B0288E00E947F0388236D
:10327000E9F000913C0210E080913B02882309F4C0
:1032800090C103591D4FD8016C9170E090E080E02F
:103290000E94962240E00E94A70C00913C0210E0A0
:1032A00003591D4F0E946327F801608384E00E9448
:1032B0007F03882339F081E08093230180932101EB
:1032C00080932001BDEA8B2EB2E09B2E1DE6C12E1D
:1032D00012E0D12E10E000E080E4A82EB12C109274
:1032E0008E0710928D0710928C0710928B07109307
:1032F000900700938F07D4016D917D918D919D91E1
:103300004D0142E00E941E0DB0928E07A0928D07E3
:10331000B0928C07A0928B071093900700938F07B1
:10332000F60161916F0170E090E080E040E10E9461
:103330006F0B095F1F4F0833110589F680913C021E
:10334000F7E08F9FC001112420E230E030938E0718
:1033500020938D0730938C0720938B0790939007D1
:1033600080938F0780913B02882309F42EC18EE35E
:103370002DC1CF57DD4F688179818A819B81C158EA
:10338000D2400E942706082F91E0CB57DD4F98834B
:10339000C558D24010914001CB57DD4FA881C55888
:1033A000D240A11708F0ECCE6A2FAA0F770B880B3A
:1033B000990B0E9498224B015C01E12FE150FF0B19
:1033C000BF01072E000C880B990B0E9498229B01CD
:1033D000AC01C501B4010E94EA264B015C01AC01BD
:1033E0009B0160E070E080E89FE30E9478262091D6
:1033F00030013091310140913201509133010E94EE
:10340000F722C757DD4F688379838A839B83C95826
:10341000D2402091340130913501409136015091D4
:103420003701C501B4010E94F7229B01AC01C757C7
:10343000DD4F688179818A819B81C958D2400E9481
:103440007926AB01BC019E012F573D4FCE018F570E
:103450009E4F0E948B10CF57DD4F688179818A8102
:103460009B81C158D2400E942706C357DD4F8883F5
:10347000CD58D240C82E880FDD08CB57DD4FF881DC
:10348000C558D240AF2EB12C002E000C110BC50137
:1034900001971601201A310A37FE03C03194219496
:1034A000310822E02216310454F43C2D2D2D650103
:1034B000A32EB22E302F212F8C01832F922FC016D6
:1034C000D10654F03A2D2B2D5C01832F922F3C2DE9
:1034D0002D2D6801032F122F48018C189D08DC0147
:1034E000AA19BB09C757DD4FB983A883C958D24071
:1034F000B7FF09C0B195A195B109C757DD4FB98391
:10350000A883C958D240340197FE03C0BFEF6B1A9D
:103510007B0A75946794A816B90684F581E0E82FB4
:10352000880FFF0BCE56DD4FF983E883C259D24096
:103530000C151D052CF141E0B601C501F2E02F1676
:10354000310414F4B501C6010E945909C757DD4F73
:1035500028813981C958D240621A730A77FE0AC09D
:10356000CE56DD4F88819981C259D240A80EB91E2E
:10357000680C791C9FEFC91AD90ADACF8FEFCFCF29
:10358000CB57DD4FA881C558D240AF5FCB57DD4F39
:10359000A883C558D240C357DD4F0881CD58D240CB
:1035A000F9CE000F111F000F111F03551D4FD80139
:1035B0006D917D918D919C9143E00E94A70CF80143
:1035C000608371838283938371CE8CE30E94FB0AB4
:1035D0008DC1813009F0A6C190E080E0FC01E0548B
:1035E000FC4F20E010822F5FE058FF4F2830D1F7CA
:1035F00001968034910591F780E80E947F0388232B
:1036000039F080913C02823018F0825080933C0265
:1036100080E10E947F03882339F080913C0284304E
:1036200018F48E5F80933C0280E20E947F0388231F
:1036300039F080913C02882319F0815080933C023C
:1036400080E40E947F03882339F080913C02863019
:1036500018F48F5F80933C0288E00E947F038823E8
:1036600091F080913C02823009F458C108F048C1C1
:10367000882309F44DC1813009F44EC181E0809363
:10368000210110923C0280912101882309F42EC16E
:1036900021E04FE370E060E081E490E00E941209D5
:1036A00021E040E461E070E080E490E00E941209D3
:1036B00021E04FE36FE370E081E490E00E941209A3
:1036C00021E04DE362E070E080E490E00E94770941
:1036D00021E04DE362E070E080E690E00E9477092F
:1036E00002E010E021E040E4B80180E490E00E94B4
:1036F00053090C5E1F4F02351105A1F7F0928E079A
:10370000E0928D07F0928C07E0928B0704E010E0C6
:103710001093900700938F0780E995E00E94E00ADC
:1037200050928E0740928D0750928C0740928B07E3
:103730001093900700938F0789E895E00E94E00AB4
:10374000F0928E07E0928D07F0928C07E0928B0743
:1037500008E110E01093900700938F0783E895E04D
:103760000E94E00A50928E0740928D0750928C077B
:1037700040928B071093900700938F0788E795E09E
:103780000E94E00AF0928E07E0928D07F0928C077B
:10379000E0928B070CE210E01093900700938F07E4
:1037A00081E795E00E94E00A50928E0740928D07D3
:1037B00050928C0740928B071093900700938F07CD
:1037C00086E695E00E94E00AF2E2AF2EF5E0BF2E19
:1037D00010E0A4E1DA2E612F66956D9DB0011124F1
:1037E000635F7F4F212F2170C257DD4F2883CE5852
:1037F000D240C157DD4F1882CF58D240C257DD4F5B
:1038000088819981CE58D240E5E0880F991FEA95CA
:10381000E1F708E028E0A501895A9F4F0E94BF0305
:103820001F5F38E0A30EB11C1630A9F680913C0250
:10383000C82EC694CD9C60011124560192E0A90EB9
:10384000B11C8170C057DD4F8883C059D240CF561C
:10385000DD4F1882C159D240C057DD4F0881198110
:10386000C059D24045E0000F111F4A95E1F70F5BA8
:103870001F4F20E04FE1B501C8010E945309B60176
:103880006A5E7F4F20E04FE1C8010E945309B601F4
:103890006F5F7F4F21E040E2C8010E945309B601EB
:1038A000695E7F4F21E040E2C8010E945309A4E114
:1038B000CA0ED11C912C53E0852E482D491921E0C8
:1038C000B601C8010E947709939421E0492DB50102
:1038D000C8014C960E9477090F5F1F4FBFEFCB1AAC
:1038E000DB0AE3E09E12E9CF109221010E947C03E3
:1038F00080E090E0892B09F433CA0E9400002ACAB4
:10390000843071F0863009F0B9CE10922001B6CE25
:1039100082E080932001B2CE83E0FBCF84E0F9CF38
:1039200086E0F7CF823009F08DC090E080E0FC01A6
:10393000E054FC4F20E010822F5FE058FF4F28300A
:10394000D1F701968034910591F73323B1F18CE4DE
:10395000809378038CE08093790381E080937E03E9
:1039600044E050E069E076E08AE793E00E9470224C
:1039700010927F0380917703882339F08150E82FDC
:10398000F0E0E95AFC4F1082F7CF1092770360E025
:1039900071E087E593E00E94F52B809177038F5FBC
:1039A00021E0280FE82FF0E0E95AFC4F90819111B7
:1039B00041C080937703109222010E940A058091F2
:1039C0007F038823A9F067E573E08DE692E00E940B
:1039D000CD0E811131C067E573E080E091E00E9477
:1039E000F52B81E0809323018093220180932001B5
:1039F00001E02BE040E470E060E080E490E00E94B1
:103A0000A009F0928E07E0928D07F0928C07E09269
:103A10008B0782E090E09093900780938F0787E573
:103A200093E00E94040B83EA91E00E94040B0E9441
:103A3000B30B5CCF822FB4CF0E94640B81E08093E4
:103A40002201D6CF833009F0FDC090E080E0FC0178
:103A5000E054FC4F20E010822F5FE058FF4F2830E9
:103A6000D1F701968034910591F780E80E947F0399
:103A7000882339F080913C02882319F0815080938B
:103A80003C0280E10E947F03882339F080913C0250
:103A9000833018F48F5F80933C0288E00E947F039C
:103AA000882381F080913C02813009F48FC008F4B2
:103AB00079C0823009F49EC0833009F4AFC081E040
:103AC0008093230184E00E947F03882339F081E002
:103AD000809321018093200110923C0288E490E0C1
:103AE00090938E0780938D0790938C0780938B071C
:103AF00084E090E09093900780938F0781E695E0B3
:103B00000E94E00A60913001709131018091320190
:103B10009091330143E050E00E94F60D8CE595E072
:103B20000E94E00A60913401709135018091360164
:103B30009091370143E050E00E94F60D87E595E053
:103B40000E94E00A609138017091390180913A0138
:103B500090913B0143E050E00E94F60D82E595E034
:103B60000E94E00A60913C0170913D0180913E010C
:103B700090913F0143E050E00E94F60D80913C029D
:103B8000F7E08F9FC00111240496F0928E07E09217
:103B90008D07F0928C07E0928B07909390078093AB
:103BA0008F07E5CB60913001709131018091320136
:103BB0009091330143E00E94A70C60933001709311
:103BC0003101809332019093330179CF60913401B8
:103BD00070913501809136019091370143E00E9448
:103BE000A70C609334017093350180933601909354
:103BF000370165CF609138017091390180913A01A8
:103C000090913B0143E00E94A70C609338017093B0
:103C1000390180933A0190933B0151CF60913C016F
:103C200070913D0180913E0190913F0143E00E94DF
:103C3000A70C60933C0170933D0180933E019093EB
:103C40003F013DCF843009F0E7C190E080E0FC0106
:103C5000E054FC4F20E010822F5FE058FF4F2830E7
:103C6000D1F701968034910591F780E80E947F0397
:103C7000882309F44BC080E8EDE6F2E0DE01AF5F97
:103C8000BE4F01900D928A95E1F720916902309123
:103C90006A0240916B0250916C02609165027091D2
:103CA000660280916702909168020E947826AB01BB
:103CB000BC01409365025093660260936702709363
:103CC0006802EDE4F2E0B291A29192918291848334
:103CD0009583A683B78384899589A689B789808FC0
:103CE000918FA28FB38F22E0ED33F20761F74093FB
:103CF0003D0250933E0260933F027093400221E5E3
:103D000032E0CE018F5F9E4F0E948B1080E10E94B7
:103D10007F03882309F469C080E8EDE6F2E0DE0164
:103D2000AF57BF4F01900D928A95E1F780916902DC
:103D300090916A02A0916B02B0916C02CB57DD4F5B
:103D400088839983AA83BB83C558D240209165029A
:103D5000309166024091670250916802BC01CD012A
:103D60000E9479264B015C01809265029092660266
:103D7000A0926702B0926802EDE3F2E0848195813F
:103D8000A681B78181939193A193B19384899589F9
:103D9000A689B789808B918BA28BB38B92E0ED348F
:103DA000F90761F720E030E040E850E4CB57DD4F01
:103DB000688179818A819B81C558D2400E94F7220F
:103DC000A50194010E947926AB01BC0140934D02EC
:103DD00050934E0260934F027093500221E632E0FE
:103DE000CE018F579F4F0E948B1088E00E947F0367
:103DF000882309F452C06091690270916A0280912F
:103E00006B0290916C0243E00E94A70C60936902E0
:103E100070936A0280936B0290936C0280E8EDE6E7
:103E2000F2E0DE01119601900D928A95E1F70DE323
:103E300012E0D12CC12CB6010D2C000C880B990B73
:103E40000E9498222091690230916A0240916B028F
:103E500050916C020E94F722209165023091660217
:103E600040916702509168020E947926AB01BC0123
:103E7000D8014D935D936D937D935D0198012C5E08
:103E80003F4FCE0101960E948B10BFEFCB1ADB0A89
:103E90008501E5E0CE16D10471F684E00E947F032F
:103EA000882339F081E080932101809320011092D2
:103EB0003C02E0ECF3E08FEF819320EE33E02E172D
:103EC0003F07D1F7E1EEF3E08FEF8193A0E0B4E09C
:103ED000AE17BF07D1F7809340048093C00480934E
:103EE00040058093C005809340068093C006809370
:103EF00040071092920710929107E1E4F0E0F093EE
:103F00008E07E0938D07F0938C07E0938B07109258
:103F1000900710928F0780E295E00E94E00A50928D
:103F20008E0740928D0750928C0740928B0710921B
:103F3000900710928F078BE195E00E94E00A21E044
:103F400030E030939207209391073DE3C32E32E097
:103F5000D32E08E010E058013FEFA31AB30AF09205
:103F60008E07E0928D07F0928C07E0928B07B0925B
:103F70009007A0928F07D6016D917D918D919D91B3
:103F80006D0142E00E941E0D50928E0740928D07F7
:103F900050928C0740928B07B0929007A0928F07A7
:103FA000F601608971898289938942E00E941E0D21
:103FB00021E048E0B80180E690E00E947709B8016E
:103FC000685F7F4F21E040E480E490E00E94530965
:103FD000075F1F4F0533110509F0BDCFF0928E0723
:103FE000E0928D07F0928C07E0928B0786E390E0D9
:103FF0009093900780938F0787E195E00E94E00AF5
:104000006091690270916A0280916B0290916C02DA
:1040100042E00E941E0D6ACC8530C9F590E080E038
:1040200020E8C22E23E0D22EFC01E054FC4F20E019
:1040300010822F5FE058FF4F2830D1F7019680346F
:10404000910571F700E813E0D8018C9180958C936D
:1040500000581F4FE0E8F7E0E017F107A9F784E008
:104060000E947F03882309F441CCD6018C9180956E
:104070008C93B0E8CB0ED11C0C151D05B1F781E077
:10408000809321018093200110923C022FCC863036
:1040900009F071C081E080937E0344E050E069E064
:1040A00076E08AE793E00E94702210927F0380916D
:1040B0007703811133C01092770380917F038111C0
:1040C00034C00E948A038823C1F380919A078093A9
:1040D0009B070E940A0980939A070E94AB050E94E1
:1040E0000A050E94B30B209179032850330B80916D
:1040F000780390E0029690938E0780938D079093BB
:104100008C0780938B073093900720938F0787E568
:1041100093E00E94040B0E947C03CFCF8150E82FD4
:10412000F0E0E95AFC4F1082C4CF809177038823D6
:10413000D1F067E573E08BEB91E00E94CD0E811129
:104140000FC027EB31E040E050E0BA018BEB91E08B
:104150000E948B10811104C08CE380932001C6CB98
:104160000E94640BC3CB81E08093200180932301E4
:1041700080932201BBCB8C3309F0B8CB0E94AB05F6
:1041800088E00E947F03882319F086E08093200155
:1041900084E00E947F03882339F081E0809320012E
:1041A000809323018093220110928E0710928D0735
:1041B00010928C0710928B071092900710928F0725
:1041C00087E593E00E94040B83EA91E00E94040BD0
:1041D0006091B7017091B8018091B9019091BA01D5
:1041E00042E050E00E94F60D81CBEF920F931F93B7
:1041F000CF93DF93E80134E047FD34E1042E000C57
:10420000550B57FF03C0519541955109E32E022FDD
:10421000242FAE010E946423CE01DF91CF911F9124
:104220000F91EF900895B0E0A0E0E9E1F1E20C9485
:1042300016265C017B016115710519F0DB018D9378
:104240009C9385010F5F1F4FF501D0818D2F90E06A
:104250000E9467226C01892BB9F5DD32B9F50F5F39
:104260001F4FD5011196DC91C1E05801F1E0AF1A62
:10427000B10843E050E064E571E0C5010E94792295
:10428000892B69F5680182E0C80ED11C45E050E039
:104290006FE471E0C6010E947922892B21F4680144
:1042A00097E0C90ED11CE114F10419F0D701CD92A9
:1042B000DC9260E070E080E89FEFC111FFC060E039
:1042C00070E080E89FE7FAC05801BBCFDB3229F4E9
:1042D00085010E5F1F4FF501D181C0E0C6CF43E0DD
:1042E00050E06CE471E0C5010E947922892BE9F06D
:1042F000F80110E000E020E030E0A9015F01B0ED3E
:104300008B2E8D0E89E08815C8F19C2E689491F84B
:104310008C2F8870C2FF16C0811102C00F5F1F4F23
:104320003196D501DC91C92DE9CFE114F10429F0D2
:104330000E5F1F4FF7011183008360E070E080EC97
:104340009FE7BCC0882311F001501109A5E0B0E03F
:104350000E9405269B01AC01220F331F441F551FED
:10436000280D311D411D511D283999E9390749078B
:1043700099E15907A8F2C6609C2ED2CFAEEF8A12FF
:1043800006C0C3FD3CC09C2E689493F8C9CFDF7D66
:10439000D534A9F580818D3239F4C061DF011296E0
:1043A000818162E070E006C0DF018B32C1F31196BB
:1043B00061E070E080535D01A61AB70A8A30F8F414
:1043C000E0E8CE16ECE0DE065CF4B601660F771F7F
:1043D000660F771FC60ED71ECC0CDD1CC80ED11C75
:1043E0005D01FFEFAF1ABF0A8C9180538A30A8F1AC
:1043F000C4FF03C0D194C194D1080C0D1D1DC1FF91
:1044000009C0E114F10431F081E0A81AB108D70124
:10441000AD92BC92CA01B9010E949622C370C3300A
:1044200009F490584B015C0120E030E0A9010E94A2
:104430009122882309F440C0C3E8D1E017FF05C0EA
:10444000119501951109CBE6D1E06E01B8E1CB1AC7
:10445000D10880E2E82EF12C0FC0D501B1CFFE01CA
:1044600025913591459154910E191F09C501B4014B
:104470000E94F7224B015C01D501C4010E151F05F6
:1044800074F72497F594E794CC16DD06A9F78A2FE4
:10449000880F8B2F881F8F3F49F020E030E0A90163
:1044A000C501B4010E949122811106C082E290E010
:1044B0009093A1078093A007C501B401CDB7DEB7E3
:1044C000ECE00C943226662777270C941321911187
:1044D0000C949B25803219F089508550C8F70895B7
:1044E000FB01DC0102C005900D9241505040D8F70D
:1044F0000895FB01DC014150504088F08D918134DA
:104500001CF08B350CF4805E659161341CF06B35CA
:104510000CF4605E861B611171F3990B0895881B82
:10452000FCCF0E94D32208F481E00895E89409C0EA
:1045300097FB3EF490958095709561957F4F8F4FD6
:104540009F4F9923A9F0F92F96E9BB279395F695EC
:10455000879577956795B795F111F8CFFAF4BB0F6A
:1045600011F460FF1BC06F5F7F4F8F4F9F4F16C0CE
:10457000882311F096E911C0772321F09EE8872F58
:10458000762F05C0662371F096E8862F70E060E014
:104590002AF09A95660F771F881FDAF7880F96958D
:1045A000879597F90895990F0008550FAA0BE0E831
:1045B000FEEF16161706E807F907C0F012161306E5
:1045C000E407F50798F0621B730B840B950B39F425
:1045D0000A2661F0232B242B252B21F408950A268B
:1045E00009F4A140A6958FEF811D811D08950E94B9
:1045F0000A230C94B5250E94A72538F00E94AE2509
:1046000020F0952311F00C949E250C94A4251124E0
:104610000C94E9250E94C62570F3959FC1F3950F70
:1046200050E0551F629FF001729FBB27F00DB11D36
:10463000639FAA27F00DB11DAA1F649F6627B00DC6
:10464000A11D661F829F2227B00DA11D621F739FAF
:10465000B00DA11D621F839FA00D611D221F749FBD
:104660003327A00D611D231F849F600D211D822F04
:10467000762F6A2F11249F5750409AF0F1F088232B
:104680004AF0EE0FFF1FBB1F661F771F881F915058
:104690005040A9F79E3F510580F00C949E250C9444
:1046A000E9255F3FE4F3983ED4F3869577956795C7
:1046B000B795F795E7959F5FC1F7FE2B880F911D82
:1046C0009695879597F90895A9E0B0E0EAE6F3E2B8
:1046D0000C9416266A01F22EB02E102FFBE3AF2E9B
:1046E000A01608F41BE31F5F012F27E0AE014F5F08
:1046F0005F4F0E94C324BC018981982F997091302B
:1047000009F43FC09BE2E1FC04C09E2D9170E0FCE7
:104710003AC05E2D5071E82FE87083FF46C084E0F8
:10472000911101C083E0EF2DE81B8F1508F0E0E048
:10473000D6018E2F20E2552351F1992329F0D6017D
:104740009C93C60101966C0196012D5F3F4FE2FEDE
:1047500024C08EE4D6018C9391E411969C9311971A
:1047600012968C93D9018E2F90E281111BC0E20F1B
:10477000F32FF11D10828EEF9FEF2996ECE00C9441
:1047800032269DE2C6CF90E2C4CF2D938150811195
:10479000FCCFCE0ED11CE0E0D0CF8EE6D6018C93BC
:1047A00091E6DBCF9D938150E0CF482F447082FF8C
:1047B0003DC084E0911101C083E08F1510F4EF2D0E
:1047C000E81BD6018E2F20E2552309F1992329F009
:1047D000D6019C93C60101966C0196012D5F3F4F57
:1047E000E2FE1BC089E4D6018C938EE411968C9373
:1047F000119786E412968C93D9018E2F90E288232C
:1048000009F4B5CF9D938150FACF2D93815081113A
:10481000FCCFCE0ED11CE0E0D9CF89E6D6018C9337
:104820008EE611968C93119786E6E4CF9B0177FF75
:1048300002C030E020E0A1E0B0E0911102C0B0E0A1
:10484000A0E0F9013196AE0FBF1F8B2C912CBB203D
:1048500009F461C05401EFEFAE1ABE0AAA0DBB1DE8
:10486000FA161B0619F014F04F2D4A1B511188C07F
:10487000E3FC59C07601A42FB0E2A1114FC0C40ED1
:10488000D11C992309F45BC040E0D6011196F601D2
:1048900090836D01552309F448C0012F060F9A81BA
:1048A000582F507184FF03C0913309F40150101642
:1048B0000CF047C0093008F008E0EEE2FE2E5B0184
:1048C000A01AB10885019194819491082F3F320775
:1048D00029F4D601FC92F60131966F016217730735
:1048E00094F1021713077CF5DB01A21BB30BAA247A
:1048F000A394B12CAC0EBD1EAA0DBB1D11968C91BC
:1049000021503109D601119628153905F4F0F60128
:1049100080836D01DBCFB12CA12CA0CFF701B19327
:104920007F01A150AACF9111B0CFD601942F50E3AF
:1049300002C05D9391509111FCCFC40ED11C40E098
:10494000ACCF01E0BACF80E3DBCF6217730731F45D
:10495000963388F4953311F4552369F0F60180837A
:10496000FD01842F90E2811108C0A40FB11D1C929B
:1049700090E080E002CF81E3F1CF91938150F3CFBB
:10498000911183CF8ACF283008F027E03327DA014E
:10499000990F311D87FD916000966105710539F40D
:1049A00032602E5F3D9330E32A95E1F708959F3FF3
:1049B00030F080387105610509F03C5F3C5F3D9344
:1049C000913008F08068911DDF93CF931F930F9370
:1049D000FF92EF92192F987F9695E92F96959695CD
:1049E000E90FFF27EF51FE4F99273327EE24FF24CD
:1049F000A701E70105900894079428F4360FE71EF5
:104A0000F81E491F511D660F771F881F991F0694B6
:104A1000A1F70590079428F4E70EF81E491F561FCA
:104A2000C11D770F881F991F661F0694A1F7059077
:104A3000079428F4F80E491F561FC71FD11D880F71
:104A4000991F661F771F0694A1F70590079420F41D
:104A5000490F561FC71FD81F990F661F771F881F42
:104A60000694A9F784911095177041F0D695C795D3
:104A700057954795F794E7941A95C1F7E7E8F1E061
:104A800068941590159135916591959105907FE207
:104A90007395E118F10A430B560BC90BD009C0F707
:104AA000E10CF11E431F561FC91FD01D7EF4703349
:104AB00011F48A95E6CFE894015030F0080F0AF41B
:104AC0000027021708F4202F2395022F7A3328F0AD
:104AD00079E37D932A95E9F710C07D932A9589F6AD
:104AE000069497956795379517951794E118F10AED
:104AF000430B560BC90BD00998F023957E91739503
:104B00007A3308F070E37C932013B8F77E917061DC
:104B10007D9330F0839571E37D9370E32A95E1F7FF
:104B20001124EF90FF900F911F91CF91DF91992762
:104B300087FD9095089599278827089597F99F678D
:104B400080E870E060E008959FEF80EC0895002415
:104B50000A941616170618060906089500240A94E2
:104B600012161306140605060895092E0394000C68
:104B700011F4882352F0BB0F40F4BF2B11F460FFF7
:104B800004C06F5F7F4F8F4F9F4F089557FD905820
:104B9000440F551F59F05F3F71F04795880F97FB01
:104BA000991F61F09F3F79F08795089512161306BB
:104BB0001406551FF2CF4695F1DF08C016161706EA
:104BC0001806991FF1CF869571056105089408951F
:104BD000E894BB2766277727CB0197F90895F999C1
:104BE000FECF92BD81BDF89A992780B50895262FF2
:104BF000F999FECF1FBA92BD81BD20BD0FB6F894C2
:104C0000FA9AF99A0FBE019608950E946926A59F07
:104C1000900DB49F900DA49F800D911D11240895B7
:104C20002F923F924F925F926F927F928F929F92BC
:104C3000AF92BF92CF92DF92EF92FF920F931F93AA
:104C4000CF93DF93CDB7DEB7CA1BDB0B0FB6F8945B
:104C5000DEBF0FBECDBF09942A88398848885F849B
:104C60006E847D848C849B84AA84B984C884DF800C
:104C7000EE80FD800C811B81AA81B981CE0FD11DF0
:104C80000FB6F894DEBF0FBECDBFED010895A1E2CF
:104C90001A2EAA1BBB1BFD010DC0AA1FBB1FEE1FB6
:104CA000FF1FA217B307E407F50720F0A21BB30B01
:104CB000E40BF50B661F771F881F991F1A9469F77D
:104CC00060957095809590959B01AC01BD01CF01D9
:104CD0000895A29FB001B39FC001A39F700D811DD5
:104CE0001124911DB29F700D811D1124911D0895F5
:104CF0005058BB27AA270E9490260C94B5250E94E5
:104D0000A72538F00E94AE2520F039F49F3F19F412
:104D100026F40C94A4250EF4E095E7FB0C949E2554
:104D2000E92F0E94C62558F3BA1762077307840754
:104D3000950720F079F4A6F50C94E8250EF4E0959B
:104D40000B2EBA2FA02D0B01B90190010C01CA0145
:104D5000A0011124FF27591B99F0593F50F4503EF0
:104D600068F11A16F040A22F232F342F4427585FE2
:104D7000F3CF469537952795A795F0405395C9F7FA
:104D80007EF41F16BA0B620B730B840BBAF09150B2
:104D9000A1F0FF0FBB1F661F771F881FC2F70EC051
:104DA000BA0F621F731F841F48F487957795679524
:104DB000B795F7959E3F08F0B0CF9395880F08F010
:104DC0009927EE0F9795879508950E94F627E3950A
:104DD0000C941F280E94FE260C94B5250E94AE2537
:104DE00058F00E94A72540F029F45F3F29F00C9469
:104DF0009E2551110C94E9250C94A4250E94C625EA
:104E000068F39923B1F3552391F3951B550BBB27F9
:104E1000AA2762177307840738F09F5F5F4F220F3E
:104E2000331F441FAA1FA9F335D00E2E3AF0E0E835
:104E300032D091505040E695001CCAF72BD0FE2F7F
:104E400029D0660F771F881FBB1F26173707480713
:104E5000AB07B0E809F0BB0B802DBF01FF279358CB
:104E60005F4F3AF09E3F510578F00C949E250C94CC
:104E7000E9255F3FE4F3983ED4F3869577956795EF
:104E8000B795F7959F5FC9F7880F911D9695879500
:104E900097F90895E1E0660F771F881FBB1F62171F
:104EA00073078407BA0720F0621B730B840BBA0BDD
:104EB000EE1F88F7E09508950E9463276894B1116A
:104EC0000C94E92508950E94CE2588F09F5798F00C
:104ED000B92F9927B751B0F0E1F0660F771F881FFF
:104EE000991F1AF0BA95C9F714C0B13091F00E9419
:104EF000E825B1E008950C94E825672F782F8827DE
:104F0000B85F39F0B93FCCF3869577956795B3953F
:104F1000D9F73EF490958095709561957F4F8F4FAE
:104F20009F4F08950E94A72520F019F00E94AE25FA
:104F300050F40C94A4250C94E925E92F0E94C62571
:104F400088F35523B1F3E7FB6217730784079507CE
:104F5000A8F189F3E92FFF2788232AF03197660FFC
:104F6000771F881FDAF7952F5527442332F0915089
:104F70005040220F331F441FD2F7BB27E91BF50B0C
:104F8000621B730B840BB109B1F222F4620F731F21
:104F9000841FB11D31972AF0660F771F881FBB1F32
:104FA000EFCF9150504062F041F0882332F0660F0D
:104FB000771F881F91505040C1F793950C94E627B6
:104FC0008695779567959F5FD9F7F7CF9F3F31F02B
:104FD000915020F4879577956795B795880F911D27
:104FE0009695879597F908950C94A4250E94CE254F
:104FF000D8F3E894E0E0BB279F57F0F02AED3FE0BC
:1050000049EC06C0EE0FBB0F661F771F881F28F004
:10501000B23A62077307840728F0B25A620B730B27
:10502000840BE3959A9572F7803830F49A95BB0F0C
:10503000661F771F881FD2F790480C94E827EF93DC
:10504000E0FF07C0A2EA2AED3FE049EC5FEB0E94D7
:1050500090260E94B5250F90039401FC9058ECEA2D
:10506000F0E00C94F6280E94D32208F48FEF089504
:10507000FA01EE0FFF1F309621053105A1F16115F0
:10508000710561F48038BFE39B0749F1689490385B
:10509000810561F08038BFEF9B0741F099234AF505
:1050A000FF3FE1053105210519F1E8940894E795E2
:1050B000D901AA2329F4AB2FBE2FF85FD0F310C07B
:1050C000FF5F70F4A695E0F7F73950F019F0FF3A5A
:1050D00038F49F779F930DD00F9007FC9058089558
:1050E00046F00C94A42560E070E080E89FE308950A
:1050F0004FE79F775F934F933F932F930E945429DD
:105100002F913F914F915F910E94F7220C949D281F
:105110009F930E94F6270F9007FCEE5F0C941F28C8
:105120000E94D322880B990B089529F416F00C9451
:105130009E250C94E8250C94A4250E94CE25A8F366
:105140009638A0F707F80F92E8942BE33AEA48EB79
:105150005FE70E940D230F920F920F924DB75EB73B
:105160000F920E949C29EAECF0E00E94CF284F9118
:105170005F91EF91FF91E595EE1FFF1F49F0FE57FC
:10518000E0684427EE0F441FFA95E1F74195550B6F
:105190000E9416290F9007FE0C940A290895DF93A8
:1051A000CF931F930F93FF92EF92DF927B018C01BD
:1051B000689406C0DA2EEF010E940A23FE01E894EB
:1051C000A5912591359145915591A6F3EF010E9446
:1051D0009026FE019701A801DA9469F7DF90EF901D
:1051E000FF900F911F91CF91DF9108959F938F931F
:1051F0007F936F93FF93EF939B01AC010E94F72283
:10520000EF91FF910E94CF282F913F914F915F9195
:105210000C94F7229B01AC0160E070E080E89FE312
:105220000C94EA260C949E250C94E6270E94CE2529
:10523000D8F39923C9F3940F511DA3F39150504013
:1052400094F059F0882332F0660F771F881F915031
:105250005040C1F79E3F51052CF7880F911D969540
:10526000879597F908955F3FACF0983E9CF0BB2777
:10527000869577956795B79508F4B1609395C1F7D2
:10528000BB0F58F711F460FFE8CF6F5F7F4F8F4F70
:105290009F4FE3CF0C94E92516F00C94E6270C946D
:1052A000A42568940C949E250E94CE25A8F39923EA
:1052B000C1F3AEF3DF93CF931F930F93FF92C92FE8
:1052C000DD2788232AF02197660F771F881FDAF7DA
:1052D00020E030E040E85FEB9FE3883920F0803E3B
:1052E00038F021968F770E947926E2EFF0E004C033
:1052F0000E947926EFE1F1E00E94CF288B01BE01E8
:10530000EC01FB2E6F5771097595771F880B990B70
:105310000E94982228E132E741E35FE30E940A23DA
:10532000AF2D9801AE01FF900F911F91CF91DF91AA
:105330000E9490260C94B525FA01DC01AA0FBB1F30
:105340009B01AC01BF5728F422273327442750780C
:1053500020C0B75190F4AB2F002446953795279580
:10536000011CA395D2F3002071F0220F331F441FBC
:10537000B395DAF30ED00C94782661307105A0E86D
:105380008A07B94630F49B01AC0166277727882746
:105390009078309621F0208331834283538308959F
:1053A000991B79E004C0991F961708F0961B881F77
:1053B0007A95C9F78095089597FB072E16F4009407
:1053C00007D077FD09D00E94F62907FC05D03EF4EE
:1053D000909581959F4F0895709561957F4F0895A1
:1053E000EE0FFF1F0590F491E02D0994AA1BBB1B43
:1053F00051E107C0AA1FBB1FA617B70710F0A61BD5
:10540000B70B881F991F5A95A9F780959095BC01F5
:10541000CD0108950F931F93CF93DF9382309105B1
:1054200010F482E090E0E091A407F091A50730E04D
:1054300020E0B0E0A0E0309799F42115310509F49F
:105440004AC0281B390B24303105D8F58A819B814D
:105450006115710589F1FB0193838283FE0111C0FF
:10546000408151810281138148175907E0F04817A4
:10547000590799F4109761F012960C9312971396AE
:105480001C933296CF01DF91CF911F910F91089518
:105490000093A4071093A507F4CF2115310551F00F
:1054A0004217530738F0A901DB019A01BD01DF0162
:1054B000F801C1CFEF01F9CF9093A5078093A4071E
:1054C000CDCFFE01E20FF31F81939193225031095A
:1054D00039832883D7CF2091A2073091A307232BAC
:1054E00041F420914401309145013093A30720936A
:1054F000A20720914201309143012115310541F469
:105500002DB73EB74091460150914701241B350B02
:10551000E091A207F091A307E217F307A0F42E1B76
:105520003F0B2817390778F0AC014E5F5F4F241707
:10553000350748F04E0F5F1F5093A3074093A20713
:10554000819391939FCFF0E0E0E09CCFCF93DF93E6
:105550000097E9F0FC01329713821282A091A40710
:10556000B091A507ED0130E020E01097A1F4208173
:105570003181820F931F2091A2073091A307281732
:10558000390709F061C0F093A307E093A207DF9108
:10559000CF910895EA01CE17DF07E8F54A815B81D4
:1055A0009E0141155105B1F7E901FB83EA83499159
:1055B0005991C40FD51FEC17FD0761F480819181CB
:1055C0000296840F951FE9019983888382819381D4
:1055D0009B838A83F0E0E0E012968D919C91139773
:1055E0000097B9F52D913C911197CD010296820F4C
:1055F000931F2091A2073091A3072817390739F686
:10560000309751F51092A5071092A407B093A30705
:10561000A093A207BCCFD383C28340815181840F62
:10562000951FC817D90761F44E5F5F4F8881998134
:10563000480F591F518340838A819B8193838283C2
:105640002115310509F0B0CFF093A507E093A40729
:105650009ECFFD01DC01C0CF13821282D7CFB0E014
:10566000A0E0E5E3FBE20C9412268C01009751F4D4
:10567000CB010E940A2A8C01C801CDB7DEB7E0E158
:105680000C942E26FC01E60FF71F9C0122503109D5
:10569000E217F30708F49DC0D901CD91DC91119771
:1056A000C617D70798F0C530D10530F3CE0104975F
:1056B0008617970708F3C61BD70B2297C193D19380
:1056C0006D937C93CF010E94A62AD6CF5B01AC1AC2
:1056D000BD0A4C018C0E9D1EA091A407B091A50798
:1056E000512C412CF12CE12C109731F58091A2071F
:1056F0009091A3078815990509F05CC046165706D6
:1057000008F058C08091420190914301009741F404
:105710008DB79EB74091460150914701841B950B70
:10572000E817F90708F055C0F093A307E093A20724
:10573000F90171836083A0CF8D919C91119712968E
:105740006C90129713967C901397A815B90559F58C
:105750006C0142E0C40ED11CCA14DB0420F1AC0180
:105760004A195B09DA011296159780F062827382FA
:1057700051834083D9016D937C93E114F10471F05E
:10578000D7011396FC93EE93129776CF22968C0F47
:105790009D1FF90191838083F301EFCFF093A5075B
:1057A000E093A40769CF4816590608F42C017D013F
:1057B000D3019ACFCB010E940A2A7C01009749F0BD
:1057C000AE01B8010E94EC2BC8010E94A62A8701F5
:1057D00053CF10E000E050CFFB01DC0102C001908C
:1057E0000D9241505040D8F70895FB01DC01019023
:0C57F0000D920020E1F70895F894FFCF1F
:1057FC00357328782900000000000000000000002C
:10580C00000000000000000000000000000000008C
:10581C0001010101FFFFFFFF00E10000000000009B
:10582C00000020C100002041000020C100002041E8
:10583C003F3F0000A607800000C1808100000000EF
:10584C00000000E5067E080607FB064C070A072841
:10585C0007000000003C0AF907010B000B000000D8
:10586C0000F80730003100320033003400350036C8
:10587C00003700380039002E0029002B004F4B0058
:10588C002A002F005E00250078007328003C2D00B4
:10589C003C3C000D0A006E616E00696E66006F760E
:0258AC00660094
:00000001FF
