:100000000C94DA020C9402030C9402030C94020385
:100010000C9402030C9402030C9402030C9402034C
:100020000C9402030C9402030C94A80C0C94170D6E
:100030000C9402030C9402030C9402030C9402032C
:100040000C9402030C9402030C9402030C9402031C
:100050000C9402030C9402030C9402030C94490FB9
:100060000C9402030C9402030C9402030C940203FC
:100070000C9402030C9402030C9402030C940203EC
:100080000C9402030C9402030C9402030C940203DC
:100090000C9402030C9402030C9402030C940203CC
:1000A0000C9402030C9402030C9402034E414E493B
:1000B0004E495459494E46CDCCCC3D0AD7233C1726
:1000C000B7D13877CC2B329595E6241FB14F0A0073
:1000D0000020410000C84200401C4620BCBE4CCA63
:1000E0001B0E5AAEC59D7400407A10F35A00A072E0
:1000F0004E18090010A5D4E80000E8764817000063
:10010000E40B54020000CA9A3B000000E1F5050030
:100110000080969800000040420F000000A0860179
:10012000000000102700000000E803000000006449
:1001300000000000000A00000000000100000000B4
:10014000002C76D888DC674F0823DFC1DFAE59E189
:10015000B1B796E5E3E453C63AE651997696E8E6F8
:10016000C28426EB898C9B62ED407C6FFCEFBC9CCB
:100170009F40F2BAA56FA5F490055A2AF75C936BDD
:100180006CF9676DC11BFCE0E40D47FEF520E6B598
:1001900000D0ED902E0300943577050080841E0872
:1001A0000000204E0A000000C80C333333330F9890
:1001B0006E12831141EF8D2114893BE65516CFFE57
:1001C000E6DB18D1844B381BF77C1D901DA4BBE4E3
:1001D00024203284725E228100C9F124ECA1E53D25
:1001E000272F0300033F0A3F163F1A0904121A255E
:1001F0001A28031E21211E0A040A040E04600404A6
:1002000004200804021E211E223F20392522212518
:100210001A07043F1725191E25190139071A251A2F
:1002200012251E1434040A111414110A04012D0697
:100230001E212D2E3E053E3F251A1E21213F211E47
:100240003F253F051E213D3F043F213F21211F3F08
:10025000043B3F203F0204023F3F02043F1E211E99
:100260003F05021E312E3F053A2619013F013F206E
:100270003F1F301F1F201C201F3B043B033C033942
:10028000273F21020408213F020102202020010211
:10029000142C383F2418182418243F1834283E05FD
:1002A00048543C3F04383D403D3F043A3F3C043C09
:1002B00004383C04381824187C241818247C3C0486
:1002C00028141F241C203C1C201C1C2038203C34DB
:1002D00008344C503C342C043B213B213B040206A7
:1002E00004000104070A0D11121416191C1D202107
:1002F00024272A2D303336393C3F42434447494C6A
:100300004F5356595C5F616366696C6E7173787C9C
:100310007F8285888A8D9093989B9EA0A2A5A7AA8C
:10032000ADAFB2B5B7BABDBFC2C5C6C8CBCCD1D4CC
:10033000D7DADDDFE1E3E6E9EEF1F4F6F9FAFD0004
:1003400000000000240027002A002D00300000B02B
:100350000000A170E150964F26900F1D070C0096EB
:1003600069004AE44A0048444000806810000F9940
:10037000FB8F9DBDBBFB77D4D4DF1F1A1AFE7F5DB8
:100380005DFF805A0000A0A4AA0010BA3400FF59F3
:1003900053F3FF9B9B9EFFB9B996FF9595D19FF4B0
:1003A000940FFC295F91FF1838F8FF9294FFFF9596
:1003B000D5F7BFB5DDD7F18F81F1F788C8F779C6DA
:1003C000467909FD9B090196F8008281828050716F
:1003D00062007756560076763700A2B7730107722F
:1003E00006007827500073347400775176007F55EB
:1003F000F70047711000324772007364730015A252
:10040000750061679400009F6060F4F2F6F2080BDB
:1004100000020202010009040000010202000005BE
:10042000240010010524010101042402060524060C
:1004300000010705810310004009040100020A00C1
:10044000000007050202400000070583024000008B
:100450000403090412010002EF0201404123368027
:1004600000010102030141726475696E6F204C4CFA
:10047000430041726475626F7900F0F89C8E878347
:10048000878E9CF8F00000FEFF0303030303070EB2
:10049000FCF80000FEFF0303030303070EFCF80053
:1004A00000FFFF00000000000000FFFF0000FEFF53
:1004B0008383838383C7EE7C380000F8FC0E070338
:1004C0000303070EFCF800003F7FE0C08080C0E01F
:1004D0007F3FFFFF01010101010101FFFF0000FF5C
:1004E000FF0C0C0C0C1C3E77E3C100007FFFC0C06A
:1004F000C0C0C0E0703F1F00001F3F70E0C0C0C020
:10050000E0703F1F00007FFFC1C1C1C1C1E3773E62
:100510001C00001F3F70E0C0C0C0E0703F1F000023
:1005200000000001FFFF01000000D5F08D14A1C8FC
:1005300081CFD9F1AF20006B656437383934353657
:10054000313233302E2D00000000250028002B0012
:100550002E00310004040404040304050202020214
:10056000040302020202060606060606040402024C
:100570000204040408020110408040102040804022
:1005800080080204018040201002011080102040E9
:1005900040200000000200090F0000030401000CCD
:1005A000000000000000000000000000000000004B
:1005B0000000321011241FBECFEFDAE0DEBFCDBF46
:1005C00011E0A0E0B1E0E6EEFCE302C005900D9280
:1005D000AC3EB107D9F728E0ACEEB1E001C01D9206
:1005E000AB31B207E1F712E0CAEDD2E004C02197C7
:1005F000FE010E946C1CC93DD107C9F70E949F10E3
:100600000C94711E0C94000090911008982329F40A
:1006100090910F08982381E009F480E00895E5EFB8
:10062000F3E0A0E0B8E000800EBC8111012C11972E
:10063000A0FDFDCF0192B9F70DB4089580E0E5EF7C
:10064000F3E081118FEF0024819381938193819353
:100650000394D1F708958FB7F894409165035091B2
:10066000660360916703709168038FBF80911208E1
:10067000942F981B80911308882331F090931408CD
:100680001092130880E0089520911108921740F409
:100690009F5F9217A0F491E093BF889513BE0895D1
:1006A00081E0809313084093120880910D08909187
:1006B0000E08019690930E0880930D0881E008952E
:1006C000FC0180916403882311F13FB7F89482E024
:1006D0008093E9002091F200822F90E0181619060D
:1006E00014F481E090E0882339F0289844E64093A0
:1006F00063034091F1004083222339F02091F200FE
:10070000211103C02BE62093E8003FBF08958FEF2F
:100710009FEF08952FB7F89483E08093E9009091BC
:10072000E800892F807295FF04C09091F20080E468
:10073000891B2FBF089580915B0381110DC082E05A
:100740008093570384E08093580310925A031092C9
:10075000590381E080935B0387E593E00895089552
:100760004091F3015091F4012091F1013091F20197
:1007700042175307B4F49091E8009570E1F390911B
:10078000E80092FD19C08093F1008091F3019091EF
:10079000F40101968F739927892B19F48EEF8093BA
:1007A000E8008091F3019091F40101969093F40197
:1007B0008093F30181E0089580E00895DF92EF9245
:1007C000FF920F931F93CF93DF93D82E8A01EB01F3
:1007D0007B01E40EF51ECE15DF0559F0D7FE12C0E1
:1007E000FE0184910E94B00321968111F4CF0FEF96
:1007F0001FEFC801DF91CF911F910F91FF90EF90F4
:10080000DF9008958881EECF0F931F93CF93DF93EE
:100810001F92CDB7DEB782E0898342E450E06EE0FC
:1008200074E080E80E94DE030E949B03DC011296C4
:100830000D911C910115110589F0D801ED91FC91E4
:100840000280F381E02DBE016F5F7F4FC8010995E3
:1008500097FD04C0F80100851185ECCF89810F90C8
:10086000DF91CF911F910F910895615030F0209149
:10087000F100FC0120830196F8CF289884E680934C
:1008800063030895DC01ED91FC910190F081E02D6E
:100890000994AF92BF92CF92DF92EF92FF920F93A3
:1008A0001F93CF93DF936C017B018B01040F151F06
:1008B000EB015E01AE18BF08C017D10759F069916E
:1008C000D601ED91FC910190F081E02DC6010995D2
:1008D000892B79F7C501DF91CF911F910F91FF907F
:1008E000EF90DF90CF90BF90AF900895CF93DF93BC
:1008F0001F92CDB7DEB76983DC01ED91FC910280D8
:10090000F381E02D41E050E0BE016F5F7F4F09951C
:100910000F90DF91CF91089583E08093E90080915B
:10092000F200882319F08AE38093E80008950E947A
:100930008A0390E00895CF93DF931F92CDB7DEB77F
:10094000FC018485958597FD08C02FEF3FEF358723
:1009500024870F90DF91CF910895CE0101960E94D8
:100960006003019719F4898190E0F3CF8FEF9FEF37
:10097000F0CF0F931F93CF93DF931F92CDB7DEB7C6
:100980008C01FC018485958597FF0BC0CE010196F3
:100990000E946003019771F4898190E0F8019587C6
:1009A0008487F801848595850F90DF91CF911F9101
:1009B0000F9108958FEF9FEFF1CFFC01848595850E
:1009C00097FD0BC09FB7F89482E08093E900809177
:1009D000F2009FBF90E0019608959FB7F89482E0DF
:1009E0008093E9008091F2009FBF90E008953FB7A7
:1009F000F8948091ED019091EE01A091EF01B091FA
:100A0000F00126B5A89B05C02F3F19F00196A11D46
:100A1000B11D3FBFBA2FA92F982F8827BC01CD0148
:100A2000620F711D811D911D42E0660F771F881FA7
:100A3000991F4A95D1F708958F929F92AF92BF92D6
:100A4000CF92DF92EF92FF926B017C010E94F7043C
:100A50004B015C01C114D104E104F104B9F00E941E
:100A6000F704681979098A099B09683E7340810572
:100A7000910580F321E0C21AD108E108F10888EE5F
:100A8000880E83E0981EA11CB11CE4CFFF90EF906C
:100A9000DF90CF90BF90AF909F908F9008958F92EE
:100AA0009F92AF92BF92CF92DF92EF92FF920F93FD
:100AB0001F93CF93DF936C017B018A0180910B011F
:100AC000882309F45CC080916403882309F457C02B
:100AD0008091F70180FF05C08091E00082608093E3
:100AE000E000E801B12C8AEFA82E93E0892E2AE3DA
:100AF000922E209711F4BB20D9F10E948A03811114
:100B00000AC0AA94AA20D9F161E070E080E090E0E8
:100B10000E941C05EECF8C171D0611F00CF08C2FD7
:100B20009FB7F8948092E9002091E80025FD02C06B
:100B30009FBFDFCF282F30E0C21BD30BF7018150BE
:100B400020F041914093F100FACFE20EF31EBB205A
:100B500021F09092E800B12CEBCF8091E80085FD68
:100B6000E7CF9092E800BB24B394209709F3F3CF2A
:100B70005D9884E68093F601101611063CF081E042
:100B800090E0F6019383828310E000E0C801DF91DA
:100B9000CF911F910F91FF90EF90DF90CF90BF907A
:100BA000AF909F908F9008956F927F928F929F92B7
:100BB000AF92BF92CF92DF92EF92FF920F931F936B
:100BC000CF93DF934C017B01C22F102F98E0A92E09
:100BD000B12C642E669466946694712CCA01877059
:100BE0009927892B79F5D40117962D913C91C7014E
:100BF0009927B9010E94581C269DF001279DF00DF0
:100C0000369DF00D11248E0F9F1FD4011596ED9186
:100C1000FC91E80FF91F2081111112C0C095C22369
:100C2000C083DF91CF911F910F91FF90EF90DF90E4
:100C3000CF90BF90AF909F908F907F906F900895CE
:100C4000C22BEECFD0E04770C42ED12C83E0660CCF
:100C5000771C8A95E1F79E0101C0220F4A95EAF7B9
:100C6000012FA301B701C4010E94D405A301485F6D
:100C70005F4FC5018C199D0902C0D595C7958A950E
:100C8000E2F7A7CF5F926F927F928F929F92AF927F
:100C9000BF92CF92DF92EF92FF920F931F93CF9369
:100CA000DF93EC016A30F1F48D859E859C878B87FC
:100CB0008C892F853889820F932F911D988B8F8770
:100CC00081E090E0DF91CF911F910F91FF90EF9025
:100CD000DF90CF90BF90AF909F908F907F906F905C
:100CE0005F900895AB84BC84693031F429E0A20E92
:100CF000B11CBC86AB86E4CF3DEFA3163FEFB30635
:100D00000CF45DC08F819885A816B9060CF057C009
:100D1000CF84D8888DEFC8168FEFD8060CF44FC05B
:100D200089859A85C816D9060CF049C0603208F446
:100D30006FE780EE860F9FE9960F9A3118F49FEFC8
:100D4000C91AD90A8C3011F08B3119F42FEFC21A5D
:100D5000D20A869534E0839FC00111249C01225B56
:100D60003C4F7901912C812C162F1170F701E80D61
:100D7000F91D549011112DC0352D3F70532E3501A2
:100D8000680C791C8C81882361F001E089899A893B
:100D9000892B09F000E02FE0A601B301CE010E94EB
:100DA000D4050989252DA601B301CE010E94D405E1
:100DB0008FEF881A980A94E089169104B9F68B8906
:100DC00090E004962B853C85820F931F9C878B8730
:100DD00077CF52948FE05822D2CF2D9A0895BC013C
:100DE00090E080E00C941C058FB18095807F669B1D
:100DF00088601C9B84600895CF93DF9380389105B1
:100E00000CF03DC0D0E0C0E08F3F980709F0EC0146
:100E1000480F592F511D4138510514F040E850E05A
:100E20004C1BFB0177FD379683E0F595E7958A9596
:100E3000E1F7F695FE2FEE27F795E795EC0FFD1FEE
:100E4000EB50FC4FDB01A770BB2761E070E001C0F5
:100E5000660FAA95EAF7962F213041F4415078F0B9
:100E60008191DF011197892B8C93F8CF60954150C8
:100E700030F08191DF01119786238C93F8CFDF91B9
:100E8000CF91089580389105B8F460347105A0F4CD
:100E900020E191E061FD94E060FD990F62FD929583
:100EA000687F269FD0011124A80FAB50BC4F8C91B6
:100EB00040FF03C0892B8C93089590958923FBCF25
:100EC0006F927F928F929F92AF92BF92CF92DF925A
:100ED000EF92FF920F93CF93DF934C01EB01E42E3F
:100EE000C22E6034710518F4202F0E94FC06CC0E2F
:100EF000DD2ED11CB60161507109603471052CF4EE
:100F0000202F4E2DC4010E94FC06D7FF02C0D0E066
:100F1000C0E03E01560181E4C816D1041CF080E413
:100F2000A82EB12C6A147B044CF4402FB301C401E9
:100F30000E9442078FEF681A780AECCFE80CF92C70
:100F4000F11C81E0E81AF108CA15DB053CF4402FDA
:100F5000BE01C7010E9442072196F6CFDF91CF91D3
:100F60000F91FF90EF90DF90CF90BF90AF909F9048
:100F70008F907F906F900895E0E8F5E02491E1E68E
:100F8000F5E08491882399F090E0880F991FFC0187
:100F9000E05CFC4FA591B491FC01EA5BFA4F8591AE
:100FA00094918FB7F894EC91E22BEC938FBF81E092
:100FB0000E94930F6AEF70E080E090E00E941C05B1
:100FC00080E00E94930F6AEF70E080E090E00E9462
:100FD0001C05EDCF6F927F928F929F92AF92BF923E
:100FE000CF92DF92EF92FF920F931F93CF93DF93F5
:100FF0004C017B01C22F102F98E0A92EB12C642E3A
:10100000669466946694712CCA0187709927892B1F
:1010100079F5D40117962D913C91C7019927B90113
:101020000E94581C269DF001279DF00D369DF00D65
:1010300011248E0F9F1FD4011596ED91FC91E80F9E
:10104000F91F2081111112C0C095C223C083DF9106
:10105000CF911F910F91FF90EF90DF90CF90BF90B5
:10106000AF909F908F907F906F900895C22BEECF9E
:10107000D0E04770C42ED12C83E0660C771C8A9593
:10108000E1F79E0101C0220F4A95EAF7012FA30163
:10109000B701C4010E94EA07A301485F5F4FC50181
:1010A0008C199D0902C0D595C7958A95E2F7A7CFFF
:1010B0004F925F926F927F928F929F92AF92BF9268
:1010C000CF92DF92EF92FF920F931F93CF93DF9314
:1010D000EC016D3071F06A30F9F48D859E859C8746
:1010E0008B878C892F853889820F932F911D988B40
:1010F0008F8781E090E0DF91CF911F910F91FF905A
:10110000EF90DF90CF90BF90AF909F908F907F90A7
:101110006F905F904F900895EB84FC84693031F4B8
:1011200048E0E40EF11CFC86EB86E3CF603231F43C
:101130008B8990E00296E80EF91EF5CF162F8F816D
:101140009885E816F9060CF04DC08F8498885BEFFF
:1011500085165FEF95060CF445C089859A8588163B
:1011600099060CF03FC080EE860F8F3508F038C02E
:10117000862F90E09C0120543D4FF901A490B12CA2
:10118000A5014F515E4F5A01FC01EF53FD4F5490A2
:10119000F9012491521AD12CC12CC51418F5F5016E
:1011A000EC0DFD1D449037016C0C7D1C8C81882357
:1011B00061F001E089899A89892B09F000E02FEF1D
:1011C000A401B301CE010E94EA070989242DA401DC
:1011D000B301CE010E94EA07FFEFCF1ADF0ADDCF8D
:1011E0008FE3C7CF612F70E0FB01EF53FD4F849178
:1011F00060547D4FFB016491E82FE61B8B89E80F5B
:10120000FF27FF1F8B859C85E80FF91FFC87EB8765
:1012100070CF089590E080E00895FB0101900020D8
:10122000E9F73197AF01461B570BDC01ED91FC91BB
:101230000280F381E02D09948F929F92AF92BF922A
:10124000EF92FF920F931F93CF93DF93CDB7DEB74B
:10125000A1970FB6F894DEBF0FBECDBF7C01FA0197
:10126000CB0119A2223008F42AE08E010F5D1F4F36
:10127000822E912CB12CA12CBF01A50194010E94BA
:10128000081BF901CA016A300CF5605DD8016E9344
:101290008D01232B242B252B79F790E080E01097EC
:1012A00021F0BD01C7010E940D09A1960FB6F89467
:1012B000DEBF0FBECDBFDF91CF911F910F91FF9089
:1012C000EF90BF90AF909F908F900895695CDECFB4
:1012D000AF92BF92CF92DF92EF92FF920F931F9344
:1012E000CF93DF93242F1092DF033091DC03E32FA1
:1012F000F0E0E354FC4F332319F031501292FBCF4E
:101300001092DC030CEB13E040E00E94BF158091CB
:10131000DC038F5F21E0280FE82FF0E0E754FC4F5B
:101320009381911193C08093DC0311E0CAE0DBEA62
:101330008091DF03811162C10E942B038823C1F3D6
:1013400080910F08809310080E94F40680930F0884
:101350000E941E0380E80E940403882349F08091C4
:10136000BB039091DD03891718F0891B8093BB03A1
:1013700080E10E940403882339F08091BB0390919F
:10138000DD03890F8093BB0380E20E94040388235E
:1013900039F08091BB03882319F081508093BB03FF
:1013A00080E40E940403882329F08091BB038F5FAF
:1013B0008093BB0388E00E940403882381F0E091BE
:1013C000BB03A091DC03E13009F451C008F447C02D
:1013D000E23009F053C0A1113BC01092DC0384E05D
:1013E0000E940403882359F0E091DC03EE2339F0D6
:1013F000E150E093DC03F0E0E754FC4F138200E09F
:10140000E090BA03F12CC090B903D12C8091DD0398
:10141000801708F443C00C9FC00CD11C1124570145
:1014200023E3A20EB11CC501A1E4AA16B10414F075
:1014300080E490E0E816F9067CF541E0B701C601CA
:101440000E944207BFEFEB1AFB0AEDCF822F62CF5B
:10145000A150EA2FF0E0E754FC4F1382BCCF109369
:10146000DF03B0E0A754BC4F13961C92B8CFAA2359
:1014700009F4B5CFA150A093DC03F3CFF0E0E95C11
:10148000FA4FE49181E08A0F8093DC03B0E0A75427
:10149000BC4F1396EC93A3CF0F5FB2CF00E06091E7
:1014A000BA0370E08091DE03801780F00C9F600D1E
:1014B000711D1124603471053CF48091B90321E061
:1014C0004FE190E00E94FC060F5FE9CF00E08091C1
:1014D000DE030817A8F50C9F70011124D12C409150
:1014E000DD038091BA03282F30E08091B90390E0AA
:1014F000D41620F5DC9E800D911D11240296909348
:101500000308809302089093010880930008C701A4
:10151000820F931F02969093050880930408ED2D87
:10152000F0E0049FE00DF11D1124E95CFA4F649195
:1015300085EF97E00E944204D394D1CF0F5FC7CFCD
:101540009091BB039D9F812D112486956091BA03D4
:1015500070E08C9F600D711D1124282F220F820FC7
:10156000981BE091B903F0E000E02BE04BE0DF01D5
:101570009C9FA00DB11D1124CD010E946007909188
:10158000BB039D9F812D112486956091BA0370E065
:101590008C9F600D711D112461507109282F220F3D
:1015A000820F292F281B8091B90390E02C9F800D7A
:1015B000911D112401E02DE04DE001970E9460078C
:1015C0002091BA032850330B8091B90390E0029622
:1015D0009093030880930208909301088093000879
:1015E00030930508209304086CEB73E085EF97E0D7
:1015F0000E940D0980E00E940F039ACE8CEB93E0CD
:10160000DF91CF911F910F91FF90EF90DF90CF90DE
:10161000BF90AF900C94DD152F923F924F925F9246
:101620006F927F928F929F92AF92BF92CF92DF92F2
:10163000EF92FF921F93CF93DF93EC016A017B013E
:10164000722EAB019601CB01B6010E94531C69E4D6
:1016500071E0811126C046015701E894B7F82FEFD9
:101660003FEF4FE75FE7C501B4010E94531C8111B2
:101670000CC02FEF3FEF4FE75FE7C501B4010E94B9
:1016800089196DE471E0181664F02FEF3FEF4FE712
:101690005FE4C701B6010E944E1C1816B4F461E560
:1016A00071E0CE01DF91CF911F91FF90EF90DF901D
:1016B000CF90BF90AF909F908F907F906F905F90F2
:1016C0004F903F902F900C940D092FEF3FEF4FE775
:1016D0005FECC701B6010E94891987FDE0CF20E0C9
:1016E00030E0A901C701B6010E948919312C212CD3
:1016F00087FF09C06DE2CE010E9442041C01F7FA87
:10170000F094F7F8F09410E060E070E080E09FE380
:10171000711641F020E030E040E251E40E94A61B47
:101720001F5FF6CFA70196010E943A1B2B013C01D7
:101730000E941F1C4B015C012AE0BC01A401CE01E8
:101740000E941C097C01E20CF31C1123C1F1C501AC
:10175000B4010E948E199B01AC01C301B2010E9429
:10176000391B4B015C016EE2CE010E944204E80E7F
:10177000F91E115020F120E030E040E251E4C501B3
:10178000B4010E94EF192B013C010E941F1C4B0168
:10179000B12CA12C2AE0B501A401CE010E941C09A4
:1017A000E80EF91EC501B4010E948E199B01AC011F
:1017B000C301B2010E94391B4B015C01DACFC701A2
:1017C000DF91CF911F91FF90EF90DF90CF90BF906E
:1017D000AF909F908F907F906F905F904F903F90D1
:1017E0002F900895CF93DF93AB01BC0122E089E6EF
:1017F00093E00E940C0BEC0165E571E089E693E053
:101800000E940D098C0F9D1FDF91CF910895EC016F
:10181000009739F00E940D0965E571E0CE010E9444
:101820000D090E94BC070F931F93CF93DF93EC0128
:101830008B0168E571E0101611067CF4B801660FA3
:10184000771F660F771F8A819B810E94AB1D9B8348
:101850008A83892B31F46DE871E0888199810E9437
:10186000070C1D830C83DF91CF911F910F91089579
:10187000CF92DF92EF92FF92FC01268137812115F2
:10188000310531F469EB71E0808191810E94070C90
:10189000A281B3812150310937832683C901880F82
:1018A000991F880F991FA80FB91FCD90DD90ED905B
:1018B000FC9021153105A9F064817581CB0177FD7C
:1018C00003969595879595958795821793074CF084
:1018D00077FF02C06F5F7F4F75956795CF010E94BC
:1018E000130CC701B601FF90EF90DF90CF900895E1
:1018F000CF92DF92EF92FF92CF93DF93EC016A01D8
:101900007B016E817F818C819D816817790729F425
:10191000660F771FCE010E94130C2A813B818E81B6
:101920009F81AC014F5F5F4F5F834E83880F991F8C
:10193000880F991F820F931FFC01C082D182E2821F
:10194000F382DF91CF91FF90EF90DF90CF900895D9
:101950001F920F920FB60F9211248F939F93809135
:10196000E1009091E100937F9093E10083FF0FC02D
:101970001092E90091E09093EB001092EC0092E35A
:101980009093ED001092640398E09093F00082FF32
:1019900022C093E09093E9009091F200992319F00E
:1019A0009AE39093E8009091F601992341F0909189
:1019B000F60191509093F601911101C05D9A9091BA
:1019C0006303992341F090916303915090936303D3
:1019D000911101C0289A84FF18C08091E2008E7E88
:1019E00081608093E2008091E1008F7E8093E1002E
:1019F0008091F7018E7E80618093F7019F918F9196
:101A00000F900FBE0F901F90189580FFF7CF809119
:101A1000E2008E7E80618093E2008091E1008E7E04
:101A20008093E1008091F7018E7E8160E5CF1F9267
:101A30000F920FB60F921124CF92DF92EF92FF9286
:101A40000F931F932F933F934F935F936F937F93C6
:101A50008F939F93AF93BF93EF93FF93CF93DF93B6
:101A6000CDB7DEB76C97DEBFCDBF1092E900809195
:101A7000E80083FF25C068E0CE0145960E9435044A
:101A800082EF8093E8008D8987FF39C09091E8004C
:101A900090FFFCCF982F907609F034C19E894F8932
:101AA000588D2F89F88C911131C0803861F5809163
:101AB000F8018093F1001092F1008EEF8093E8001E
:101AC0006C960FB6F894DEBF0FBECDBFDF91CF91FD
:101AD000FF91EF91BF91AF919F918F917F916F9106
:101AE0005F914F913F912F911F910F91FF90EF9038
:101AF000DF90CF900F900FBE0F901F9018959EEF24
:101B00009093E800C7CF1092F100D5CF913059F4EF
:101B10008111D3CF4130510581F68091F8018D7F3D
:101B20008093F801CACF933049F48111C6CF413078
:101B3000510519F68091F8018260F2CF953041F499
:101B40008091E80080FFFCCF20682093E300B5CFB0
:101B5000963009F0A9C00B8D1C8D22E01092E9008F
:101B60001092F4011092F301F2122EC01092F201C1
:101B70001092F1010E9404041F8299E09983FA8275
:101B800091E09E8390EA98879AEF99872091F301DC
:101B90003091F401275F3F4F3C832B838D8310925C
:101BA000E9001092F4011092F3011093F2010093F6
:101BB000F10149E050E0BE016F5F7F4F80E00E947D
:101BC000DE030E94040479CF1093F2010093F10127
:101BD0000E949B03DC0112960D911C9101151105C9
:101BE00009F451C1D801ED91FC910480F581E02DFB
:101BF000BE016B5E7F4FC8010995009709F03EC199
:101C0000F80100851185EACFF3E0FF120EC08F893D
:101C1000882309F440C0823061F440E867E082E73D
:101C200094E00E94FF0F811148CF81E28093EB0086
:101C300047CF813029F440E86BE086E694E0F1CFAD
:101C4000833099F70E949B03DC011296ED90FC9083
:101C50008E010F5F1F4F6801E114F10479F0D70185
:101C6000ED91FC910680F781E02DB801C70109953F
:101C7000080F111DF701E084F184EECFD8011C920A
:101C8000F60101900020E9F73197BF016C197D0939
:101C900040E0C601C6CF60E574E0FB01449150E02E
:101CA00080E80E94DE0309CF973009F4BECF983058
:101CB00021F481E08093F10000CF993009F0FDCE4E
:101CC000837009F0B2CFE3E1F1E081E031E096E327
:101CD0002191222371F08093E9003093EB00DF0122
:101CE00011972C912093EC009093ED008F5F87303B
:101CF00079F78EE78093EA001092EA008F8980934B
:101D00006403DBCE8B8D9C8D1092E9001092F40160
:101D10001092F3019093F2018093F101898D81116A
:101D200092C08E899D89913A49F4813209F07DCF24
:101D300047E050E064E071E080E0B3CF913209F019
:101D400074CF833269F48F89988DB0E0A0E08093DE
:101D5000000190930101A0930201B0930301ADCE65
:101D6000803269F48091E80082FFFCCF67E084E074
:101D700091E00E9435048BEF8093E8009ECE823282
:101D800009F09BCE8F8980930B01EEEFFFE78591E1
:101D900094918B3F9C4D51F1E0E0F8E0809104017B
:101DA00090910501A0910601B0910701803B9440FC
:101DB000A105B105F1F480910B0180FD1AC0EE3F41
:101DC0008AE0F80789F587E797E791838083809118
:101DD00060008093F50188E19BE00FB6F894A89528
:101DE000809360000FBE9093600067CEEEEFFAE044
:101DF000D5CF808191818737974709F05ECEA8952E
:101E0000809160008861809360008091F5018093EB
:101E10006000EE3F2AE0F20789F08091FE0A90917F
:101E2000FF0A9183808349CE80819181873798070B
:101E300051F29093FF0A8093FE0AC5CF1092FF0AD9
:101E40001092FE0A3ACE0E949B03DC0112960D917D
:101E50001C910115110509F4E8CED801ED91FC9112
:101E60000190F081E02DBE016B5E7F4FC8010995A6
:101E7000811123CEF80100851185EBCF18161906C4
:101E80000CF41BCED2CEF1E0FF12BECE64E574E0BE
:101E900004CF1F920F920FB60F9211242F933F93EE
:101EA0008F939F93AF93BF93809165039091660347
:101EB000A0916703B09168033091EC0123E0230FF8
:101EC0002D3758F50196A11DB11D2093EC0180938B
:101ED000650390936603A0936703B09368038091B2
:101EE000ED019091EE01A091EF01B091F00101960A
:101EF000A11DB11D8093ED019093EE01A093EF0120
:101F0000B093F001BF91AF919F918F913F912F912D
:101F10000F900FBE0F901F90189526E8230F029682
:101F2000A11DB11DD2CFEFE9F5E02491E0E8F5E085
:101F30003491E1E6F5E09491992309F430C022232D
:101F4000E9F021502F30D0F4E22FF0E0E655F04FC9
:101F50000C946C1CD80FDC0FB90FD00FD40FBE0F30
:101F6000BE0FBE0FDF0FE50FE90FED0FF30FBE0F32
:101F7000F70F209180002F7720938000E92FF0E069
:101F8000EE0FFF1FEA5BFA4FA591B4919FB7F8944B
:101F9000EC91811132C030953E233C939FBF089550
:101FA000209180002F7DE8CF20918000277FE4CF13
:101FB00024B52F7724BDE2CF24B52F7DFBCF209110
:101FC00090002F7720939000D9CF209190002F7D03
:101FD000F9CF20919000277FF5CF2091C0002F7777
:101FE0002093C000CBCF2091C0002F7DF9CF20914E
:101FF000C200277F2093C200C1CF3E2BCECFEF92ED
:10200000FF920F931F93CF93DF93F82E192FE62E95
:10201000042F81E0860F880F0E94B00383E00E94A6
:10202000B003CF2DD12FEC0EFD2EF11CCE15DF0508
:10203000B9F007FF13C0FE0184910E94B003182F6E
:1020400080E00E94B003812321968111EFCFDF91C0
:10205000CF911F910F91FF90EF9008958881EDCF60
:1020600081E0F5CFCF93DF93E9E6F3E013821282AC
:1020700088EE93E0A0E0B0E084839583A683B783E5
:102080008DE191E0918380838FEF9FEF9587848727
:10209000EAE0F8E01582168280E1878314821382D9
:1020A000118687E491E091838083E5EFF7E0138266
:1020B00012828BE391E091838083A5EFB3E0B68336
:1020C000A58360E870E07087678340E450E0528742
:1020D000418787E0848B21E0238B16861586108A42
:1020E00017861486138681E090E0928B818B148290
:1020F000E0EEF3E013821282CFE2D1E0D183C0831D
:10210000B683A583708767835287418735E0348B18
:10211000238B16861586108A178614861386928B53
:10212000818B1482E9EBF3E08CE08083818383E090
:1021300084A386E085A316A2DF91CF910895CF9363
:10214000DF93CDB7DEB7CE55D1090FB6F894DEBF19
:102150000FBECDBF789484B5826084BD84B58160A4
:1021600084BD85B5826085BD85B5816085BD809162
:102170006E00816080936E001092810080918100DA
:1021800082608093810080918100816080938100D2
:1021900080918000816080938000809191008260B6
:1021A0008093910080919100816080939100809153
:1021B00090008160809390008091C1008460809342
:1021C000C1008091C10082608093C1008091C100F4
:1021D00081608093C1008091C30081608093C300BF
:1021E0008091C00082608093C0008091C2008160B5
:1021F0008093C20080917A00846080937A008091FD
:102200007A00826080937A0080917A008160809366
:102210007A0080917A00806880937A00109264033B
:102220001092F8011092F7018091D700816080939D
:10223000D70080EA8093D80089B5806189BD89B5CF
:10224000826089BD09B400FEFDCF61E070E080E0EE
:1022500090E00E941C058091D8008F7C8061809363
:10226000D8008091E000807F8093E0008091E100C1
:102270008E7E8093E1008DE08093E200559A209A53
:1022800081EC80937C0085B1806F85B984B1877EB5
:1022900084B984B1876E84B95E9A5F988AB1806D83
:1022A0008AB9769A6E9881B3806F81BB899880B322
:1022B0008D7080BB80E58CBD81E08DBD85E090E0B8
:1022C0000E94EF065F9A85E090E00E94EF065E981C
:1022D0005C98EAE2F5E087E395E024912EBD0000EA
:1022E0000DB407FEFDCF31968E179F07B1F75C9AAC
:1022F00081E880936400809165008160809365002F
:1023000080E00E940F030E94F40687FF15C05C98CE
:1023100085EA8EBD00000DB407FEFDCF5C9A2E98B5
:102320002F982D988091640080628093640081E0F2
:1023300083BF889513BEFCCF0E94F40682FF48C07D
:102340002D980E94F40684788438E1F40E94ED060A
:1023500088EC90E00E94EF062F9882E090E00E94C7
:10236000B01A8F3F29F06FEF82E090E00E94B81A18
:1023700084EF91E00E94EF062F9A0E94F406847881
:102380008438D9F30E94F40684718431E1F40E9408
:10239000ED0688EC90E00E94EF062E9882E090E037
:1023A0000E94B01A882329F060E082E090E00E9449
:1023B000B81A84EF91E00E94EF062E9A0E94F4066C
:1023C00084718431D9F388EC90E00E94EF06B4CF99
:1023D0000E94ED0682E090E00E94B01A882309F482
:1023E00023C13E9A3F9A81E090E00E94B01A847027
:1023F000782E81E090E00E94B01A81FF0FC071102A
:102400002E9800EF1FEFF8E0AF2EB12C0E94F406DB
:1024100086FF0DC12E9A2F9A0E94ED0682E390E06E
:102420000E94EF060E94F4068111F8CF8FEF9FEF14
:10243000909376038093750380E090E0A0E2B1EC86
:102440008093F9019093FA01A093FB01B093FC01F2
:1024500040E050E060E271E44093FD015093FE01E2
:102460006093FF0170930002809301029093020237
:10247000A0930302B0930402809305029093060296
:10248000A0930702B093080280E090E0A0E0B0E4DF
:102490008093150390931603A0931703B09318032A
:1024A0008EEF809305038093060382E880930703F1
:1024B0008FEF809308039E012F5E3F4F6B963FAFD7
:1024C0002EAF6B970E942B03882309F450C3809191
:1024D0000F08809310080E94F40680930F080E9452
:1024E0001E0380E80E940403882339F0809156037C
:1024F000882319F081508093560380E10E940403E1
:10250000882329F0809156038F5F8093560380E2E1
:102510000E94040381111092550380E40E94040379
:10252000882319F081E08093550388E00E9404031A
:102530008823E9F00091560310E080915503882329
:1025400009F40DC10B5F1C4FD8016C9170E090E055
:1025500080E00E948E1940E00E94680900915603B5
:1025600010E00B5F1C4F0E941F1CF801608384E089
:102570000E940403882309F484C280E5E5E0F3E0C7
:10258000DE01119601900D928A95E1F759E0C52E72
:1025900052E0D52E10E000E08090F9019090FA0111
:1025A000A090FB01B090FC01A50194016091FD0198
:1025B0007091FE018091FF01909100020E94391BF1
:1025C0002B013C01B801012E000C880B990B0E94D5
:1025D000901920E030E048E752E40E94A61B9B01DE
:1025E000AC01C301B2010E94EF19A50194010E9440
:1025F0003A1B4B015C0167961FAE1EAE679769964A
:102600001FAE1EAE699763961FAE1EAE639788E03D
:1026100090E00E94861C65969FAF8EAF6597892BD0
:1026200009F0B1C00E94BC073E983F98DCCE7720ED
:1026300029F00430110511F42E9A2F9881E00E94A0
:102640000F03980117FF04C022273327201B310BEB
:1026500027703327C80117FD0796E3E09595879506
:10266000EA95E1F717FF05C00197A501421B530B3F
:102670009A01AC015695542F4427579547954B50D6
:102680005C4FB0E0A0E01501221A330A8F3F6FEFD4
:1026900096070CF443C07A0170E060E0FD01E65853
:1026A000FB4F4F012A01F0E84F0E511C8F3F980756
:1026B00079F0F401E60FF71FE491F0E06F01022ECC
:1026C00001C0CC0C0A94EAF7F701D488CD28C48A5B
:1026D00021153105D9F0F401E60FF71F649062016E
:1026E000C60ED71EE62DF0E0022C02C0F595E79548
:1026F0000A94E2F76D96FFAFEEAF6D97F60164882E
:102700006C96FFAD6C976F2AF601648A6F5F7F4FFE
:10271000FFEFEF1AFF0A6835710541F60196A85AD6
:10272000BF4F40585F4FA03BB10509F0AFCF80E0ED
:102730000E940F038FE090E00E94EF060F5F1F4F93
:102740000931110509F062CE772011F02F9A2D98EA
:1027500080E991E00E94EF060E94ED065FCE000F37
:10276000111F000F111F0B5E1C4FD8016D917D9141
:102770008D919C9143E00E946809F8016083718308
:1027800082839383F4CE22E030E067963FAF2EAF92
:102790006797AE014F5F5F4F7A01D701ED917D01E1
:1027A000E7FDFAC0F0E03496EE0FFF1FEE0FFF1FBB
:1027B00021E030E02C0F3D1FE20FF31F40815181DB
:1027C00062817381CE018F5A9F4F0E94780C6B9665
:1027D0004EAD5FAD6B97E416F506F9F6CE018F5A54
:1027E0009F4F0E94380C4B015C0165968EAD9FADEA
:1027F00065970E94221DD6018D929D92AD92BD9249
:102800006D010F5F1F4F0F33110509F0C5CEC0904A
:10281000F901D090FA01E090FB01F090FC01A701D2
:1028200096016091FD017091FE018091FF019091F0
:1028300000020E94391B2FEE3DEB47E75EE30E944A
:10284000EF19A70196010E943A1B0E94F20B6091BA
:1028500045027091460280914702909148020E9481
:10286000F20B88E00E94040381110BC10E942B032C
:102870008823B9F380910F08809310080E94F40612
:1028800080930F080E941E03E9E0F2E06F96FFAF0D
:10289000EEAF6F9766246394712C23016F96EEACB4
:1028A000FFAC6F97D70114966D917D918D919C919E
:1028B00017970E94181C4B018B016301B1E0CB1AE2
:1028C000D108F701608171818281938134966F967E
:1028D000FFAFEEAF6F970E94181C1B019401261BDF
:1028E000370B6D963FAF2EAF6D9737FF07C0319511
:1028F000219531096D963FAF2EAF6D976D964EAD18
:102900005FAD6D974230510524F483012401160117
:102910006B010215130554F0942D852D2601C92E47
:10292000D82E902F812F8101292E382E5101A01AE7
:10293000B10A46018418950897FE03C091948194CA
:1029400091087501B7FE03C05FEFE51AF50AF5942B
:10295000E79481E04C145D040CF08FEFC82E880FD3
:10296000DD08201631060CF476C06D968EAD9FAD55
:102970006D9741E002970CF46BC0B801C2010E9450
:102980004207E818F908F7FE04C04C0C5D1CEA0C7D
:10299000FB1C0F5F1F4FE5CFE038A9F4CE018F5A23
:1029A0009F4F0E94380C2B013C01CE018F5A9F4F44
:1029B0000E94380C9B01AC01C301B2010E943A1B7A
:1029C000AB01BC01FFCEE13899F4CE018F5A9F4F85
:1029D0000E94380C2B013C01CE018F5A9F4F0E9460
:1029E000380C9B01AC01C301B2010E94391BE8CF36
:1029F000E23899F4CE018F5A9F4F0E94380C2B0178
:102A00003C01CE018F5A9F4F0E94380C9B01AC01B4
:102A1000C301B2010E94EF19D3CFE33899F4CE017C
:102A20008F5A9F4F0E94380C2B013C01CE018F5AC8
:102A30009F4F0E94380C9B01AC01C301B2010E9460
:102A4000A61BBECFEE3F09F0C9CEB501A401BACE98
:102A5000B201C80194CF9FEF691A790AAFE36A16F1
:102A6000710409F01ACF6091890270918A028091F5
:102A70008B0290918C020E94F20B80E00E940F0367
:102A8000F0CE85E1C82E83E0D82E95E0E92E93E0C4
:102A9000F92E10E000E01092030810920208109244
:102AA0000108109200081093050800930408F6012D
:102AB00041915191619171916F0122E085EF97E011
:102AC0000E940C0B20E430E03093030820930208AE
:102AD0003093010820930008109305080093040820
:102AE000D7014D917D0150E070E060E020E185EF7D
:102AF00097E00E941C09095F1F4F0A32110559F621
:102B0000E0E2F0E0F0930308E0930208F09301089C
:102B1000E0930008109205081092040822E040E0BB
:102B200050E0BA0185EF97E00E940C0B80915603AC
:102B3000F7E08F9FC001112420E230E030930308BA
:102B40002093020830930108209300089093050811
:102B500080930408809155036EE3811101C06CE3FA
:102B600085EF97E00E94420480E00E940F0340E05E
:102B700050E0452B09F4A6CC0E940000A3CCEF92B4
:102B80000F931F93CF93DF93E80134E047FD34E1C7
:102B9000042E000C550B57FF03C051954195510968
:102BA000E32E022F242FAE010E94E115CE01DF910A
:102BB000CF911F910F91EF900895662777270C947E
:102BC0004017A9E0B0E0E7EEF5E10C94D71A6A01EE
:102BD000F22EB02E102FFBE3AF2EA01608F41BE34D
:102BE0001F5F012F27E0AE014F5F5F4F0E949018DB
:102BF000BC018981982F9970913009F43FC09BE204
:102C0000E1FC04C09E2D9170E0FC3AC05E2D507135
:102C1000E82FE87083FF46C084E0911101C083E093
:102C2000EF2DE81B8F1508F0E0E0D6018E2F20E293
:102C3000552351F1992329F0D6019C93C6010196A1
:102C40006C0196012D5F3F4FE2FE24C08EE4D60159
:102C50008C9391E411969C93119712968C93D901C1
:102C60008E2F90E281111BC0E20FF32FF11D108215
:102C70008EEF9FEF2996ECE00C94F31A9DE2C6CFFD
:102C800090E2C4CF2D9381508111FCCFCE0ED11C88
:102C9000E0E0D0CF8EE6D6018C9391E6DBCF9D931A
:102CA0008150E0CF482F447082FF3DC084E09111F5
:102CB00001C083E08F1510F4EF2DE81BD6018E2F95
:102CC00020E2552309F1992329F0D6019C93C601EE
:102CD00001966C0196012D5F3F4FE2FE1BC089E417
:102CE000D6018C938EE411968C93119786E41296FC
:102CF0008C93D9018E2F90E2882309F4B5CF9D9350
:102D00008150FACF2D9381508111FCCFCE0ED11C72
:102D1000E0E0D9CF89E6D6018C938EE611968C93AC
:102D2000119786E6E4CF9B0177FF02C030E020E0F8
:102D3000A1E0B0E0911102C0B0E0A0E0F90131964D
:102D4000AE0FBF1F8B2C912CBB2009F461C0540126
:102D5000EFEFAE1ABE0AAA0DBB1DFA161B0619F03C
:102D600014F04F2D4A1B511188C0E3FC59C0760165
:102D7000A42FB0E2A1114FC0C40ED11C992309F4B5
:102D80005BC040E0D6011196F60190836D0155239A
:102D900009F448C0012F060F9A81582F507184FF03
:102DA00003C0913309F4015010160CF047C00930EC
:102DB00008F008E0EEE2FE2E5B01A01AB1088501E2
:102DC0009194819491082F3F320729F4D601FC9207
:102DD000F60131966F016217730794F1021713071A
:102DE0007CF5DB01A21BB30BAA24A394B12CAC0E7F
:102DF000BD1EAA0DBB1D11968C9121503109D60123
:102E0000119628153905F4F0F60180836D01DBCFAA
:102E1000B12CA12CA0CFF701B1937F01A150AACF73
:102E20009111B0CFD601942F50E302C05D93915021
:102E30009111FCCFC40ED11C40E0ACCF01E0BACF61
:102E400080E3DBCF6217730731F4963388F4953350
:102E500011F4552369F0F6018083FD01842F90E27F
:102E6000811108C0A40FB11D1C9290E080E002CF38
:102E700081E3F1CF91938150F3CF911183CF8ACF2A
:102E8000B0E0A0E0E6E4F7E10C94D71A5C017B0126
:102E90006115710519F0DB018D939C9385010F5F1E
:102EA0001F4FF501D0818D2F90E00E9468196C01B1
:102EB000892BB9F5DD32B9F50F5F1F4FD50111969A
:102EC000DC91C1E05801F1E0AF1AB10843E050E0F5
:102ED00064EB70E0C5010E947119892B69F56801E6
:102EE00082E0C80ED11C45E050E06FEA70E0C601F8
:102EF0000E947119892B21F4680197E0C90ED11C39
:102F0000E114F10419F0D701CD92DC9260E070E099
:102F100080E89FEFC111FFC060E070E080E89FE7AC
:102F2000FAC05801BBCFDB3229F485010E5F1F4F79
:102F3000F501D181C0E0C6CF43E050E06CEA70E01B
:102F4000C5010E947119892BE9F0F80110E000E039
:102F500020E030E0A9015F01B0ED8B2E8D0E89E0FD
:102F60008815C8F19C2E689491F88C2F8870C2FF48
:102F700016C0811102C00F5F1F4F3196D501DC9141
:102F8000C92DE9CFE114F10429F00E5F1F4FF701BD
:102F90001183008360E070E080EC9FE7BCC0882371
:102FA00011F001501109A5E0B0E00E94C61A9B0182
:102FB000AC01220F331F441F551F280D311D411D29
:102FC000511D283999E93907490799E15907A8F2AC
:102FD000C6609C2ED2CFAEEF8A1206C0C3FD3CC0A5
:102FE0009C2E689493F8C9CFDF7DD534A9F58081F4
:102FF0008D3239F4C061DF011296818162E070E0A8
:1030000006C0DF018B32C1F3119661E070E080539E
:103010005D01A61AB70A8A30F8F4E0E8CE16ECE0B3
:10302000DE065CF4B601660F771F660F771FC60ECB
:10303000D71ECC0CDD1CC80ED11C5D01FFEFAF1AF2
:10304000BF0A8C9180538A30A8F1C4FF03C0D19489
:10305000C194D1080C0D1D1DC1FF09C0E114F1047C
:1030600031F081E0A81AB108D701AD92BC92CA0133
:10307000B9010E948E19C370C33009F490584B01F6
:103080005C0120E030E0A9010E948919882309F43D
:1030900040C0C3EED0E017FF05C01195019511099E
:1030A000CBECD0E06E01B8E1CB1AD10880E2E82E7B
:1030B000F12C0FC0D501B1CFFE012591359145917D
:1030C00054910E191F09C501B4010E94EF194B015B
:1030D0005C01D501C4010E151F0574F72497F59402
:1030E000E794CC16DD06A9F78A2F880F8B2F881F4F
:1030F0008F3F49F020E030E0A901C501B4010E94F2
:103100008919811106C082E290E09093160880939D
:103110001508C501B401CDB7DEB7ECE00C94F31A85
:10312000283008F027E03327DA01990F311D87FD99
:10313000916000966105710539F432602E5F3D9310
:1031400030E32A95E1F708959F3F30F0803871050C
:10315000610509F03C5F3C5F3D93913008F0806869
:10316000911DDF93CF931F930F93FF92EF92192F2F
:10317000987F9695E92F96959695E90FFF27EF5B37
:10318000FE4F99273327EE24FF24A701E70105907E
:103190000894079428F4360FE71EF81E491F511DA6
:1031A000660F771F881F991F0694A1F70590079453
:1031B00028F4E70EF81E491F561FC11D770F881F00
:1031C000991F661F0694A1F70590079428F4F80E3E
:1031D000491F561FC71FD11D880F991F661F771FD4
:1031E0000694A1F70590079420F4490F561FC71FB6
:1031F000D81F990F661F771F881F0694A9F784911F
:103200001095177041F0D695C79557954795F79447
:10321000E7941A95C1F7E7EEF0E0689415901591E0
:1032200035916591959105907FE27395E118F10ACA
:10323000430B560BC90BD009C0F7E10CF11E431F1D
:10324000561FC91FD01D7EF4703311F48A95E6CF46
:10325000E894015030F0080F0AF40027021708F430
:10326000202F2395022F7A3328F079E37D932A9536
:10327000E9F710C07D932A9589F60694979567958E
:10328000379517951794E118F10A430B560BC90BA4
:10329000D00998F023957E9173957A3308F070E306
:1032A0007C932013B8F77E9170617D9330F0839505
:1032B00071E37D9370E32A95E1F71124EF90FF907D
:1032C0000F911F91CF91DF91992787FD90950895D8
:1032D00091110C945C1A803219F089508550C8F70E
:1032E0000895FB01DC014150504088F08D918134FC
:1032F0001CF08B350CF4805E659161341CF06B35ED
:103300000CF4605E861B611171F3990B0895881BA4
:10331000FCCF0E94CB1908F481E00895E89409C01D
:1033200097FB3EF490958095709561957F4F8F4FF8
:103330009F4F9923A9F0F92F96E9BB279395F6950E
:10334000879577956795B795F111F8CFFAF4BB0F8C
:1033500011F460FF1BC06F5F7F4F8F4F9F4F16C0F0
:10336000882311F096E911C0772321F09EE8872F7A
:10337000762F05C0662371F096E8862F70E060E036
:103380002AF09A95660F771F881FDAF7880F9695AF
:10339000879597F90895990F0008550FAA0BE0E853
:1033A000FEEF16161706E807F907C0F01216130607
:1033B000E407F50798F0621B730B840B950B39F447
:1033C0000A2661F0232B242B252B21F408950A26AD
:1033D00009F4A140A6958FEF811D811D08950E94DB
:1033E000021A0C94761A0E94681A38F00E946F1A1A
:1033F00020F0952311F00C945F1A0C94651A112497
:103400000C94AA1A0E94871A70F3959FC1F3950F26
:1034100050E0551F629FF001729FBB27F00DB11D58
:10342000639FAA27F00DB11DAA1F649F6627B00DE8
:10343000A11D661F829F2227B00DA11D621F739FD1
:10344000B00DA11D621F839FA00D611D221F749FDF
:103450003327A00D611D231F849F600D211D822F26
:10346000762F6A2F11249F5750409AF0F1F088234D
:103470004AF0EE0FFF1FBB1F661F771F881F91507A
:103480005040A9F79E3F510580F00C945F1A0C94B0
:10349000AA1A5F3FE4F3983ED4F386957795679533
:1034A000B795F795E7959F5FC1F7FE2B880F911DA4
:1034B0009695879597F9089599278827089597F9FC
:1034C0009F6780E870E060E008959FEF80EC0895CA
:1034D00000240A94161617061806090608950024F3
:1034E0000A9412161306140605060895092E03946D
:1034F000000C11F4882352F0BB0F40F4BF2B11F4E1
:1035000060FF04C06F5F7F4F8F4F9F4F089557FD3F
:103510009058440F551F59F05F3F71F04795880F41
:1035200097FB991F61F09F3F79F0879508951216D8
:1035300013061406551FF2CF4695F1DF08C0161684
:1035400017061806991FF1CF869571056105089435
:103550000895E894BB2766277727CB0197F908954C
:10356000F999FECF92BD81BDF89A992780B508954B
:10357000262FF999FECF1FBA92BD81BD20BD0FB68F
:10358000F894FA9AF99A0FBE019608950E942A1BA0
:10359000A59F900DB49F900DA49F800D911D1124A7
:1035A00008952F923F924F925F926F927F928F92E7
:1035B0009F92AF92BF92CF92DF92EF92FF920F93C2
:1035C0001F93CF93DF93CDB7DEB7CA1BDB0B0FB6CC
:1035D000F894DEBF0FBECDBF09942A883988488889
:1035E0005F846E847D848C849B84AA84B984C8841F
:1035F000DF80EE80FD800C811B81AA81B981CE0F16
:10360000D11D0FB6F894DEBF0FBECDBFED010895FA
:10361000A1E21A2EAA1BBB1BFD010DC0AA1FBB1FD6
:10362000EE1FFF1FA217B307E407F50720F0A21B48
:10363000B30BE40BF50B661F771F881F991F1A94B5
:1036400069F760957095809590959B01AC01BD01DF
:10365000CF010895A29FB001B39FC001A39F700D39
:10366000811D1124911DB29F700D811D1124911D8A
:1036700008955058BB27AA270E94511B0C94761A14
:103680000E94681A38F00E946F1A20F039F49F3FA8
:1036900019F426F40C94651A0EF4E095E7FB0C94EB
:1036A0005F1AE92F0E94871A58F3BA176207730747
:1036B0008407950720F079F4A6F50C94A91A0EF466
:1036C000E0950B2EBA2FA02D0B01B90190010C0132
:1036D000CA01A0011124FF27591B99F0593F50F44A
:1036E000503E68F11A16F040A22F232F342F4427A2
:1036F000585FF3CF469537952795A795F04053959A
:10370000C9F77EF41F16BA0B620B730B840BBAF069
:103710009150A1F0FF0FBB1F661F771F881FC2F7D4
:103720000EC0BA0F621F731F841F48F487957795E8
:103730006795B795F7959E3F08F0B0CF9395880FA2
:1037400008F09927EE0F9795879508950E94BA1B68
:103750000C94761A0E946F1A58F00E94681A40F072
:1037600029F45F3F29F00C945F1A51110C94AA1AA6
:103770000C94651A0E94871A68F39923B1F35523B4
:1037800091F3951B550BBB27AA2762177307840774
:1037900038F09F5F5F4F220F331F441FAA1FA9F30A
:1037A00035D00E2E3AF0E0E832D091505040E695F8
:1037B000001CCAF72BD0FE2F29D0660F771F881F59
:1037C000BB1F261737074807AB07B0E809F0BB0B4C
:1037D000802DBF01FF2793585F4F3AF09E3F510560
:1037E00078F00C945F1A0C94AA1A5F3FE4F3983EA9
:1037F000D4F3869577956795B795F7959F5FC9F749
:10380000880F911D9695879597F90895E1E0660FC9
:10381000771F881FBB1F621773078407BA0720F042
:10382000621B730B840BBA0BEE1F88F7E0950895AB
:103830000E941F1C6894B1110C94AA1A08950E944A
:103840008F1A88F09F5798F0B92F9927B751B0F089
:10385000E1F0660F771F881F991F1AF0BA95C9F714
:1038600014C0B13091F00E94A91AB1E008950C94EF
:10387000A91A672F782F8827B85F39F0B93FCCF3A2
:10388000869577956795B395D9F73EF49095809591
:10389000709561957F4F8F4F9F4F08950E94CB1970
:1038A00008F48FEF08950E94CB19880B990B0895A7
:1038B00097FB072E16F4009407D077FD09D00E94DD
:1038C000721C07FC05D03EF4909581959F4F08959A
:1038D000709561957F4F0895EE0FFF1F0590F4914D
:1038E000E02D0994AA1BBB1B51E107C0AA1FBB1FF7
:1038F000A617B70710F0A61BB70B881F991F5A957C
:10390000A9F780959095BC01CD0108950F931F9361
:10391000CF93DF938230910510F482E090E0E09144
:103920001908F0911A0830E020E0B0E0A0E03097EC
:1039300099F42115310509F44AC0281B390B2430AC
:103940003105D8F58A819B816115710589F1FB01EB
:1039500093838283FE0111C04081518102811381D2
:1039600048175907E0F04817590799F4109761F084
:1039700012960C93129713961C933296CF01DF91F7
:10398000CF911F910F9108950093190810931A0871
:10399000F4CF2115310551F04217530738F0A90132
:1039A000DB019A01BD01DF01F801C1CFEF01F9CFC1
:1039B00090931A0880931908CDCFFE01E20FF31FF0
:1039C000819391932250310939832883D7CF209155
:1039D000170830911808232B41F420910E013091E3
:1039E0000F01309318082093170820910C01309193
:1039F0000D012115310541F42DB73EB7409110015D
:103A000050911101241B350BE0911708F091180813
:103A1000E217F307A0F42E1B3F0B2817390778F0A5
:103A2000AC014E5F5F4F2417350748F04E0F5F1F04
:103A30005093180840931708819391939FCFF0E01B
:103A4000E0E09CCFCF93DF930097E9F0FC01329741
:103A500013821282A0911908B0911A08ED0130E08A
:103A600020E01097A1F420813181820F931F2091D3
:103A70001708309118082817390709F061C0F0932A
:103A80001808E0931708DF91CF910895EA01CE1747
:103A9000DF07E8F54A815B819E0141155105B1F7C9
:103AA000E901FB83EA8349915991C40FD51FEC17B3
:103AB000FD0761F4808191810296840F951FE901D1
:103AC00099838883828193819B838A83F0E0E0E0FD
:103AD00012968D919C9113970097B9F52D913C9179
:103AE0001197CD010296820F931F209117083091F4
:103AF00018082817390739F6309751F510921A0827
:103B000010921908B0931808A0931708BCCFD3835C
:103B1000C28340815181840F951FC817D90761F472
:103B20004E5F5F4F88819981480F591F51834083B1
:103B30008A819B81938382832115310509F0B0CF5F
:103B4000F0931A08E09319089ECFFD01DC01C0CF65
:103B500013821282D7CFB0E0A0E0E1EBFDE10C943C
:103B6000D31A8C01009751F4CB010E94861C8C0162
:103B7000C801CDB7DEB7E0E10C94EF1AFC01E60F07
:103B8000F71F9C0122503109E217F30708F49DC08A
:103B9000D901CD91DC911197C617D70798F0C530A0
:103BA000D10530F3CE0104978617970708F3C61B9B
:103BB000D70B2297C193D1936D937C93CF010E9431
:103BC000221DD6CF5B01AC1ABD0A4C018C0E9D1E86
:103BD000A0911908B0911A08512C412CF12CE12C1C
:103BE000109731F58091170890911808881599055C
:103BF00009F05CC04616570608F058C080910C01C9
:103C000090910D01009741F48DB79EB7409110013E
:103C100050911101841B950BE817F90708F055C066
:103C2000F0931808E0931708F90171836083A0CF1F
:103C30008D919C91119712966C90129713967C908F
:103C40001397A815B90559F56C0142E0C40ED11CB3
:103C5000CA14DB0420F1AC014A195B09DA0112969F
:103C6000159780F06282738251834083D9016D93EE
:103C70007C93E114F10471F0D7011396FC93EE9359
:103C8000129776CF22968C0F9D1FF9019183808326
:103C9000F301EFCFF0931A08E093190869CF4816A3
:103CA000590608F42C017D01D3019ACFCB010E9463
:103CB000861C7C01009749F0AE01B8010E94681E85
:103CC000C8010E94221D870153CF10E000E050CFB1
:103CD000FB01DC0102C001900D9241505040D8F729
:063CE0000895F894FFCFE7
:103CE600FFFFFFFF00E100000000000000001B08CE
:103CF600800000C180810000000000000076044FB3
:103D06000597048C04DD049B04B9040000000042FE
:103D16000649040A09090900000000580849040A6E
:103D260009090900000000AF036E616E00696E6646
:103D3600006F7666000D0A00535441434B3A2065E6
:103D460072726F722064756520746F20756E64657B
:103D560073697261626C652073697A6520666F7239
:103D660020737461636B2073697A652E0053544126
:103D7600434B3A20696E73756666696369656E744E
:103D8600206D656D6F727920746F20726573697A24
:103D96006520737461636B2E00535441434B3A2084
:103DA60063616E277420706F70206974656D20667C
:103DB600726F6D20737461636B3A20737461636B09
:0C3DC60020697320656D7074792E000078
:00000001FF
