:100000000C9437030C945F030C945F030C945F0310
:100010000C945F030C945F030C945F030C945F03D8
:100020000C945F030C945F030C94E60E0C94550F34
:100030000C945F030C945F030C945F030C945F03B8
:100040000C945F030C945F030C945F030C945F03A8
:100050000C945F030C945F030C945F030C94871162
:100060000C945F030C945F030C945F030C945F0388
:100070000C945F030C945F030C945F030C945F0378
:100080000C945F030C945F030C945F030C945F0368
:100090000C945F030C945F030C945F030C945F0358
:1000A0000C945F030C945F030C945F030763423668
:1000B000B79BD8A71A39685618AEBAAB558C1D3CF9
:1000C000B7CC5763BD6DEDFD753EF6177231BF00BD
:1000D0000000803F08000000BE922449123EABAAF7
:1000E000AA2ABECDCCCC4C3E00000080BEABAAAA52
:1000F000AA3E00000000BF000000803F000000009A
:1001000000084178D3BB4387D1133D190E3CC3BDD2
:100110004282AD2B3E68EC8276BED98FE1A93E4C7F
:1001200080EFFFBE01C4FF7F3F00000000004E4192
:100130004E494E495459494E46CDCCCC3D0AD72361
:100140003C17B7D13877CC2B329595E6241FB14FA9
:100150000A000020410000C84200401C4620BCBEEE
:100160004CCA1B0E5AAEC59D7400407A10F35A005B
:10017000A0724E18090010A5D4E80000E8764817D0
:100180000000E40B54020000CA9A3B000000E1F5B5
:1001900005000080969800000040420F000000A07B
:1001A0008601000000102700000000E803000000A6
:1001B000006400000000000A0000000000010000D0
:1001C0000000002C76D888DC674F0823DFC1DFAE43
:1001D00059E1B1B796E5E3E453C63AE6519976960C
:1001E000E8E6C28426EB898C9B62ED407C6FFCEFD5
:1001F000BC9C9F40F2BAA56FA5F490055A2AF75C03
:10020000936B6CF9676DC11BFCE0E40D47FEF520B4
:10021000E6B500D0ED902E0300943577050080847C
:100220001E080000204E0A000000C80C3333333390
:100230000F986E12831141EF8D2114893BE65516FC
:10024000CFFEE6DB18D1844B381BF77C1D901DA434
:10025000BBE424203284725E228100C9F124ECA127
:10026000E53D2712FFFDFE181307080917190405BD
:100270000616FC01020315FC00101114FFFDFE0719
:1002800008090405060102030010112F0300033FB3
:100290000A3F163F1A0904121A251A28031E2121A3
:1002A0001E0A040A040E0460040404200804021E4A
:1002B000211E223F2039252221251A07043F172518
:1002C000191E25190139071A251A12251E1434047E
:1002D0000A111414110A04012D061E212D2E3E05AB
:1002E0003E3F251A1E21213F211E3F253F051E218D
:1002F0003D3F043F213F21211F3F043B3F203F0260
:1003000004023F3F02043F1E211E3F05021E312E04
:100310003F053A2619013F013F203F1F301F1F2094
:100320001C201F3B043B033C0339273F21020408E8
:10033000213F0201022020200102142C383F241802
:10034000182418243F1834283E0548543C3F0438EC
:100350003D403D3F043A3F3C043C04383C043818DF
:1003600024187C241818247C3C0428141F241C20E6
:100370003C1C201C1C2038203C3408344C503C349D
:100380002C043B213B213B04020604000104070A24
:100390000D11121416191C1D202124272A2D30336B
:1003A00036393C3F42434447494C4F5356595C5FB2
:1003B000616366696C6E7173787C7F8285888A8DD3
:1003C0009093989B9EA0A2A5A7AAADAFB2B5B7BACD
:1003D000BDBFC2C5C6C8CBCCD1D4D7DADDDFE1E31F
:1003E000E6E9EEF1F4F6F9FAFD0063616E27742098
:1003F000706F702C20737461636B20656D707479FD
:100400000063616E277420706F702C2073746163B9
:100410006B20656D707479006E6F206D656D006383
:10042000616E277420726573697A652074686174DF
:1004300020736D616C6C006E6F206D656D00636183
:100440006E277420726573697A6520746861742000
:10045000736D616C6C0000B00000A170E150964FAC
:1004600026900F1D070C009669004AE44A00484494
:100470004000806810000F99FB8F9DBDBBFB77D4B7
:10048000D4DF1F1A1AFE7F5D5DFF805A0000A0A412
:10049000AA0010BA3400FF5953F3FF9B9B9EFFB98B
:1004A000B996FF9595D19FF4940FFC295F91FF18A1
:1004B00038F8FF9294FFFF95D5F7BFB5DDD7F18FE0
:1004C00081F1F788C8F779C6467909FD9B0901963D
:1004D000F8008281828050716200775656007676ED
:1004E0003700A2B7730107720600782750007334F3
:1004F0007400775176007F55F7004771100032473E
:1005000072007364730015A2750061679400009F08
:100510006060F4F2F6F2080B000202020100090426
:100520000000010202000005240010010524010161
:1005300001042402060524060001070581031000BA
:100540004009040100020A00000007050202400001
:1005500000070583024000000403090412010002A1
:10056000EF02014041233680000101020301417284
:100570006475696E6F204C4C430041726475626F04
:100580007900F0F89C8E8783878E9CF8F00000FE3F
:10059000FF0303030303070EFCF80000FEFF030341
:1005A000030303070EFCF80000FFFF00000000003B
:1005B0000000FFFF0000FEFF8383838383C7EE7C80
:1005C000380000F8FC0E07030303070EFCF80000D8
:1005D0003F7FE0C08080C0E07F3FFFFF010101015D
:1005E000010101FFFF0000FFFF0C0C0C0C1C3E770B
:1005F000E3C100007FFFC0C0C0C0C0E0703F1F006B
:10060000001F3F70E0C0C0C0E0703F1F00007FFFD0
:10061000C1C1C1C1C1E3773E1C00001F3F70E0C0F3
:10062000C0C0E0703F1F000000000001FFFF01009C
:100630000000D5F08D14A1C881CFD9F1AF200053AF
:1006400065652052504E206465627567005365658C
:10065000206772617068005365742066756E6374FC
:10066000696F6E0003057C02050563020A121124FE
:100670001FBECFEFDAE0DEBFCDBF11E0A0E0B1E0FA
:10068000E4E8F9E402C005900D92A83AB107D9F761
:1006900027E0A8EAB1E001C01D92A93CB207E1F74A
:1006A00013E0C7E3D3E004C02197FE010E94B42207
:1006B000C633D107C9F70E9473120C94C0240C945E
:1006C0000000813109F45EC038F5853009F44EC070
:1006D00088F4823009F471C030F4882309F46AC0C8
:1006E0008130F1F108958330F1F18430D9F782E758
:1006F00091E00895883009F43FC038F48630C9F19C
:10070000873081F788E791E008958930C1F1803121
:1007100049F78EE791E008958731E9F188F4843153
:10072000B9F138F4823189F18331E1F682E891E060
:100730000895853139F18631A9F689E891E0089567
:100740008C3F79F138F4883149F1893159F68FE8D5
:1007500091E008958E3F59F138F186E891E00895CF
:100760008CE691E0089580E791E0089584E791E0B8
:10077000089586E791E008958AE791E008958CE76F
:1007800091E0089584E991E0089580E891E008956A
:1007900084E891E008958BE891E008958DE891E078
:1007A000089581E991E0089583E991E0089586E94B
:1007B00091E008958AE691E008958EE691E008952B
:1007C0009091BE07982329F49091BD07982381E06A
:1007D00009F480E00895CF9380E20E94E00388232B
:1007E00039F080916B03882319F0815080936B035B
:1007F00080E40E94E003882381F020916B038091C4
:10080000670390916803899FC001112401972817FD
:1008100019061CF42F5F20936B0380E80E94E0030D
:10082000882349F080916B0390916703891718F032
:10083000891B80936B0380E10E94E003882399F079
:1008400080916B0390916703209168032150330BD3
:10085000929FA001939F500D1124841715061CF43C
:10086000890F80936B0388E00E94E003882339F1AD
:10087000E0916B038091690390916A03E80FF92F6F
:10088000F11D8491C0918C038E3FC1F180F48D3FA6
:1008900041F10E94610321E02C0F20938C03FC01A5
:1008A0008081EC2FF0E0EB59FC4F878308C081E09A
:1008B00080938D03EC2FF0E0EB59FC4F178284E01E
:1008C0000E94E003882359F0E0918C03EE2339F075
:1008D000E150E0938C03F0E0EB59FC4F1782CF918D
:1008E0000895CC2361F3EFEFEC0FE0938C03E3CF9B
:1008F000C150EC2FF0E0EB59FC4F1782C111F8CF3B
:1009000010928C03DCCFE3EAF3E0A0E0B8E00080D3
:100910000EBC8111012C1197A0FDFDCF0192B9F7FA
:100920000DB4089580E00C94830480E0E3EAF3E0E2
:1009300081118FEF0024819381938193819303949C
:10094000D1F708958FB7F894409111035091120395
:1009500060911303709114038FBF8091C007942F8F
:10096000981B8091C107882331F09093C2071092A1
:10097000C10780E008952091BF07921740F49F5F60
:100980009217A0F491E093BF889513BE089581E07B
:100990008093C1074093C0078091BB079091BC072B
:1009A00001969093BC078093BB0781E00895FC01FA
:1009B0008091C401882311F13FB7F89482E08093BD
:1009C000E9002091F200822F90E01816190614F425
:1009D00081E090E0882339F0289844E64093C301F1
:1009E0004091F1004083222339F02091F20021113F
:1009F00003C02BE62093E8003FBF08958FEF9FEFE1
:100A000008952FB7F89483E08093E9009091E8006F
:100A1000892F807295FF04C09091F20080E4891BB9
:100A20002FBF08958091BB0181110DC082E080939A
:100A3000B70184E08093B8011092BA011092B90115
:100A400081E08093BB0187EB91E008950895409188
:100A5000AF015091B0012091AD013091AE0142172C
:100A60005307B4F49091E8009570E1F39091E80099
:100A700092FD19C08093F1008091AF019091B00177
:100A800001968F739927892B19F48EEF8093E800D4
:100A90008091AF019091B00101969093B001809345
:100AA000AF0181E0089580E00895DF92EF92FF9218
:100AB0000F931F93CF93DF93D82E8A01EB017B0115
:100AC000E40EF51ECE15DF0559F0D7FE12C0FE016B
:100AD00084910E94270521968111F4CF0FEF1FEF1B
:100AE000C801DF91CF911F910F91FF90EF90DF90A0
:100AF00008958881EECF0F931F93CF93DF931F92BA
:100B0000CDB7DEB782E0898342E450E066E175E06C
:100B100080E80E9455050E941205DC0112960D9195
:100B20001C910115110589F0D801ED91FC9102800D
:100B3000F381E02DBE016F5F7F4FC801099597FDDE
:100B400004C0F80100851185ECCF89810F90DF91F9
:100B5000CF911F910F910895615030F02091F100D5
:100B6000FC0120830196F8CF289884E68093C30186
:100B70000895AF92BF92CF92DF92EF92FF920F93C0
:100B80001F93CF93DF936C017B018B01040F151F23
:100B9000EB015E01AE18BF08C017D10759F069918B
:100BA000D601ED91FC910190F081E02DC6010995EF
:100BB000892B79F7C501DF91CF911F910F91FF909C
:100BC000EF90DF90CF90BF90AF900895CF93DF93D9
:100BD0001F92CDB7DEB76983DC01ED91FC910280F5
:100BE000F381E02D41E050E0BE016F5F7F4F09953A
:100BF0000F90DF91CF91089583E08093E900809179
:100C0000F200882319F08AE38093E80008950E9497
:100C1000010590E00895CF93DF931F92CDB7DEB723
:100C2000FC018485958597FD08C02FEF3FEF358740
:100C300024870F90DF91CF910895CE0101960E94F5
:100C4000D704019719F4898190E0F3CF8FEF9FEFDC
:100C5000F0CF0F931F93CF93DF931F92CDB7DEB7E3
:100C60008C01FC018485958597FF0BC0CE01019610
:100C70000E94D704019771F4898190E0F80195876B
:100C80008487F801848595850F90DF91CF911F911E
:100C90000F9108958FEF9FEFF1CFFC01848595852B
:100CA00097FD0BC09FB7F89482E08093E900809194
:100CB000F2009FBF90E0019608959FB7F89482E0FC
:100CC0008093E9008091F2009FBF90E008953FB7C4
:100CD000F8948091A9019091AA01A091AB01B091E3
:100CE000AC0126B5A89B05C02F3F19F00196A11DA8
:100CF000B11D3FBFBA2FA92F982F8827BC01CD0166
:100D0000620F711D811D911D42E0660F771F881FC4
:100D1000991F4A95D1F708958F929F92AF92BF92F3
:100D2000CF92DF92EF92FF926B017C010E946706E7
:100D30004B015C01C114D104E104F104B9F00E943B
:100D40006706681979098A099B09683E734081051D
:100D5000910580F321E0C21AD108E108F10888EE7C
:100D6000880E83E0981EA11CB11CE4CFFF90EF9089
:100D7000DF90CF90BF90AF909F908F9008958F920B
:100D80009F92AF92BF92CF92DF92EF92FF920F931A
:100D90001F93CF93DF936C017B018A0180910B013C
:100DA000882309F45CC08091C401882309F457C0EA
:100DB0008091B30180FF05C08091E0008260809344
:100DC000E000E801B12C8AEFA82E93E0892E2AE3F7
:100DD000922E209711F4BB20D9F10E9401058111B8
:100DE0000AC0AA94AA20D9F161E070E080E090E006
:100DF0000E948C06EECF8C171D0611F00CF08C2F84
:100E00009FB7F8948092E9002091E80025FD02C088
:100E10009FBFDFCF282F30E0C21BD30BF7018150DB
:100E200020F041914093F100FACFE20EF31EBB2077
:100E300021F09092E800B12CEBCF8091E80085FD85
:100E4000E7CF9092E800BB24B394209709F3F3CF47
:100E50005D9884E68093B201101611063CF081E0A3
:100E600090E0F6019383828310E000E0C801DF91F7
:100E7000CF911F910F91FF90EF90DF90CF90BF9097
:100E8000AF909F908F9008956F927F928F929F92D4
:100E9000AF92BF92CF92DF92EF92FF920F931F9388
:100EA000CF93DF934C017B01C22F102F98E0A92E26
:100EB000B12C642E669466946694712CCA01877076
:100EC0009927892B79F5D40117962D913C91C7016B
:100ED0009927B9010E94A022269DF001279DF00DBF
:100EE000369DF00D11248E0F9F1FD4011596ED91A4
:100EF000FC91E80FF91F2081111112C0C095C22387
:100F0000C083DF91CF911F910F91FF90EF90DF9001
:100F1000CF90BF90AF909F908F907F906F900895EB
:100F2000C22BEECFD0E04770C42ED12C83E0660CEC
:100F3000771C8A95E1F79E0101C0220F4A95EAF7D6
:100F4000012FA301B701C4010E944407A301485F18
:100F50005F4FC5018C199D0902C0D595C7958A952B
:100F6000E2F7A7CF5F926F927F928F929F92AF929C
:100F7000BF92CF92DF92EF92FF920F931F93CF9386
:100F8000DF93EC016A30F1F48D859E859C878B8719
:100F90008C892F853889820F932F911D988B8F878D
:100FA00081E090E0DF91CF911F910F91FF90EF9042
:100FB000DF90CF90BF90AF909F908F907F906F9079
:100FC0005F900895AB84BC84693031F429E0A20EAF
:100FD000B11CBC86AB86E4CF3DEFA3163FEFB30652
:100FE0000CF45DC08F819885A816B9060CF057C027
:100FF000CF84D8888DEFC8168FEFD8060CF44FC079
:1010000089859A85C816D9060CF049C0603208F463
:101010006FE780EE860F9FE9960F9A3118F49FEFE5
:10102000C91AD90A8C3011F08B3119F42FEFC21A7A
:10103000D20A869534E0839FC00111249C012A5A6C
:101040003B4F7901912C812C162F1170F701E80D7F
:10105000F91D549011112DC0352D3F70532E3501BF
:10106000680C791C8C81882361F001E089899A8958
:10107000892B09F000E02FE0A601B301CE010E9408
:1010800044070989252DA601B301CE010E9444071A
:101090008FEF881A980A94E089169104B9F68B8923
:1010A00090E004962B853C85820F931F9C878B874D
:1010B00077CF52948FE05822D2CF2D9A0895BC0159
:1010C00090E080E00C948C068FB18095807F669BC9
:1010D00088601C9B84600895480F592F511D141679
:1010E0001506D4F580389105BCF597FF02C090E055
:1010F00080E04138510514F040E850E0481BFB0106
:1011000077FD379633E0F595E7953A95E1F7F69553
:10111000FE2FEE27F795E795E80FF91FED55FC4FE9
:101120006770772781E090E001C0880F6A95EAF741
:10113000382F213041F4415078F08191DF0111972F
:10114000832B8C93F8CF8095415030F09191DF0143
:10115000119798239C93F8CF089580389105B8F49F
:1011600060347105A0F420E191E061FD94E060FD40
:10117000990F62FD9295687F269FD0011124A80FD8
:10118000AD55BC4F8C9140FF03C0892B8C930895C3
:1011900090958923FBCFDF92EF92FF920F931F93DD
:1011A000CF93DF937C01D22E8B01040F111DEB0135
:1011B00077FF02C0D0E0C0E0C8010134110514F08F
:1011C00080E490E0C817D9073CF44D2DBE01C7015B
:1011D0000E94AD082196F0CFDF91CF911F910F9122
:1011E000FF90EF90DF900895CF92DF92EF92FF9201
:1011F0000F93CF93DF936C017B01C42FD22F603408
:10120000710520F4202FC6010E946C08B7016D0FF4
:10121000711D61507109603471052CF4202F4C2F21
:10122000C6010E946C08202F4D2FB701C6010E94F5
:10123000CB08C6018C0F911D202F4D2FB7010197B0
:10124000DF91CF910F91FF90EF90DF90CF900C94B2
:10125000CB08CF92DF92EF92FF926B017C0120E0EE
:1012600030E04EEF52E40E9413216FE71816F4F0BD
:1012700020E030E040E053ECC701B6010E94B51B0E
:1012800060E887FD13C020E030E0A901C701B60186
:101290000E94132120E030E040E05FE387FD0CC0B6
:1012A000C701B6010E949D1F0E947B20862FFF90E0
:1012B000EF90DF90CF900895C701B6010E949C1F68
:1012C000F3CF8F929F92AF92BF92CF92DF92EF9225
:1012D000FF92CF93DF93C5E0D2E0C884D984EA843B
:1012E000FB84A70196010E949C1F4B015C01A70192
:1012F00096016C857D858E859F850E949C1F9B0134
:10130000AC01C501B4010E9409209B01AC0160E061
:1013100070E080E89FE30E949C1F20E030E04CE7F3
:1013200052E40E941B1CDF91CF91FF90EF90DF9061
:10133000CF90BF90AF909F908F900C9429096F929F
:101340007F928F929F92AF92BF92CF92DF92EF9255
:10135000FF920F931F93CF93DF934C017B01C22F1A
:10136000102F98E0A92EB12C642E66946694669492
:10137000712CCA0187709927892B79F5D4011796AA
:101380002D913C91C7019927B9010E94A022269D69
:10139000F001279DF00D369DF00D11248E0F9F1F3B
:1013A000D4011596ED91FC91E80FF91F20811111E0
:1013B00012C0C095C223C083DF91CF911F910F91BE
:1013C000FF90EF90DF90CF90BF90AF909F908F9065
:1013D0007F906F900895C22BEECFD0E04770C42E5F
:1013E000D12C83E0660C771C8A95E1F79E0101C041
:1013F000220F4A95EAF7012FA301B701C4010E9409
:101400009F09A301485F5F4FC5018C199D0902C068
:10141000D595C7958A95E2F7A7CF4F925F926F92C5
:101420007F928F929F92AF92BF92CF92DF92EF9274
:10143000FF920F931F93CF93DF93EC016D3071F008
:101440006A30F9F48D859E859C878B878C892F85E2
:101450003889820F932F911D988B8F8781E090E0C0
:10146000DF91CF911F910F91FF90EF90DF90CF9080
:10147000BF90AF909F908F907F906F905F904F90B4
:101480000895EB84FC84693031F448E0E40EF11CEB
:10149000FC86EB86E3CF603231F48B8990E00296D4
:1014A000E80EF91EF5CF162F8F819885E816F906FC
:1014B0000CF04DC08F8498885BEF85165FEF950622
:1014C0000CF445C089859A85881699060CF03FC0B2
:1014D00080EE860F8F3508F038C0862F90E09C0193
:1014E00026593C4FF901A490B12CA50145575D4FF9
:1014F0005A01FC01E559FC4F5490F9012491521A0C
:10150000D12CC12CC51418F5F501EC0DFD1D44902E
:1015100037016C0C7D1C8C81882361F001E0898986
:101520009A89892B09F000E02FEFA401B301CE01C5
:101530000E949F090989242DA401B301CE010E94B4
:101540009F09FFEFCF1ADF0ADDCF8FE3C7CF612FEF
:1015500070E0FB01E559FC4F849166597C4FFB011B
:101560006491E82FE61B8B89E80FFF27FF1F8B850F
:101570009C85E80FF91FFC87EB8770CF682F83EA03
:1015800097E00C940D0A089590E080E00895FB0127
:1015900001900020E9F73197AF01461B570BDC01A2
:1015A000ED91FC910280F381E02D09948F929F923E
:1015B000AF92BF920F931F93CF93DF93CDB7DEB758
:1015C000A1970FB6F894DEBF0FBECDBF19A242306F
:1015D00008F44AE08E010F5D1F4F842E912CB12C30
:1015E000A12CA50194010E946B1FE62FB901CA012D
:1015F000EA3004F5E05DD801EE938D01232B242B16
:10160000252B79F790E080E0109729F0BD0183EA5F
:1016100097E00E94C70AA1960FB6F894DEBF0FBEEE
:10162000CDBFDF91CF911F910F91BF90AF909F9051
:101630008F900895E95CDFCFFF920F931F93CF93B4
:10164000DF93C0E0DAE0409168036091660370E0E8
:101650008091650390E0209167032C1768F04D9FFF
:10166000402D11244F5F21E0CD9F800D911D11244D
:101670000E94CB08CF5FE7CFC0E0DAE0409167037C
:101680006091660370E0809168038C1798F0CD9F9D
:10169000600D711D11246034710554F44D9F402D6F
:1016A00011244F5F8091650321E090E00E946C0857
:1016B000CF5FE4CF10E08AE0F82E8091680318171E
:1016C00008F03DC01F9DE001112400E04091670338
:1016D00080916603282F30E08091650390E0041725
:1016E00060F50F9D800D911D112402969093B10716
:1016F0008093B0079093AF078093AE07CE01820F1F
:10170000931F02969093B3078093B207E02F149F24
:10171000E00D11248091690390916A03E80FF92F7D
:10172000F11D84910E946103009729F0BC0183EAB6
:1017300097E00E94C70A0F5FC9CF1F5FBECF80919D
:101740006B03609167030E94942260916603CAE074
:101750008C9F90011124620F732F711D809165037E
:101760009C9FF001112400E02BE04BE08E0F9F2F97
:10177000911D0E94F40880916B03609167030E94A1
:101780009422609166038C9F90011124620F732F45
:10179000711D61507109809165039C9FE0011124C6
:1017A0008C0F9D2F911D01E02DE04DE001970E94CF
:1017B000F408209166032850330B8091650390E074
:1017C00002969093B1078093B0079093AF078093F0
:1017D000AE073093B3072093B2076CE673E083EA59
:1017E00097E0DF91CF911F910F91FF900C94C70A62
:1017F000CF92DF92EF92FF920F931F93CF936B01E3
:101800007C01C42F10926B0344E050E064E676E064
:1018100087E693E00E94941B10928D0380918C03C5
:10182000882339F08150E82FF0E0EB59FC4F178204
:10183000F7CF10928C030CE613E02C2F40E0C70189
:10184000B6010E94191A80918C038F5F21E0280F46
:10185000E82FF0E0EB59FC4F978191111BC080936A
:101860008C0380918D03811117C00E94A2048823EC
:10187000C1F38091BD078093BE070E9464088093E6
:10188000BD070E9495040E94EB030E941C0B0E945E
:101890009204E7CF822FDACF8CE693E0CF911F91AD
:1018A0000F91FF90EF90DF90CF900C94871BEF92F9
:1018B000FF920F931F93CF93DF938C017B01D0E0B6
:1018C000C0E0F701EC0FFD1F6491662361F0D801C1
:1018D000ED91FC910190F081E02DC8010995892BD3
:1018E00011F02196EECF69E971E0C8010E94C70AA4
:1018F0008C0F9D1FDF91CF911F910F91FF90EF9063
:1019000008951F93CF93DF93EC01162F8EE394E09D
:10191000662359F070E0888199810E94F3239983AE
:101920008883892B21F487E394E00E9404121A83B0
:10193000DF91CF911F910895CF93FC019381911175
:1019400004C081E094E00E940412A081B181915012
:101950009383A90FB11DCC91992351F06281862FF9
:1019600086958695891720F06695CF010E94810C97
:101970008C2FCF9108951F93CF93DF93EC01162FF7
:101980006A818B81681304C0660FCE010E94810CAE
:1019900088819981EB8121E02E0F2B83E80FF92FAD
:1019A000F11D1083DF91CF911F9108956F927F9267
:1019B0008F929F92AF92BF92CF92DF92EF92FF925F
:1019C0000F931F93CF93DF9300D000D000D0CDB7FB
:1019D000DEB7812C8394E82DF0E0E35FFE4F808139
:1019E0008111F8CF1C8282E090E00E94CE229A837F
:1019F000898382E08B83912CC12C10E02FEF981407
:101A000008F035C1A92CB12CD501A35FBE4F9C9124
:101A10009A3209F48AC00CF06FC0953209F47FC085
:101A200044F50FEF992359F1DD24D394D10EE12F22
:101A3000F0E0EB53FE4FC08211E01C0DBE016B5F66
:101A40007F4FCD010E94371A24E0C29EF00111247D
:101A5000EB51FE4F60837183828393838D819E81DE
:101A60008D509140A816B90609F061C00C2DC12E09
:101A7000ABC0983209F451C001EF9932A9F680E861
:101A8000800F602F803708F4C5C080EC800F803451
:101A900008F0BDC0023421F480EC820F803410F0D5
:101AA000213F09F400E4D12E10EC100FA12EB12C2F
:101AB000EC81EE2309F483C089819A81E80FF92F24
:101AC000F11D3197808190E8980F903708F480C01D
:101AD000E0ECE80FE03408F072C0E73008F03FC0F7
:101AE000F0E0EB58F24F0C94B4226F0EAD0DAD0D3B
:101AF0006C0E6C0E9D0D6C0E9F32A9F03CF49B3267
:101B0000D1F002E49D3209F4BACF8ECF9E3549F070
:101B10000EEF983709F4B3CF87CF00EFB0CF06E4CC
:101B2000AECF05E4ACCF04E4AACF03E4A8CF992458
:101B30009A94980E9BCF01E4A2CFF4E0FF2E1730C9
:101B4000E0F4F501EA55F24F0C94B422D30DFC0DEC
:101B5000FC0DCB0DCB0DCF0DCB0DE2E0FE2E1730E3
:101B600060F4F501EA54F24F0C94B422D30DD70D72
:101B7000D70DCB0DCB0DCF0DCB0D9F2DFE2CE92E10
:101B8000FE1448F1FE103CC08534F1F1A0F480341D
:101B9000A0F0712C20C0EF2C73E0F72EF1CFEF2CCA
:101BA00064E0F62EEDCFEF2C55E0F52EE9CFEF2CCB
:101BB00042E0F42EE5CF863461F3772061F0602FA8
:101BC000CE0101960E94BB0C93941D2D202F17CFA0
:101BD0008F2DFE2CE82E662463946D0CCE010196A9
:101BE0000E949C0CED2DF0E0EB53FE4F80838E2D78
:101BF000EF2CF82ED62C5CCFEF2C32E0F32EEBCF6F
:101C00008E2DEF2CF82EDBCF77247394D8CF003FA6
:101C100039F460EFCE0101960E94BB0CD12ED4CFD7
:101C2000013FE1F4EC8189819A81EE2309F44DC0F2
:101C3000E80FF92FF11D31978081803F09F447C0EB
:101C4000DD24D394D10ECE0101960E949C0CE12F8D
:101C5000F0E0EB53FE4F80831D2DE4CFDD24D394C1
:101C6000D10EE12FF0E0EB53FE4F0083ADCFE12E1C
:101C7000F12C8C81F701EB53FE4F7F01882341F05B
:101C80001F5FCE0101960E949C0CF7018083EFCF6D
:101C90008FEF808311E089819A810E946A23812FCE
:101CA00026960FB6F894DEBF0FBECDBFDF91CF9161
:101CB0001F910F91FF90EF90DF90CF90BF90AF906A
:101CC0009F908F907F906F90089510E0E4CFCE01A9
:101CD00001960E949C0CA2CF23E0F22E30CF95E01B
:101CE000F92E2DCF1F93CF93DF93EC01162F8FE1A9
:101CF00094E0662371F084E0689FB001112488812C
:101D000099810E94F32399838883892B21F488E1A8
:101D100094E00E9404121A83DF91CF911F910895DD
:101D2000CF92DF92EF92FF92FC019381911104C058
:101D30008AEE93E00E940412A081B18191509383B6
:101D400084E0989F90011124A20FB31FCD90DD90E5
:101D5000ED90FC90992351F06281862F86958695AF
:101D6000891720F06695CF010E94720EC701B60157
:101D7000FF90EF90DF90CF900895CF92DF92EF9297
:101D8000FF92CF93DF93EC016A017B016A818B8123
:101D9000681304C0660FCE010E94720E288139813B
:101DA0009B8181E0890F8B8344E0949FC0011124C3
:101DB000820F931FFC01C082D182E282F382DF9105
:101DC000CF91FF90EF90DF90CF9008951F920F92E8
:101DD0000FB60F9211248F939F938091E100909101
:101DE000E100937F9093E10083FF0FC01092E90020
:101DF00091E09093EB001092EC0092E39093ED0051
:101E00001092C40198E09093F00082FF22C093E00A
:101E10009093E9009091F200992319F09AE390933E
:101E2000E8009091B201992341F09091B201915054
:101E30009093B201911101C05D9A9091C3019923D1
:101E400041F09091C30191509093C301911101C051
:101E5000289A84FF18C08091E2008E7E8160809372
:101E6000E2008091E1008F7E8093E1008091B301D8
:101E70008E7E80618093B3019F918F910F900FBEF2
:101E80000F901F90189580FFF7CF8091E2008E7E13
:101E900080618093E2008091E1008E7E8093E1007A
:101EA0008091B3018E7E8160E5CF1F920F920FB6B5
:101EB0000F921124CF92DF92EF92FF920F931F9314
:101EC0002F933F934F935F936F937F938F939F9342
:101ED000AF93BF93EF93FF93CF93DF93CDB7DEB76D
:101EE0006C97DEBFCDBF1092E9008091E80083FFC0
:101EF00025C068E0CE0145960E94AC0582EF809334
:101F0000E8008D8987FF39C09091E80090FFFCCFF1
:101F1000982F907609F034C19E894F89588D2F896A
:101F2000F88C911131C0803861F58091B4018093B3
:101F3000F1001092F1008EEF8093E8006C960FB6DE
:101F4000F894DEBF0FBECDBFDF91CF91FF91EF912F
:101F5000BF91AF919F918F917F916F915F914F91C1
:101F60003F912F911F910F91FF90EF90DF90CF90B5
:101F70000F900FBE0F901F9018959EEF9093E80062
:101F8000C7CF1092F100D5CF913059F48111D3CF42
:101F90004130510581F68091B4018D7F8093B40169
:101FA000CACF933049F48111C6CF4130510519F69B
:101FB0008091B4018260F2CF953041F48091E800C5
:101FC00080FFFCCF20682093E300B5CF963009F066
:101FD000A9C00B8D1C8D22E01092E9001092B00177
:101FE0001092AF01F2122EC01092AE011092AD010C
:101FF0000E947B051F8299E09983FA8291E09E837B
:1020000090EA98879AEF99872091AF013091B001BB
:10201000275F3F4F3C832B838D831092E900109202
:10202000B0011092AF011093AE010093AD0149E0F1
:1020300050E0BE016F5F7F4F80E00E9455050E9417
:102040007B0579CF1093AE010093AD010E9412057C
:10205000DC0112960D911C910115110509F451C175
:10206000D801ED91FC910480F581E02DBE016B5EFD
:102070007F4FC8010995009709F03EC1F80100851E
:102080001185EACFF3E0FF120EC08F89882309F48F
:1020900040C0823061F440E867E08AE795E00E9442
:1020A000D111811148CF81E28093EB0047CF81307D
:1020B00029F440E86BE08EE695E0F1CF833099F7A4
:1020C0000E941205DC011296ED90FC908E010F5FCC
:1020D0001F4F6801E114F10479F0D701ED91FC91F3
:1020E0000680F781E02DB801C7010995080F111D81
:1020F000F701E084F184EECFD8011C92F601019043
:102100000020E9F73197BF016C197D0940E0C60155
:10211000C6CF68E575E0FB01449150E080E80E947D
:10212000550509CF973009F4BECF983021F481E0EE
:102130008093F10000CF993009F0FDCE837009F053
:10214000B2CFE4E3F1E081E031E096E32191222394
:1021500071F08093E9003093EB00DF0111972C912F
:102160002093EC009093ED008F5F873079F78EE736
:102170008093EA001092EA008F898093C401DBCE3D
:102180008B8D9C8D1092E9001092B0011092AF01DE
:102190009093AE018093AD01898D811192C08E899B
:1021A0009D89913A49F4813209F07DCF47E050E0B2
:1021B00064E071E080E0B3CF913209F074CF8332F4
:1021C00069F48F89988DB0E0A0E08093000190932E
:1021D0000101A0930201B0930301ADCE803269F4F6
:1021E0008091E80082FFFCCF67E084E091E00E94EC
:1021F000AC058BEF8093E8009ECE823209F09BCE37
:102200008F8980930B01EEEFFFE7859194918B3FCF
:102210009C4D51F1E0E0F8E08091040190910501BE
:10222000A0910601B0910701803B9440A105B10542
:10223000F1F480910B0180FD1AC0EE3F8AE0F807AF
:1022400089F587E797E79183808380916000809389
:10225000B10188E19BE00FB6F894A89580936000E7
:102260000FBE9093600067CEEEEFFAE0D5CF80818D
:1022700091818737974709F05ECEA89580916000DD
:102280008861809360008091B10180936000EE3F8F
:102290002AE0F20789F08091FE0A9091FF0A91836B
:1022A000808349CE808191818737980751F290933E
:1022B000FF0A8093FE0AC5CF1092FF0A1092FE0A11
:1022C0003ACE0E941205DC0112960D911C91011567
:1022D000110509F4E8CED801ED91FC910190F0814F
:1022E000E02DBE016B5E7F4FC8010995811123CEA1
:1022F000F80100851185EBCF181619060CF41BCEDA
:10230000D2CEF1E0FF12BECE6CE575E004CF1F9295
:102310000F920FB60F9211242F933F938F939F9399
:10232000AF93BF938091110390911203A091130377
:10233000B09114033091A80123E0230F2D3758F5F5
:102340000196A11DB11D2093A801809311039093C4
:102350001203A0931303B09314038091A9019091E9
:10236000AA01A091AB01B091AC010196A11DB11DD4
:102370008093A9019093AA01A093AB01B093AC0103
:10238000BF91AF919F918F913F912F910F900FBE71
:102390000F901F90189526E8230F0296A11DB11DDE
:1023A000D2CFEF92FF920F931F93CF93DF93F82E2C
:1023B000192FE62E042F81E0860F880F0E94270533
:1023C00083E00E942705CF2DD12FEC0EFD2EF11CAE
:1023D000CE15DF05B9F007FF13C0FE0184910E94FE
:1023E0002705182F80E00E9427058123219681115F
:1023F000EFCFDF91CF911F910F91FF90EF90089554
:102400008881EDCF81E0F5CFBC0185E193E00E94AA
:10241000570CFFCFCF93DF93E5E1F3E013821282F5
:1024200088EE93E0A0E0B0E084839583A683B78331
:102430008EE391E0918380838FEF9FEF9587848770
:10244000E8EBF7E01582168280E18783148213821D
:10245000118688E691E091838083E3EAF7E01382B6
:1024600012828CE591E091838083A3EAB3E0B68386
:10247000A58360E870E07087678340E450E052878E
:10248000418787E0848B21E0238B16861586108A8E
:1024900017861486138681E090E0928B818B1482DC
:1024A000EEE8F3E013821282C0E5D1E0D183C0836D
:1024B000B683A583708767835287418735E0348B65
:1024C000238B16861586108A178614861386928BA0
:1024D000818B1482E5E6F3E08CE08083818310A693
:1024E000DF91CF910895CF93DF93CDB7DEB7CC5472
:1024F000D1090FB6F894DEBF0FBECDBF789484B576
:10250000826084BD84B5816084BD85B5826085BDEF
:1025100085B5816085BD80916E00816080936E007D
:10252000109281008091810082608093810080916F
:102530008100816080938100809180008160809320
:102540008000809191008260809391008091910041
:1025500081608093910080919000816080939000D1
:102560008091C10084608093C1008091C10082602D
:102570008093C1008091C10081608093C1008091EF
:10258000C30081608093C3008091C000826080930B
:10259000C0008091C20081608093C20080917A0067
:1025A000846080937A0080917A00826080937A00C0
:1025B00080917A00816080937A0080917A008068AF
:1025C00080937A001092C4011092B4011092B3016A
:1025D0008091D70081608093D70080EA8093D800F3
:1025E00089B5806189BD89B5826089BD09B400FE65
:1025F000FDCF61E070E080E090E00E948C06809169
:10260000D8008F7C80618093D8008091E000807F2B
:102610008093E0008091E1008E7E8093E1008DE068
:102620008093E200559A209A81EC80937C0085B1DA
:10263000806F85B984B1877E84B984B1876E84B98F
:102640005E9A5F988AB1806D8AB9769A6E9881B3E6
:10265000806F81BB899880B38D7080BB80E58CBD15
:1026600081E08DBD85E090E00E945F085F9A85E083
:1026700090E00E945F085E985C98E2E3F6E08FE3EA
:1026800096E024912EBD00000DB407FEFDCF3196DB
:102690008E179F07B1F75C9A81E880936400809160
:1026A00065008160809365000E9492040E94640826
:1026B00087FF15C05C9885EA8EBD00000DB407FE4B
:1026C000FDCF5C9A2E982F982D988091640080629F
:1026D0008093640081E083BF889513BEFCCF0E9485
:1026E000640882FF48C02D980E946408847884386A
:1026F000E1F40E945D0888EC90E00E945F082F984A
:1027000082E090E00E94131F8F3F29F06FEF82E07C
:1027100090E00E941B1F84EF91E00E945F082F9AB7
:102720000E94640884788438D9F30E946408847114
:102730008431E1F40E945D0888EC90E00E945F081B
:102740002E9882E090E00E94131F882329F060E019
:1027500082E090E00E941B1F84EF91E00E945F08DE
:102760002E9A0E94640884718431D9F388EC90E039
:102770000E945F08B4CF0E945D0882E090E00E9452
:10278000131F882309F43AC13E9A3F9A81E090E0F2
:102790000E94131F8470782E81E090E00E94131F26
:1027A00081FF0FC071102E9800EF1FEFB8E0EB2EE5
:1027B000F12C0E94640886FF24C12E9A2F9A0E9451
:1027C0005D0882E390E00E945F080E946408811126
:1027D000F8CF8FEF9FEF909322038093210340E087
:1027E00050E060E271EC4093050250930602609362
:1027F00007027093080280E090E0A0E2B1E48093C9
:10280000090290930A02A0930B02B0930C0240932A
:102810000D0250930E0260930F027093100280938A
:10282000110290931202A0931302B09314020E941B
:10283000D60C9E012F5D3F4F27963FAF2EAF2797B7
:102840000E94A204882309F4F7C18091BD078093F8
:10285000BE070E9464088093BD070E949504809182
:102860000C018111F1C180E80E94E003882339F056
:102870008091B601882319F081508093B60180E1E0
:102880000E94E003882329F08091B6018F5F809336
:10289000B60180E20E94E00381111092B50180E44C
:1028A0000E94E003882319F081E08093B50188E05D
:1028B0000E94E0038823E9F00091B60110E08091C6
:1028C000B501882309F42CC10B531E4FD8016C911C
:1028D00070E090E080E00E94BA1B40E00E94F80B9C
:1028E0000091B60110E00B531E4F0E948220F801A8
:1028F000608384E00E94E003882319F081E08093E4
:102900000C0165EEC62E61E0D62E75ECE72E71E067
:10291000F72E10E000E01092B1071092B00710926D
:10292000AF071092AE071093B3070093B207D6011A
:102930008D909D90AD90BD906D01A5019401C50154
:10294000B4010E9468216CE971E081111BC024016F
:102950003501E89477F82FEF3FEF4FE75FE7C301CA
:10296000B2010E9468218111EFC02FEF3FEF4FE7C6
:102970005FE7C301B2010E94B51B18160CF0E4C05A
:1029800060EA71E083EA97E00E94C70AE0E4F0E0C1
:10299000F093B107E093B007F093AF07E093AE0771
:1029A0001093B3070093B207D7016D917D0170E0DA
:1029B00090E080E040E10E94D60A095F1F4F083393
:1029C000110509F0A8CF8091B601B7E08B9FC00137
:1029D0001124E0E2F0E0F093B107E093B007F09348
:1029E000AF07E093AE079093B3078093B20780914F
:1029F000B501882309F41BC18EE31AC13E983F98A4
:102A0000C5CE772029F00430110511F42E9A2F98A5
:102A100081E00E948304980117FF04C02227332716
:102A2000201B310B27703327C80117FD0796A3E041
:102A300095958795AA95E1F717FF05C00197A7011E
:102A4000421B530B9A01AC015695542F44275795BE
:102A500047954D555C4FB0E0A0E02701421A530A5C
:102A60008F3F6FEF96070CF43BC05A01E4E9AE0EBE
:102A7000B11C6A0170E060E0FD01EE57FA4F4F01B2
:102A80008F3F980779F0F401E60FF71FE491F0E02B
:102A90001F01022E01C0220C0A94EAF7F601648895
:102AA0002628248A2115310581F0F401E60FF71F4D
:102AB000E491F0E01F01042C02C0359427940A949D
:102AC000E2F7F5016080262820826F5F7F4FFFEFDD
:102AD000AF1ABF0AEFEFCE1ADE0A6835710581F62C
:102AE0000196A85ABF4F40585F4FA03BB10509F06F
:102AF000B7CF0E9492048FE090E00E945F080F5FC2
:102B00001F4F0931110509F054CE772011F02F9A8B
:102B10002D9880E991E00E945F080E945D0851CEE7
:102B2000000F111F000F111F0B511E4FD8016D9187
:102B30007D918D919C9143E00E94F80BF801608398
:102B4000718382839383D5CE2FEF3FEF4FE75FE40E
:102B5000C501B4010E94132118161CF464EA71E047
:102B600011CF2FEF3FEF4FE75FECC501B4010E949B
:102B7000B51B87FDF3CF20E030E0A901C501B4010A
:102B80000E94B51B87FF07C08DE20E94BE0AB7FAFC
:102B9000B094B7F8B0942AE037ED43EA5BE3C5019F
:102BA000B4010E949D1F2B013C010E9482204B0119
:102BB0005C010E94BA1B9B01AC01C301B2010E94DF
:102BC0009C1F2B013C014AE0C501B4010E94D60ABA
:102BD0008EE20E94BE0A20E030E040E251E4C301F0
:102BE000B2010E941B1C2B013C010E9482204B0160
:102BF000B12CA12C4AE0C501B4010E94D60AC5013E
:102C0000B4010E94BA1B9B01AC01C301B2010E9436
:102C10009C1F20E030E040E251E40E941B1C0E9417
:102C2000822090E080E04AE00E94D60AAFCE8CE39A
:102C30000E94BE0A0E949204E0E0F0E0EF2B09F44B
:102C4000FFCD0E940000FCCD8130A1F780E80E94FA
:102C5000E003882339F08091B601882319F0815070
:102C60008093B60180E10E94E003882339F08091CF
:102C7000B601823018F48F5F8093B60188E00E941D
:102C8000E003882351F08091B601813009F487C0B8
:102C900008F46DC0823009F4C5C388E090E09093D9
:102CA000B1078093B0079093AF078093AE0710925F
:102CB000B3071092B20767E576E083EA97E00E94D7
:102CC000570C6DE476E083EA97E00E94570C6FE3BF
:102CD00076E083EA97E00E94570C8091B601A7E066
:102CE0008A9FC00111241092B1071092B007109270
:102CF000AF071092AE079093B3078093B2077CCED4
:102D000010928C036DE071E08CE693E00E94B92490
:102D100080918C038F5FE82FF0E0EB59FC4F978197
:102D20009111F8CF80938C0380918D03811115C090
:102D30000E94A2048823C1F38091BD078093BE073F
:102D40000E9464088093BD070E9495040E94EB03D3
:102D50000E941C0B0E949204E7CF6CE673E08DE0AA
:102D600091E00E94B9240E94D60C811196CF109256
:102D70006B0344E050E068E676E087E693E00E946B
:102D8000941B10928D0380918C03882309F4B8CF93
:102D90008150E82FF0E0EB59FC4F1782F6CF80E42A
:102DA000E5ECF1E0DE01119601900D928A95E1F7D4
:102DB00055E1C52E52E0D52E10E002E080900502CC
:102DC00090900602A0900702B0900802A50194011D
:102DD0006091090270910A0280910B0290910C029D
:102DE0000E949C1F2B013C01612F012E000C770BD0
:102DF000880B990B0E94BC1B20E030E048E752E4AE
:102E00000E9409209B01AC01C301B2010E941B1C5E
:102E1000A50194010E949D1F4B015C0125961FAEE8
:102E2000259788E090E00E94CE2223969FAF8EAF38
:102E3000239724960FAF24979E012F5F3F4F790170
:102E4000D701ED917D01E03408F00CC1F0E0389637
:102E5000EE0FFF1FEE0FFF1F21E030E02C0F3D1F94
:102E6000E20FF31F4081518162817381CE018F5B3C
:102E70009F4F0E94BD0E27964EAD5FAD27974E1512
:102E80005F05F1F625968FAD2597812C912C540185
:102E9000882339F0CE018F5B9F4F0E94900E4B012B
:102EA0005C0123968EAD9FAD23970E946A23D601C5
:102EB0008D929D92AD92BD926D011F5F1F3309F0FF
:102EC0007DCFC0900502D0900602E0900702F090FE
:102ED0000802A701960160E070E0CB010E949C1FF0
:102EE0004B015C01A70196016091090270910A02F1
:102EF00080910B0290910C020E949C1F9B01AC01DF
:102F0000C501B4010E94092020E030E04CE752E402
:102F10000E941B1C0E94290921E04FE370E060E041
:102F2000082E000C990B0E94CB0860E070E0CB01EA
:102F30000E946109682F880F770B6034710530F4A7
:102F400021E04FE390E080E00E946C08C090050211
:102F5000D0900602E0900702F090080220E030E0F6
:102F6000A901C701B6010E94132120E030E040E032
:102F70005FE387FD04C1C701B6010E949D1F0E9447
:102F80007B200E94BC1B6B017C0180900902909009
:102F90000A02A0900B02B0900C0220E030E0A901E0
:102FA000C501B4010E94132120E030E040E05FE35E
:102FB00087FDEAC0C501B4010E949D1F0E947B20CD
:102FC0000E94BC1B9B01AC01C701B6010E94B51B4E
:102FD00018160CF4DEC060E070E0CB010E946109BD
:102FE000182F4090050250900602609007027090E2
:102FF0000802A3019201C701B6010E949C1F2B96F3
:103000006CAF7DAF8EAF9FAF2B97A3019201C5012F
:10301000B4010E949C1F9B01AC012B966CAD7DAD51
:103020008EAD9FAD2B970E94092020E030E04CE749
:1030300052E40E941B1C0E942909612F110F770B7B
:103040006150710921E043E0082E000C990B0E94A9
:10305000CB0820E030E040E85FE3C701B6010E9402
:103060009D1F91CFE134A9F4CE018F5B9F4F0E9449
:10307000900E2B013C01CE018F5B9F4F0E94900E62
:103080009B01AC01C301B2010E949D1FAB01BC01B9
:10309000EDCEE23499F4CE018F5B9F4F0E94900EEB
:1030A0002B013C01CE018F5B9F4F0E94900E9B0134
:1030B000AC01C301B2010E949C1FE8CFE33499F434
:1030C000CE018F5B9F4F0E94900E2B013C01CE01E1
:1030D0008F5B9F4F0E94900E9B01AC01C301B20118
:1030E0000E941B1CD3CFE43499F4CE018F5B9F4F19
:1030F0000E94900E2B013C01CE018F5B9F4F0E94DE
:10310000900E9B01AC01C301B2010E940920BECF09
:10311000E53489F4CE018F5B9F4F0E94900E2B0106
:103120003C01CE018F5B9F4F0E94900EA301920144
:103130000E941821ABCFE63489F4CE018F5B9F4FFC
:103140000E94900E2B013C01CE018F5B9F4F0E948D
:10315000900EA30192010E94BC2098CFB501A4015A
:10316000EE3F09F483CEE03409F08CCECE018F5BC4
:103170009F4F0E94900EAB01BC01705877CEC701E3
:10318000B6010E949C1FFBCEC501B4010E949C1F8A
:1031900015CFC0900D02D0900E02E0900F02F0907B
:1031A000100220E030E0A901C701B6010E941321FE
:1031B00020E030E040E05FE387FD77C0C701B60163
:1031C0000E949D1F0E947B200E94BC1B6B017C0102
:1031D0008090110290901202A0901302B0901402FD
:1031E00020E030E0A901C501B4010E94132120E0D4
:1031F00030E040E05FE387FD5DC0C501B4010E949F
:103200009D1F0E947B200E94BC1B9B01AC01C7013B
:10321000B6010E94B51B18160CF451C0C701B601C7
:103220000E946109182F8090050290900602A090DC
:103230000702B0900802A501940160E070E0CB01A4
:103240000E949C1F2B013C01A50194016091090281
:1032500070910A0280910B0290910C020E949C1FB7
:103260009B01AC01C301B2010E94092020E030E0C3
:103270004CE752E40E941B1C0E942909612F110F88
:10328000770B6034710540F4082E000C990B21E097
:1032900043E001970E946C0820E030E040E85FE3E3
:1032A000C701B6010E949D1F91CFC701B6010E94C0
:1032B0009C1F88CFC501B4010E949C1FA2CF6091C2
:1032C00015027091160280911702909118020E94C7
:1032D0006109E82EE9E1F2E02996FFAFEEAF299708
:1032E000AA24A394B12C65012996AEADBFAD299750
:1032F0006D917D918D919D912996BFAFAEAF29972C
:103300000E946109082F880F110B0E2C000CFF087A
:10331000C501019728014E185F0857FE03C051945C
:1033200041945108B2E04B16510454F4302F212F30
:103330008501C32ED22E3E2D2F2D7C01832F922F5F
:103340000E151F0554F03C2D2D2D6C01832F922F4F
:10335000302F212F8701E32EF22E4701801A910A88
:103360001C012C183D0837FE03C03194219431080C
:10337000340197FE03C0EFEF6E1A7E0A75946794CE
:10338000C816D9062CF581E0282F880F330B2D960F
:103390003FAF2EAF2D97E016F106E4F041E0B80103
:1033A000C60132E04316510414F4B601C8010E946C
:1033B000AD086218730877FE08C02D964EAD5FAD5C
:1033C0002D97C40ED51E680C791C0F5F1F4FE3CFDD
:1033D0008FEFDACF2996EEADFFAD29973497608154
:1033E0007181828193810E946109E82E5FEFA51AA5
:1033F000B50A6EE3A616B10409F075CF0E949204D7
:103400000E94A2048823E1F38091BD078093BE0748
:103410000E9464088093BD0784E00E94E003882333
:1034200069F33BCC10920C011092B6011092B501D9
:1034300034CCEF920F931F93CF93DF93E80134E0E6
:1034400047FD34E1042E000C550B57FF03C0519586
:1034500041955109E32E022F242FAE010E94881CB2
:10346000CE01DF91CF911F910F91EF900895B0E0C1
:10347000A0E0EDE3FAE10C943A1F5C017B016115D9
:10348000710519F0DB018D939C9385010F5F1F4F30
:10349000F501D0818D2F90E00E948B1B6C01892B50
:1034A000B9F5DD32B9F50F5F1F4FD5011196DC91EB
:1034B000C1E05801F1E0AF1AB10843E050E066E323
:1034C00071E0C5010E949D1B892B69F5680182E0AE
:1034D000C80ED11C45E050E061E371E0C6010E94D6
:1034E0009D1B892B21F4680197E0C90ED11CE114C2
:1034F000F10419F0D701CD92DC9260E070E080E831
:103500009FEFC111FFC060E070E080E89FE7FAC064
:103510005801BBCFDB3229F485010E5F1F4FF50147
:10352000D181C0E0C6CF43E050E06EE271E0C5015A
:103530000E949D1B892BE9F0F80110E000E020E0DB
:1035400030E0A9015F01B0ED8B2E8D0E89E088156A
:10355000C8F19C2E689491F88C2F8870C2FF16C019
:10356000811102C00F5F1F4F3196D501DC91C92D2B
:10357000E9CFE114F10429F00E5F1F4FF701118329
:10358000008360E070E080EC9FE7BCC0882311F00E
:1035900001501109A5E0B0E00E94291F9B01AC0178
:1035A000220F331F441F551F280D311D411D511D72
:1035B000283999E93907490799E15907A8F2C660FE
:1035C0009C2ED2CFAEEF8A1206C0C3FD3CC09C2E0B
:1035D000689493F8C9CFDF7DD534A9F580818D3209
:1035E00039F4C061DF011296818162E070E006C0AB
:1035F000DF018B32C1F3119661E070E080535D0111
:10360000A61AB70A8A30F8F4E0E8CE16ECE0DE0637
:103610005CF4B601660F771F660F771FC60ED71EC4
:10362000CC0CDD1CC80ED11C5D01FFEFAF1ABF0A28
:103630008C9180538A30A8F1C4FF03C0D194C19407
:10364000D1080C0D1D1DC1FF09C0E114F10431F0BA
:1036500081E0A81AB108D701AD92BC92CA01B901A4
:103660000E94BA1BC370C33009F490584B015C012F
:1036700020E030E0A9010E94B51B882309F440C076
:10368000C5E6D1E017FF05C0119501951109CDE4FC
:10369000D1E06E01B8E1CB1AD10880E2E82EF12C1E
:1036A0000FC0D501B1CFFE012591359145915491BF
:1036B0000E191F09C501B4010E941B1C4B015C01BE
:1036C000D501C4010E151F0574F72497F594E794EE
:1036D000CC16DD06A9F78A2F880F8B2F881F8F3F06
:1036E00049F020E030E0A901C501B4010E94B51BFA
:1036F000811106C082E290E09093C4078093C307D3
:10370000C501B401CDB7DEB7ECE00C94561F6627B7
:1037100077270C94371A91110C94BF1E803219F040
:1037200089508550C8F70895FB01DC0102C005905F
:103730000D9241505040D8F70895FB01DC014150F3
:10374000504088F08D9181341CF08B350CF4805EF4
:10375000659161341CF06B350CF4605E861B611161
:1037600071F3990B0895881BFCCF0E94F71B08F496
:1037700081E00895E89409C097FB3EF49095809508
:10378000709561957F4F8F4F9F4F9923A9F0F92F27
:1037900096E9BB279395F695879577956795B795A5
:1037A000F111F8CFFAF4BB0F11F460FF1BC06F5F8B
:1037B0007F4F8F4F9F4F16C0882311F096E911C09D
:1037C000772321F09EE8872F762F05C0662371F0BE
:1037D00096E8862F70E060E02AF09A95660F771FD2
:1037E000881FDAF7880F9695879597F90895990FAE
:1037F0000008550FAA0BE0E8FEEF16161706E807BB
:10380000F907C0F012161306E407F50798F0621BDB
:10381000730B840B950B39F40A2661F0232B242BB0
:10382000252B21F408950A2609F4A140A6958FEFCF
:10383000811D811D08950E942E1C0C94D91E0E948A
:10384000CB1E38F00E94D21E20F0952311F00C946C
:10385000C21E0C94C81E11240C940D1F0E94EA1E57
:1038600070F3959FC1F3950F50E0551F629FF001D3
:10387000729FBB27F00DB11D639FAA27F00DB11DEC
:10388000AA1F649F6627B00DA11D661F829F222775
:10389000B00DA11D621F739FB00DA11D621F839FFC
:1038A000A00D611D221F749F3327A00D611D231FD2
:1038B000849F600D211D822F762F6A2F11249F5720
:1038C00050409AF0F1F088234AF0EE0FFF1FBB1F23
:1038D000661F771F881F91505040A9F79E3F5105E2
:1038E00080F00C94C21E0C940D1F5F3FE4F3983ED1
:1038F000D4F3869577956795B795F795E7959F5F8C
:10390000C1F7FE2B880F911D9695879597F908951D
:10391000A9E0B0E0EEE8FCE10C943A1F6A01F22E57
:10392000B02E102FFBE3AF2EA01608F41BE31F5F91
:10393000012F27E0AE014F5F5F4F0E94E71DBC01E2
:103940008981982F9970913009F43FC09BE2E1FC86
:1039500004C09E2D9170E0FC3AC05E2D5071E82F9E
:10396000E87083FF46C084E0911101C083E0EF2D31
:10397000E81B8F1508F0E0E0D6018E2F20E25523DA
:1039800051F1992329F0D6019C93C60101966C014F
:1039900096012D5F3F4FE2FE24C08EE4D6018C934A
:1039A00091E411969C93119712968C93D9018E2FC6
:1039B00090E281111BC0E20FF32FF11D10828EEFF8
:1039C0009FEF2996ECE00C94561F9DE2C6CF90E243
:1039D000C4CF2D9381508111FCCFCE0ED11CE0E0DD
:1039E000D0CF8EE6D6018C9391E6DBCF9D938150AC
:1039F000E0CF482F447082FF3DC084E0911101C0A8
:103A000083E08F1510F4EF2DE81BD6018E2F20E2F6
:103A1000552309F1992329F0D6019C93C6010196FB
:103A20006C0196012D5F3F4FE2FE1BC089E4D60179
:103A30008C938EE411968C93119786E412968C9356
:103A4000D9018E2F90E2882309F4B5CF9D93815040
:103A5000FACF2D9381508111FCCFCE0ED11CE0E026
:103A6000D9CF89E6D6018C938EE611968C93119767
:103A700086E6E4CF9B0177FF02C030E020E0A1E0C2
:103A8000B0E0911102C0B0E0A0E0F9013196AE0FB4
:103A9000BF1F8B2C912CBB2009F461C05401EFEFA8
:103AA000AE1ABE0AAA0DBB1DFA161B0619F014F0B9
:103AB0004F2D4A1B511188C0E3FC59C07601A42F39
:103AC000B0E2A1114FC0C40ED11C992309F45BC010
:103AD00040E0D6011196F60190836D01552309F45B
:103AE00048C0012F060F9A81582F507184FF03C0E0
:103AF000913309F4015010160CF047C0093008F05A
:103B000008E0EEE2FE2E5B01A01AB1088501919457
:103B1000819491082F3F320729F4D601FC92F601D7
:103B200031966F016217730794F1021713077CF542
:103B3000DB01A21BB30BAA24A394B12CAC0EBD1EB7
:103B4000AA0DBB1D11968C9121503109D6011196F9
:103B500028153905F4F0F60180836D01DBCFB12C17
:103B6000A12CA0CFF701B1937F01A150AACF911151
:103B7000B0CFD601942F50E302C05D9391509111C4
:103B8000FCCFC40ED11C40E0ACCF01E0BACF80E343
:103B9000DBCF6217730731F4963388F4953311F451
:103BA000552369F0F6018083FD01842F90E2811195
:103BB00008C0A40FB11D1C9290E080E002CF81E309
:103BC000F1CF91938150F3CF911183CF8ACF2830D9
:103BD00008F027E03327DA01990F311D87FD916046
:103BE00000966105710539F432602E5F3D9330E334
:103BF0002A95E1F708959F3F30F0803871056105FF
:103C000009F03C5F3C5F3D93913008F08068911D66
:103C1000DF93CF931F930F93FF92EF92192F987F0B
:103C20009695E92F96959695E90FFF27ED53FE4F50
:103C300099273327EE24FF24A701E7010590089474
:103C4000079428F4360FE71EF81E491F511D660F12
:103C5000771F881F991F0694A1F70590079428F4F1
:103C6000E70EF81E491F561FC11D770F881F991FA9
:103C7000661F0694A1F70590079428F4F80E491FD3
:103C8000561FC71FD11D880F991F661F771F0694E7
:103C9000A1F70590079420F4490F561FC71FD81F9E
:103CA000990F661F771F881F0694A9F784911095B6
:103CB000177041F0D695C79557954795F794E794B7
:103CC0001A95C1F7E9E6F1E06894159015913591E0
:103CD0006591959105907FE27395E118F10A430B88
:103CE000560BC90BD009C0F7E10CF11E431F561F3C
:103CF000C91FD01D7EF4703311F48A95E6CFE89485
:103D0000015030F0080F0AF40027021708F4202FA2
:103D10002395022F7A3328F079E37D932A95E9F7EA
:103D200010C07D932A9589F60694979567953795E7
:103D300017951794E118F10A430B560BC90BD009DC
:103D400098F023957E9173957A3308F070E37C9315
:103D50002013B8F77E9170617D9330F0839571E305
:103D60007D9370E32A95E1F71124EF90FF900F9176
:103D70001F91CF91DF91992787FD909508959927FD
:103D80008827089597F99F6780E870E060E00895BC
:103D90009FEF80EC089500240A9416161706180663
:103DA0000906089500240A9412161306140605063F
:103DB0000895092E0394000C11F4882352F0BB0FD0
:103DC00040F4BF2B11F460FF04C06F5F7F4F8F4F33
:103DD0009F4F089557FD9058440F551F59F05F3F6E
:103DE00071F04795880F97FB991F61F09F3F79F01D
:103DF00087950895121613061406551FF2CF46959F
:103E0000F1DF08C0161617061806991FF1CF869520
:103E10007105610508940895E894BB276627772704
:103E2000CB0197F90895F999FECF92BD81BDF89A1B
:103E3000992780B50895262FF999FECF1FBA92BD14
:103E400081BD20BD0FB6F894FA9AF99A0FBE01967B
:103E500008950E948D1FA59F900DB49F900DA49F63
:103E6000800D911D112408952F923F924F925F92E1
:103E70006F927F928F929F92AF92BF92CF92DF927A
:103E8000EF92FF920F931F93CF93DF93CDB7DEB7DF
:103E9000CA1BDB0B0FB6F894DEBF0FBECDBF099473
:103EA0002A88398848885F846E847D848C849B84CA
:103EB000AA84B984C884DF80EE80FD800C811B81D8
:103EC000AA81B981CE0FD11D0FB6F894DEBF0FBE07
:103ED000CDBFED010895A1E21A2EAA1BBB1BFD0167
:103EE0000DC0AA1FBB1FEE1FFF1FA217B307E407D9
:103EF000F50720F0A21BB30BE40BF50B661F771F31
:103F0000881F991F1A9469F7609570958095909510
:103F10009B01AC01BD01CF010895A29FB001B39FE9
:103F2000C001A39F700D811D1124911DB29F700DC2
:103F3000811D1124911D08955058BB27AA270E9466
:103F4000B41F0C94D91E0E94CB1E38F00E94D21EC2
:103F500020F039F49F3F19F426F40C94C81E0EF497
:103F6000E095E7FB0C94C21EE92F0E94EA1E58F36D
:103F7000BA17620773078407950720F079F4A6F54E
:103F80000C940C1F0EF4E0950B2EBA2FA02D0B01F4
:103F9000B90190010C01CA01A0011124FF27591B8E
:103FA00099F0593F50F4503E68F11A16F040A22F94
:103FB000232F342F4427585FF3CF46953795279505
:103FC000A795F0405395C9F77EF41F16BA0B620B04
:103FD000730B840BBAF09150A1F0FF0FBB1F661F4B
:103FE000771F881FC2F70EC0BA0F621F731F841F8E
:103FF00048F4879577956795B795F7959E3F08F0B4
:10400000B0CF9395880F08F09927EE0F9795879575
:1040100008950E941D200C94D91E0E94D21E58F0B3
:104020000E94CB1E40F029F45F3F29F00C94C21E81
:1040300051110C940D1F0C94C81E0E94EA1E68F3C7
:104040009923B1F3552391F3951B550BBB27AA2751
:1040500062177307840738F09F5F5F4F220F331F8B
:10406000441FAA1FA9F335D00E2E3AF0E0E832D053
:1040700091505040E695001CCAF72BD0FE2F29D056
:10408000660F771F881FBB1F261737074807AB0728
:10409000B0E809F0BB0B802DBF01FF2793585F4F9D
:1040A0003AF09E3F510578F00C94C21E0C940D1FFF
:1040B0005F3FE4F3983ED4F3869577956795B7957F
:1040C000F7959F5FC9F7880F911D9695879597F98A
:1040D0000895E1E0660F771F881FBB1F6217730703
:1040E0008407BA0720F0621B730B840BBA0BEE1F18
:1040F00088F7E09508950E9482206894B1110C948D
:104100000D1F08950E94F21E88F09F5798F0B92F56
:104110009927B751B0F0E1F0660F771F881F991FFC
:104120001AF0BA95C9F714C0B13091F00E940C1F73
:10413000B1E008950C940C1F672F782F8827B85F83
:1041400039F0B93FCCF3869577956795B395D9F754
:104150003EF490958095709561957F4F8F4F9F4F5E
:1041600008950E94CB1E20F019F00E94D21E50F438
:104170000C94C81E0C940D1FE92F0E94EA1E88F3B0
:104180005523B1F3E7FB6217730784079507A8F17E
:1041900089F3E92FFF2788232AF03197660F771FCD
:1041A000881FDAF7952F5527442332F0915050405D
:1041B000220F331F441FD2F7BB27E91BF50B621BED
:1041C000730B840BB109B1F222F4620F731F841FC9
:1041D000B11D31972AF0660F771F881FBB1FEFCFE5
:1041E0009150504062F041F0882332F0660F771F03
:1041F000881F91505040C1F793950C9405218695E6
:10420000779567959F5FD9F7F7CF9F3F31F0915032
:1042100020F4879577956795B795880F911D9695AA
:10422000879597F908950E94F71B08F48FEF08957A
:10423000FA01EE0FFF1F309621053105A1F161153E
:10424000710561F48038BFE39B0749F168949038A9
:10425000810561F08038BFEF9B0741F099234AF553
:10426000FF3FE1053105210519F1E8940894E79530
:10427000D901AA2329F4AB2FBE2FF85FD0F310C0C9
:10428000FF5F70F4A695E0F7F73950F019F0FF3AA8
:1042900038F49F779F930DD00F9007FC90580895A6
:1042A00046F00C94C81E60E070E080E89FE308953B
:1042B0004FE79F775F934F933F932F930E9418226E
:1042C0002F913F914F915F910E941B1C0C9475217F
:1042D0000E94F71B880B990B089529F416F00C9493
:1042E000C21E0C940C1F0C94C81E0E94F21EA8F350
:1042F0009638A0F707F80F92E8942BE33AEA48EBD8
:104300005FE70E94311C0F920F920F924DB75EB77C
:104310000F920E946022ECEAF0E00E94A7214F91E8
:104320005F91EF91FF91E595EE1FFF1F49F0FE575A
:10433000E0684427EE0F441FFA95E1F74195550BCD
:104340000E94DA210F9007FE0C94CE210895DF938E
:10435000CF931F930F93FF92EF92DF927B018C011B
:10436000689406C0DA2EEF010E942E1CFE01E8942C
:10437000A5912591359145915591A6F3EF010E94A4
:10438000B41FFE019701A801DA9469F7DF90EF905E
:10439000FF900F911F91CF91DF9108959B01AC0188
:1043A00060E070E080E89FE30C9409200C94C21E4A
:1043B0000C9405210E94F21ED8F39923C9F3940F9F
:1043C000511DA3F39150504094F059F0882332F0DE
:1043D000660F771F881F91505040C1F79E3F5105CF
:1043E0002CF7880F911D9695879597F908955F3F53
:1043F000ACF0983E9CF0BB27869577956795B7956E
:1044000008F4B1609395C1F7BB0F58F711F460FF42
:10441000E8CF6F5F7F4F8F4F9F4FE3CF0C940D1FFF
:1044200016F00C9405210C94C81E68940C94C21EBE
:104430000E94F21EA8F39923C1F3AEF3DF93CF934A
:104440001F930F93FF92C92FDD2788232AF021970E
:10445000660F771F881FDAF720E030E040E85FEB57
:104460009FE3883920F0803E38F021968F770E94B4
:104470009D1FE4EDF0E004C00E949D1FE1E0F1E02B
:104480000E94A7218B01BE01EC01FB2E6F57710921
:104490007595771F880B990B0E94BC1B28E132E7AA
:1044A00041E35FE30E942E1CAF2D9801AE01FF9007
:1044B0000F911F91CF91DF910E94B41F0C94D91ED0
:1044C000FA01DC01AA0FBB1F9B01AC01BF5728F406
:1044D000222733274427507820C0B75190F4AB2FC0
:1044E0000024469537952795011CA395D2F300200B
:1044F00071F0220F331F441FB395DAF30ED00C94E2
:104500009C1F61307105A0E88A07B94630F49B0111
:10451000AC016627772788279078309621F0208392
:104520003183428353830895991B79E004C0991F16
:10453000961708F0961B881F7A95C9F780950895FD
:1045400097FB072E16F4009407D077FD09D00E9440
:10455000BA2207FC05D03EF4909581959F4F0895AF
:10456000709561957F4F0895EE0FFF1F0590F491B0
:10457000E02D0994AA1BBB1B51E107C0AA1FBB1F5A
:10458000A617B70710F0A61BB70B881F991F5A95DF
:10459000A9F780959095BC01CD0108950F931F93C5
:1045A000CF93DF938230910510F482E090E0E091A8
:1045B000C707F091C80730E020E0B0E0A0E03097F6
:1045C00099F42115310509F44AC0281B390B243010
:1045D0003105D8F58A819B816115710589F1FB014F
:1045E00093838283FE0111C0408151810281138136
:1045F00048175907E0F04817590799F4109761F0E8
:1046000012960C93129713961C933296CF01DF915A
:10461000CF911F910F9108950093C7071093C8077A
:10462000F4CF2115310551F04217530738F0A90195
:10463000DB019A01BD01DF01F801C1CFEF01F9CF24
:104640009093C8078093C707CDCFFE01E20FF31FF9
:10465000819391932250310939832883D7CF2091B8
:10466000C5073091C607232B41F420912F013091CB
:1046700030013093C6072093C50720912D0130915A
:104680002E012115310541F42DB73EB7409131017E
:1046900050913201241B350BE091C507F091C607FC
:1046A000E217F307A0F42E1B3F0B2817390778F009
:1046B000AC014E5F5F4F2417350748F04E0F5F1F68
:1046C0005093C6074093C507819391939FCFF0E025
:1046D000E0E09CCFCF93DF930097E9F0FC013297A5
:1046E00013821282A091C707B091C807ED0130E094
:1046F00020E01097A1F420813181820F931F209137
:10470000C5073091C6072817390709F061C0F09333
:10471000C607E093C507DF91CF910895EA01CE1750
:10472000DF07E8F54A815B819E0141155105B1F72C
:10473000E901FB83EA8349915991C40FD51FEC1716
:10474000FD0761F4808191810296840F951FE90134
:1047500099838883828193819B838A83F0E0E0E060
:1047600012968D919C9113970097B9F52D913C91DC
:104770001197CD010296820F931F2091C5073091AA
:10478000C6072817390739F6309751F51092C80730
:104790001092C707B093C607A093C507BCCFD383B9
:1047A000C28340815181840F951FC817D90761F4D6
:1047B0004E5F5F4F88819981480F591F5183408315
:1047C0008A819B81938382832115310509F0B0CFC3
:1047D000F093C807E093C7079ECFFD01DC01C0CF6F
:1047E00013821282D7CFB0E0A0E0E9EFF3E20C949D
:1047F000361F8C01009751F4CB010E94CE228C0110
:10480000C801CDB7DEB7E0E10C94521FFC01E60F02
:10481000F71F9C0122503109E217F30708F49DC0ED
:10482000D901CD91DC911197C617D70798F0C53003
:10483000D10530F3CE0104978617970708F3C61BFE
:10484000D70B2297C193D1936D937C93CF010E9494
:104850006A23D6CF5B01AC1ABD0A4C018C0E9D1E9B
:10486000A091C707B091C807512C412CF12CE12C25
:10487000109731F58091C5079091C6078815990565
:1048800009F05CC04616570608F058C080912D010B
:1048900090912E01009741F48DB79EB74091310160
:1048A00050913201841B950BE817F90708F055C0A9
:1048B000F093C607E093C507F90171836083A0CF29
:1048C0008D919C91119712966C90129713967C90F3
:1048D0001397A815B90559F56C0142E0C40ED11C17
:1048E000CA14DB0420F1AC014A195B09DA01129603
:1048F000159780F06282738251834083D9016D9352
:104900007C93E114F10471F0D7011396FC93EE93BC
:10491000129776CF22968C0F9D1FF9019183808389
:10492000F301EFCFF093C807E093C70769CF4816AC
:10493000590608F42C017D01D3019ACFCB010E94C6
:10494000CE227C01009749F0AE01B8010E94B0244C
:10495000C8010E946A23870153CF10E000E050CFC6
:10496000FB01DC0102C001900D9241505040D8F78C
:104970000895FB01DC0101900D920020E1F70895FC
:04498000F894FFCFD9
:10498400FFFFFFFF00E100000000000001322A7871
:104994005E322B352A780000000000000000000081
:1049A400000000000000000000000000000000C93A
:1049B40007800000C1808100000000000000E605BF
:1049C400BF060706FC054D060B062906000000007D
:1049D400B207B905C40AC30A000000000D0AB905EC
:1049E400C40AC30A0000000026053000310032006A
:1049F40033003400350036003700380039002E000B
:104A0400280029002B004F4B002A002F005E0025B0
:104A14000078003C2D003C3C000D0A006E616E00E5
:084A2400696E66006F76660002
:00000001FF
