:100000000C9423030C944B030C944B030C944B0360
:100010000C944B030C944B030C944B030C944B0328
:100020000C944B030C944B030C94730C0C94E20C47
:100030000C944B030C944B030C944B030C944B0308
:100040000C944B030C944B030C944B030C944B03F8
:100050000C944B030C944B030C944B030C94140F13
:100060000C944B030C944B030C944B030C944B03D8
:100070000C944B030C944B030C944B030C944B03C8
:100080000C944B030C944B030C944B030C944B03B8
:100090000C944B030C944B030C944B030C944B03A8
:1000A0000C944B030C944B030C944B0307634236A4
:1000B000B79BD8A71A39685618AEBAAB558C1D3CF9
:1000C000B7CC5763BD6DEDFD753EF6177231BF00BD
:1000D0000000803F08000000BE922449123EABAAF7
:1000E000AA2ABECDCCCC4C3E00000080BEABAAAA52
:1000F000AA3E00000000BF000000803F000000009A
:1001000000084178D3BB4387D1133D190E3CC3BDD2
:100110004282AD2B3E68EC8276BED98FE1A93E4C7F
:1001200080EFFFBE01C4FF7F3F00000000004E4192
:100130004E494E495459494E46CDCCCC3D0AD72361
:100140003C17B7D13877CC2B329595E6241FB14FA9
:100150000A000020410000C84200401C4620BCBEEE
:100160004CCA1B0E5AAEC59D7400407A10F35A005B
:10017000A0724E18090010A5D4E80000E8764817D0
:100180000000E40B54020000CA9A3B000000E1F5B5
:1001900005000080969800000040420F000000A07B
:1001A0008601000000102700000000E803000000A6
:1001B000006400000000000A0000000000010000D0
:1001C0000000002C76D888DC674F0823DFC1DFAE43
:1001D00059E1B1B796E5E3E453C63AE6519976960C
:1001E000E8E6C28426EB898C9B62ED407C6FFCEFD5
:1001F000BC9C9F40F2BAA56FA5F490055A2AF75C03
:10020000936B6CF9676DC11BFCE0E40D47FEF520B4
:10021000E6B500D0ED902E0300943577050080847C
:100220001E080000204E0A000000C80C3333333390
:100230000F986E12831141EF8D2114893BE65516FC
:10024000CFFEE6DB18D1844B381BF77C1D901DA434
:10025000BBE424203284725E228100C9F124ECA127
:10026000E53D272F0300033F0A3F163F1A090412FA
:100270001A251A28031E21211E0A040A040E0460EE
:10028000040404200804021E211E223F20392522D6
:1002900021251A07043F1725191E25190139071AA8
:1002A000251A12251E1434040A111414110A04010B
:1002B0002D061E212D2E3E053E3F251A1E21213FD3
:1002C000211E3F253F051E213D3F043F213F2121A7
:1002D0001F3F043B3F203F0204023F3F02043F1EFA
:1002E000211E3F05021E312E3F053A2619013F010E
:1002F0003F203F1F301F1F201C201F3B043B033C9F
:100300000339273F21020408213F02010220202057
:100310000102142C383F2418182418243F183428BC
:100320003E0548543C3F04383D403D3F043A3F3C85
:10033000043C04383C04381824187C241818247C05
:100340003C0428141F241C203C1C201C1C2038208A
:100350003C3408344C503C342C043B213B213B04BE
:10036000020604000104070A0D11121416191C1DBF
:10037000202124272A2D303336393C3F424344473D
:10038000494C4F5356595C5F616366696C6E71737B
:10039000787C7F8285888A8D9093989B9EA0A2A569
:1003A000A7AAADAFB2B5B7BABDBFC2C5C6C8CBCCA0
:1003B000D1D4D7DADDDFE1E3E6E9EEF1F4F6F9FADC
:1003C000FD0063616E277420706F702C2073746160
:1003D000636B20656D7074790063616E27742070A3
:1003E0006F702C20737461636B20656D707479007D
:1003F0006E6F206D656D0063616E2774207265738A
:10040000697A65207468617420736D616C6C006E2C
:100410006F206D656D0063616E277420726573696E
:100420007A65207468617420736D616C6C0000B033
:100430000000A170E150964F26900F1D070C00960A
:1004400069004AE44A0048444000806810000F995F
:10045000FB8F9DBDBBFB77D4D4DF1F1A1AFE7F5DD7
:100460005DFF805A0000A0A4AA0010BA3400FF5912
:1004700053F3FF9B9B9EFFB9B996FF9595D19FF4CF
:10048000940FFC295F91FF1838F8FF9294FFFF95B5
:10049000D5F7BFB5DDD7F18F81F1F788C8F779C6F9
:1004A000467909FD9B090196F8008281828050718E
:1004B00062007756560076763700A2B7730107724E
:1004C00006007827500073347400775176007F550A
:1004D000F70047711000324772007364730015A271
:1004E000750061679400009F6060F4F2F6F2080BFB
:1004F00000020202010009040000010202000005DE
:10050000240010010524010101042402060524062B
:1005100000010705810310004009040100020A00E0
:1005200000000705020240000007058302400000AA
:100530000403090412010002EF0201404123368046
:1005400000010102030141726475696E6F204C4C19
:10055000430041726475626F7900F0F89C8E878366
:10056000878E9CF8F00000FEFF0303030303070ED1
:10057000FCF80000FEFF0303030303070EFCF80072
:1005800000FFFF00000000000000FFFF0000FEFF72
:100590008383838383C7EE7C380000F8FC0E070357
:1005A0000303070EFCF800003F7FE0C08080C0E03E
:1005B0007F3FFFFF01010101010101FFFF0000FF7B
:1005C000FF0C0C0C0C1C3E77E3C100007FFFC0C089
:1005D000C0C0C0E0703F1F00001F3F70E0C0C0C03F
:1005E000E0703F1F00007FFFC1C1C1C1C1E3773E82
:1005F0001C00001F3F70E0C0C0C0E0703F1F000043
:1006000000000001FFFF01000000D5F08D14A1C81B
:1006100081CFD9F1AF200047657446756E63746968
:100620006F6E206661696C6564212046616C6C6246
:1006300061636B003E3C2A3738393435363132330A
:10064000302E2D00910F11241FBECFEFDAE0DEBF58
:10065000CDBF11E0A0E0B1E0E6E8F6E402C005900D
:100660000D92A436B107D9F727E0A4E6B1E001C0A6
:100670001D92A338B207E1F713E0C3E2D3E004C050
:100680002197FE010E943C21C232D107C9F70E9486
:10069000FD0F0C9441230C9400009091780798234F
:1006A00029F490917707982381E009F480E0089578
:1006B000EDE5F3E0A0E0B8E000800EBC8111012C74
:1006C0001197A0FDFDCF0192B9F70DB4089580E018
:1006D000EDE5F3E081118FEF002481938193819305
:1006E00081930394D1F708958FB7F8944091CD0288
:1006F0005091CE026091CF027091D0028FBF809155
:100700007A07942F981B80917B07882331F0909370
:100710007C0710927B0780E008952091790792175B
:1007200040F49F5F9217A0F491E093BF889513BEA9
:10073000089581E080937B0740937A078091750745
:10074000909176070196909376078093750781E0E4
:100750000895FC018091C001882311F13FB7F894FE
:1007600082E08093E9002091F200822F90E0181639
:10077000190614F481E090E0882339F0289844E6C3
:100780004093BF014091F1004083222339F0209132
:10079000F200211103C02BE62093E8003FBF08952B
:1007A0008FEF9FEF08952FB7F89483E08093E900CF
:1007B0009091E800892F807295FF04C09091F2001B
:1007C00080E4891B2FBF08958091B70181110DC06E
:1007D00082E08093B30184E08093B4011092B6016B
:1007E0001092B50181E08093B70183EB91E0089509
:1007F000089540916B0150916C01209169013091F5
:100800006A0142175307B4F49091E8009570E1F340
:100810009091E80092FD19C08093F10080916B01E6
:1008200090916C0101968F739927892B19F48EEFA3
:100830008093E80080916B0190916C0101969093F8
:100840006C0180936B0181E0089580E00895DF9250
:10085000EF92FF920F931F93CF93DF93D82E8A01CD
:10086000EB017B01E40EF51ECE15DF0559F0D7FE36
:1008700012C0FE0184910E94F90321968111F4CFE8
:100880000FEF1FEFC801DF91CF911F910F91FF90E4
:10089000EF90DF9008958881EECF0F931F93CF9351
:1008A000DF931F92CDB7DEB782E0898342E450E048
:1008B0006EEE74E080E80E9427040E94E403DC01ED
:1008C00012960D911C910115110589F0D801ED9139
:1008D000FC910280F381E02DBE016F5F7F4FC80164
:1008E000099597FD04C0F80100851185ECCF898139
:1008F0000F90DF91CF911F910F910895615030F0CB
:100900002091F100FC0120830196F8CF289884E61D
:100910008093BF010895AF92BF92CF92DF92EF9282
:10092000FF920F931F93CF93DF936C017B018B0199
:10093000040F151FEB015E01AE18BF08C017D107E9
:1009400059F06991D601ED91FC910190F081E02D73
:10095000C6010995892B79F7C501DF91CF911F91C8
:100960000F91FF90EF90DF90CF90BF90AF900895E0
:10097000CF93DF931F92CDB7DEB76983DC01ED9192
:10098000FC910280F381E02D41E050E0BE016F5FF9
:100990007F4F09950F90DF91CF9108950F931F938B
:1009A000CF93DF938C01D0E0C0E0F801EC0FFD1F86
:1009B0006491662341F081ED92E00E94B804892B96
:1009C00011F02196F2CFCE01DF91CF911F910F91BF
:1009D000089583E08093E9008091F200882319F064
:1009E0008AE38093E80008950E94D30390E008957D
:1009F000CF93DF931F92CDB7DEB7FC018485958539
:100A000097FD08C02FEF3FEF358724870F90DF91C8
:100A1000CF910895CE0101960E94A903019719F480
:100A2000898190E0F3CF8FEF9FEFF0CF0F931F936B
:100A3000CF93DF931F92CDB7DEB78C01FC01848585
:100A4000958597FF0BC0CE0101960E94A9030197DF
:100A500071F4898190E0F80195878487F801848595
:100A600095850F90DF91CF911F910F9108958FEF92
:100A70009FEFF1CFFC018485958597FD0BC09FB753
:100A8000F89482E08093E9008091F2009FBF90E0AB
:100A9000019608959FB7F89482E08093E9008091D1
:100AA000F2009FBF90E008953FB7F89480916501F0
:100AB00090916601A0916701B091680126B5A89B4D
:100AC00005C02F3F19F00196A11DB11D3FBFBA2FE0
:100AD000A92F982F8827BC01CD01620F711D811DA0
:100AE000911D42E0660F771F881F991F4A95D1F725
:100AF00008958F929F92AF92BF92CF92DF92EF9222
:100B0000FF926B017C010E9454054B015C01C114F2
:100B1000D104E104F104B9F00E945405681979097F
:100B20008A099B09683E73408105910580F321E0A5
:100B3000C21AD108E108F10888EE880E83E0981EF9
:100B4000A11CB11CE4CFFF90EF90DF90CF90BF903D
:100B5000AF909F908F9008958F929F92AF92BF9287
:100B6000CF92DF92EF92FF920F931F93CF93DF9379
:100B70006C017B018A0180910B01882309F45CC020
:100B80008091C001882309F457C080916F0180FFD4
:100B900005C08091E00082608093E000E801B12C04
:100BA0008AEFA82E93E0892E2AE3922E209711F443
:100BB000BB20D9F10E94D30381110AC0AA94AA20B4
:100BC000D9F161E070E080E090E00E947905EECF1D
:100BD0008C171D0611F00CF08C2F9FB7F8948092A3
:100BE000E9002091E80025FD02C09FBFDFCF282F3C
:100BF00030E0C21BD30BF701815020F041914093AC
:100C0000F100FACFE20EF31EBB2021F09092E80033
:100C1000B12CEBCF8091E80085FDE7CF9092E80002
:100C2000BB24B394209709F3F3CF5D9884E68093B7
:100C30006E01101611063CF081E090E0F6019383FE
:100C4000828310E000E0C801DF91CF911F910F91E6
:100C5000FF90EF90DF90CF90BF90AF909F908F90DC
:100C600008956F927F928F929F92AF92BF92CF9290
:100C7000DF92EF92FF920F931F93CF93DF934C017C
:100C80007B01C22F102F98E0A92EB12C642E669400
:100C900066946694712CCA0187709927892B79F51F
:100CA000D40117962D913C91C7019927B9010E9453
:100CB0002821269DF001279DF00D369DF00D112471
:100CC0008E0F9F1FD4011596ED91FC91E80FF91F2F
:100CD0002081111112C0C095C223C083DF91CF9132
:100CE0001F910F91FF90EF90DF90CF90BF90AF904A
:100CF0009F908F907F906F900895C22BEECFD0E0A1
:100D00004770C42ED12C83E0660C771C8A95E1F7DE
:100D10009E0101C0220F4A95EAF7012FA301B701F6
:100D2000C4010E943106A301485F5F4FC5018C19C1
:100D30009D0902C0D595C7958A95E2F7A7CF5F9226
:100D40006F927F928F929F92AF92BF92CF92DF92DB
:100D5000EF92FF920F931F93CF93DF93EC016A30D2
:100D6000F1F48D859E859C878B878C892F853889AA
:100D7000820F932F911D988B8F8781E090E0DF91F8
:100D8000CF911F910F91FF90EF90DF90CF90BF9088
:100D9000AF909F908F907F906F905F900895AB84FD
:100DA000BC84693031F429E0A20EB11CBC86AB864C
:100DB000E4CF3DEFA3163FEFB3060CF45DC08F8187
:100DC0009885A816B9060CF057C0CF84D8888DEF47
:100DD000C8168FEFD8060CF44FC089859A85C816BF
:100DE000D9060CF049C0603208F46FE780EE860F38
:100DF0009FE9960F9A3118F49FEFC91AD90A8C30DF
:100E000011F08B3119F42FEFC21AD20A869534E013
:100E1000839FC00111249C01225D3B4F7901912CDD
:100E2000812C162F1170F701E80DF91D5490111146
:100E30002DC0352D3F70532E3501680C791C8C81E7
:100E4000882361F001E089899A89892B09F000E003
:100E50002FE0A601B301CE010E9431060989252D9C
:100E6000A601B301CE010E9431068FEF881A980ABD
:100E700094E089169104B9F68B8990E004962B854D
:100E80003C85820F931F9C878B8777CF52948FE08E
:100E90005822D2CF2D9A0895BC0190E080E00C94A6
:100EA00079058FB18095807F669B88601C9B8460EC
:100EB0000895480F592F511D14161506D4F5803882
:100EC0009105BCF597FF02C090E080E041385105E4
:100ED00014F040E850E0481BFB0177FD379633E003
:100EE000F595E7953A95E1F7F695FE2FEE27F795FC
:100EF000E795E80FF91FE35AFC4F6770772781E009
:100F000090E001C0880F6A95EAF7382F213041F44C
:100F1000415078F08191DF011197832B8C93F8CFAA
:100F20008095415030F09191DF01119798239C9367
:100F3000F8CF089580389105B8F460347105A0F4B5
:100F400020E191E061FD94E060FD990F62FD9295D2
:100F5000687F269FD0011124A80FA35ABC4F8C9103
:100F600040FF03C0892B8C93089590958923FBCF74
:100F7000DF92EF92FF920F931F93CF93DF937C0149
:100F8000D22E8B01040F111DEB0177FF02C0D0E0C0
:100F9000C0E0C8010134110514F080E490E0C817E6
:100FA000D9073CF44D2DBE01C7010E949A07219636
:100FB000F0CFDF91CF911F910F91FF90EF90DF90D5
:100FC0000895CF92DF92EF92FF920F93CF93DF932A
:100FD0006C017B01C42FD22F6034710520F4202FC7
:100FE000C6010E945907B7016D0F711D615071094B
:100FF000603471052CF4202F4C2FC6010E94590734
:10100000202F4D2FB701C6010E94B807C6018C0FD3
:10101000911D202F4D2FB7010197DF91CF910F9197
:10102000FF90EF90DF90CF900C94B807CF92DF92B3
:10103000EF92FF926B017C0120E030E04EEF52E432
:101040000E94A71F6FE71816F4F020E030E040E0A0
:1010500053ECC701B6010E94491A60E887FD13C02E
:1010600020E030E0A901C701B6010E94A71F20E0DF
:1010700030E040E05FE387FD0CC0C701B6010E948D
:10108000311E0E940F1F862FFF90EF90DF90CF90B0
:101090000895C701B6010E94301EF3CF8F929F9230
:1010A000AF92BF92CF92DF92EF92FF92CF93DF93F6
:1010B000C1ECD1E0C884D984EA84FB84A7019601FD
:1010C0000E94301E4B015C01A70196016C857D8555
:1010D0008E859F850E94301E9B01AC01C501B40125
:1010E0000E949D1E9B01AC0160E070E080E89FE3E0
:1010F0000E94301E20E030E04CE752E40E94AF1A1C
:10110000DF91CF91FF90EF90DF90CF90BF90AF90A5
:101110009F908F900C9416086F927F928F929F925F
:10112000AF92BF92CF92DF92EF92FF920F931F93F5
:10113000CF93DF934C017B01C22F102F98E0A92E93
:10114000B12C642E669466946694712CCA018770E3
:101150009927892B79F5D40117962D913C91C701D8
:101160009927B9010E942821269DF001279DF00DA5
:10117000369DF00D11248E0F9F1FD4011596ED9111
:10118000FC91E80FF91F2081111112C0C095C223F4
:10119000C083DF91CF911F910F91FF90EF90DF906F
:1011A000CF90BF90AF909F908F907F906F90089559
:1011B000C22BEECFD0E04770C42ED12C83E0660C5A
:1011C000771C8A95E1F79E0101C0220F4A95EAF744
:1011D000012FA301B701C4010E948C08A301485F3D
:1011E0005F4FC5018C199D0902C0D595C7958A9599
:1011F000E2F7A7CF4F925F926F927F928F929F926A
:10120000AF92BF92CF92DF92EF92FF920F931F9314
:10121000CF93DF93EC016D3071F06A30F9F48D8576
:101220009E859C878B878C892F853889820F932F89
:10123000911D988B8F8781E090E0DF91CF911F9176
:101240000F91FF90EF90DF90CF90BF90AF909F9065
:101250008F907F906F905F904F900895EB84FC8407
:10126000693031F448E0E40EF11CFC86EB86E3CFF4
:10127000603231F48B8990E00296E80EF91EF5CFCA
:10128000162F8F819885E816F9060CF04DC08F84D3
:1012900098885BEF85165FEF95060CF445C089854D
:1012A0009A85881699060CF03FC080EE860F8F3520
:1012B00008F038C0862F90E09C012E5B3C4FF9016E
:1012C000A490B12CA5014D595D4F5A01FC01ED5B75
:1012D000FC4F5490F9012491521AD12CC12CC51401
:1012E00018F5F501EC0DFD1D449037016C0C7D1CCB
:1012F0008C81882361F001E089899A89892B09F022
:1013000000E02FEFA401B301CE010E948C080989EF
:10131000242DA401B301CE010E948C08FFEFCF1A47
:10132000DF0ADDCF8FE3C7CF612F70E0FB01ED5BFC
:10133000FC4F84916E5B7C4FFB016491E82FE61BB0
:101340008B89E80FFF27FF1F8B859C85E80FF91F0E
:10135000FC87EB8770CF682F8DE597E00C94FA0837
:10136000089590E080E00895FB0101900020E9F7E6
:101370003197AF01461B570BDC01ED91FC910280C8
:10138000F381E02D09948F929F92AF92BF920F93B9
:101390001F93CF93DF93CDB7DEB7A1970FB6F89425
:1013A000DEBF0FBECDBF19A2423008F44AE08E0165
:1013B0000F5D1F4F842E912CB12CA12CA5019401FF
:1013C0000E94FF1DE62FB901CA01EA3004F5E05D75
:1013D000D801EE938D01232B242B252B79F790E058
:1013E00080E0109729F0BD018DE597E00E94B409D7
:1013F000A1960FB6F894DEBF0FBECDBFDF91CF919F
:101400001F910F91BF90AF909F908F900895E95CCE
:10141000DFCFDF92EF92FF920F931F93CF93DF9373
:10142000242F1092470330914403E32FF0E0EB5D4B
:10143000FC4F332319F031501292FBCF109244032A
:1014400004E213E040E00E94B618809144038F5FED
:1014500021E0280FE82FF0E0EF5DFC4F9381911120
:1014600092C08093440311E0CAE0DBEA8091470315
:1014700081115CC10E9474038823C1F380917707B6
:10148000809378070E945107809377070E94670333
:1014900080E20E944D03882339F080912303882342
:1014A00019F081508093230380E40E944D03009142
:1014B0004503882371F02091230380914603089F00
:1014C000C00111240197281719061CF42F5F2093DF
:1014D000230380E80E944D03882339F08091230381
:1014E000801718F0801B8093230380E10E944D0336
:1014F000882389F080912303209146032150330BE8
:10150000029FA001039F500D1124841715061CF49F
:10151000080F0093230388E00E944D03882371F095
:10152000E0912303A0914403E130F1F1A8F1E2300E
:1015300009F040C0A11129C01092440384E00E9428
:101540004D03882359F0E0914403EE2339F0E15034
:10155000E0934403F0E0EF5DFC4F138200E0609104
:10156000220370E08091210390E020914503201731
:1015700078F121E043E30C9F800D911D11240E941E
:10158000B8070F5FECCF822F63CFA150EA2FF0E0B6
:10159000EF5DFC4F1382CECF10934703B0E0AF5DF9
:1015A000BC4F13961C92CACFAA2341F2A150A0931C
:1015B0004403F4CFF0E0EC5CF94FE49181E08A0F52
:1015C00080934403B0E0AF5DBC4F1396EC93B6CF6D
:1015D00000E06091220370E080914603801780F064
:1015E0000C9F600D711D1124603471053CF48091D5
:1015F000210321E04FE190E00E9459070F5FE9CFFE
:1016000000E080914603081798F50C9F70011124A3
:10161000D12C4091450380912203282F30E0809106
:10162000210390E0D41610F5DC9E800D911D11244D
:10163000029690936B0780936A0790936907809353
:101640006807C701820F931F029690936D078093DE
:101650006C07ED2DF0E0049FE00DF11D1124EC5C12
:10166000F94F84910E94AB09D394D3CF0F5FC9CFB8
:10167000909123039D9F812D1124869560912203D3
:1016800070E08C9F600D711D1124282F220F820F96
:10169000981BE0912103F0E000E02BE04BE0DF013C
:1016A0009C9FA00DB11D1124CD010E94E1079091D6
:1016B00023039D9F812D112486956091220370E064
:1016C0008C9F600D711D112461507109282F220F0C
:1016D000820F292F281B8091210390E02C9F800DE1
:1016E000911D112401E02DE04DE001970E94E107DA
:1016F000209122032850330B8091210390E0029621
:1017000090936B0780936A079093690780936807AB
:1017100030936D0720936C0764E273E08DE597E0EA
:101720000E94B40980E00E945803A0CE84E293E0B6
:10173000DF91CF911F910F91FF90EF90DF900C946C
:10174000241A0E94CE0469E471E081ED92E00E94C7
:10175000B409FFCF1F93CF93DF93EC01162F86E1DF
:1017600094E0662359F070E0888199810E947B2281
:1017700099838883892B21F48FE094E00E94A10B48
:101780001A83DF91CF911F910895CF93FC0193812C
:10179000911104C089ED93E00E94A10BA081B18159
:1017A00091509383A90FB11DCC91992351F062817F
:1017B000862F86958695891720F06695CF010E9421
:1017C000AA0B8C2FCF9108951F93CF93DF93EC0139
:1017D000162F6A818B81681304C0660FCE010E94A8
:1017E000AA0B88819981EB8121E02E0F2B83E80FD2
:1017F000F92FF11D1083DF91CF911F9108951F9351
:10180000CF93DF93EC01162F87EF93E0662371F0FF
:1018100084E0689FB0011124888199810E947B2215
:1018200099838883892B21F480EF93E00E94A10B98
:101830001A83DF91CF911F910895CF92DF92EF929B
:10184000FF92FC019381911104C082EC93E00E940D
:10185000A10BA081B1819150938384E0989F900166
:101860001124A20FB31FCD90DD90ED90FC90992331
:1018700051F06281862F86958695891720F06695AE
:10188000CF010E94FF0BC701B601FF90EF90DF90E0
:10189000CF900895CF92DF92EF92FF92CF93DF9394
:1018A000EC016A017B016A818B81681304C0660FB9
:1018B000CE010E94FF0B288139819B8181E0890F35
:1018C0008B8344E0949FC0011124820F931FFC017D
:1018D000C082D182E282F382DF91CF91FF90EF90BC
:1018E000DF90CF9008951F920F920FB60F921124A0
:1018F0008F939F938091E1009091E100937F90936B
:10190000E10083FF0FC01092E90091E09093EB009B
:101910001092EC0092E39093ED001092C00198E0D9
:101920009093F00082FF22C093E09093E9009091A1
:10193000F200992319F09AE39093E80090916E01D8
:10194000992341F090916E01915090936E01911105
:1019500001C05D9A9091BF01992341F09091BF0120
:1019600091509093BF01911101C0289A84FF18C033
:101970008091E2008E7E81608093E2008091E100A0
:101980008F7E8093E10080916F018E7E80618093D5
:101990006F019F918F910F900FBE0F901F90189520
:1019A00080FFF7CF8091E2008E7E80618093E2001D
:1019B0008091E1008E7E8093E10080916F018E7EA8
:1019C0008160E5CF1F920F920FB60F921124CF9234
:1019D000DF92EF92FF920F931F932F933F934F93BA
:1019E0005F936F937F938F939F93AF93BF93EF9387
:1019F000FF93CF93DF93CDB7DEB76C97DEBFCDBF3C
:101A00001092E9008091E80083FF25C068E0CE01D4
:101A100045960E947E0482EF8093E8008D8987FFBF
:101A200039C09091E80090FFFCCF982F907609F094
:101A300034C19E894F89588D2F89F88C911131C0FE
:101A4000803861F5809170018093F1001092F1006F
:101A50008EEF8093E8006C960FB6F894DEBF0FBE51
:101A6000CDBFDF91CF91FF91EF91BF91AF919F914A
:101A70008F917F916F915F914F913F912F911F9126
:101A80000F91FF90EF90DF90CF900F900FBE0F90CF
:101A90001F9018959EEF9093E800C7CF1092F10029
:101AA000D5CF913059F48111D3CF4130510581F612
:101AB000809170018D7F80937001CACF933049F47B
:101AC0008111C6CF4130510519F6809170018260B5
:101AD000F2CF953041F48091E80080FFFCCF206880
:101AE0002093E300B5CF963009F0A9C00B8D1C8D73
:101AF00022E01092E90010926C0110926B01F21238
:101B00002EC010926A01109269010E944D041F823A
:101B100099E09983FA8291E09E8390EA98879AEF00
:101B2000998720916B0130916C01275F3F4F3C8377
:101B30002B838D831092E90010926C0110926B013F
:101B400010936A010093690149E050E0BE016F5FA4
:101B50007F4F80E00E9427040E944D0479CF1093AC
:101B60006A01009369010E94E403DC0112960D9161
:101B70001C910115110509F451C1D801ED91FC9199
:101B80000480F581E02DBE016B5E7F4FC801099591
:101B9000009709F03EC1F80100851185EACFF3E016
:101BA000FF120EC08F89882309F440C0823061F48F
:101BB00040E867E082E595E00E945E0F811148CF22
:101BC00081E28093EB0047CF813029F440E86BE05D
:101BD00086E495E0F1CF833099F70E94E403DC01BD
:101BE0001296ED90FC908E010F5F1F4F6801E1147B
:101BF000F10479F0D701ED91FC910680F781E02D99
:101C0000B801C7010995080F111DF701E084F1849F
:101C1000EECFD8011C92F60101900020E9F7319730
:101C2000BF016C197D0940E0C601C6CF60E375E0D5
:101C3000FB01449150E080E80E94270409CF9730CF
:101C400009F4BECF983021F481E08093F10000CFF9
:101C5000993009F0FDCE837009F0B2CFE3E1F1E0F5
:101C600081E031E096E32191222371F08093E90035
:101C70003093EB00DF0111972C912093EC009093AF
:101C8000ED008F5F873079F78EE78093EA0010923E
:101C9000EA008F898093C001DBCE8B8D9C8D1092E2
:101CA000E90010926C0110926B0190936A0180938D
:101CB0006901898D811192C08E899D89913A49F47B
:101CC000813209F07DCF47E050E064E071E080E0D0
:101CD000B3CF913209F074CF833269F48F89988D34
:101CE000B0E0A0E08093000190930101A093020175
:101CF000B0930301ADCE803269F48091E80082FF99
:101D0000FCCF67E084E091E00E947E048BEF80933B
:101D1000E8009ECE823209F09BCE8F8980930B0122
:101D2000EEEFFFE7859194918B3F9C4D51F1E0E000
:101D3000F8E08091040190910501A0910601B09115
:101D40000701803B9440A105B105F1F480910B019E
:101D500080FD1AC0EE3F8AE0F80789F587E797E72C
:101D6000918380838091600080936D0188E19BE086
:101D70000FB6F894A895809360000FBE9093600012
:101D800067CEEEEFFAE0D5CF808191818737974714
:101D900009F05ECEA8958091600088618093600014
:101DA00080916D0180936000EE3F2AE0F20789F098
:101DB0008091FE0A9091FF0A9183808349CE8081B1
:101DC00091818737980751F29093FF0A8093FE0A1A
:101DD000C5CF1092FF0A1092FE0A3ACE0E94E40389
:101DE000DC0112960D911C910115110509F4E8CE44
:101DF000D801ED91FC910190F081E02DBE016B5E68
:101E00007F4FC8010995811123CEF8010085118506
:101E1000EBCF181619060CF41BCED2CEF1E0FF1250
:101E2000BECE64E375E004CF1F920F920FB60F92FF
:101E300011242F933F938F939F93AF93BF938091E0
:101E4000CD029091CE02A091CF02B091D0023091FC
:101E5000640123E0230F2D3758F50196A11DB11D14
:101E6000209364018093CD029093CE02A093CF0281
:101E7000B093D0028091650190916601A0916701B5
:101E8000B09168010196A11DB11D809365019093E9
:101E90006601A0936701B0936801BF91AF919F91D4
:101EA0008F913F912F910F900FBE0F901F9018951B
:101EB00026E8230F0296A11DB11DD2CFEF92FF920B
:101EC0000F931F93CF93DF93F82E192FE62E042F35
:101ED00081E0860F880F0E94F90383E00E94F903D6
:101EE000CF2DD12FEC0EFD2EF11CCE15DF05B9F054
:101EF00007FF13C0FE0184910E94F903182F80E0B0
:101F00000E94F903812321968111EFCFDF91CF91B8
:101F10001F910F91FF90EF9008958881EDCF81E0A0
:101F2000F5CFCF93DF93E1EDF2E01382128288EEDA
:101F300093E0A0E0B0E084839583A683B7838DE12E
:101F400091E0918380838FEF9FEF95878487E2E70D
:101F5000F7E01582168280E187831482138211864E
:101F600087E491E091838083EDE5F7E013821282AC
:101F70008BE391E091838083ADE5B3E0B683A583E5
:101F800060E870E07087678340E450E052874187E3
:101F900087E0848B91E0938B16861586108A1786CE
:101FA0001486138621E030E0328B218B1482E8E422
:101FB000F3E013821282CFE2D1E0D183C083B683F3
:101FC000A583708767835287418785E0848B938BD5
:101FD00016861586108A178614861386328B218BF7
:101FE0001482E1E2F3E09CE09083918393E094A378
:101FF00085A316A2DF91CF910895CF93DF93CDB73C
:10200000DEB7CD54D1090FB6F894DEBF0FBECDBFF9
:10201000789484B5826084BD84B5816084BD85B5C3
:10202000826085BD85B5816085BD80916E008160CF
:1020300080936E0010928100809181008260809375
:102040008100809181008160809381008091800077
:1020500081608093800080919100826080939100E4
:1020600080919100816080939100809190008160C7
:10207000809390008091C10084608093C100809122
:10208000C10082608093C1008091C1008160809313
:10209000C1008091C30081608093C3008091C00023
:1020A00082608093C0008091C20081608093C200F2
:1020B00080917A00846080937A0080917A008260B7
:1020C00080937A0080917A00816080937A00809179
:1020D0007A00806880937A001092C001109270019B
:1020E00010926F018091D70081608093D70080EAC1
:1020F0008093D80089B5806189BD89B5826089BD2A
:1021000009B400FEFDCF61E070E080E090E00E9445
:1021100079058091D8008F7C80618093D800809170
:10212000E000807F8093E0008091E1008E7E8093CC
:10213000E1008DE08093E200559A209A81EC809333
:102140007C0085B1806F85B984B1877E84B984B104
:10215000876E84B95E9A5F988AB1806D8AB9769AE3
:102160006E9881B3806F81BB899880B38D7080BB7E
:1021700080E58CBD81E08DBD85E090E00E944C073C
:102180005F9A85E090E00E944C075E985C98EAE0D8
:10219000F6E087E196E024912EBD00000DB407FE25
:1021A000FDCF31968E179F07B1F75C9A81E8809337
:1021B00064008091650081608093650080E00E94EA
:1021C00058030E94510787FF15C05C9885EA8EBDB1
:1021D00000000DB407FEFDCF5C9A2E982F982D9825
:1021E0008091640080628093640081E083BF889561
:1021F00013BEFCCF0E94510782FF48C02D980E9459
:10220000510784788438E1F40E944A0788EC90E012
:102210000E944C072F9882E090E00E94A71D8F3FFC
:1022200029F06FEF82E090E00E94AF1D84EF91E013
:102230000E944C072F9A0E94510784788438D9F362
:102240000E94510784718431E1F40E944A0788ECAE
:1022500090E00E944C072E9882E090E00E94A71D1B
:10226000882329F060E082E090E00E94AF1D84EFB7
:1022700091E00E944C072E9A0E945107847184318C
:10228000D9F388EC90E00E944C07B4CF0E944A0733
:1022900082E090E00E94A71D882309F4B6C03E9A10
:1022A0003F9A81E090E00E94A71D8470582E81E043
:1022B00090E00E94A71D81FF0FC051102E9800EFE3
:1022C0001FEFB8E08B2E912C0E94510786FFA0C013
:1022D0002E9A2F9A0E944A0782E390E00E944C07B0
:1022E0000E9451078111F8CF8FEF9FEF9093DE028C
:1022F0008093DD0240E050E060E271EC4093C10168
:102300005093C2016093C3017093C40180E090E0D8
:10231000A0E2B1E48093C5019093C601A093C701E8
:10232000B093C8014093C9015093CA016093CB0197
:102330007093CC018093CD019093CE01A093CF01F7
:10234000B093D001912C9394E92DF0E0E45BFE4F23
:1023500080818111F8CF1C8282E090E00E9456219A
:102360009A83898382E08B83A12CB12C10E0A9147D
:1023700008F0E9C1CA2CD12CF601E45BFE4F908134
:102380009A3209F415C10CF0FCC0953209F40AC167
:102390000CF0E6C00FEF992309F4E8C08824839479
:1023A000810EA12FB0E0AF58BE4FBC920B2D10E0B4
:1023B000772473947B0C085F1F4F28962FAD2897C6
:1023C000223409F0F7C0BE016F5B7F4FC601855B09
:1023D0009E4F0E94D418000F111F000F111FF8010B
:1023E000EF58FE4F608371838283938323968EAD73
:1023F0009FAD23978C549140C816D90619F0AA2492
:10240000AA94A80E0B2DB72C98C13E983F9849CF9F
:10241000552029F00430110511F42E9A2F9881E0EF
:102420000E945803980117FF04C022273327201B5E
:10243000310B27703327C80117FD0796A3E0959548
:102440008795AA95E1F717FF05C00197A401421BE4
:10245000530B9A01AC015695542F44275795479535
:10246000435A5C4FB0E0A0E01401221A330A8F3FB8
:102470006FEF96070CF453C05A01E4E9AE0EB11C9D
:102480006A0170E060E0FD01E65AFA4F3F018F3FBC
:102490009807D9F0F301E60FF71F4490E42DF0E020
:1024A000022E02C0EE0FFF1F0A94E2F72D96FFAF37
:1024B000EEAF2D97F601F4892696FFAF26972C965E
:1024C0004FAC2C974F2AF601448A21153105D9F0DB
:1024D000F301E60FF71F4490E42DF0E0022C02C058
:1024E000F595E7950A94E2F72D96FFAFEEAF2D979D
:1024F000F501F0812696FFAF26972C964FAC2C97CE
:102500004F2AF50140826F5F7F4FFFEFAF1ABF0A7E
:10251000EFEFCE1ADE0A6835710509F0B8CF0196E3
:10252000A85ABF4F40585F4FA03BB10509F09FCF5D
:1025300080E00E9458038FE090E00E944C070F5FFC
:102540001F4F0931110509F0BFCE552011F02F9A08
:102550002D9880E991E00E944C070E944A07BCCE6A
:102560009832F1F001EF993209F018CF80E8800F2E
:10257000803738F5602FCE0101960E94E40B812E42
:10258000DCC09F3299F034F49B32C9F002E49D32F2
:1025900069F304CF9E3541F00EEF983739F3FECE44
:1025A00000EFE4CF06E4E2CF05E4E0CF04E4DECFC1
:1025B00003E4DCCFBE016F5B7F4FCF010ACF01E4A4
:1025C000D5CF80EC800F803408F08DC0023431F418
:1025D00028968FAD28978054803428F028963FADF8
:1025E0002897313F09F400E460EC862E800EC82C59
:1025F000D12CEC81EE2309F4BDCF89819A81E80FBB
:10260000F92FF11D3197808190E8980F903708F4E9
:1026100054C0E0ECE80FE03408F0ACCFE730F8F459
:10262000F0E0EB5EFC4E0C943C21B3182D132D13FF
:10263000B018B0181C13B01854E0E52E36E0381569
:10264000F8F0F601EA5DFC4E0C943C2150136B133C
:102650006B133E133E134D133E1342E0E42E46E04F
:10266000481570F0F601E95CFC4E0C943C215013C7
:10267000531353133E133E134D133E1333E0F32E07
:10268000FE14D8F0EF1076CF853441F178F4803421
:1026900078F02E961FAE2E9710C024E0F22EF0CFC9
:1026A00095E0F92EEDCFB2E0FB2EEACF863489F328
:1026B0002E964FAC2E9741105DCF77247394710EF8
:1026C000CE0101960E94C50BE12FF0E0EF58FE4FBE
:1026D0008083172D8ECFA2E0FA2EEFCF21E02E9629
:1026E0002FAF2E9747CF003F11F460EF44CF013F4B
:1026F000E1F4EC8189819A81EE2309F438C2E80F74
:10270000F92FF11D31978081803F09F424C5DD2424
:10271000D394D10ECE0101960E94C50BE12FF0E0BB
:10272000EF58FE4F80831D2DE4CF88248394810EC3
:10273000E12FF0E0EF58FE4F0083A394182D289668
:102740000FAF289714CEE12EF12C8C81A7014F58A2
:102750005E4F7A01882341F01F5FCE0101960E94EF
:10276000C50BD7018C93EFCF8FEFFA01808311E077
:1027700089819A810E94F22111113CC087E196E083
:102780000E94CE0469E471E081ED92E00E94B409F8
:1027900080E090E0A0E0B0E48093910190939201FA
:1027A000A0939301B093940180E090E0A0EAB0E49C
:1027B0008093950190939601A0939701B09398010F
:1027C0009EEF909371011092720185E480937301E2
:1027D0001092740183E48093750121E020937601C7
:1027E000909377018093780181E4809379018FEF52
:1027F00080937A019E012F5D3F4F27963FAF2EAF0A
:1028000027970E947403882309F428C480917707CE
:10281000809378070E945107809377070E9467038F
:1028200080E80E944D03882339F08091B20188230B
:1028300019F081508093B20180E10E944D038823FA
:1028400029F08091B2018F5F8093B20180E20E94F3
:102850004D0381111092B10180E40E944D03882341
:1028600019F081E08093B10188E00E944D03882334
:10287000E9F00091B20110E08091B101882309F4E0
:1028800078C10F581E4FD8016C9170E090E080E045
:102890000E944E1A40E00E94090A0091B20110E025
:1028A0000F581E4F0E94161FF801608384E00E949B
:1028B0004D03882309F451C380E4E1E7F1E0DE0130
:1028C000119601900D928A95E1F7E1EDCE2EE1E0AF
:1028D000DE2E10E08090C1019090C201A090C30153
:1028E000B090C401A50194016091C5017091C60129
:1028F0008091C7019091C8010E94301E2B013C01BC
:10290000612F012E000C770B880B990B0E94501A37
:1029100020E030E048E752E40E949D1E9B01AC019C
:10292000C301B2010E94AF1AA50194010E94311E99
:102930004B015C0125961FAE259788E090E00E9430
:10294000562123969FAF8EAF2397F2E02496FFAFD8
:1029500024979E012F5F3F4F7901D701ED917D01B3
:10296000E03408F01AC1F0E03896EE0FFF1FEE0FCA
:10297000FF1F21E030E02C0F3D1FE20FF31F4081CD
:10298000518162817381CE018F5B9F4F0E944A0CFF
:1029900027964EAD5FAD27974E155F05F1F6CE0138
:1029A0008F5B9F4F0E941D0C4B015C0123968EADE7
:1029B0009FAD23970E94F221D6018D929D92AD92F8
:1029C000BD926D011F5F1F3309F084CFC090C1011C
:1029D000D090C201E090C301F090C401A70196011C
:1029E00060E070E0CB010E94301E4B015C01A7014A
:1029F00096016091C5017091C6018091C7019091C7
:102A0000C8010E94301E9B01AC01C501B4010E94A7
:102A10009D1E20E030E04CE752E40E94AF1A0E9475
:102A2000160821E04FE370E060E0082E000C990BDF
:102A30000E94B80760E070E0CB010E944E08682F4A
:102A4000880F770B6034710530F421E04FE390E09C
:102A500080E00E945907C090C101D090C201E0906F
:102A6000C301F090C40120E030E0A901C701B60124
:102A70000E94A71F20E030E040E05FE387FD1AC11D
:102A8000C701B6010E94311E0E940F1F0E94501AFA
:102A90006B017C018090C5019090C601A090C70198
:102AA000B090C80120E030E0A901C501B4010E9446
:102AB000A71F20E030E040E05FE387FD00C1C501D3
:102AC000B4010E94311E0E940F1F0E94501A9B01E8
:102AD000AC01C701B6010E94491A18160CF4F4C0E3
:102AE00060E070E0CB010E944E08182F4090C101B9
:102AF0005090C2016090C3017090C401A301920183
:102B0000C701B6010E94301E2B966CAF7DAF8EAF11
:102B10009FAF2B97A3019201C501B4010E94301E03
:102B20009B01AC012B966CAD7DAD8EAD9FAD2B970F
:102B30000E949D1E20E030E04CE752E40E94AF1A54
:102B40000E941608612F110F770B6150710921E067
:102B500043E0082E000C990B0E94B80720E030E0FB
:102B600040E85FE3C701B6010E94311E91CF10E03B
:102B7000FFCD000F111F000F111F0F561E4FD80160
:102B80006D917D918D919C9143E00E94090AF8011D
:102B9000608371838283938389CEE134A9F4CE016B
:102BA0008F5B9F4F0E941D0C2B013C01CE018F5B60
:102BB0009F4F0E941D0C9B01AC01C301B2010E94FA
:102BC000311EAB01BC01DFCEE23499F4CE018F5B44
:102BD0009F4F0E941D0C2B013C01CE018F5B9F4F2C
:102BE0000E941D0C9B01AC01C301B2010E94301E6A
:102BF000E8CFE33499F4CE018F5B9F4F0E941D0C08
:102C00002B013C01CE018F5B9F4F0E941D0C9B014D
:102C1000AC01C301B2010E94AF1AD3CFE43499F4DE
:102C2000CE018F5B9F4F0E941D0C2B013C01CE01FA
:102C30008F5B9F4F0E941D0C9B01AC01C301B20131
:102C40000E949D1EBECFE53489F4CE018F5B9F4F5D
:102C50000E941D0C2B013C01CE018F5B9F4F0E94F7
:102C60001D0CA30192010E94AC1FABCFE63489F486
:102C7000CE018F5B9F4F0E941D0C2B013C01CE01AA
:102C80008F5B9F4F0E941D0CA30192010E94501F59
:102C900098CFB501A401EE3F09F475CEE03409F0F8
:102CA0007ECECE018F5B9F4F0E941D0CAB01BC01FD
:102CB000705869CEC701B6010E94301EE5CEC5012D
:102CC000B4010E94301EFFCEC090C901D090CA014D
:102CD000E090CB01F090CC0120E030E0A901C701E9
:102CE000B6010E94A71F20E030E040E05FE387FDCF
:102CF00077C0C701B6010E94311E0E940F1F0E94BB
:102D0000501A6B017C018090CD019090CE01A09073
:102D1000CF01B090D00120E030E0A901C501B4019D
:102D20000E94A71F20E030E040E05FE387FD5DC028
:102D3000C501B4010E94311E0E940F1F0E94501A4B
:102D40009B01AC01C701B6010E94491A18160CF488
:102D500051C0C701B6010E944E08182F8090C101D2
:102D60009090C201A090C301B090C401A50194014C
:102D700060E070E0CB010E94301E2B013C01A501F8
:102D800094016091C5017091C6018091C701909135
:102D9000C8010E94301E9B01AC01C301B2010E9418
:102DA0009D1E20E030E04CE752E40E94AF1A0E94E2
:102DB0001608612F110F770B6034710540F4082E4F
:102DC000000C990B21E043E001970E94590720E095
:102DD00030E040E85FE3C701B6010E94311E91CFA9
:102DE000C701B6010E94301E88CFC501B4010E9400
:102DF000301EA2CF6091D1017091D2018091D30198
:102E00009091D4010E944E08E82EE5EDF1E029965C
:102E1000FFAFEEAF2997AA24A394B12C65012996A0
:102E2000AEADBFAD29976D917D918D919D91299604
:102E3000BFAFAEAF29970E944E08082F880F110B25
:102E40000E2C000CFF08C501019738016E187F0891
:102E500077FE03C0719461947108B2E06B1671043F
:102E600054F4302F212F8501C32ED22E3E2D2F2D2D
:102E70007C01832F922F0E151F0554F03C2D2D2D14
:102E80006C01832F922F302F212F8701E32EF22EFA
:102E90004701801A910A1C012C183D0837FE03C017
:102EA000319421943108240197FE03C0EFEF4E1AAC
:102EB0005E0A55944794C816D9062CF581E0282F50
:102EC000880F330B2D963FAF2EAF2D97E016F106EE
:102ED000E4F041E0B801C60132E06316710414F475
:102EE000B601C8010E949A074218530857FE08C04D
:102EF0002D964EAD5FAD2D97C40ED51E480C591CB6
:102F00000F5F1F4FE3CF8FEFDACF2996EEADFFAD06
:102F10002997349760817181828193810E944E0844
:102F2000E82E5FEFA51AB50A6EE3A616B10409F004
:102F300075CF80E00E9458030E9474038823E1F358
:102F400080917707809378070E94510780937707D5
:102F500084E00E944D03882369F331E9C32E31E0F8
:102F6000D32E41E7E42E41E0F42E10E000E0109271
:102F70006B0710926A071092690710926807109306
:102F80006D0700936C07D6018D909D90AD90BD901C
:102F90006D01A5019401C501B4010E94FC1F68E503
:102FA00071E081111BC024013501E89477F82FEFFF
:102FB0003FEF4FE75FE7C301B2010E94FC1F8111A1
:102FC00055C02FEF3FEF4FE75FE7C301B2010E940B
:102FD000491A18160CF04AC06CE571E08DE597E0CF
:102FE0000E94B409E0E4F0E0F0936B07E0936A0715
:102FF000F0936907E093680710936D0700936C07DF
:10300000D7016D917D0170E090E080E040E10E9489
:10301000C309095F1F4F0833110509F0A8CF80913C
:10302000B201B7E08B9FC0011124E0E2F0E0F09321
:103030006B07E0936A07F0936907E0936807909342
:103040006D0780936C078091B101882309F481C0DA
:103050008EE30E94AB0980E00E94580320E030E03C
:10306000232B09F4CECB0E940000CBCB2FEF3FEFF8
:103070004FE75FE4C501B4010E94A71F18161CF4B6
:1030800060E671E0ABCF2FEF3FEF4FE75FECC5019C
:10309000B4010E94491A87FDF3CF20E030E0A90176
:1030A000C501B4010E94491A87FF07C08DE20E9442
:1030B000AB09B7FAB094B7F8B0942AE037ED43EA19
:1030C0005BE3C501B4010E94311E2B013C010E944B
:1030D000161F4B015C010E944E1A9B01AC01C301FB
:1030E000B2010E94301E2B013C014AE0C501B4012F
:1030F0000E94C3098EE20E94AB0920E030E040E26A
:1031000051E4C301B2010E94AF1A2B013C010E949D
:10311000161F4B01B12CA12C4AE0C501B4010E943D
:10312000C309C501B4010E944E1A9B01AC01C30141
:10313000B2010E94301E20E030E040E251E40E94E3
:10314000AF1A0E94161F90E080E04AE00E94C30977
:1031500049CF8CE37ECFCE0101960E94C50B0FCAEA
:1031600023E0E22E6BCA95E0E92E68CAEF920F9336
:103170001F93CF93DF93E80134E047FD34E1042E41
:10318000000C550B57FF03C0519541955109E32E93
:10319000022F242FAE010E941C1BCE01DF91CF9184
:1031A0001F910F91EF900895B0E0A0E0EAEDF8E1F3
:1031B0000C94CE1D5C017B016115710519F0DB01DA
:1031C0008D939C9385010F5F1F4FF501D0818D2F4B
:1031D00090E00E94281A6C01892BB9F5DD32B9F50F
:1031E0000F5F1F4FD5011196DC91C1E05801F1E04E
:1031F000AF1AB10843E050E066E371E0C5010E94F8
:10320000311A892B69F5680182E0C80ED11C45E0AE
:1032100050E061E371E0C6010E94311A892B21F46C
:10322000680197E0C90ED11CE114F10419F0D7012F
:10323000CD92DC9260E070E080E89FEFC111FFC0AA
:1032400060E070E080E89FE7FAC05801BBCFDB3256
:1032500029F485010E5F1F4FF501D181C0E0C6CF73
:1032600043E050E06EE271E0C5010E94311A892B03
:10327000E9F0F80110E000E020E030E0A9015F0192
:10328000B0ED8B2E8D0E89E08815C8F19C2E6894C8
:1032900091F88C2F8870C2FF16C0811102C00F5F99
:1032A0001F4F3196D501DC91C92DE9CFE114F1040E
:1032B00029F00E5F1F4FF7011183008360E070E07B
:1032C00080EC9FE7BCC0882311F001501109A5E0F4
:1032D000B0E00E94BD1D9B01AC01220F331F441FB3
:1032E000551F280D311D411D511D283999E93907F8
:1032F000490799E15907A8F2C6609C2ED2CFAEEFDC
:103300008A1206C0C3FD3CC09C2E689493F8C9CFB6
:10331000DF7DD534A9F580818D3239F4C061DF01BC
:103320001296818162E070E006C0DF018B32C1F34A
:10333000119661E070E080535D01A61AB70A8A30E9
:10334000F8F4E0E8CE16ECE0DE065CF4B601660FB9
:10335000771F660F771FC60ED71ECC0CDD1CC80E5C
:10336000D11C5D01FFEFAF1ABF0A8C9180538A30E8
:10337000A8F1C4FF03C0D194C194D1080C0D1D1D48
:10338000C1FF09C0E114F10431F081E0A81AB108CD
:10339000D701AD92BC92CA01B9010E944E1AC37006
:1033A000C33009F490584B015C0120E030E0A901E2
:1033B0000E94491A882309F440C0C5E6D1E017FFEE
:1033C00005C0119501951109CDE4D1E06E01B8E178
:1033D000CB1AD10880E2E82EF12C0FC0D501B1CF75
:1033E000FE0125913591459154910E191F09C50192
:1033F000B4010E94AF1A4B015C01D501C4010E1546
:103400001F0574F72497F594E794CC16DD06A9F709
:103410008A2F880F8B2F881F8F3F49F020E030E0E4
:10342000A901C501B4010E94491A811106C082E2B6
:1034300090E090937E0780937D07C501B401CDB7DE
:10344000DEB7ECE00C94EA1D662777270C94D418BD
:1034500091110C94531D803219F089508550C8F792
:103460000895FB01DC014150504088F08D9181347A
:103470001CF08B350CF4805E659161341CF06B356B
:103480000CF4605E861B611171F3990B0895881B23
:10349000FCCF0E948B1A08F481E00895E89409C0DB
:1034A00097FB3EF490958095709561957F4F8F4F77
:1034B0009F4F9923A9F0F92F96E9BB279395F6958D
:1034C000879577956795B795F111F8CFFAF4BB0F0B
:1034D00011F460FF1BC06F5F7F4F8F4F9F4F16C06F
:1034E000882311F096E911C0772321F09EE8872FF9
:1034F000762F05C0662371F096E8862F70E060E0B5
:103500002AF09A95660F771F881FDAF7880F96952D
:10351000879597F90895990F0008550FAA0BE0E8D1
:10352000FEEF16161706E807F907C0F01216130685
:10353000E407F50798F0621B730B840B950B39F4C5
:103540000A2661F0232B242B252B21F408950A262B
:1035500009F4A140A6958FEF811D811D08950E9459
:10356000C21A0C946D1D0E945F1D38F00E94661DEA
:1035700020F0952311F00C94561D0C945C1D112421
:103580000C94A11D0E947E1D70F3959FC1F3950FB1
:1035900050E0551F629FF001729FBB27F00DB11DD7
:1035A000639FAA27F00DB11DAA1F649F6627B00D67
:1035B000A11D661F829F2227B00DA11D621F739F50
:1035C000B00DA11D621F839FA00D611D221F749F5E
:1035D0003327A00D611D231F849F600D211D822FA5
:1035E000762F6A2F11249F5750409AF0F1F08823CC
:1035F0004AF0EE0FFF1FBB1F661F771F881F9150F9
:103600005040A9F79E3F510580F00C94561D0C9434
:10361000A11D5F3FE4F3983ED4F3869577956795B7
:10362000B795F795E7959F5FC1F7FE2B880F911D22
:103630009695879597F90895A9E0B0E0E2E2FBE15D
:103640000C94CE1D6A01F22EB02E102FFBE3AF2E8C
:10365000A01608F41BE31F5F012F27E0AE014F5FA8
:103660005F4F0E947B1CBC018981982F997091301B
:1036700009F43FC09BE2E1FC04C09E2D9170E0FC88
:103680003AC05E2D5071E82FE87083FF46C084E099
:10369000911101C083E0EF2DE81B8F1508F0E0E0E9
:1036A000D6018E2F20E2552351F1992329F0D6011E
:1036B0009C93C60101966C0196012D5F3F4FE2FE7F
:1036C00024C08EE4D6018C9391E411969C931197BB
:1036D00012968C93D9018E2F90E281111BC0E20FBC
:1036E000F32FF11D10828EEF9FEF2996ECE00C94E2
:1036F000EA1D9DE2C6CF90E2C4CF2D938150811187
:10370000FCCFCE0ED11CE0E0D0CF8EE6D6018C935C
:1037100091E6DBCF9D938150E0CF482F447082FF2C
:103720003DC084E0911101C083E08F1510F4EF2DAE
:10373000E81BD6018E2F20E2552309F1992329F0A9
:10374000D6019C93C60101966C0196012D5F3F4FF7
:10375000E2FE1BC089E4D6018C938EE411968C9313
:10376000119786E412968C93D9018E2F90E28823CC
:1037700009F4B5CF9D938150FACF2D9381508111DB
:10378000FCCFCE0ED11CE0E0D9CF89E6D6018C93D8
:103790008EE611968C93119786E6E4CF9B0177FF16
:1037A00002C030E020E0A1E0B0E0911102C0B0E042
:1037B000A0E0F9013196AE0FBF1F8B2C912CBB20DE
:1037C00009F461C05401EFEFAE1ABE0AAA0DBB1D89
:1037D000FA161B0619F014F04F2D4A1B511188C020
:1037E000E3FC59C07601A42FB0E2A1114FC0C40E72
:1037F000D11C992309F45BC040E0D6011196F60173
:1038000090836D01552309F448C0012F060F9A815A
:10381000582F507184FF03C0913309F401501016E2
:103820000CF047C0093008F008E0EEE2FE2E5B0124
:10383000A01AB10885019194819491082F3F320715
:1038400029F4D601FC92F60131966F0162177307D5
:1038500094F1021713077CF5DB01A21BB30BAA241A
:10386000A394B12CAC0EBD1EAA0DBB1D11968C915C
:1038700021503109D601119628153905F4F0F601C9
:1038800080836D01DBCFB12CA12CA0CFF701B193C8
:103890007F01A150AACF9111B0CFD601942F50E350
:1038A00002C05D9391509111FCCFC40ED11C40E039
:1038B000ACCF01E0BACF80E3DBCF6217730731F4FE
:1038C000963388F4953311F4552369F0F60180831B
:1038D000FD01842F90E2811108C0A40FB11D1C923C
:1038E00090E080E002CF81E3F1CF91938150F3CF5C
:1038F000911183CF8ACF283008F027E03327DA01EF
:10390000990F311D87FD916000966105710539F4AD
:1039100032602E5F3D9330E32A95E1F708959F3F93
:1039200030F080387105610509F03C5F3C5F3D93E4
:10393000913008F08068911DDF93CF931F930F9310
:10394000FF92EF92192F987F9695E92F969596956D
:10395000E90FFF27ED53FE4F99273327EE24FF246D
:10396000A701E70105900894079428F4360FE71E95
:10397000F81E491F511D660F771F881F991F069457
:10398000A1F70590079428F4E70EF81E491F561F6B
:10399000C11D770F881F991F661F0694A1F7059018
:1039A000079428F4F80E491F561FC71FD11D880F12
:1039B000991F661F771F0694A1F70590079420F4BE
:1039C000490F561FC71FD81F990F661F771F881FE3
:1039D0000694A9F784911095177041F0D695C79574
:1039E00057954795F794E7941A95C1F7E9E6F1E002
:1039F00068941590159135916591959105907FE2A8
:103A00007395E118F10A430B560BC90BD009C0F7A7
:103A1000E10CF11E431F561FC91FD01D7EF47033E9
:103A200011F48A95E6CFE894015030F0080F0AF4BB
:103A30000027021708F4202F2395022F7A3328F04D
:103A400079E37D932A95E9F710C07D932A9589F64D
:103A5000069497956795379517951794E118F10A8D
:103A6000430B560BC90BD00998F023957E917395A3
:103A70007A3308F070E37C932013B8F77E9170617D
:103A80007D9330F0839571E37D9370E32A95E1F7A0
:103A90001124EF90FF900F911F91CF91DF91992703
:103AA00087FD9095089599278827089597F99F672E
:103AB00080E870E060E008959FEF80EC08950024B6
:103AC0000A941616170618060906089500240A9483
:103AD00012161306140605060895092E0394000C09
:103AE00011F4882352F0BB0F40F4BF2B11F460FF98
:103AF00004C06F5F7F4F8F4F9F4F089557FD9058C1
:103B0000440F551F59F05F3F71F04795880F97FBA1
:103B1000991F61F09F3F79F087950895121613065B
:103B20001406551FF2CF4695F1DF08C0161617068A
:103B30001806991FF1CF86957105610508940895BF
:103B4000E894BB2766277727CB0197F90895F99961
:103B5000FECF92BD81BDF89A992780B50895262F92
:103B6000F999FECF1FBA92BD81BD20BD0FB6F89462
:103B7000FA9AF99A0FBE019608950E94211EA59FF8
:103B8000900DB49F900DA49F800D911D1124089558
:103B90002F923F924F925F926F927F928F929F925D
:103BA000AF92BF92CF92DF92EF92FF920F931F934B
:103BB000CF93DF93CDB7DEB7CA1BDB0B0FB6F894FC
:103BC000DEBF0FBECDBF09942A88398848885F843C
:103BD0006E847D848C849B84AA84B984C884DF80AD
:103BE000EE80FD800C811B81AA81B981CE0FD11D91
:103BF0000FB6F894DEBF0FBECDBFED010895A1E270
:103C00001A2EAA1BBB1BFD010DC0AA1FBB1FEE1F56
:103C1000FF1FA217B307E407F50720F0A21BB30BA1
:103C2000E40BF50B661F771F881F991F1A9469F71D
:103C300060957095809590959B01AC01BD01CF0179
:103C40000895A29FB001B39FC001A39F700D811D75
:103C50001124911DB29F700D811D1124911D089595
:103C60005058BB27AA270E94481E0C946D1D0E9425
:103C70005F1D38F00E94661D20F039F49F3F19F453
:103C800026F40C945C1D0EF4E095E7FB0C94561D95
:103C9000E92F0E947E1D58F3BA1762077307840745
:103CA000950720F079F4A6F50C94A01D0EF4E0958C
:103CB0000B2EBA2FA02D0B01B90190010C01CA01E6
:103CC000A0011124FF27591B99F0593F50F4503E91
:103CD00068F11A16F040A22F232F342F4427585F83
:103CE000F3CF469537952795A795F0405395C9F79B
:103CF0007EF41F16BA0B620B730B840BBAF0915053
:103D0000A1F0FF0FBB1F661F771F881FC2F70EC0F1
:103D1000BA0F621F731F841F48F4879577956795C4
:103D2000B795F7959E3F08F0B0CF9395880F08F0B0
:103D30009927EE0F9795879508950E94B11E0C94D0
:103D40006D1D0E94661D58F00E945F1D40F029F411
:103D50005F3F29F00C94561D51110C94A11D0C9439
:103D60005C1D0E947E1D68F39923B1F3552391F3E6
:103D7000951B550BBB27AA2762177307840738F0DA
:103D80009F5F5F4F220F331F441FAA1FA9F335D037
:103D90000E2E3AF0E0E832D091505040E695001CEB
:103DA000CAF72BD0FE2F29D0660F771F881FBB1FA5
:103DB000261737074807AB07B0E809F0BB0B802D83
:103DC000BF01FF2793585F4F3AF09E3F510578F0AF
:103DD0000C94561D0C94A11D5F3FE4F3983ED4F360
:103DE000869577956795B795F7959F5FC9F7880F83
:103DF000911D9695879597F90895E1E0660F771FD5
:103E0000881FBB1F621773078407BA0720F0621B65
:103E1000730B840BBA0BEE1F88F7E09508950E9490
:103E2000161F6894B1110C94A11D08950E94861D5F
:103E300088F09F5798F0B92F9927B751B0F0E1F06B
:103E4000660F771F881F991F1AF0BA95C9F714C01B
:103E5000B13091F00E94A01DB1E008950C94A01D16
:103E6000672F782F8827B85F39F0B93FCCF3869554
:103E700077956795B395D9F73EF4909580957095B1
:103E800061957F4F8F4F9F4F08950E945F1D20F0D7
:103E900019F00E94661D50F40C945C1D0C94A11D39
:103EA000E92F0E947E1D88F35523B1F3E7FB6217CB
:103EB000730784079507A8F189F3E92FFF27882363
:103EC0002AF03197660F771F881FDAF7952F55274D
:103ED000442332F091505040220F331F441FD2F739
:103EE000BB27E91BF50B621B730B840BB109B1F205
:103EF00022F4620F731F841FB11D31972AF0660FE1
:103F0000771F881FBB1FEFCF9150504062F041F0E8
:103F1000882332F0660F771F881F91505040C1F7F9
:103F200093950C94991F8695779567959F5FD9F720
:103F3000F7CF9F3F31F0915020F4879577956795A3
:103F4000B795880F911D9695879597F908950E94CA
:103F50008B1A08F48FEF0895FA01EE0FFF1F3096C9
:103F600021053105A1F16115710561F48038BFE3C8
:103F70009B0749F168949038810561F08038BFEF64
:103F80009B0741F099234AF5FF3FE10531052105E3
:103F900019F1E8940894E795D901AA2329F4AB2FE5
:103FA000BE2FF85FD0F310C0FF5F70F4A695E0F766
:103FB000F73950F019F0FF3A38F49F779F930DD0FE
:103FC0000F9007FC9058089546F00C945C1D60E03B
:103FD00070E080E89FE308954FE79F775F934F93EA
:103FE0003F932F930E94AC202F913F914F915F916F
:103FF0000E94AF1A0C9409200E948B1A880B990B0F
:10400000089529F416F00C94561D0C94A01D0C94E0
:104010005C1D0E94861DA8F39638A0F707F80F9242
:10402000E8942BE33AEA48EB5FE70E94C51A0F9247
:104030000F920F924DB75EB70F920E94F420ECEAF8
:10404000F0E00E943B204F915F91EF91FF91E59549
:10405000EE1FFF1F49F0FE57E0684427EE0F441F94
:10406000FA95E1F74195550B0E946E200F9007FEDF
:104070000C9462200895DF93CF931F930F93FF92C8
:10408000EF92DF927B018C01689406C0DA2EEF017B
:104090000E94C21AFE01E894A5912591359145919F
:1040A0005591A6F3EF010E94481EFE019701A80159
:1040B000DA9469F7DF90EF90FF900F911F91CF9105
:1040C000DF9108959B01AC0160E070E080E89FE320
:1040D0000C949D1E0C94561D0C94991F0E94861DD5
:1040E000D8F39923C9F3940F511DA3F39150504075
:1040F00094F059F0882332F0660F771F881F915093
:104100005040C1F79E3F51052CF7880F911D9695A1
:10411000879597F908955F3FACF0983E9CF0BB27D8
:10412000869577956795B79508F4B1609395C1F733
:10413000BB0F58F711F460FFE8CF6F5F7F4F8F4FD1
:104140009F4FE3CF0C94A11D16F00C94991F0C9473
:104150005C1D68940C94561D0E94861DA8F399233B
:10416000C1F3AEF3DF93CF931F930F93FF92C92F49
:10417000DD2788232AF02197660F771F881FDAF73B
:1041800020E030E040E85FEB9FE3883920F0803E9C
:1041900038F021968F770E94311EE4EDF0E004C0E4
:1041A0000E94311EE1E0F1E00E943B208B01BE0144
:1041B000EC01FB2E6F5771097595771F880B990BD2
:1041C0000E94501A28E132E741E35FE30E94C21ADD
:1041D000AF2D9801AE01FF900F911F91CF91DF910C
:1041E0000E94481E0C946D1DFA01DC01AA0FBB1F32
:1041F0009B01AC01BF5728F422273327442750786E
:1042000020C0B75190F4AB2F0024469537952795E1
:10421000011CA395D2F3002071F0220F331F441F1D
:10422000B395DAF30ED00C94301E61307105A0E81E
:104230008A07B94630F49B01AC01662777278827A7
:104240009078309621F02083318342835383089500
:1042500097FB072E16F4009407D077FD09D00E9433
:10426000422107FC05D03EF4909581959F4F08951B
:10427000709561957F4F0895EE0FFF1F0590F491A3
:10428000E02D0994AA1BBB1B51E107C0AA1FBB1F4D
:10429000A617B70710F0A61BB70B881F991F5A95D2
:1042A000A9F780959095BC01CD0108950F931F93B8
:1042B000CF93DF938230910510F482E090E0E0919B
:1042C0008107F091820730E020E0B0E0A0E0309775
:1042D00099F42115310509F44AC0281B390B243003
:1042E0003105D8F58A819B816115710589F1FB0142
:1042F00093838283FE0111C0408151810281138129
:1043000048175907E0F04817590799F4109761F0DA
:1043100012960C93129713961C933296CF01DF914D
:10432000CF911F910F9108950093810710938207F9
:10433000F4CF2115310551F04217530738F0A90188
:10434000DB019A01BD01DF01F801C1CFEF01F9CF17
:104350009093820780938107CDCFFE01E20FF31F78
:10436000819391932250310939832883D7CF2091AB
:104370007F0730918007232B41F420910E0130916B
:104380000F013093800720937F0720910C0130911B
:104390000D012115310541F42DB73EB740911001B3
:1043A00050911101241B350BE0917F07F09180079C
:1043B000E217F307A0F42E1B3F0B2817390778F0FC
:1043C000AC014E5F5F4F2417350748F04E0F5F1F5B
:1043D0005093800740937F07819391939FCFF0E0A4
:1043E000E0E09CCFCF93DF930097E9F0FC01329798
:1043F00013821282A0918107B0918207ED0130E013
:1044000020E01097A1F420813181820F931F209129
:104410007F07309180072817390709F061C0F093B2
:104420008007E0937F07DF91CF910895EA01CE17CF
:10443000DF07E8F54A815B819E0141155105B1F71F
:10444000E901FB83EA8349915991C40FD51FEC1709
:10445000FD0761F4808191810296840F951FE90127
:1044600099838883828193819B838A83F0E0E0E053
:1044700012968D919C9113970097B9F52D913C91CF
:104480001197CD010296820F931F20917F073091E3
:1044900080072817390739F6309751F510928207AF
:1044A00010928107B0938007A0937F07BCCFD3837E
:1044B000C28340815181840F951FC817D90761F4C9
:1044C0004E5F5F4F88819981480F591F5183408308
:1044D0008A819B81938382832115310509F0B0CFB6
:1044E000F0938207E09381079ECFFD01DC01C0CFEE
:1044F00013821282D7CFB0E0A0E0E1E8F2E20C94A0
:10450000CA1D8C01009751F4CB010E9456218C01E9
:10451000C801CDB7DEB7E0E10C94E61DFC01E60F63
:10452000F71F9C0122503109E217F30708F49DC0E0
:10453000D901CD91DC911197C617D70798F0C530F6
:10454000D10530F3CE0104978617970708F3C61BF1
:10455000D70B2297C193D1936D937C93CF010E9487
:10456000F221D6CF5B01AC1ABD0A4C018C0E9D1E08
:10457000A0918107B0918207512C412CF12CE12CA4
:10458000109731F580917F079091800788159905E4
:1045900009F05CC04616570608F058C080910C011F
:1045A00090910D01009741F48DB79EB74091100195
:1045B00050911101841B950BE817F90708F055C0BD
:1045C000F0938007E0937F07F90171836083A0CFA8
:1045D0008D919C91119712966C90129713967C90E6
:1045E0001397A815B90559F56C0142E0C40ED11C0A
:1045F000CA14DB0420F1AC014A195B09DA011296F6
:10460000159780F06282738251834083D9016D9344
:104610007C93E114F10471F0D7011396FC93EE93AF
:10462000129776CF22968C0F9D1FF901918380837C
:10463000F301EFCFF0938207E093810769CF48162B
:10464000590608F42C017D01D3019ACFCB010E94B9
:1046500056217C01009749F0AE01B8010E94382331
:10466000C8010E94F221870153CF10E000E050CF33
:10467000FB01DC0102C001900D9241505040D8F77F
:064680000895F894FFCF3D
:10468600FFFFFFFF00E100000000000000008307BD
:10469600800000C1808100000000000000B804AC6A
:1046A60005F404E9043A05F8041605000000009F25
:1046B600068B04B109B00900000000FA088B04B1AA
:1046C60009B00900000000F8030D0A00322A785EDE
:1046D600322B352A782B32006E616E00696E6600C9
:0446E6006F76660085
:00000001FF
