:100000000C949D020C94C5020C94C5020C94C5027C
:100010000C94C5020C94C5020C94C5020C94C50244
:100020000C94C5020C94C5020C9492080C9401091E
:100030000C94C5020C94C5020C94C5020C94C50224
:100040000C94C5020C94C5020C94C5020C94C50214
:100050000C94C5020C94C5020C94C5020C94330B8D
:100060000C94C5020C94C5020C94C5020C94C502F4
:100070000C94C5020C94C5020C94C5020C94C502E4
:100080000C94C5020C94C5020C94C5020C94C502D4
:100090000C94C5020C94C5020C94C5020C94C502C4
:1000A0000C94C5020C94C5020C94C5024E414E49F5
:1000B0004E495459494E46CDCCCC3D0AD7233C1726
:1000C000B7D13877CC2B329595E6241FB14F0A0073
:1000D0000020410000C84200401C4620BCBE4CCA63
:1000E0001B0E5AAEC59D7400407A10F35A00A072E0
:1000F0004E18090010A5D4E80000E8764817000063
:10010000E40B54020000CA9A3B000000E1F5050030
:100110000080969800000040420F000000A0860179
:10012000000000102700000000E803000000006449
:1001300000000000000A00000000000100000000B4
:10014000002C76D888DC674F0823DFC1DFAE59E189
:10015000B1B796E5E3E453C63AE651997696E8E6F8
:10016000C28426EB898C9B62ED407C6FFCEFBC9CCB
:100170009F40F2BAA56FA5F490055A2AF75C936BDD
:100180006CF9676DC11BFCE0E40D47FEF520E6B598
:1001900000D0ED902E0300943577050080841E0872
:1001A0000000204E0A000000C80C333333330F9890
:1001B0006E12831141EF8D2114893BE65516CFFE57
:1001C000E6DB18D1844B381BF77C1D901DA4BBE4E3
:1001D00024203284725E228100C9F124ECA1E53D25
:1001E000272F0300033F0A3F163F1A0904121A255E
:1001F0001A28031E21211E0A040A040E04600404A6
:1002000004200804021E211E223F20392522212518
:100210001A07043F1725191E25190139071A251A2F
:1002200012251E1434040A111414110A04012D0697
:100230001E212D2E3E053E3F251A1E21213F211E47
:100240003F253F051E213D3F043F213F21211F3F08
:10025000043B3F203F0204023F3F02043F1E211E99
:100260003F05021E312E3F053A2619013F013F206E
:100270003F1F301F1F201C201F3B043B033C033942
:10028000273F21020408213F020102202020010211
:10029000142C383F2418182418243F1834283E05FD
:1002A00048543C3F04383D403D3F043A3F3C043C09
:1002B00004383C04381824187C241818247C3C0486
:1002C00028141F241C203C1C201C1C2038203C34DB
:1002D00008344C503C342C043B213B213B040206A7
:1002E00004000104070A0D11121416191C1D202107
:1002F00024272A2D303336393C3F42434447494C6A
:100300004F5356595C5F616366696C6E7173787C9C
:100310007F8285888A8D9093989B9EA0A2A5A7AA8C
:10032000ADAFB2B5B7BABDBFC2C5C6C8CBCCD1D4CC
:10033000D7DADDDFE1E3E6E9EEF1F4F6F9FAFD0004
:1003400000B00000A170E150964F26900F1D070CE1
:10035000009669004AE44A00484440008068100062
:100360000F99FB8F9DBDBBFB77D4D4DF1F1A1AFEFC
:100370007F5D5DFF805A0000A0A4AA0010BA34007F
:10038000FF5953F3FF9B9B9EFFB9B996FF9595D1FB
:100390009FF4940FFC295F91FF1838F8FF9294FFA7
:1003A000FF95D5F7BFB5DDD7F18F81F1F788C8F795
:1003B00079C6467909FD9B090196F8008281828001
:1003C000507162007756560076763700A2B77301F7
:1003D0000772060078275000733474007751760056
:1003E0007F55F70047711000324772007364730045
:1003F00015A2750061679400009F6060F4F2F6F248
:10040000F0F89C8E8783878E9CF8F00000FEFF0337
:1004100003030303070EFCF80000FEFF03030303BE
:1004200003070EFCF80000FFFF00000000000000C2
:10043000FFFF0000FEFF8383838383C7EE7C3800C9
:1004400000F8FC0E07030303070EFCF800003F7FD3
:10045000E0C08080C0E07F3FFFFF0101010101019A
:1004600001FFFF0000FFFF0C0C0C0C1C3E77E3C1EA
:1004700000007FFFC0C0C0C0C0E0703F1F00001F71
:100480003F70E0C0C0C0E0703F1F00007FFFC1C1EF
:10049000C1C1C1E3773E1C00001F3F70E0C0C0C077
:1004A000E0703F1F000000000001FFFF010000009E
:1004B000D5F08D14A1C881CFD9F1AF20006B656450
:1004C000373839343536313233302E2D080B0002AF
:1004D00002020100090400000102020000052400DC
:1004E000100105240101010424020605240600016F
:1004F0000705810310004009040100020A00000002
:1005000007050202400000070583024000000403C3
:10051000090412010002EF0201404123368000016C
:100520000102030141726475696E6F204C4C4300F7
:1005300041726475626F7900B00B11241FBECFEF5A
:10054000DAE0DEBFCDBF11E0A0E0B1E0ECEBFDE210
:1005500002C005900D92A235B107D9F726E0A2E5B9
:10056000B1E001C01D92A332B207E1F712E0CDE97C
:10057000D2E004C02197FE010E94D616CC39D107E3
:10058000C9F70E941D0C0C94DC160C940000CF934C
:10059000DF93FC01460F572F511D77FF02C070E01B
:1005A00060E030E1CA014134510514F080E490E08C
:1005B00068177907ECF4E038F105A0F4EB0181E06D
:1005C000C1FD84E0C0FD880FC2FD8295C87F3C9FBD
:1005D000D0011124AE0FAF5FBD4F9C91222329F0B3
:1005E000982B9C936F5F7F4FDDCF80959823F9CF39
:1005F000DF91CF91089590911C06982329F4909152
:100600001B06982381E009F480E00895E1E0F2E020
:10061000A0E0B8E000800EBC8111012C1197A0FD74
:10062000FDCF0192B9F70DB40895FC0180917401DA
:10063000882311F13FB7F89482E08093E90020917C
:10064000F200822F90E01816190614F481E090E071
:10065000882339F0289844E6409373014091F100D3
:100660004083222339F02091F200211103C02BE6B0
:100670002093E8003FBF08958FEF9FEF08952FB7B5
:10068000F89483E08093E9009091E800892F8072CC
:1006900095FF04C09091F20080E4891B2FBF08955C
:1006A00080916B0181110DC082E08093670184E02D
:1006B0008093680110926A011092690181E0809331
:1006C0006B0187E691E00895CF93DF931F92CDB73A
:1006D000DEB76983DC01ED91FC910280F381E02DAE
:1006E00041E050E0BE016F5F7F4F09950F90DF91B1
:1006F000CF91089583E08093E9008091F2008823F0
:1007000019F08AE38093E80008950E943F0390E087
:100710000895CF93DF931F92CDB7DEB7FC01848598
:10072000958597FD08C02FEF3FEF358724870F9001
:10073000DF91CF910895CE0101960E941503019794
:1007400019F4898190E0F3CF8FEF9FEFF0CF0F93F3
:100750001F93CF93DF931F92CDB7DEB78C01FC01BF
:100760008485958597FF0BC0CE0101960E941503E5
:10077000019771F4898190E0F80195878487F801E9
:10078000848595850F90DF91CF911F910F910895EA
:100790008FEF9FEFF1CFFC018485958597FD0BC00E
:1007A0009FB7F89482E08093E9008091F2009FBFA8
:1007B00090E0019608959FB7F89482E08093E90055
:1007C0008091F2009FBF90E00895409161015091A7
:1007D000620120915F013091600142175307B4F428
:1007E0009091E8009570E1F39091E80092FD19C0B6
:1007F0008093F100809161019091620101968F7365
:100800009927892B19F48EEF8093E800809161017C
:10081000909162010196909362018093610181E061
:10082000089580E00895DF92EF92FF920F931F9357
:10083000CF93DF93D82E8A01EB017B01E40EF51EE6
:10084000CE15DF0559F0D7FE12C0FE0184910E943B
:10085000E50321968111F4CF0FEF1FEFC801DF915F
:10086000CF911F910F91FF90EF90DF9008958881B5
:10087000EECF0F931F93CF93DF931F92CDB7DEB7C9
:1008800082E0898342E450E06CEC74E080E80E94EE
:1008900013040E945003DC0112960D911C91011566
:1008A000110589F0D801ED91FC910280F381E02DD2
:1008B000BE016F5F7F4FC801099597FD04C0F80125
:1008C00000851185ECCF89810F90DF91CF911F9129
:1008D0000F910895615030F02091F100FC012083C8
:1008E0000196F8CF289884E68093730108950895BF
:1008F000AF92BF92CF92DF92EF92FF920F931F932E
:10090000CF93DF936C017B018B01040F151FEB016B
:100910005E01AE18BF08C017D10759F06991D60122
:10092000ED91FC910190F081E02DC6010995892B94
:1009300079F7C501DF91CF911F910F91FF90EF9053
:10094000DF90CF90BF90AF9008953FB7F89480911B
:10095000530190915401A0915501B091560126B5D3
:10096000A89B05C02F3F19F00196A11DB11D3FBFE7
:10097000BA2FA92F982F8827BC01CD01620F711DB6
:10098000811D911D42E0660F771F881F991F4A95B0
:10099000D1F708958F929F92AF92BF92CF92DF923C
:1009A000EF92FF926B017C010E94A5044B015C0158
:1009B000C114D104E104F104B9F00E94A50468193E
:1009C00079098A099B09683E73408105910580F386
:1009D00021E0C21AD108E108F10888EE880E83E010
:1009E000981EA11CB11CE4CFFF90EF90DF90CF9038
:1009F000BF90AF909F908F9008958F929F92AF92EB
:100A0000BF92CF92DF92EF92FF920F931F93CF93FB
:100A1000DF936C017B018A0180910B01882309F42B
:100A20005CC080917401882309F457C080916601ED
:100A300080FF05C08091E00082608093E000E801C3
:100A4000B12C8AEFA82E93E0892E2AE3922E2097CC
:100A500011F4BB20D9F10E943F0381110AC0AA946E
:100A6000AA20D9F161E070E080E090E00E94CA0421
:100A7000EECF8C171D0611F00CF08C2F9FB7F89459
:100A80008092E9002091E80025FD02C09FBFDFCFE2
:100A9000282F30E0C21BD30BF701815020F0419189
:100AA0004093F100FACFE20EF31EBB2021F09092AA
:100AB000E800B12CEBCF8091E80085FDE7CF909264
:100AC000E800BB24B394209709F3F3CF5D9884E644
:100AD00080936501101611063CF081E090E0F6016C
:100AE0009383828310E000E0C801DF91CF911F91D2
:100AF0000F91FF90EF90DF90CF90BF90AF909F90BD
:100B00008F9008956F927F928F929F92AF92BF9233
:100B1000CF92DF92EF92FF920F931F93CF93DF93C9
:100B20004C017B01C22F102F98E0A92EB12C642E0E
:100B3000669466946694712CCA0187709927892BF4
:100B400079F5D40117962D913C91C7019927B901E8
:100B50000E94AE16269DF001279DF00D369DF00DEA
:100B600011248E0F9F1FD4011596ED91FC91E80F73
:100B7000F91F2081111112C0C095C223C083DF91DB
:100B8000CF911F910F91FF90EF90DF90CF90BF908A
:100B9000AF909F908F907F906F900895C22BEECF73
:100BA000D0E04770C42ED12C83E0660C771C8A9568
:100BB000E1F79E0101C0220F4A95EAF7012FA30138
:100BC000B701C4010E948205A301485F5F4FC501C0
:100BD0008C199D0902C0D595C7958A95E2F7A7CFD4
:100BE0005F926F927F928F929F92AF92BF92CF92BD
:100BF000DF92EF92FF920F931F93CF93DF93EC015D
:100C00006A30F1F48D859E859C878B878C892F8532
:100C10003889820F932F911D988B8F8781E090E008
:100C2000DF91CF911F910F91FF90EF90DF90CF90C8
:100C3000BF90AF909F908F907F906F905F9008953E
:100C4000AB84BC84693031F429E0A20EB11CBC86AF
:100C5000AB86E4CF3DEFA3163FEFB3060CF45DC0C7
:100C60008F819885A816B9060CF057C0CF84D88814
:100C70008DEFC8168FEFD8060CF44FC089859A8582
:100C8000C816D9060CF049C0603208F46FE780EE50
:100C9000860F9FE9960F9A3118F49FEFC91AD90A67
:100CA0008C3011F08B3119F42FEFC21AD20A8695CD
:100CB00034E0839FC00111249C01205C3C4F7901EA
:100CC000912C812C162F1170F701E80DF91D54900D
:100CD00011112DC0352D3F70532E3501680C791C34
:100CE0008C81882361F001E089899A89892B09F038
:100CF00000E02FE0A601B301CE010E948205098920
:100D0000252DA601B301CE010E9482058FEF881A1E
:100D1000980A94E089169104B9F68B8990E00496BC
:100D20002B853C85820F931F9C878B8777CF5294AE
:100D30008FE05822D2CF2D9A0895BC0190E080E038
:100D40000C94CA048FB18095807F669B88601C9B41
:100D500084600895480F592F511D14161506D4F5B7
:100D600080389105BCF597FF02C090E080E04138E3
:100D7000510514F040E850E0481BFB0177FD379621
:100D800033E0F595E7953A95E1F7F695FE2FEE27D6
:100D9000F795E795E80FF91FEF5FFD4F677077272D
:100DA00081E090E001C0880F6A95EAF7382F213082
:100DB00041F4415078F08191DF011197832B8C939E
:100DC000F8CF8095415030F09191DF011197982331
:100DD0009C93F8CF0895CF92DF92EF92FF920F93FA
:100DE000CF93DF936C017B01C42FD22F6034710548
:100DF00020F4202FC6010E94AA06B7016D0F711DB5
:100E0000615071096034710528F4202F4C2FC60100
:100E10000E94AA06202F4D2FB701C6010E94C702CB
:100E2000C6018C0F911D202F4D2FB7010197DF9127
:100E3000CF910F91FF90EF90DF90CF900C94C7026D
:100E40006F927F928F929F92AF92BF92CF92DF92DA
:100E5000EF92FF920F931F93CF93DF934C017B018F
:100E6000C22F102F98E0A92EB12C642E66946694A0
:100E70006694712CCA0187709927892B79F5D40162
:100E800017962D913C91C7019927B9010E94AE1682
:100E9000269DF001279DF00D369DF00D11248E0F3B
:100EA0009F1FD4011596ED91FC91E80FF91F208149
:100EB000111112C0C095C223C083DF91CF911F9141
:100EC0000F91FF90EF90DF90CF90BF90AF909F90E9
:100ED0008F907F906F900895C22BEECFD0E0477037
:100EE000C42ED12C83E0660C771C8A95E1F79E0115
:100EF00001C0220F4A95EAF7012FA301B701C401EF
:100F00000E942007A301485F5F4FC5018C199D090E
:100F100002C0D595C7958A95E2F7A7CF4F925F9209
:100F20006F927F928F929F92AF92BF92CF92DF92F9
:100F3000EF92FF920F931F93CF93DF93EC016A30F0
:100F4000F9F48D859E859C878B878C892F853889C0
:100F5000820F932F911D988B8F8781E090E0DF9116
:100F6000CF911F910F91FF90EF90DF90CF90BF90A6
:100F7000AF909F908F907F906F905F904F9008956B
:100F8000EB84FC84693031F448E0E40EF11CFC860B
:100F9000EB86E3CF603231F48B8990E00296E80E65
:100FA000F91EF5CF162F8F819885E816F9060CF0FB
:100FB0004DC08F8498885BEF85165FEF95060CF423
:100FC00045C089859A85881699060CF03FC080EE49
:100FD000860F8F3508F038C0862F90E09C01205492
:100FE0003D4FF901A490B12CA5014F515E4F5A011C
:100FF000FC01EF53FD4F5490F9012491521AD12C6A
:10100000C12CC51418F5F501EC0DFD1D44903701F8
:101010006C0C7D1C8C81882361F001E089899A89A0
:10102000892B09F000E02FEFA401B301CE010E944B
:1010300020070989242DA401B301CE010E942007B5
:10104000FFEFCF1ADF0ADDCF8FE3C7CF612F70E04C
:10105000FB01EF53FD4F849160547D4FFB01649180
:10106000E82FE61B8B89E80FFF27FF1F8B859C85E8
:10107000E80FF91FFC87EB8770CF089590E080E0C0
:101080000895FC0101900020E9F73197AF01481B5A
:10109000590BBC0181E096E00C9478048F929F92EA
:1010A000AF92BF920F931F93CF93DF93CDB7DEB76D
:1010B000A1970FB6F894DEBF0FBECDBF19A2423084
:1010C00008F44AE08E010F5D1F4F842E912CB12C45
:1010D000A12CA50194010E94D715E62FB901CA01E0
:1010E000EA30F4F4E05DD801EE938D01232B242B3C
:1010F000252B79F790E080E0109719F0CD010E9440
:101100004108A1960FB6F894DEBF0FBECDBFDF91A8
:10111000CF911F910F91BF90AF909F908F900895A6
:10112000E95CE1CF1F920F920FB60F9211248F93BB
:101130009F938091E1009091E100937F9093E10073
:1011400083FF0FC01092E90091E09093EB001092A2
:10115000EC0092E39093ED001092740198E090936C
:10116000F00082FF22C093E09093E9009091F2009A
:10117000992319F09AE39093E800909165019923DF
:1011800041F090916501915090936501911101C0DA
:101190005D9A90917301992341F090917301915060
:1011A00090937301911101C0289A84FF18C0809117
:1011B000E2008E7E81608093E2008091E1008F7E6C
:1011C0008093E100809166018E7E8061809366014C
:1011D0009F918F910F900FBE0F901F90189580FFD9
:1011E000F7CF8091E2008E7E80618093E200809153
:1011F000E1008E7E8093E100809166018E7E8160A9
:10120000E5CF1F920F920FB60F921124CF92DF926B
:10121000EF92FF920F931F932F933F934F935F9300
:101220006F937F938F939F93AF93BF93EF93FF93AE
:10123000CF93DF93CDB7DEB76C97DEBFCDBF1092F3
:10124000E9008091E80083FF25C068E0CE01459663
:101250000E946A0482EF8093E8008D8987FF39C07D
:101260009091E80090FFFCCF982F907609F034C160
:101270009E894F89588D2F89F88C911131C0803803
:1012800061F5809164018093F1001092F1008EEF7E
:101290008093E8006C960FB6F894DEBF0FBECDBF0A
:1012A000DF91CF91FF91EF91BF91AF919F918F917E
:1012B0007F916F915F914F913F912F911F910F916E
:1012C000FF90EF90DF90CF900F900FBE0F901F9088
:1012D00018959EEF9093E800C7CF1092F100D5CFFC
:1012E000913059F48111D3CF4130510581F680916D
:1012F00064018D7F80936401CACF933049F48111DA
:10130000C6CF4130510519F6809164018260F2CF59
:10131000953041F48091E80080FFFCCF2068209355
:10132000E300B5CF963009F0A9C00B8D1C8D22E0EB
:101330001092E9001092620110926101F2122EC027
:101340001092600110925F010E9439041F8299E09F
:101350009983FA8291E09E8390EA98879AEF998721
:101360002091610130916201275F3F4F3C832B83C5
:101370008D831092E9001092620110926101109326
:10138000600100935F0149E050E0BE016F5F7F4F55
:1013900080E00E9413040E94390479CF1093600109
:1013A00000935F010E945003DC0112960D911C9185
:1013B0000115110509F451C1D801ED91FC9104808A
:1013C000F581E02DBE016B5E7F4FC8010995009746
:1013D00009F03EC1F80100851185EACFF3E0FF1264
:1013E0000EC08F89882309F440C0823061F440E840
:1013F00067E080E395E00E947D0B811148CF81E298
:101400008093EB0047CF813029F440E86BE084E221
:1014100095E0F1CF833099F70E945003DC011296DA
:10142000ED90FC908E010F5F1F4F6801E114F104F5
:1014300079F0D701ED91FC910680F781E02DB8019C
:10144000C7010995080F111DF701E084F184EECF63
:10145000D8011C92F60101900020E9F73197BF01F5
:101460006C197D0940E0C601C6CF6EE075E0FB0156
:10147000449150E080E80E94130409CF973009F4AA
:10148000BECF983021F481E08093F10000CF9930F5
:1014900009F0FDCE837009F0B2CFEDE0F1E081E01C
:1014A00031E096E32191222371F08093E90030939B
:1014B000EB00DF0111972C912093EC009093ED004D
:1014C0008F5F873079F78EE78093EA001092EA0009
:1014D0008F8980937401DBCE8B8D9C8D1092E900F7
:1014E00010926201109261019093600180935F01FC
:1014F000898D811192C08E899D89913A49F48132FA
:1015000009F07DCF47E050E064E071E080E0B3CFC8
:10151000913209F074CF833269F48F89988DB0E0ED
:10152000A0E08093000190930101A0930201B09389
:101530000301ADCE803269F48091E80082FFFCCFD8
:1015400067E084E091E00E946A048BEF8093E800FA
:101550009ECE823209F09BCE8F8980930B01EEEFF5
:10156000FFE7859194918B3F9C4D51F1E0E0F8E0CD
:101570008091040190910501A0910601B0910701AD
:10158000803B9440A105B105F1F480910B0180FDF1
:101590001AC0EE3F8AE0F80789F587E797E791835D
:1015A0008083809160008093630188E19BE00FB6A7
:1015B000F894A895809360000FBE9093600067CE6A
:1015C000EEEFFAE0D5CF808191818737974709F018
:1015D0005ECEA895809160008861809360008091C4
:1015E000630180936000EE3F2AE0F20789F080916A
:1015F000FE0A9091FF0A9183808349CE8081918178
:101600008737980751F29093FF0A8093FE0AC5CF5F
:101610001092FF0A1092FE0A3ACE0E945003DC019B
:1016200012960D911C910115110509F4E8CED8010F
:10163000ED91FC910190F081E02DBE016B5E7F4F3A
:10164000C8010995811123CEF80100851185EBCFE2
:10165000181619060CF41BCED2CEF1E0FF12BECE46
:1016600062E175E004CF1F920F920FB60F92112422
:101670002F933F938F939F93AF93BF938091570185
:1016800090915801A0915901B0915A0130915201A5
:1016900023E0230F2D3758F50196A11DB11D20938E
:1016A00052018093570190935801A0935901B09330
:1016B0005A018091530190915401A0915501B0912C
:1016C00056010196A11DB11D8093530190935401C1
:1016D000A0935501B0935601BF91AF919F918F9107
:1016E0003F912F910F900FBE0F901F90189526E8F5
:1016F000230F0296A11DB11DD2CFEF92FF920F933F
:101700001F93CF93DF93F82E192FE62E042F81E03D
:10171000860F880F0E94E50383E00E94E503CF2D2A
:10172000D12FEC0EFD2EF11CCE15DF05B9F007FF11
:1017300013C0FE0184910E94E503182F80E00E94EF
:10174000E503812321968111EFCFDF91CF911F9186
:101750000F91FF90EF9008958881EDCF81E0F5CF54
:10176000CF93DF93E5E7F1E01382128288EE93E0F6
:10177000A0E0B0E084839583A683B78387E191E0FE
:10178000918380838FEF9FEF95878487E6E1F6E072
:101790001582168280E1878314821382118681E488
:1017A00091E091838083E1E0F6E01382128285E389
:1017B00091E091838083A1E0B2E0B683A58360E8E5
:1017C00070E07087678340E450E05287418787E08C
:1017D000848B21E0238B16861586108A1786148643
:1017E000138681E090E0928B818B1482ECEEF1E025
:1017F00013821282C9E2D1E0D183C083B683A5836C
:10180000708767835287418735E0348B238B168638
:101810001586108A178614861386928B818B148204
:10182000E5ECF1E08CE080838183128283E085A384
:1018300086E086A3DF91CF910895789484B5826085
:1018400084BD84B5816084BD85B5826085BD85B564
:10185000816085BD80916E00816080936E001092E2
:10186000810080918100826080938100809181005D
:1018700081608093810080918000816080938000EE
:1018800080919100826080939100809191008160AD
:10189000809391008091900081608093900080916E
:1018A000C10084608093C1008091C10082608093F8
:1018B000C1008091C10081608093C1008091C3000C
:1018C00081608093C3008091C00082608093C000DB
:1018D0008091C20081608093C20080917A00846010
:1018E00080937A0080917A00826080937A00809160
:1018F0007A00816080937A0080917A00806880937A
:101900007A00109274011092640110926601809125
:10191000D70081608093D70080EA8093D80089B592
:10192000806189BD89B5826089BD09B400FEFDCFA3
:1019300061E070E080E090E00E94CA048091D800ED
:101940008F7C80618093D8008091E000807F8093BD
:10195000E0008091E1008E7E8093E1008DE0809335
:10196000E200559A209A81EC80937C0085B1806FCB
:1019700085B984B1877E84B984B1876E84B95E9A53
:101980005F988AB1806D8AB9769A6E9881B3806FBC
:1019900081BB899880B38D7080BB80E58CBD81E070
:1019A0008DBD85E090E00E949D065F9A85E090E005
:1019B0000E949D065E985C98E0EBF4E08DEB94E06D
:1019C00024912EBD00000DB407FEFDCF31968E1779
:1019D0009F07B1F75C9A81E880936400809165006D
:1019E00081608093650080E00E9406030E94A20649
:1019F00087FF15C05C9885EA8EBD00000DB407FE18
:101A0000FDCF5C9A2E982F982D988091640080626B
:101A10008093640081E083BF889513BEFCCF0E9451
:101A2000A20682FF48C02D980E94A20684788438BE
:101A3000E1F40E949B0688EC90E00E949D062F989E
:101A400082E090E00E947F158F3F29F06FEF82E0E7
:101A500090E00E94871584EF91E00E949D062F9AE6
:101A60000E94A20684788438D9F30E94A206847169
:101A70008431E1F40E949B0688EC90E00E949D0670
:101A80002E9882E090E00E947F15882329F060E084
:101A900082E090E00E94871584EF91E00E949D060D
:101AA0002E9A0E94A20684718431D9F388EC90E0CA
:101AB0000E949D06B4CF0E949B0682E090E00E94A7
:101AC0007F15882309F469C03E9A3F9A81E090E02F
:101AD0000E947F158470982E81E090E00E947F150F
:101AE00081FF11C091102E98C0EFDFEF08E010E0E9
:101AF0006CE6E62EF12C0E94A20686FF51C02E9ABB
:101B00002F9A0E949B0682E390E00E949D060E940D
:101B1000A2068111F8CF09EC11E023E040E061E773
:101B20007DE287EA94E40E948E1081E021E0280F94
:101B3000E82FF0E0EB53FE4F94819111C1C08093E8
:101B4000E9019924939481E0A82E82E0B82ECAE09E
:101B5000DBEA90E0692E90E0792E11E08FB7F894DF
:101B600040915701509158016091590170915A016B
:101B70008FBF80911E06F42FF81B8F2F00911F0638
:101B8000002309F49FC0F093200610921F066114F1
:101B9000710421F30E940000E1CF3E983F9896CF58
:101BA000992029F0C430D10511F42E9A2F9881E0A4
:101BB0000E9406039E01D7FF04C0222733272C1B57
:101BC0003D0B27703327CE01D7FD079653E095953F
:101BD00087955A95E1F7D7FF05C00197A801421BE9
:101BE000530B9A01BC017695762F662777956795FA
:101BF0006F5F7D4FB0E0A0E02801421A530A8F3F8B
:101C00005FEF95070CF43CC048E550E0FD01E85A51
:101C1000FB4F5F013B01F0E86F0E711C8F3F98078F
:101C2000A1F0F501E41BF50BE4916701C41AD50A94
:101C3000C60ED71EF0E01F01022E01C0220C0A942E
:101C4000EAF7F60130802328208221153105A9F01A
:101C5000F501E41BF50BE4916701C41AD50AC60C23
:101C6000D71CF0E01F01042C02C0359427940A947D
:101C7000E2F7F6013080232820824150510971F6A5
:101C80000196A85ABF4F60587F4FA03BB10509F09D
:101C9000B6CF80E00E9406038FE090E00E949D0690
:101CA0002196C931D10509F026CF992011F02F9A3C
:101CB0002D9880E991E00E949D060E949B0623CF0B
:101CC000822F34CF90911D06F91740F48F5F89174A
:101CD00008F05DCF93BE889513BE59CF10931F06B1
:101CE00040931E068091190690911A0601969093D2
:101CF0001A068093190680911B0680931C060E9489
:101D0000A20680931B06F50101110FEF0024019339
:101D10000193019301930394D1F78091C701882324
:101D200009F4BAC010920F0610920E0610920D061A
:101D300010920C061092110610921006C0905B01D2
:101D4000D0905C01E0905D01F0905E01A7019601EA
:101D5000C701B6010E94A916882361F083E491E0CF
:101D60000E9441088FE491E00E94410880E00E94B7
:101D700006030DCF16012701E89457F82FEF3FEF28
:101D80004FE75FE7C201B1010E94A91681110DC0A2
:101D90002FEF3FEF4FE75FE7C201B1010E945814F8
:101DA00018161CF487E491E0DBCF2FEF3FEF4FE7ED
:101DB0005FE4C701B6010E94A41618161CF48BE458
:101DC00091E0CECF2FEF3FEF4FE75FECC701B601B9
:101DD0000E94581487FDF3CF20E030E0A901C7012D
:101DE000B6010E94581487FF09C06DE281E096E0B9
:101DF0000E948E07F7FAF094F7F8F0942AE037ED96
:101E000043EA5BE3C701B6010E9409161B012C01DE
:101E10000E9475166B017C010E945D149B01AC0150
:101E2000C201B1010E9408161B012C014AE0C70142
:101E3000B6010E944E086EE281E096E00E948E0795
:101E400020E030E040E251E4C201B1010E94BE1442
:101E50001B012C010E9475166B01F12CE12C4AE04C
:101E6000C701B6010E944E08C701B6010E945D1469
:101E70009B01AC01C201B1010E94081620E030E0D4
:101E800040E251E40E94BE140E94751690E080E08A
:101E90004AE00E944E0866CF80E80E94FB02882339
:101EA00049F08091C8019091EA01891718F0891BC7
:101EB0008093C80180E10E94FB02882339F0809161
:101EC000C8019091EA01890F8093C80180E20E94C5
:101ED000FB02882339F08091C801882319F08150D2
:101EE0008093C80180E40E94FB02882329F080913E
:101EF000C8018F5F8093C80188E00E94FB0288239D
:101F000081F0E091C801A091E901E13009F451C0EC
:101F100008F447C0E23009F053C0A1113BC0109251
:101F2000E90184E00E94FB02882359F0E091E90175
:101F3000EE2339F0E150E093E901F0E0EB53FE4F7E
:101F400014828091C701882361F089EC91E00E949E
:101F5000AC1060935B0170935C0180935D01909382
:101F60005E018091C701811101CF00E06091C6013F
:101F700070E08091C50190E02091EA01201770F196
:101F800021E043E30C9F800D911D11240E94C702A4
:101F90000F5FECCFA150EA2FF0E0EB53FE4F14821D
:101FA000BCCF1093C701B0E0AB53BE4F14961C9248
:101FB000B8CFAA2309F4B5CFA150A093E901F3CF7C
:101FC000F0E0E354FB4FE49181E08A0F8093E90154
:101FD000B0E0AB53BE4F1496EC93A3CF00E06091FA
:101FE000C60170E08091EB01801780F00C9F600DBE
:101FF000711D1124603471053CF48091C50121E00C
:102000004FE190E00E94AA060F5FE9CF00E08091C7
:10201000EB010817A0F50C9F70011124D12C409101
:10202000EA012091C60130E08091C50190E0D4160C
:1020300020F5DC9E800D911D1124029690930F06D1
:1020400080930E0690930D0680930C062E0D3F1D77
:102050002E5F3F4F3093110620931006ED2DF0E0D8
:10206000049FE00DF11D1124E354FB4F649181E0C6
:1020700096E00E948E07D394D2CF0F5FC8CF909185
:10208000C8019D9F812D112486956091C60170E045
:102090008C9F600D711D1124282F220F820F981B19
:1020A000E091C501F0E000E02BE04BE0DF019C9FF8
:1020B000A00DB11D1124CD010E94EB069091C80125
:1020C0009D9F812D112486956091C60170E08C9FA3
:1020D000600D711D112461507109282F220F820F8C
:1020E000292F281B8091C50190E02C9F800D911D08
:1020F000112401E02DE04DE001970E94EB061092C3
:102100000F0610920E0610920D0610920C061092F9
:1021100011061092100689EC91E026CEEF920F93F3
:102120001F93CF93DF93E80134E047FD34E1042EA1
:10213000000C550B57FF03C0519541955109E32EF3
:10214000022F242FAE010E94B010CE01DF91CF915B
:102150001F910F91EF900895662777270C940F1227
:10216000A9E0B0E0E6EBF0E10C94A6156A01F22ECE
:10217000B02E102FFBE3AF2EA01608F41BE31F5F59
:10218000012F27E0AE014F5F5F4F0E945F13BC013C
:102190008981982F9970913009F43FC09BE2E1FC4E
:1021A00004C09E2D9170E0FC3AC05E2D5071E82F66
:1021B000E87083FF46C084E0911101C083E0EF2DF9
:1021C000E81B8F1508F0E0E0D6018E2F20E25523A2
:1021D00051F1992329F0D6019C93C60101966C0117
:1021E00096012D5F3F4FE2FE24C08EE4D6018C9312
:1021F00091E411969C93119712968C93D9018E2F8E
:1022000090E281111BC0E20FF32FF11D10828EEFBF
:102210009FEF2996ECE00C94C2159DE2C6CF90E2A8
:10222000C4CF2D9381508111FCCFCE0ED11CE0E0A4
:10223000D0CF8EE6D6018C9391E6DBCF9D93815073
:10224000E0CF482F447082FF3DC084E0911101C06F
:1022500083E08F1510F4EF2DE81BD6018E2F20E2BE
:10226000552309F1992329F0D6019C93C6010196C3
:102270006C0196012D5F3F4FE2FE1BC089E4D60141
:102280008C938EE411968C93119786E412968C931E
:10229000D9018E2F90E2882309F4B5CF9D93815008
:1022A000FACF2D9381508111FCCFCE0ED11CE0E0EE
:1022B000D9CF89E6D6018C938EE611968C9311972F
:1022C00086E6E4CF9B0177FF02C030E020E0A1E08A
:1022D000B0E0911102C0B0E0A0E0F9013196AE0F7C
:1022E000BF1F8B2C912CBB2009F461C05401EFEF70
:1022F000AE1ABE0AAA0DBB1DFA161B0619F014F081
:102300004F2D4A1B511188C0E3FC59C07601A42F00
:10231000B0E2A1114FC0C40ED11C992309F45BC0D7
:1023200040E0D6011196F60190836D01552309F422
:1023300048C0012F060F9A81582F507184FF03C0A7
:10234000913309F4015010160CF047C0093008F021
:1023500008E0EEE2FE2E5B01A01AB108850191941F
:10236000819491082F3F320729F4D601FC92F6019F
:1023700031966F016217730794F1021713077CF50A
:10238000DB01A21BB30BAA24A394B12CAC0EBD1E7F
:10239000AA0DBB1D11968C9121503109D6011196C1
:1023A00028153905F4F0F60180836D01DBCFB12CDF
:1023B000A12CA0CFF701B1937F01A150AACF911119
:1023C000B0CFD601942F50E302C05D93915091118C
:1023D000FCCFC40ED11C40E0ACCF01E0BACF80E30B
:1023E000DBCF6217730731F4963388F4953311F419
:1023F000552369F0F6018083FD01842F90E281115D
:1024000008C0A40FB11D1C9290E080E002CF81E3D0
:10241000F1CF91938150F3CF911183CF8ACFB0E068
:10242000A0E0E5E1F2E10C94A6155C017B016115E9
:10243000710519F0DB018D939C9385010F5F1F4F90
:10244000F501D0818D2F90E00E9437146C01892B0B
:10245000B9F5DD32B9F50F5F1F4FD5011196DC914B
:10246000C1E05801F1E0AF1AB10843E050E064EB7D
:1024700070E0C5010E944014892B69F5680182E073
:10248000C80ED11C45E050E06FEA70E0C6010E9422
:102490004014892B21F4680197E0C90ED11CE11486
:1024A000F10419F0D701CD92DC9260E070E080E891
:1024B0009FEFC111FFC060E070E080E89FE7FAC0C5
:1024C0005801BBCFDB3229F485010E5F1F4FF501A8
:1024D000D181C0E0C6CF43E050E06CEA70E0C501B6
:1024E0000E944014892BE9F0F80110E000E020E0A0
:1024F00030E0A9015F01B0ED8B2E8D0E89E08815CB
:10250000C8F19C2E689491F88C2F8870C2FF16C079
:10251000811102C00F5F1F4F3196D501DC91C92D8B
:10252000E9CFE114F10429F00E5F1F4FF701118389
:10253000008360E070E080EC9FE7BCC0882311F06E
:1025400001501109A5E0B0E00E9495159B01AC0176
:10255000220F331F441F551F280D311D411D511DD2
:10256000283999E93907490799E15907A8F2C6605E
:102570009C2ED2CFAEEF8A1206C0C3FD3CC09C2E6B
:10258000689493F8C9CFDF7DD534A9F580818D3269
:1025900039F4C061DF011296818162E070E006C00B
:1025A000DF018B32C1F3119661E070E080535D0171
:1025B000A61AB70A8A30F8F4E0E8CE16ECE0DE0698
:1025C0005CF4B601660F771F660F771FC60ED71E25
:1025D000CC0CDD1CC80ED11C5D01FFEFAF1ABF0A89
:1025E0008C9180538A30A8F1C4FF03C0D194C19468
:1025F000D1080C0D1D1DC1FF09C0E114F10431F01B
:1026000081E0A81AB108D701AD92BC92CA01B90104
:102610000E945D14C370C33009F490584B015C01F3
:1026200020E030E0A9010E945814882309F440C03A
:10263000C3EED0E017FF05C0119501951109CBEC51
:10264000D0E06E01B8E1CB1AD10880E2E82EF12C7F
:102650000FC0D501B1CFFE0125913591459154911F
:102660000E191F09C501B4010E94BE144B015C0183
:10267000D501C4010E151F0574F72497F594E7944E
:10268000CC16DD06A9F78A2F880F8B2F881F8F3F66
:1026900049F020E030E0A901C501B4010E945814BE
:1026A000811106C082E290E0909322068093210679
:1026B000C501B401CDB7DEB7ECE00C94C2152830EB
:1026C00008F027E03327DA01990F311D87FD91606B
:1026D00000966105710539F432602E5F3D9330E359
:1026E0002A95E1F708959F3F30F080387105610524
:1026F00009F03C5F3C5F3D93913008F08068911D8C
:10270000DF93CF931F930F93FF92EF92192F987F30
:102710009695E92F96959695E90FFF27EF5BFE4F6B
:1027200099273327EE24FF24A701E7010590089499
:10273000079428F4360FE71EF81E491F511D660F37
:10274000771F881F991F0694A1F70590079428F416
:10275000E70EF81E491F561FC11D770F881F991FCE
:10276000661F0694A1F70590079428F4F80E491FF8
:10277000561FC71FD11D880F991F661F771F06940C
:10278000A1F70590079420F4490F561FC71FD81FC3
:10279000990F661F771F881F0694A9F784911095DB
:1027A000177041F0D695C79557954795F794E794DC
:1027B0001A95C1F7E7EEF0E0689415901591359100
:1027C0006591959105907FE27395E118F10A430BAD
:1027D000560BC90BD009C0F7E10CF11E431F561F61
:1027E000C91FD01D7EF4703311F48A95E6CFE894AA
:1027F000015030F0080F0AF40027021708F4202FC8
:102800002395022F7A3328F079E37D932A95E9F70F
:1028100010C07D932A9589F606949795679537950C
:1028200017951794E118F10A430B560BC90BD00901
:1028300098F023957E9173957A3308F070E37C933A
:102840002013B8F77E9170617D9330F0839571E32A
:102850007D9370E32A95E1F71124EF90FF900F919B
:102860001F91CF91DF91992787FD90950895911140
:102870000C942B15803219F089508550C8F70895B3
:10288000FB01DC014150504088F08D9181341CF0F7
:102890008B350CF4805E659161341CF06B350CF463
:1028A000605E861B611171F3990B0895881BFCCF44
:1028B0000E949A1408F481E00895E89409C097FBF7
:1028C0003EF490958095709561957F4F8F4F9F4F07
:1028D0009923A9F0F92F96E9BB279395F69587954B
:1028E00077956795B795F111F8CFFAF4BB0F11F40E
:1028F00060FF1BC06F5F7F4F8F4F9F4F16C08823B5
:1029000011F096E911C0772321F09EE8872F762FEA
:1029100005C0662371F096E8862F70E060E02AF02B
:102920009A95660F771F881FDAF7880F9695879517
:1029300097F90895990F0008550FAA0BE0E8FEEFEC
:1029400016161706E807F907C0F012161306E40773
:10295000F50798F0621B730B840B950B39F40A266C
:1029600061F0232B242B252B21F408950A2609F44A
:10297000A140A6958FEF811D811D08950E94D1145D
:102980000C9445150E94371538F00E943E1520F032
:10299000952311F00C942E150C94341511240C94DD
:1029A00079150E94561570F3959FC1F3950F50E06D
:1029B000551F629FF001729FBB27F00DB11D639FF1
:1029C000AA27F00DB11DAA1F649F6627B00DA11D97
:1029D000661F829F2227B00DA11D621F739FB00D3D
:1029E000A11D621F839FA00D611D221F749F3327AD
:1029F000A00D611D231F849F600D211D822F762F46
:102A00006A2F11249F5750409AF0F1F088234AF022
:102A1000EE0FFF1FBB1F661F771F881F915050408E
:102A2000A9F79E3F510580F00C942E150C94791552
:102A30005F3FE4F3983ED4F3869577956795B79515
:102A4000F795E7959F5FC1F7FE2B880F911D96952F
:102A5000879597F9089599278827089597F99F678B
:102A600080E870E060E008959FEF80EC0895002416
:102A70000A941616170618060906089500240A94E3
:102A800012161306140605060895092E0394000C69
:102A900011F4882352F0BB0F40F4BF2B11F460FFF8
:102AA00004C06F5F7F4F8F4F9F4F089557FD905821
:102AB000440F551F59F05F3F71F04795880F97FB02
:102AC000991F61F09F3F79F08795089512161306BC
:102AD0001406551FF2CF4695F1DF08C016161706EB
:102AE0001806991FF1CF8695710561050894089520
:102AF000E894BB2766277727CB0197F90895F999C2
:102B0000FECF92BD81BDF89A992780B50895262FF2
:102B1000F999FECF1FBA92BD81BD20BD0FB6F894C2
:102B2000FA9AF99A0FBE019608950E94F915A59F89
:102B3000900DB49F900DA49F800D911D11240895B8
:102B40002F923F924F925F926F927F928F929F92BD
:102B5000AF92BF92CF92DF92EF92FF920F931F93AB
:102B6000CF93DF93CDB7DEB7CA1BDB0B0FB6F8945C
:102B7000DEBF0FBECDBF09942A88398848885F849C
:102B80006E847D848C849B84AA84B984C884DF800D
:102B9000EE80FD800C811B81AA81B981CE0FD11DF1
:102BA0000FB6F894DEBF0FBECDBFED010895A1E2D0
:102BB0001A2EAA1BBB1BFD010DC0AA1FBB1FEE1FB7
:102BC000FF1FA217B307E407F50720F0A21BB30B02
:102BD000E40BF50B661F771F881F991F1A9469F77E
:102BE00060957095809590959B01AC01BD01CF01DA
:102BF0000895A29FB001B39FC001A39F700D811DD6
:102C00001124911DB29F700D811D1124911D0895F5
:102C10005058BB27AA270E9420160C9445150E94E5
:102C2000371538F00E943E1520F039F49F3F19F413
:102C300026F40C9434150EF4E095E7FB0C942E1555
:102C4000E92F0E94561558F3BA17620773078407D5
:102C5000950720F079F4A6F50C9478150EF4E0951C
:102C60000B2EBA2FA02D0B01B90190010C01CA0146
:102C7000A0011124FF27591B99F0593F50F4503EF1
:102C800068F11A16F040A22F232F342F4427585FE3
:102C9000F3CF469537952795A795F0405395C9F7FB
:102CA0007EF41F16BA0B620B730B840BBAF09150B3
:102CB000A1F0FF0FBB1F661F771F881FC2F70EC052
:102CC000BA0F621F731F841F48F487957795679525
:102CD000B795F7959E3F08F0B0CF9395880F08F011
:102CE0009927EE0F9795879508950E945E1588F0B5
:102CF0009F5798F0B92F9927B751B0F0E1F0660FC0
:102D0000771F881F991F1AF0BA95C9F714C0B13000
:102D100091F00E947815B1E008950C947815672F12
:102D2000782F8827B85F39F0B93FCCF3869577952F
:102D30006795B395D9F73EF4909580957095619518
:102D40007F4F8F4F9F4F08950E949A1408F48FEF82
:102D500008950E949A14880B990B089597FB072EEB
:102D600016F4009407D077FD09D00E94C21607FC24
:102D700005D03EF4909581959F4F0895709561958B
:102D80007F4F0895AA1BBB1B51E107C0AA1FBB1FA1
:102D9000A617B70710F0A61BB70B881F991F5A95E7
:102DA000A9F780959095BC01CD010895EE0FFF1F06
:0C2DB0000590F491E02D0994F894FFCFF9
:102DBC00FFFFFFFF00E100000000000000C1808168
:102DCC00000000000000006403FD0485037A03CBBF
:102DDC00038903A70300000000F00578043E083DBA
:102DEC0008000000008E0778043E083D0800000033
:102DFC000077046E616E00696E66006F7666000D7A
:022E0C000A00BA
:00000001FF
